:100000006F10C03B00000000100800002208000034
:1000100000000000000000000000000000000000E0
:1000200000000000000000000000000000000000D0
:100030004208000000000000BA13000000000000A9
:10004000BA130000BA130000BA130000BA1300007C
:10005000BA130000BA130000BA130000BA1300006C
:10006000BA130000BA130000BA130000BA1300005C
:10007000BA130000BA130000BA130000BA1300004C
:10008000BA130000BA130000BA130000BA1300003C
:10009000BA130000BA130000BA13000000000000F9
:0C00A000730050107D157DFD8280000073
:1000AC00511126C022C206C4828282441244A2404C
:1000BC00310182802A86014593F6150091C2329552
:1000CC0085810606F5F9828000000000634E05026A
:1000DC0063C305042E86AA857D5515C285466378B3
:1000EC00B6006356C00006068606E36CB6FE0145F4
:1000FC0063E4C500918D558D85820582F5FA828069
:10010C008682C93F2E8582823305A04063D70500C5
:10011C00B305B040C1B7B305B0408682653F330527
:10012C00A0408282868263C70500634905005D3763
:10013C002E858282B305B040E35B05FE3305A040FB
:10014C00513F3305B04082820000372702401C4BE0
:10015C0093E707081CCB8280B16793870735B726D6
:10016C000240D846058B11C799E315458280FD17CF
:10017C00CDBF154591C301458280C1676976814623
:10018C00FD17050613F7F60F6364B7003E858280F2
:10019C003307D5001823B98F214713F31700858334
:1001AC0063050300B18FC207C1837D171377F70F67
:1001BC006DF78506C1BFB7270240984B01451377F1
:1001CC00070811CF3707674513073712D8C337977E
:1001DC00EFCD1307B79AD8C3884B1D810589828050
:1001EC00EFF21FEC7111AA842E84F1370DE9AD37B3
:1001FC0009C52AC0993F02451DA0B7270240984B5C
:10020C001367170098CB82A0813FB7270240984B09
:10021C00799B98CB9E20E30EF4FC053F1145110110
:10022C0069B5930785009306F00F1305A53F63E4AA
:10023C00A7000145828098231377F70FE30BD7FEB5
:10024C006316B70081C51CC2054582809907C5B7E6
:10025C001307850081471305A53F1306F00F636450
:10026C00A7003E858280142393F6F60FE38BC6FE1F
:10027C0081C6850793F7F70F1907D5B719C97C21E4
:10028C0089CB2320050023220500232405002316F7
:10029C000500828051C9EFF2BFE07C212A847111E4
:1002AC00194589CB0440013F11E57D3511C52AC0A4
:1002BC00693D02451101D5BBB7270240984B136726
:1002CC00270098CBC4CB984B1367070498CB6935A0
:1002DC00B7270240984B759B98CB9840FD57630508
:1002EC00F700A5350945F9B72AC08535024579F1DE
:1002FC000840956593855504E5354DFD084091659D
:10030C00938555540905E93D55F50840854511057A
:10031C00C13D4DF1084081451905D93541FD2316E4
:10032C000400A303040079B71945828019E12D4517
:10033C008280EFF2FFD67C212A84AE8491C33D3FAC
:10034C0093F7F43F2D459DE7C167938707025CC087
:10035C0004C0232404009840B757454523160400D5
:10036C009387570401456307F7002285253719C188
:10037C00230304001DBB31C57821AD4721C739C209
:10038C00EFF21FD20841511132843000AE84513D3E
:10039C009D470DC5224785468D453E2348003AC0F2
:1003AC00C207C1831EA0A1835C834482D482F13333
:1003BC00024781475A236303E500A1473E8531017B
:1003CC00EDB1AD473E858280AA8709C978211945D0
:1003DC0019C7F83301450507F8B3828019458280A7
:1003EC0039C97821994729CBA947B9C5EFF25FCB19
:1003FC002A840841411132C22EC0993D5E2042052B
:10040C004181637DF5001C409306F00F93848700B7
:10041C009387A73F63EBF400A54729A022856D378E
:10042C00A54775D13E85410149B190206388C6002E
:10043C0090309904C5B799473E85828082478D4597
:10044C0068005C868547DC869247A1835C873533E0
:10045C0082472AC4268593E507105933AA8779F178
:10046C00924513852400AD3BAA874DFDA24513850B
:10047C004400BD33AA875DF55A2405075AA437F703
:10048C0000E0184718C479BFB707002083A687047B
:10049C001306F00F8147138786009386A63F636788
:1004AC00D70061551D8D1375F50F82800C23E30A5F
:1004BC00B6FE1385670093170501C1831907C5B7ED
:1004CC00EFF21FBEB745000837050020938505C025
:1004DC0013058504A13DD1BEEFF29FBC2E86AA85E3
:1004EC003705002013058504E53DC1B6EFF25FBB6F
:1004FC007111AA8537050020130621001305850408
:10050C009D3D01E5288111014DB62A84AA85372528
:10051C0000001305C526EF1070497D141374F40FF9
:10052C00A94763EF87008967938707240A043E94E1
:10053C001C408287372500001305C528EF10104793
:10054C002945EF10904D7D557DBF372500001305D3
:10055C00852AEDB7372500001305C52BC5B7372500
:10056C0000001305052DD9BF372500001305052FF5
:10057C00F1B73725000013058530C9B737250000C2
:10058C001305053265BF37250000130585337DB78C
:10059C00372500001305053555B737250000130521
:1005AC00C53669BF372500001305053841BFEFF28A
:1005BC003FAF2A840146894537150140EF00507939
:1005CC002285EF10404AD5B4B7F700E0D843799BA9
:1005DC00D8C3379798001307F76798CB23A4070065
:1005EC009847E37FE5FE23A407001307703E98CBE2
:1005FC008280EFF2FFAA7111AE8409E52E85453F8A
:10060C00110165B4AA8537450F0013050524D934AB
:10061C0093975400858F8A07A697AA8513541500C3
:10062C0013953700453CAA878144E38BF4FC0546BF
:10063C008945371501403EC0EF009071228569371E
:10064C000146894537150140EF0090702285AD3F7A
:10065C0085048247D9BFEFF2BFA4930500051305AB
:10066C00803E413F930500051305C05D593735BCED
:10067C00EFF21FA393056009130500199D3F930525
:10068C00800C1305800CB5370DB4EFF27FA19305E8
:10069C00800C1305C012B13F13052003093F9305CD
:1006AC00800C1305C012B13709B4EFF27F9F93058C
:1006BC00600913050032353FCDBAEFF27F9E9305EA
:1006CC0080071305003235371305C003CD3593056C
:1006DC00800713050032313FC9BAEFF27F9C9305B6
:1006EC0080021305004B3137C9B2EFF27F9B9305A3
:1006FC00600913050032F53D930560091305803E32
:10070C00CD3D9305800C1305004BE5356FF0FF993B
:10071C00EFF21F990D449305800C1305A00FD13DEA
:10072C00130500057D1461357DF46FF01F98EFF211
:10073C003F979305C0031305803E653D9305C003A9
:10074C001305C02B7D356FF05F96EFF27F95930507
:10075C00600413058025713D93058007130500196E
:10076C00493D6FF09F94EFF2BF939305400613053C
:10077C00803E413593056009130500329D3D6FF0B5
:10078C00DF92EFF2FF91E545130580709D356FF018
:10079C00DF91EFF2FF909305600413050032913D59
:1007AC00930560041305803EA9359305A005130538
:1007BC00802581356FF07F8FEFF29F8E9305800738
:1007CC00130500323D35930580071305803E153522
:1007DC009305000A13054051293D6FF01F8DEFF270
:1007EC003F8C930560091305004B21359305600977
:1007FC0013054038FD3B9305400B13058025D53B75
:10080C006FF0BF8A711122C0372400001305843A9F
:10081C00EF10101CE5BF7111B707EFBE22C037E710
:10082C0000E0938707083CC73724000013054439C0
:10083C00EF10101AE5BF938701819843D0439306BC
:10084C00170033B7E6003297D8C394C3B7F700E06C
:10085C0023A2070073002030EFF29F84511105454D
:10086C0002C002C202C4EF00B05DEF00902DEF1089
:10087C0060261305401FEF10202985451305400302
:10088C00EF00F076854537050010EF00307837150E
:10089C000140FD578A85130505807C8002C4EF005A
:1008AC00D0420544C14491478A85371501407C806C
:1008BC0026C422C2EF00704189478A853715014052
:1008CC007C8026C422C2EF005040930780048A85A6
:1008DC00371501403EC4648022C2EF00103F05462C
:1008EC00914537150140EF00B0461545EF10C0217A
:1008FC000146914537150140EF00904531016FF0ED
:10090C00CFFAEFF2EFF941118545454502C002C21D
:10091C0002C402C6EF00B06D91450945EF0030509E
:10092C00C1473EC091473EC2B1473EC40A85854788
:10093C003EC6EF00F03241016FF02FF7EFF24FF6A9
:10094C0061112A842EC0B28455367D576314E50498
:10095C0037250000A28513058545EF103005A685C7
:10096C0022859D3EAA853725000013058547EF108B
:10097C00F0032285A53E13160501372500004182A0
:10098C00A28513050549EF107002824786A3210149
:10099C006FF0AFF12A862AC237250000A285130515
:1009AC00854BEF10B000024792471EA3CDB7EFF274
:1009BC002FEFEFF0FFB0EFF03FADAA853725000029
:1009CC001305453FEF10807E372500001305C54009
:1009DC00EF10100001469385218305458537372597
:1009EC00000013058542EF10A07EB705002013060A
:1009FC00800C9385C50009459137372500001305F8
:100A0C004544EF10E07CB705002013068002938567
:100A1C00E5000D4525376FF04FE9EFF26FE8130154
:100A2C0041FDEF0010120D3DE93D716513050520E8
:100A3C00EF102011372500001305054DEF104079FC
:100A4C00B707002083A50702372500001305C54F03
:100A5C00EF10C075A93F3724000013058451EF1027
:100A6C00207783D521833725000013054553EF10DC
:100A7C00E073B707002083D5C700372500001305A6
:100A8C000555EF10A072B707002083D5E700372576
:100A9C00000013050557EF10607113058451EF101A
:100AAC0020730565B7E700E023A0A710B7F700E0B7
:100ABC00D84393844183799BD8C31307703E98CB5A
:100ACC0023A407002D4798C3B70732009387470626
:100ADC009CC085451305558002C802CA02CC02C2CF
:100AEC0002C42316010002CE02D002D202D4EF00BF
:100AFC001050E1473715014011473ECC0C088D478B
:100B0C0013050580F8803AC03ECAEF00101C9E20E9
:100B1C00373401404C007C84130504C0A5473EC209
:100B2C0023150100EF007050C16793870706024739
:100B3C003ECEBE206C08130504C02310E102231125
:100B4C00F10202D2EF005053A145130504C0EF008F
:100B5C0090608545130504C0EF00505EAE20130570
:100B6C0004C0EF00B0608545130504C0EF00B05B16
:100B7C008545130504C0EF009059EFF0DFAD130568
:100B8C00803EEF00506EEFF0BFAE1305803EEF00DD
:100B9C00906DEFF09FAF1305803EEF00D06CEFF03F
:100BAC00DFB01305803EEF00106CEFF01FB11305A2
:100BBC00803EEF00506BEFF05FB21305803EEF000C
:100BCC00906AEFF09FB21305803EEF00D069EFF012
:100BDC003FB41305803EEF001069913E1305803E33
:100BEC00EF0070689D361305803EEF00D067A53E80
:100BFC001305803EEF003067372500001305C558FC
:100C0C00EF10005DC14537150140EF00D0139387FD
:100C1C008181982B133515006312A7028146014779
:100C2C0094C7D8C7B42B3946982B6366D606096689
:100C3C008A061306863BB296944282869847CC4726
:100C4C0083A601813363B70003A6418163150300BA
:100C5C0094C7D0C7C1BF3387E640B3B6E6000D8E4C
:100C6C006316D60093061003E3FEE6FA88AB5DBF6D
:100C7C001DC30547B8AB05A00D47B8AB03A6018152
:100C8C0083A6418190C3D4C339A059EB0947B8ABB3
:100C9C00B83B0507B8BB03A781831384818311E399
:100CAC00252C144005476393E60085291440094719
:100CBC00938401836395E6009521239004001440EE
:100CCC000D476395E60023900400E12118409147FD
:100CDC006315F7002390040011239E20638A0716E6
:100CEC009147FC8637150140E1473ED26C088D4791
:100CFC00130505803ED0B7340140EF00007D8545DB
:100D0C00138504C0EF00B0408545138504C0EF0087
:100D1C0090410546914537150140EF007003DDB554
:100D2C0003A60181944383A54181D843B306D640E1
:100D3C003335D6003387E540098F6347E00021FF48
:100D4C001307F07CE379D7F41147B8AB90C3CCC34D
:100D5C0099B7194705B719E3154729BF03A60181B0
:100D6C00944383A54181D843B306D6403335D6008E
:100D7C003387E540098F6348E000E31E07F0130753
:100D8C00703EE37AD7F01D47C9B72147E5B519E3A3
:100D9C002547CDB503A60181944383A54181D84352
:100DAC00B306D6403335D6003387E540098F634808
:100DBC00E000E31207EE1307703EE37ED7EC1D470D
:100DCC00B8AB983B050798BB51B7A38907002947D7
:100DDC0055B5B43BA38807002D47E39006EA354789
:100DEC0069BDE31807E803A60181944383A54181FB
:100DFC00D843B306D6403335D6003387E540098F48
:100E0C006348E000E31907E81307301FE375D7E8E0
:100E1C00314725BF3547BAABBDBDE31C07E403A67C
:100E2C000181944303A74181CC43B306D6403336AA
:100E3C00D6000D8F118F6348E000E31E07E4130703
:100E4C00703EE37AD7E4394735B523890700A1B55D
:100E5C00B7340140138504C08145EF00D02C1385B5
:100E6C0004C08145EF00B02A9147FC86B7140140BD
:100E7C00C1473ED26C088547138504803ED0EF00F5
:100E8C00C0640146914513850480EF00606C0146F7
:100E9C0051B5EFF2EFA085450545EF00501537052C
:100EAC003000854513050540EF00206B0545EF002C
:100EBC0080796FF08F9F9387818101478146D8C3DA
:100ECC00D8C794C394C723A80700B70732009387E9
:100EDC00470623AAF1828280EFF28F9C3704002010
:100EEC0093070406B82B8947711113040406631089
:100EFC00F702372500001305C561EF10602DEFF0E8
:100F0C005F8803D701836303071E23980182382867
:100F1C009147631EF7003725000013054562EF105B
:100F2C00202BEFF07F8923AE018223980182382891
:100F3C009D47631CF7029387C1838C4337250000C0
:100F4C001305C56285058CC3EF104026EFF07F8337
:100F5C000546914537150140E52B1545EF00B0309E
:100F6C000146914537150140E5233828A547631BF9
:100F7C00F7103725000013058563EF10602583A754
:100F8C00C18305479384C1836398E7021305803EB0
:100F9C0023ACF182EF00302D054691453715014009
:100FAC00452BEFF00FFE37150140014691454D23BF
:100FBC001305800CEF00302B9C4009476398E70425
:100FCC001305803E23ACF182EF00F02905469145D4
:100FDC0037150140B52BEFF0CFFA01469145371587
:100FEC000140BD231305800CEF00F0270546914509
:100FFC0037150140B12BEFF0CFF837150140014602
:10100C009145B9231305800CEF00F0259C400D474A
:10101C00639DE7021305803E23ACF182EF00B02400
:10102C008D4705469145371501403EC01523EFF01D
:10103C004FF50146914537150140192B1305800CCE
:10104C00EF0070228247FD17E9FF9C401147639B1C
:10105C00E7021305803E23ACF1829144EF00B020EF
:10106C000546914537150140E521EFF08FF101461A
:10107C00914537150140E9291305800CFD14EF004B
:10108C00901EF9FC3828A947631DF700372500008E
:10109C0013058564EF10C0130146914537150140C7
:1010AC0045293828B1476317F7042C383725000039
:1010BC0013054565EF10800F38389547631CF70210
:1010CC00EFF0EFF1EFF0AFF1EFF06FF1EFF02FF198
:1010DC009307800873B007300F100000B707EFBEFE
:1010EC0037E700E0938707083CC701A00547239822
:1010FC00E18231BD3828B947631EF700372500005F
:10110C0013050566EF10C00CEFF0AFE883D7018331
:10111C0091E3413311016FE05FF98280EFE25FF8F8
:10112C0083D72183054691E301469145371501404C
:10113C0005213704002093070406B82BB14713048C
:10114C0004066316F7042C3837250000130545599F
:10115C00EF10C00538388547631AF70083D7218311
:10116C0093B717002399F182EFF0EFCE3838894707
:10117C00631FF70023AC0182EFF06FE60146914547
:10118C0037150140A308040023190400D1266FE091
:10119C00DFF103C7A1829147631AF700EFE25FF01A
:1011AC0023AC0182EFF0AFE36FE03FF08280EFE21F
:1011BC003FEF711101442AC06357A400EFF06FDCBC
:1011CC0005040245CDBF11016FE03FEEEFE25FED8C
:1011DC0023AC0182EFF0EFDA6FE03FEDEFE25FEC72
:1011EC003704002093070406B82B91471304040618
:1011FC00631EF700372500001305455AEF00507D9C
:10120C00EFF08FDB23A001842398018238289D47BF
:10121C00631CF702938701848C4337250000130568
:10122C00C55B85058CC3EF007078EFF08FD5054654
:10123C00914537150140292E1545EF00D002014686
:10124C0091453715014029263828A5476316F70222
:10125C00372500001305855DEF00907783A7018487
:10126C00372500001305855F93951700BE958E05F5
:10127C00BE958605EF0090733828B147631BF702C3
:10128C002C383725000013054559EF0030723838DB
:10129C0089476313F7001D3F38388D47631BF700F0
:1012AC00372500001305C560EF00907203A501847B
:1012BC00FD3D6FE09FDFEFE2BFDE371402401C40C4
:1012CC003707FFF8414593E717001CC05C40F98FC6
:1012DC005CC01C403707F7FE7D17F98F1CC01C4003
:1012EC003707FCFF7D17F98F1CC05C4041777D17D9
:1012FC00F98F5CC0B7079F001CC481211C4C93E77D
:10130C0007021CCCB717014003A707409386074080
:10131C001377F7F023A0E74003A7074013670708EC
:10132C0023A0E74089479CCAB72702409843719B8A
:10133C0098C3984398C35C4093E707025CC06FE086
:10134C00DFD6EFE2FFD5371702405C4337040020AD
:10135C009146B18B130404026385D700A1466382C6
:10136C00D704B7376E01938707601CC0B7160240CD
:10137C00DC420840918313F7F700B70700209387EE
:10138C000701BA978C23DC4293F5F50F93F7070806
:10139C003357B50081E7EFE0FFD32A8718C06FE021
:1013AC00DFD05C43B777DC02938707C07DBF01A019
:1013BC0097F1FF1F9381C148138181FB1305000A2C
:1013CC0097F5FF1F938545C317F6FF1F130686C3BA
:1013DC0063FAC5008322050023A055001105910571
:1013EC00E3EAC5FE171500001305852897F5FF1FC6
:1013FC00938545C117F6FF1F130686C463FAC50013
:10140C008322050023A0550011059105E3EAC5FED2
:10141C0017F5FF1F1305C5C29385C1846377B5000B
:10142C00232005001105E36DB5FEB7220000938261
:10143C000288739002308D427390428097F2FFFFC6
:10144C00938282BB93E2320073905230EFF0BFE68E
:10145C0097F2FFFF9382A25C7390123473002030DA
:10146C005841032305004C453706014093070640BD
:10147C003E979346F3FFB1C583250640F58D232097
:10148C00B640D043F18ED4C31443B3E6660014C304
:10149C00184190479346F7FF758E90C7D047F18E51
:1014AC00D4C7144541466399C6009447D98E94C756
:1014BC00D447558FD8C78280B6979443558F98C31D
:1014CC0082801C43F58F1CC38280944593F70601E0
:1014DC0093F2F60081C7DC41B3E2F20083D305003E
:1014EC0093F7F30FA5C303230500611122C226C095
:1014FC008147130480029304800405473316F700D8
:10150C0033F7C3006312E602939527003D47331768
:10151C00B7001347F7FF33736700B395B20033E39B
:10152C006500639D860050C985072147E397E7FC5A
:10153C00124423206500824421018280E39696FEAA
:10154C0010C9DDB7828008456D8D3335A0008280CF
:10155C0019C20CC982804CC9828037030140032711
:10156C0043009317350063D00702B707C0FFF51788
:10157C00F98F37070007D98FD9CD370700F07D17C2
:10158C00798DC98F49A8635D0500B707E0FFED179A
:10159C00F98F37070007D98FBDCD06050581D5B763
:1015AC00B7073000931605013376F500C18263133B
:1015BC00F602370600F97D16B377C7000327430000
:1015CC00798E2322C300A1C9558113174500339589
:1015DC00E60045BF9317B50063D407029357050186
:1015EC0013F6F7008D47B397C70093C7F7FFF98F32
:1015FC0037070007D98F85C1135755011207C1BF93
:10160C00558112053395A6009347F5FFF98F3707DF
:10161C000007D98FBDF5370701405CC382803707BF
:10162C000140144786058D47B397B70093C7F7FF62
:10163C00F58F1CC71C47B315B500DD8D0CC7828018
:10164C0023A2A1848280EFE2BFA5B7770040984324
:10165C00759B98C398431367270098C3B7F700E0AE
:10166C0003A707D11367470023A8E7D003A707D127
:10167C00118B45C39307800873B007300F1000001F
:10168C00B707014083A4474003A7074083A6474000
:10169C00558F23A2E74037F400E0032704D18327BA
:1016AC0004D14D451377070293E787022328F4D022
:1016BC00832704D193F7F7FDD98F2328F4D0832700
:1016CC0004D193E787002328F4D097F0FF1FE7801D
:1016DC00A092832704D14D4593E787002328F4D0AB
:1016EC0097F0FF1FE7804091832704D1918BA1C312
:1016FC00B707014023A297409307800873A00730D7
:10170C0037F700E0832707D1ED9B2328F7D06FE054
:10171C00DF9903A707D11367070123A8E7D0930725
:10172C00800873B007300F1000008144ADB78327D9
:10173C0004D1BD9B2328F4D0C1B7371702401C43FA
:10174C000E0593F777F05D8D08C38280EFE25F950D
:10175C00371702405C4391462A84B18B6385D700CE
:10176C00A1466380D708B7376E01938707601CC00A
:10177C00B7160240DC42918313F7F700B70700203D
:10178C0093878703BA978C23DC42184093F5F50FA7
:10179C0093F707083355B70081E73A85EFE09F933D
:1017AC0048C008C448C4B7170240DC438D46AD831B
:1017BC00FD8B13D737008A07F18BD98F13F63701BE
:1017CC0013F7370063F4C600138747FFB7070020F1
:1017DC0093874702BA978C23EFE0DF8F08C86FE03E
:1017EC00DF8C5C43B777DC02938707C049B799C598
:1017FC00371702401C4F5D8D08CF8280B71702400F
:10180C00984F1345F5FF798D88CF828099C537178E
:10181C0002405C4F5D8D48CF8280B7170240D84F95
:10182C001345F5FF798DC8CF82801E2137370140D3
:10183C00130707C0C207C1836306E50037070040E2
:10184C006316E500BA2193F7F7F8D98FFA2193F7CD
:10185C00F7CFC207C183D98F1EA1DE215EB59E21B1
:10186C001EB5B7370140938707C06314F5009C255C
:10187C001EB985475EA982801E3165771307F7CFA5
:10188C00C207C183BD9BC207C1831EB11E31562145
:10189C0003D38500C20713960601162DC18393F757
:1018AC00F7FD758F96214182A206558FB62142070E
:1018BC004183B3E666009206D58FB7360140C20766
:1018CC00938606C0C183631ED502B62593F7F7F73E
:1018DC0003D3C5009206D58FD621C207C1839206C9
:1018EC0093F7F7FBD58FFD769386F63FF18EF225B5
:1018FC00C207C183336666000A06D18E13960601B1
:10190C00418252A11AADFA2118DD1EB182801E212E
:10191C0089C593E717001EA18280C207C183F99B7A
:10192C00C207C183CDBF8357450491C52167D98FA9
:10193C002312F5048280C607C583DDBF1E2189C52D
:10194C0093E707081EA18280C207C18393F7F7F7BC
:10195C00C207C183C5BF1A2DFD779387F77FF98F17
:10196C00A205CD8FC207C1831EAD82800CDD8280A3
:10197C00EFE20FF31629F577FD17F58FF621DA252F
:10198C002111D58F1EA95625FD779387379FF58F8B
:10199C00D6212A842EC0D58F9625D58FB625D58FE6
:1019AC005EA55E29C207C18393F7F7CF5D8F5AA955
:1019BC004800EFF0BFD9B7470140938707808245B5
:1019CC006312F406C2475A24139517003E9542073A
:1019DC000E0541873E958C41635807048605EFE060
:1019EC006FEF930540062AC0EFE0CFEE82479314C9
:1019FC004500930540063E85EFE08FF05E24C2075C
:101A0C00C18763D507020E05930540061305250310
:101A1C00EFE04FEC1D89C98CC204C18006A46101A2
:101A2C006FE0AFE8B24745B78A0555BF120593057D
:101A3C00400613052503EFE0EFE93D89E9BF91C5A9
:101A4C005E250967D98F5EA582805A25F977FD1727
:101A5C00F98FD5BF93F5F51F4EA182800A216D8DAC
:101A6C003335A000828037F700E0544331119307DF
:101A7C007100F99A54C39306703E14CB23240700CB
:101A8C00AD4614C303A6018183A64181E19B90C797
:101A9C00D4C78C47D0479356F5413303B500333543
:101AAC00A300B385C600B306B50023A06700D4C35A
:101ABC0003A3070003A5418183A3470063E8A300A8
:101ACC006318750083A601816374D3005101828071
:101ADC000100F9BFEFE2CFDCB707002003A5070236
:101AEC00B7157A0093850520EFE0CFDE1375F50F5F
:101AFC002385A18493175500898F8A073E950E057F
:101B0C002394A1846FE06FDAEFE28FD937F400E011
:101B1C005C40AA85F99B5CC003D58184EFE08FD92A
:101B2C0008C8232404001C4093E717001CC0B7F717
:101B3C0000E0D843058B75DF9843799B98C36FE021
:101B4C00CFD6EFE2EFD52A84116511118545130527
:101B5C001502EFF0DFC9854537052080EFF0FF9FB8
:101B6C00930700047C80371501408D473EC28A855F
:101B7C00E147130505403EC4EFF03F9522C63744BC
:101B8C000140B70708006C00130504803ECA02C868
:101B9C00231C0100EFF0DFDD854513050480EFF019
:101BAC001FEA71016FE06FD0EFE28FCF7111AE843D
:101BBC000144635FC402B7470140138707803A852D
:101BCC009305000432C0EFF07FE9B747014013875B
:101BDC00078002466DD53387840083050700138583
:101BEC0007800504C205C181EFF0DFE60246D1B7DC
:101BFC00328511016FE06FCB411106C62EC00DCDA1
:101C0C001841AA8705C358417D5511CB8546631BE6
:101C1C00D70098472300070023A207000545B240D0
:101C2C00410182809847824614A39847050798C7BC
:101C3C00D8437D17D8C3DDB705468A85B537F9BFBC
:101C4C00011122CC2EC206CE26CA2A8481479305C6
:101C5C000002634506029245BE95838505008DE51D
:101C6C0063D8C70263D4E702198E1305000293F5FB
:101C7C0026002AC089C501E7930500032EC0858A7A
:101C8C00814495EAB2840DA08507F1B71D8EF1BF92
:101C9C000146E1BF824522853AC832C63EC4A93FFF
:101CAC00A24732464247FD14E34690FEB28463538A
:101CBC0006008144058E63C7E702A68792463387E8
:101CCC00974036978305070095EDB28463459004E1
:101CDC00635306000146F2406244D2443305F600D9
:101CEC00056182801D8FBA8793050003228532C857
:101CFC003EC63AC41137B24722474246FD17EDF7AC
:101D0C00BA9465BF228532C63EC4EFF0FFEEA247FF
:101D1C003246850765B78245228532C43EC2EFF054
:101D2C00BFEDFD142246924755B7397106DE22DC11
:101D3C0026DA3EC232833A8691ED9246930700032F
:101D4C0001476C08FC86EFF0BFEFF2506254D2549E
:101D5C0021618280AA843684AE8791CA29470144C6
:101D6C006317E30063D50500B307B040054486460E
:101D7C00A309010213073103938666FC36C49A85C6
:101D8C003E8532CA3AC81AC63EC0EFE06FB7A546C8
:101D9C00824732434247524663D4A600A246369548
:101DAC00130505039306F7FFA30FA7FE9A853E853F
:101DBC0032CC3ACA1AC83EC636C0EFE0AFB1B24711
:101DCC0042435247624663FD670409CC29CE9247D1
:101DDC00898BB1CB9305D002268532C4EFF0DFE1BD
:101DEC0022467D169247918B85C7064793071006AE
:101DFC0032C49305000326856311F704EFF0DFDF8F
:101E0C00930580072685EFF03FDF224609047916FB
:101E1C001647924682452685EFF09FE2229535B70C
:101E2C00AA870247A9BF82469307D0020144A38F19
:101E3C00F6FE9307E7FF3EC075B7EFF0FFDB9305A7
:101E4C008005C9B70145828001458280130181FD5F
:101E5C0022D026CE06D22AC4AE82328402C6814457
:101E6C008385020091EDA24789C781453E85EFF03D
:101E7C00BFD8925002542685F2441301810282800D
:101E8C00930750026389F500224516C88504EFF0CC
:101E9C00BFD6C24205A08387120013871200639D30
:101EAC00B7002245930550023AC8EFF0FFD44247E1
:101EBC008504BA8285026DB7DDD79306B0026389BB
:101ECC00D70463C8F600930630026386D7048147B3
:101EDC0005A09306D002638AD70093060003E3980B
:101EEC00D7FE13872200894721A01387220085473C
:101EFC00830607001306B0026383C6046341D6024F
:101F0C0013063002638BC602BA820145A54681A036
:101F1C00138722006DBF138722009147D1BF130690
:101F2C00D0026389C60013060003E39FC6FC93E747
:101F3C00270031A005078547C1BF93E74700050778
:101F4C00E1B713162500329506053A9585020386EE
:101F5C000200130706FD9375F70FE3F4B6FE1307A3
:101F6C00E0029946631EE60085028146A54503867C
:101F7C000200130606FD1377F60F63F5E50236C66D
:101F8C00038702001306A006630DC70A6343E6022B
:101F9C001306C0046307C70A13068006630CC70840
:101FAC0081452DA813972600BA968606B29685020F
:101FBC007DBF130640076306C7081306A00763021C
:101FCC00C7081306C0068145631AC70003861200B2
:101FDC008D456314E6008502914585020386020057
:101FEC00930300061307100663C4C3001307100401
:101FFC009303700663C4C3069303500663567618A6
:10200C009303700463C1C30493055004635EB61656
:10201C0013073004E310E6EA18409303440016CA91
:10202C00230CE1001EC8A30C01000147BE862A86C2
:10203C002C0849A8038612008145E311E6FA8902AF
:10204C0071BF8502B1BF93063006E307D6FC63CFA0
:10205C00C606930680056303D602A9BD9306300716
:10206C006304D60463CBC6029306F0066305D60E52
:10207C009306000793E74700E31ED6E2914663926E
:10208C00D50C930384000C40504016CA3AC23EC093
:10209C001EC8AA870147C14681A893065007630B47
:1020AC00D6069306800745BF1840B7260000930359
:1020BC0044009385C66611C3BA85324716CA1EC83A
:1020CC00BE862A862245EFF0BFB715A091466395D0
:1020DC00D502930384000C40504016CA3AC23EC04D
:1020EC001EC8AA870547A9462245EFF0BFD5C243B3
:1020FC00AA941E84D2427DBBB2460C4016C836C28E
:10210C003AC011042A87854629462245EFF0FFC1C3
:10211C00AA9441B39146639DD500930384000C406F
:10212C00504016CA3AC23EC01EC8AA87014765BFB6
:10213C00B2460C4016C836C23AC011042A878146F2
:10214C00E1B7B24616C80C40414636C23AC011043B
:10215C002A8781465DBF9146639ED5009303840018
:10216C000C40504016CA3AC23EC01EC8AA8701474E
:10217C00A1469DBFB2460C4016C836C23AC01104E7
:10218C002A878146214651B70C40130684004040F3
:10219C003AC22A87224532C83EC02286B687A94653
:1021AC0016CAEFF07FCAAA944244A9B71301C1FD25
:1021BC002EC832CAAA851008014506C636CC3ACEBE
:1021CC003ED032C0EFF09FC8B24013014102828072
:1021DC00411122C426C206C61C21AA840144DC81FA
:1021EC0083073100050499EFA94793053100054693
:1021FC000145DC81EFF05F9B2285B2402244924482
:10220C00410182800546930531000145EFF0DF99CD
:10221C00B38784009C23DC81E1B741112AC08A85F5
:10222C000546014506C6EFF03F98B2400545410111
:10223C00828000004005000056050000600500008B
:10224C006A050000740500007E050000880500008A
:10225C00920500009C050000A6050000B0050000DA
:10226C004572726F7220454550524F4D5F726561D9
:10227C006456617220636F64653A25642000000027
:10228C00466C61736820756E6C6F636B2F6C6F633B
:10229C006B206661696C656400000000466C6173BC
:1022AC0068206572617365206661696C6564000005
:1022BC00466C617368207772697465206661696C1D
:1022CC0065640000466C61736820777269746520E0
:1022DC00766572696669636174696F6E206661699F
:1022EC006C656400466C617368206F706572617414
:1022FC00696F6E2074696D656F7574004545505239
:10230C004F4D206E6F7420696E697469616C697AC7
:10231C00656400005661726961626C6520494420F5
:10232C006E6F7420666F756E64000000435243201C
:10233C00766572696669636174696F6E206661693E
:10234C006C65640053746F726167652063617061C2
:10235C006369747920657863656564656400000061
:10236C00496E76616C6964207661726961626C6534
:10237C0020494400496E76616C6964207061726119
:10238C006D65746572000000486172644661756C1D
:10239C00745F48616E646C65720D00004E4D495F50
:1023AC0048616E646C65720D000000007C0C0000CE
:1023BC00840C0000DA0D0000960C00005E0D00008D
:1023CC00D60D0000620D0000960D00009A0D000065
:1023DC00D60D0000DE0D0000EE0D0000200E0000FA
:1023EC00260E0000560E0000454550524F4D20441D
:1023FC00656D6F20467265653A2025640D0A0000F4
:10240C002E5245414420434F4E46494720426F6F60
:10241C00737420456E61626C650D00002E5245414F
:10242C004420434F4E46494720426F6F73742054EB
:10243C00696D650D000000002E5245414420434F4C
:10244C004E46494720506F7765720D0045455052F6
:10245C004F4D2069643A25642021204E6F74205022
:10246C00726573656E7420210D0A0000454550524B
:10247C004F4D205361766520636F64653A25640A7D
:10248C0000000000454550524F4D2056657269665C
:10249C0069636174696F6E2069643A2564205661C2
:1024AC006C75653A2025640D0A00000045455052B4
:1024BC004F4D2069643A25642056616C75653A2548
:1024CC00640D0A000D0A2D2D2D2D2D2D2D2D2D2DAC
:1024DC002D2D2D2D2D2D2D2D2D2D2D2D2D2D2D2D20
:1024EC002D2D2D2D2D2D2D2D2D2D2D2D2D00000097
:1024FC00D09FD180D0B8D0B2D0B5D18220537973CF
:10250C0074656D436C6B3A25640D0A002D2D2D2DD1
:10251C002D2D2D2D2D2D2D2D2D2D2D2D2D2D2D2DDF
:10252C002D2D2D2D2D0D0000434F4E464947204299
:10253C006F6F737420456E61626C65203A20256460
:10254C000D0A0000434F4E46494720426F6F73748B
:10255C002054696D652020203A202564206D730A73
:10256C0000000000434F4E46494720506F7765727C
:10257C0020202020202020203A2025640D0A000055
:10258C00476F2E2E2E000000436C69636B733A204C
:10259C0025640D0A000000003E2053637265656ED1
:1025AC00426F6F737454696D6520486F6C640D00D5
:1025BC003E2053637265656E426F6F737454696D20
:1025CC006520537465702025640D0A003E2053630A
:1025DC007265656E426F6F737454696D65207265B8
:1025EC006C65617365537465700D0000426F6F7399
:1025FC007454696D653A202564206D730A000000DF
:10260C00676574436C69636B73203D3D20330D002B
:10261C00436C69636B0D0000486F6C640D00000027
:10262C00537465702025640D0A00000072656C659A
:10263C00617365537465700D0000000052656C6524
:10264C006173650D00000000436C69636B733A2085
:10265C0025640A0054696D656F75740D00000000E7
:08266C00286E756C6C2900005A
:04267400C20E000092
:1026780064000A00010203040506070801020304B6
:102688000506070800127A000204060804080C1060
:1026980008101820102030402040608001020304F8
:0C26A800050607080102030405060708E8
:00000001FF
