:100000006F10C031000000003407000046070000F8
:1000100000000000000000000000000000000000E0
:1000200000000000000000000000000000000000D0
:1000300066070000000000001A1300000000000026
:100040001A1300001A1300001A1300001A130000FC
:100050001A1300001A1300001A1300001A130000EC
:100060001A1300001A1300001A1300001A130000DC
:100070001A1300001A1300001A1300001A130000CC
:100080001A1300001A1300001A1300001A130000BC
:100090001A1300001A1300001A13000000000000D9
:0C00A000730050107D157DFD8280000073
:1000AC00511126C022C206C4828282441244A2404C
:1000BC00310182802A86014593F6150091C2329552
:1000CC0085810606F5F9828000000000634E05026A
:1000DC0063C305042E86AA857D5515C285466378B3
:1000EC00B6006356C00006068606E36CB6FE0145F4
:1000FC0063E4C500918D558D85820582F5FA828069
:10010C008682C93F2E8582823305A04063D70500C5
:10011C00B305B040C1B7B305B0408682653F330527
:10012C00A0408282868263C70500634905005D3763
:10013C002E858282B305B040E35B05FE3305A040FB
:10014C00513F3305B04082820000372702401C4BE0
:10015C0093E707081CCB8280B16793870735B726D6
:10016C000240D846058B11C799E315458280FD17CF
:10017C00CDBF154591C301458280C1676976814623
:10018C00FD17050613F7F60F6364B7003E858280F2
:10019C003307D5001823B98F214713F31700858334
:1001AC0063050300B18FC207C1837D171377F70F67
:1001BC006DF78506C1BFB7270240984B01451377F1
:1001CC00070811CF3707674513073712D8C337977E
:1001DC00EFCD1307B79AD8C3884B1D810589828050
:1001EC00EFF21FEC7111AA842E84F1370DE9AD37B3
:1001FC0009C52AC0993F02451DA0B7270240984B5C
:10020C001367170098CB82A0813FB7270240984B09
:10021C00799B98CB9E20E30EF4FC053F1145110110
:10022C0069B5930785009306F00F1305A53F63E4AA
:10023C00A7000145828098231377F70FE30BD7FEB5
:10024C006316B70081C51CC2054582809907C5B7E6
:10025C001307850081471305A53F1306F00F636450
:10026C00A7003E858280142393F6F60FE38BC6FE1F
:10027C0081C6850793F7F70F1907D5B719C97C21E4
:10028C0089CB2320050023220500232405002316F7
:10029C000500828051C9EFF2BFE07C212A847111E4
:1002AC00194589CB0440013F11E57D3511C52AC0A4
:1002BC00693D02451101D5BBB7270240984B136726
:1002CC00270098CBC4CB984B1367070498CB6935A0
:1002DC00B7270240984B759B98CB9840FD57630508
:1002EC00F700A5350945F9B72AC08535024579F1DE
:1002FC000840956593855504E5354DFD084091659D
:10030C00938555540905E93D55F50840854511057A
:10031C00C13D4DF1084081451905D93541FD2316E4
:10032C000400A303040079B71945828019E12D4517
:10033C008280EFF2FFD67C212A84AE8491C33D3FAC
:10034C0093F7F43F2D459DE7C167938707025CC087
:10035C0004C0232404009840B757454523160400D5
:10036C009387570401456307F7002285253719C188
:10037C00230304001DBB31C57821AD4721C739C209
:10038C00EFF21FD20841511132843000AE84513D3E
:10039C009D470DC5224785468D453E2348003AC0F2
:1003AC00C207C1831EA0A1835C834482D482F13333
:1003BC00024781475A236303E500A1473E8531017B
:1003CC00EDB1AD473E858280AA8709C978211945D0
:1003DC0019C7F83301450507F8B3828019458280A7
:1003EC0039C97821994729CBA947B9C5EFF25FCB19
:1003FC002A840841411132C22EC0993D5E2042052B
:10040C004181637DF5001C409306F00F93848700B7
:10041C009387A73F63EBF400A54729A022856D378E
:10042C00A54775D13E85410149B190206388C6002E
:10043C0090309904C5B799473E85828082478D4597
:10044C0068005C868547DC869247A1835C873533E0
:10045C0082472AC4268593E507105933AA8779F178
:10046C00924513852400AD3BAA874DFDA24513850B
:10047C004400BD33AA875DF55A2405075AA437F703
:10048C0000E0184718C479BFB707002083A687047B
:10049C001306F00F8147138786009386A63F636788
:1004AC00D70061551D8D1375F50F82800C23E30A5F
:1004BC00B6FE1385670093170501C1831907C5B7ED
:1004CC00EFF21FBEB745000837050020938505C025
:1004DC0013058504A13DD1BEEFF29FBC2E86AA85E3
:1004EC003705002013058504E53DC1B6EFF25FBB6F
:1004FC007111AA8537050020130621001305850408
:10050C009D3D01E5288111014DB62A84AA85372528
:10051C0000001305051CEF10B03E7D141374F40F8E
:10052C00A94763EF87008967938747190A043E94AC
:10053C001C408287372500001305051EEF10503C28
:10054C002945EF10D0427D557DBF3725000013059E
:10055C00C51FEDB73725000013050521C5B7372595
:10056C00000013054522D9BF37250000130545248B
:10057C00F1B7372500001305C525C9B7372500008D
:10058C001305452765BF372500001305C5287DB722
:10059C00372500001305452A55B7372500001305EC
:1005AC00052C69BF372500001305452D41BFEFF21F
:1005BC003FAF2A840146894537150140EF00506F43
:1005CC002285EF104040D5B4B7F700E0D843799BB3
:1005DC00D8C3379798001307F76798CB23A4070065
:1005EC009847E37FE5FE23A407001307703E98CBE2
:1005FC008280EFF2FFAA7111AE8409E52E85453F8A
:10060C00110165B4AA8537450F0013050524D934AB
:10061C0093975400858F8A07A697AA8513541500C3
:10062C0013953700453CAA878144E38BF4FC0546BF
:10063C008945371501403EC0EF0090672285693728
:10064C000146894537150140EF0090662285AD3F84
:10065C0085048247D9BFEFF2BFA4930500051305AB
:10066C00803E413F930500051305C05D593735BCED
:10067C00EFF21FA393056009130500329D3F35B4BB
:10068C00EFF21FA2930580021305004B9D3731BC7E
:10069C00EFF21FA19305C0031305803E993F93050C
:1006AC00C0031305C02BB13709B4EFF27F9FE545AA
:1006BC00130580703D3FD5BAEFF29F9E9305600401
:1006CC00130500323D37930560041305803E153742
:1006DC009305A00513058025293FC1BAEFF25F9C55
:1006EC0093058007130500322937930580071305FE
:1006FC00803E01379305000A13054051DD3D6FF034
:10070C00DF9AEFF2FF99930560091305004BD5357D
:10071C009305600913054038E93D9305400B13051B
:10072C008025C13D6FF07F98711122C037240000E5
:10073C001305C42FEF10101FE5BF7111B707EFBEE3
:10074C0022C037E700E0938707083CC73724000036
:10075C001305842EEF10101DE5BF9387018198437C
:10076C00D0439306170033B7E6003297D8C394C32F
:10077C00B7F700E023A2070073002030EFF25F927E
:10078C005111054502C002C202C4EF007061EF00B6
:10079C005031EF10202A1305401FEF10E02C854537
:1007AC0013054003EF00B07A854537050010EF00C4
:1007BC00F07B37150140FD578A85130505807C8039
:1007CC0002C4EF0090460544C14491478A85371511
:1007DC0001407C8026C422C2EF00304589478A85BF
:1007EC00371501407C8026C422C2EF0010449307C9
:1007FC0080048A85371501403EC4648022C2EF0014
:10080C00D0420546914537150140EF00704A154519
:10081C00EF1080250146914537150140EF005049F6
:10082C0031016FF09F88EFF2BF87373401405111CF
:10083C00130504C08145EF100005130504C0814564
:10084C00EF10E0029147371401407C80C1473EC451
:10085C008A858547130504803EC2EF00103D014692
:10086C00914513050480EF00B04431016FF0FF8314
:10087C00EFF21F8341118545454502C002C202C4F7
:10088C0002C6EF00D06C91450945EF00504FC147AF
:10089C003EC091473EC2B1473EC40A8585473EC61D
:1008AC00EF00103241016FF05F80EFF26FFF6111CA
:1008BC002A842EC0B2841D397D576314E504372574
:1008CC000000A2851305C53AEF109003A68522857A
:1008DC002131AA85372500001305C53CEF105002C5
:1008EC002285293113160501372500004182A28586
:1008FC001305453EEF10D000824786A321016FF00F
:10090C00CFFA2A862AC237250000A2851305C540D6
:10091C00EF10007F024792471EA3CDB7EFF24FF8BE
:10092C0045369D36AA853725000013058534EF1012
:10093C00207D3725000013050536EF10A07E0146FB
:10094C009385218305459537372500001305C53759
:10095C00EF10407DB70500201306800C9385C50071
:10096C000945A1373725000013058539EF10807B29
:10097C00B7050020130680029385E5000D45353739
:10098C006FF0AFF2EFF2CFF1130141FDEF007011F8
:10099C00F533F93D716513050520EF1080103725EF
:1009AC00000013054542EF10E077B707002083A540
:1009BC0007023725000013050545EF106074B93F99
:1009CC003724000013054443EF10C07583D52183F1
:1009DC00372500001305C546EF108072B7070020BD
:1009EC0083D5C7003725000013058548EF104071EB
:1009FC00B707002083D5E700372500001305854A8B
:100A0C00EF10007013054443EF10C0710565B7E794
:100A1C0000E023A0A710B7F700E0D84393844183EC
:100A2C00799BD8C31307703E98CB23A407002D479E
:100A3C0098C3930740069CC085451305558002C892
:100A4C0002CA02CC02C202C42316010002CE02D09A
:100A5C0002D202D4EF00B04FE147371501401147E5
:100A6C003ECC0C088D4713050580F8803AC03ECA71
:100A7C00EF00B01B9E20373401404C007C841305E2
:100A8C0004C0A5473EC223150100EF001050C167FA
:100A9C009387070602473ECEBE206C08130504C0A0
:100AAC002310E1022311F10202D2EF00F052A14512
:100ABC00130504C0EF0030608545130504C0EF003A
:100ACC00F05DAE20130504C0EF00506085451305A2
:100ADC0004C0EF00505B8545130504C0EF0030598E
:100AEC00130504C08145EF00705E353B37250000CF
:100AFC001305454CEF100063C14537150140EF005D
:100B0C00901A93878181982B133515006312A702D5
:100B1C008146014794C7D8C7B42B3946982B6366D6
:100B2C00D60609668A061306C630B29694428286A9
:100B3C009847CC4783A601813363B70003A6418154
:100B4C006315030094C7D0C7C1BF3387E640B3B663
:100B5C00E6000D8E6316D60093061003E3FEE6FA4C
:100B6C0088AB5DBF1DC30547B8AB05A00D47B8AB3F
:100B7C0003A6018183A6418190C3D4C339A059EB4C
:100B8C000947B8ABB83B0507B8BB03A781831384EF
:100B9C00818311E3352C144005476393E600552EF1
:100BAC0014400947938401836395E600C12923907F
:100BBC00040014400D476395E60023900400152BA8
:100BCC00184091476315F70023900400852B9E2055
:100BDC00638A07169147FC8637150140E1473ED2E0
:100BEC006C088D47130505803ED0B7340140EF00EB
:100BFC00D0038545138504C0EF00704785451385E8
:100C0C0004C0EF0050480546914537150140EF00F0
:100C1C00300ADDB503A60181944383A54181D843F5
:100C2C00B306D6403335D6003387E540098F63478A
:100C3C00E00021FF1307F07CE379D7F41147B8AB40
:100C4C0090C3CCC399B7194705B719E3154729BF0A
:100C5C0003A60181944383A54181D843B306D640B2
:100C6C003335D6003387E540098F6348E000E31E37
:100C7C0007F01307703EE37AD7F01D47C9B7214739
:100C8C00E5B519E32547CDB503A60181944383A5AA
:100C9C004181D843B306D6403335D6003387E5407F
:100CAC00098F6348E000E31207EE1307703EE37E02
:100CBC00D7EC1D47B8AB983B050798BB51B7A38938
:100CCC000700294755B5B43BA38807002D47E3908F
:100CDC0006EA354769BDE31807E803A6018194438A
:100CEC0083A54181D843B306D6403335D60033872C
:100CFC00E540098F6348E000E31907E81307301F4C
:100D0C00E375D7E8314725BF3547BAABBDBDE31C0A
:100D1C0007E403A60181944303A74181CC43B306A6
:100D2C00D6403336D6000D8F118F6348E000E31E9A
:100D3C0007E41307703EE37AD7E4394735B52389C6
:100D4C000700A1B5CD340146C1B5EFF26FB58545AD
:100D5C000545EF00D01F37053000854513050540CC
:100D6C00EF00A0750545EF0010046FF00FB49387EA
:100D7C00818101478146D8C3D8C794C394C723A89F
:100D8C000700B70732009387470623AAF1828280B7
:100D9C00EFF20FB1AA841305803EEF00D04201445C
:100DAC00635694020546914537150140EF0040709B
:100DBC00EFF01F8C0146914537150140EF00406F55
:100DCC001305800CEF0030400504D9BF6FF0EFAD78
:100DDC00EFF20FAD3704002093070406B82B8947B8
:100DEC00130404066310F70237250000130545545D
:100DFC00EF104033EFF07F8B03D7018363050712AD
:100E0C002398018238289147631EF700372500008C
:100E1C001305C554EF100031EFF05F8C23AE018247
:100E2C002398018238289D47631EF7029387C1835C
:100E3C008C43372500001305455585058CC3EF10F1
:100E4C00202CEFF09F860546914537150140EF00A9
:100E5C0020661545EF0030370146914537150140A6
:100E6C00EF0000653828A547631BF7043725000001
:100E7C0013050556EF10002B83A7C18305479384F8
:100E8C00C1836396E700054523ACF18211379C4082
:100E9C0009476396E700094523ACF182D53D9C4098
:100EAC000D476396E7000D4523ACF182D5359C4088
:100EBC0011476396E700114523ACF182D13D3828E8
:100ECC00A947631DF7003725000013050557EF10E0
:100EDC0060250146914537150140D92B3828B1477B
:100EEC006317F7042C383725000013054559EF100C
:100EFC00202138389547631CF702EFF09F80EFF004
:100F0C005F80EFF01F80EFF0CFFF9307800873B086
:100F1C0007300F100000B707EFBE37E700E09387EC
:100F2C0007083CC701A005472398E182E1BD38289A
:100F3C00B947631EF700372500001305C557EF109E
:100F4C00601EEFF06FF783D7018391E3FD3B6FF0E9
:100F5C00CF95EFF2EF94B704002093870406B82BDB
:100F6C00B14771116319F710B707002003D5E700DB
:100F7C00954593840406EFF0EF95AC3813140501F6
:100F8C003725000013058558EF108017B438B707C4
:100F9C00002005473EC041806397E602EFF04FEE1C
:100FAC000504D14763D3870051440247AC389317EB
:100FBC00240037250000A29722861305455A2317D3
:100FCC00F700EF10E013B8388947631FF70023AC24
:100FDC000182EFF00FF30146914537150140A388CC
:100FEC00040023990400E921B8388D476316F702F1
:100FFC00EFF00FE9854763D387007D140247AC38C7
:10100C009317240037250000A29722861305C55B91
:10101C002317F700EF10C00EB83891476313F7048D
:10102C00372500001305455DEF10C00F1305803EFA
:10103C00EF00701981473EC06305F40205469145E7
:10104C0037150140B521EFF0AFE401469145371556
:10105C000140B9291305C012EF00F016824785072D
:10106C00D9BFB83895476318F7003725000013052A
:10107C00C55DEF10200B11016FF02F83EFF24F8243
:10108C0083D72183054691E30146914537150140ED
:10109C0005213704002093070406B82BB14713042D
:1010AC0004066316F7042C38372500001305455940
:1010BC00EF10000538388547631AF70083D7218372
:1010CC0093B717002399F182EFF0EFD8383889479E
:1010DC00631FF70023AC0182EFF0AFE201469145AC
:1010EC0037150140A308040023190400D1266FE032
:1010FC00DFFB03C7A1829147631AF700EFE25FFAA7
:10110C0023AC0182EFF0EFDF6FE03FFA8280EFE279
:10111C003FF9711101442AC06357A400EFF0EFD8D6
:10112C0005040245CDBF11016FE03FF8EFE25FF718
:10113C0023AC0182EFF06FD76FE03FF7EFE25FF681
:10114C003704002093070406B82B914713040406B8
:10115C00631EF700372500001305C54CEF00907C8B
:10116C00EFF0CFD723A001842398018238289D4724
:10117C00631CF702938701848C4337250000130509
:10118C00454E85058CC3EF00B077EFF00FD20546C6
:10119C00914537150140292E1545EF00D002014627
:1011AC0091453715014029263828A5476316F702C3
:1011BC003725000013050550EF00D07683A7018476
:1011CC00372500001305055293951700BE958E0523
:1011DC00BE958605EF00D0723828B147631BF70225
:1011EC002C383725000013054559EF00707138383D
:1011FC0089476313F7001D3F38388D47631BF70091
:10120C003725000013054553EF00D07103A5018469
:10121C00FD3D6FE09FE9EFE2BFE8371402401C4050
:10122C003707FFF8414593E717001CC05C40F98F66
:10123C005CC01C403707F7FE7D17F98F1CC01C40A3
:10124C003707FCFF7D17F98F1CC05C4041777D1779
:10125C00F98F5CC0B7079F001CC481211C4C93E71D
:10126C0007021CCCB717014003A707409386074021
:10127C001377F7F023A0E74003A70740136707088D
:10128C0023A0E74089479CCAB72702409843719B2B
:10129C0098C3984398C35C4093E707025CC06FE027
:1012AC00DFE0EFE2FFDF371702405C43370400203A
:1012BC009146B18B130404026385D700A146638267
:1012CC00D704B7376E01938707601CC0B71602406E
:1012DC00DC420840918313F7F700B707002093878F
:1012EC000701BA978C23DC4293F5F50F93F70708A7
:1012FC003357B50081E7EFE0FFDD2A8718C06FE0B8
:10130C00DFDA5C43B777DC02938707C07DBF01A0AF
:10131C0097F1FF1F9381C152138181FB1305000AC2
:10132C0097F5FF1F938545CD17F6FF1F130686CD46
:10133C0063FAC5008322050023A055001105910511
:10134C00E3EAC5FE171500001305052A97F5FF1FE4
:10135C00938545CB17F6FF1F130686CE63FAC5009F
:10136C008322050023A0550011059105E3EAC5FE73
:10137C0017F5FF1F1305C5CC9385C1846377B500A2
:10138C00232005001105E36DB5FEB7220000938202
:10139C000288739002308D427390428097F2FFFF67
:1013AC00938282C593E2320073905230EFF0BFE625
:1013BC0097F2FFFF9382425D7390123473002030DA
:1013CC005841032305004C4537060140930706405E
:1013DC003E979346F3FFB1C583250640F58D232038
:1013EC00B640D043F18ED4C31443B3E6660014C3A5
:1013FC00184190479346F7FF758E90C7D047F18EF2
:10140C00D4C7144541466399C6009447D98E94C7F6
:10141C00D447558FD8C78280B6979443558F98C3BD
:10142C0082801C43F58F1CC38280944593F7060180
:10143C0093F2F60081C7DC41B3E2F20083D30500DE
:10144C0093F7F30FA5C303230500611122C226C035
:10145C008147130480029304800405473316F70078
:10146C0033F7C3006312E602939527003D47331709
:10147C00B7001347F7FF33736700B395B20033E33C
:10148C006500639D860050C985072147E397E7FCFB
:10149C00124423206500824421018280E39696FE4B
:1014AC0010C9DDB7828008456D8D3335A000828070
:1014BC0019C20CC982804CC98280370301400327B2
:1014CC0043009317350063D00702B707C0FFF51729
:1014DC00F98F37070007D98FD9CD370700F07D1763
:1014EC00798DC98F49A8635D0500B707E0FFED173B
:1014FC00F98F37070007D98FBDCD06050581D5B704
:10150C00B7073000931605013376F500C1826313DB
:10151C00F602370600F97D16B377C70003274300A0
:10152C00798E2322C300A1C9558113174500339529
:10153C00E60045BF9317B50063D407029357050126
:10154C0013F6F7008D47B397C70093C7F7FFF98FD2
:10155C0037070007D98F85C1135755011207C1BF33
:10156C00558112053395A6009347F5FFF98F370780
:10157C000007D98FBDF5370701405CC38280370760
:10158C000140144786058D47B397B70093C7F7FF03
:10159C00F58F1CC71C47B315B500DD8D0CC78280B9
:1015AC0023A2A1848280EFE2BFAFB77700409843BB
:1015BC00759B98C398431367270098C3B7F700E04F
:1015CC0003A707D11367470023A8E7D003A707D1C8
:1015DC00118B45C39307800873B007300F100000C0
:1015EC00B707014083A4474003A7074083A64740A1
:1015FC00558F23A2E74037F400E0032704D183275B
:10160C0004D14D451377070293E787022328F4D0C2
:10161C00832704D193F7F7FDD98F2328F4D08327A0
:10162C0004D193E787002328F4D097F0FF1FE780BD
:10163C00A09C832704D14D4593E787002328F4D041
:10164C0097F0FF1FE780409B832704D1918BA1C3A8
:10165C00B707014023A297409307800873A0073077
:10166C0037F700E0832707D1ED9B2328F7D06FE0F5
:10167C00DFA303A707D11367070123A8E7D09307BC
:10168C00800873B007300F1000008144ADB783277A
:10169C0004D1BD9B2328F4D0C1B7371702401C439B
:1016AC000E0593F777F05D8D08C38280EFE25F9FA4
:1016BC00371702405C4391462A84B18B6385D7006F
:1016CC00A1466380D708B7376E01938707601CC0AB
:1016DC00B7160240DC42918313F7F700B7070020DE
:1016EC0093878703BA978C23DC42184093F5F50F48
:1016FC0093F707083355B70081E73A85EFE09F9DD4
:10170C0048C008C448C4B7170240DC438D46AD83BB
:10171C00FD8B13D737008A07F18BD98F13F637015E
:10172C0013F7370063F4C600138747FFB707002091
:10173C0093874702BA978C23EFE0DF9908C86FE0D4
:10174C00DF965C43B777DC02938707C049B799C52E
:10175C00371702401C4F5D8D08CF8280B7170240AF
:10176C00984F1345F5FF798D88CF828099C537172F
:10177C0002405C4F5D8D48CF8280B7170240D84F36
:10178C001345F5FF798DC8CF82801E213737014074
:10179C00130707C0C207C1836306E5003707004083
:1017AC006316E500BA2193F7F7F8D98FFA2193F76E
:1017BC00F7CFC207C183D98F1EA1DE215EB59E2152
:1017CC001EB5B7370140938707C06314F5009C25FD
:1017DC001EB985475EA982801E3165771307F7CF46
:1017EC00C207C183BD9BC207C1831EB11E315621E6
:1017FC0003D38500C20713960601162DC18393F7F8
:10180C00F7FD758F96214182A206558FB6214207AE
:10181C004183B3E666009206D58FB7360140C20706
:10182C00938606C0C183631ED502B62593F7F7F7DE
:10183C0003D3C5009206D58FD621C207C183920669
:10184C0093F7F7FBD58FFD769386F63FF18EF22555
:10185C00C207C183336666000A06D18E1396060151
:10186C00418252A11AADFA2118DD1EB182801E21CF
:10187C0089C593E717001EA18280C207C183F99B1B
:10188C00C207C183CDBF8357450491C52167D98F4A
:10189C002312F5048280C607C583DDBF1E2189C5CE
:1018AC0093E707081EA18280C207C18393F7F7F75D
:1018BC00C207C183C5BF1A2DFD779387F77FF98FB8
:1018CC00A205CD8FC207C1831EAD82800CDD828044
:1018DC00EFE20FFD1629F577FD17F58FF621DA25C6
:1018EC002111D58F1EA95625FD779387379FF58F2C
:1018FC00D6212A842EC0D58F9625D58FB625D58F87
:10190C005EA55E29C207C18393F7F7CF5D8F5AA9F5
:10191C004800EFF0BFD9B747014093870780824555
:10192C006312F406C2475A24139517003E954207DA
:10193C000E0541873E958C41635807048605EFE000
:10194C006FF9930540062AC0EFE0CFF88247931455
:10195C004500930540063E85EFE08FFA5E24C207F2
:10196C00C18763D507020E059305400613052503B1
:10197C00EFE04FF61D89C98CC204C18006A4610139
:10198C006FE0AFF2B24745B78A0555BF1205930514
:10199C00400613052503EFE0EFF33D89E9BF91C540
:1019AC005E250967D98F5EA582805A25F977FD17C8
:1019BC00F98FD5BF93F5F51F4EA182800A216D8D4D
:1019CC003335A000828037F700E054433111930780
:1019DC007100F99A54C39306703E14CB232407006C
:1019EC00AD4614C303A6018183A64181E19B90C738
:1019FC00D4C78C47D0479356F5413303B5003335E4
:101A0C00A300B385C600B306B50023A06700D4C3FA
:101A1C0003A3070003A5418183A3470063E8A30048
:101A2C006318750083A601816374D3005101828011
:101A3C000100F9BFEFE2CFE6B707002003A50702CC
:101A4C00B7157A0093850520EFE0CFE81375F50FF5
:101A5C002385A18493175500898F8A073E950E051F
:101A6C002394A1846FE06FE4EFE28FE337F400E09E
:101A7C005C40AA85F99B5CC003D58184EFE08FE3C1
:101A8C0008C8232404001C4093E717001CC0B7F7B8
:101A9C0000E0D843058B75DF9843799B98C36FE0C2
:101AAC00CFE0EFE2EFDF2A841165111185451305B4
:101ABC001502EFF0DFC9854537052080EFF0FF9F59
:101ACC00930700047C80371501408D473EC28A8500
:101ADC00E147130505403EC4EFF03F9522C637445D
:101AEC000140B70708006C00130504803ECA02C809
:101AFC00231C0100EFF0DFDD85451305048045351F
:101B0C0071016FE08FDAEFE2AFD97111AE8401444D
:101B1C00635DC402B7470140138707803A8593057C
:101B2C00000432C0613DB74701401387078002466D
:101B3C0075D533878400830507001385078005045A
:101B4C00C205C181853D0246E1B7328511016FE0C6
:101B5C00CFD5411106C62EC00DCD1841AA8705C39D
:101B6C0058417D5511CB8546631BD7009847230000
:101B7C00070023A207000545B24041018280984727
:101B8C00824614A39847050798C7D8437D17D8C336
:101B9C00DDB705468A85853FF9BF011122CC2EC2DF
:101BAC0006CE26CA2A8481479305000263450602A5
:101BBC009245BE95838505008DE563D8C70263D435
:101BCC00E702198E1305000293F526002AC089C579
:101BDC0001E7930500032EC0858A814495EAB284FF
:101BEC000DA08507F1B71D8EF1BF0146E1BF8245FF
:101BFC0022853AC832C63EC4A93FA2473246424764
:101C0C00FD14E34690FEB284635306008144058EB6
:101C1C0063C7E702A68792463387974036978305BA
:101C2C00070095EDB28463449004635306000146AB
:101C3C00F2406244D2443305F600056182801D8F68
:101C4C00BA8793050003228532C83EC63AC41137C1
:101C5C00B24722474246FD17EDF7BA9465BF22857D
:101C6C0032C63EC4FD35A247324685076DB7824564
:101C7C00228532C43EC2F13DFD142246924765B71F
:101C8C00397106DE22DC26DA3EC232833A8689EDD1
:101C9C0092469307000301476C08FC86FD3DF25009
:101CAC006254D25421618280AA843684AE8791CA50
:101CBC00294701446317E30063D50500B307B0401F
:101CCC0005448646A309010213073103938666FC7B
:101CDC0036C49A853E8532CA3AC81AC63EC0EFE071
:101CEC002FC2A546824732434247524663D4A600D0
:101CFC00A2463695130505039306F7FFA30FA7FE1F
:101D0C009A853E8532CC3ACA1AC83EC636C0EFE038
:101D1C006FBCB24742435247624663FD670409CC2D
:101D2C0029CE9247898BB1CB9305D002268532C43C
:101D3C00EFF03FE222467D169247918B85C706470E
:101D4C009307100632C49305000326856311F7042C
:101D5C00EFF03FE0930580072685EFF09FDF2246EA
:101D6C00090479161647924682452685EFF0FFE264
:101D7C00229535B7AA870247A9BF82469307D0029E
:101D8C000144A38FF6FE9307E7FF3EC075B7EFF053
:101D9C005FDC93058005C9B70145828001458280CF
:101DAC00130181FD22D026CE06D22AC4AE82328403
:101DBC0002C681448385020091EDA24789C7814503
:101DCC003E85EFF01FD9925002542685F244130140
:101DDC0081028280930750026389F500224516C860
:101DEC008504EFF01FD7C24205A08387120013872A
:101DFC001200639DB7002245930550023AC8EFF0DC
:101E0C005FD542478504BA8285026DB7DDD793064C
:101E1C00B0026389D70463C8F60093063002638668
:101E2C00D704814705A09306D002638AD700930696
:101E3C000003E398D7FE13872200894721A013875C
:101E4C0022008547830607001306B0026383C6048D
:101E5C006341D60213063002638BC602BA82014577
:101E6C00A54681A0138722006DBF138722009147DE
:101E7C00D1BF1306D0026389C60013060003E39F8B
:101E8C00C6FC93E7270031A005078547C1BF93E740
:101E9C0047000507E1B713162500329506053A955C
:101EAC00850203860200130706FD9375F70FE3F412
:101EBC00B6FE1307E0029946631EE60085028146D2
:101ECC00A54503860200130606FD1377F60F63F58E
:101EDC00E50236C6038702001306A006630DC70A87
:101EEC006343E6021306C0046307C70A13068006A1
:101EFC00630CC70881452DA813972600BA96860651
:101F0C00B29685027DBF130640076306C708130609
:101F1C00A0076302C7081306C0068145631AC700F1
:101F2C00038612008D456314E600850291458502F7
:101F3C0003860200930300061307100663C4C30054
:101F4C00130710049303700663C4C306930350066F
:101F5C00635676189303700463C1C304930550044D
:101F6C00635EB61613073004E310E6EA18409303D9
:101F7C00440016CA230CE1001EC8A30C0100014743
:101F8C00BE862A862C0849A8038612008145E311D7
:101F9C00E6FA890271BF8502B1BF93063006E307EA
:101FAC00D6FC63CFC606930680056303D602A9BD93
:101FBC00930630076304D60463CBC6029306F0067F
:101FCC006305D60E9306000793E74700E31ED6E29F
:101FDC0091466392D50C930384000C40504016CA72
:101FEC003AC23EC01EC8AA870147C14681A89306C3
:101FFC005007630BD6069306800745BF1840B726DB
:10200C000000930344009385465E11C3BA853247A2
:10201C0016CA1EC8BE862A862245EFF01FB815A028
:10202C0091466395D502930384000C40504016CA28
:10203C003AC23EC01EC8AA870547A9462245EFF002
:10204C00BFD5C243AA941E84D2427DBBB2460C407B
:10205C0016C836C23AC011042A878546294622453D
:10206C00EFF01FC2AA9441B39146639DD500930330
:10207C0084000C40504016CA3AC23EC01EC8AA8703
:10208C00014765BFB2460C4016C836C23AC01104AF
:10209C002A878146E1B7B24616C80C40414636C283
:1020AC003AC011042A8781465DBF9146639ED500D4
:1020BC00930384000C40504016CA3AC23EC01EC85E
:1020CC00AA870147A1469DBFB2460C4016C836C22E
:1020DC003AC011042A878146214651B70C40130699
:1020EC00840040403AC22A87224532C83EC022862C
:1020FC00B687A94616CAEFF07FCAAA944244A9B77C
:10210C001301C1FD2EC832CAAA851008014506C6A6
:10211C0036CC3ACE3ED032C0EFF09FC8B24013015D
:10212C0041028280411122C426C206C61C21AA8407
:10213C000144DC8183073100050499EFA94793051D
:10214C00310005460145DC81EFF0FF9B2285B24052
:10215C002244924441018280054693053100014599
:10216C00EFF07F9AB38784009C23DC81E1B74111A7
:10217C002AC08A850546014506C6EFF0DF98B240B5
:10218C000545410182800000400500005605000015
:10219C00600500006A050000740500007E05000063
:1021AC0088050000920500009C050000A6050000B3
:1021BC00B00500004572726F7220454550524F4D6C
:1021CC005F7265616456617220636F64653A256461
:1021DC0020000000466C61736820756E6C6F636B39
:1021EC002F6C6F636B206661696C65640000000086
:1021FC00466C617368206572617365206661696CF9
:10220C0065640000466C61736820777269746520A0
:10221C006661696C65640000466C61736820777256
:10222C0069746520766572696669636174696F6E3D
:10223C00206661696C656400466C617368206F7020
:10224C0065726174696F6E2074696D656F75740069
:10225C00454550524F4D206E6F7420696E697469FC
:10226C00616C697A656400005661726961626C65C3
:10227C00204944206E6F7420666F756E64000000F8
:10228C0043524320766572696669636174696F6E47
:10229C00206661696C65640053746F7261676520B8
:1022AC0063617061636974792065786365656465E1
:1022BC0064000000496E76616C6964207661726915
:1022CC0061626C6520494400496E76616C696420DA
:1022DC00706172616D6574657200000048617264B2
:1022EC004661756C745F48616E646C65720D0000BC
:1022FC004E4D495F48616E646C65720D00000000C4
:10230C00700B0000780B0000CE0C00008A0B000054
:10231C00520C0000CA0C0000560C00008A0C000085
:10232C008E0C0000CA0C0000D20C0000E20C000065
:10233C00140D00001A0D00004A0D000045455052C6
:10234C004F4D2044656D6F20467265653A202564BB
:10235C000D0A00002E5245414420434F4E4649473A
:10236C0020426F6F737420456E61626C650D0000C6
:10237C002E5245414420434F4E46494720426F6FF1
:10238C0073742054696D650D000000002E52454198
:10239C004420434F4E46494720506F7765720D00DD
:1023AC00454550524F4D2069643A25642021204EFA
:1023BC006F742050726573656E7420210D0A0000D5
:1023CC00454550524F4D205361766520636F6465CF
:1023DC003A25640A00000000454550524F4D2056E6
:1023EC006572696669636174696F6E2069643A2508
:1023FC00642056616C75653A2025640D0A00000056
:10240C00454550524F4D2069643A25642056616C05
:10241C0075653A25640D0A000D0A2D2D2D2D2D2DD7
:10242C002D2D2D2D2D2D2D2D2D2D2D2D2D2D2D2DD0
:10243C002D2D2D2D2D2D2D2D2D2D2D2D2D2D2D2DC0
:10244C002D0D0000D09FD180D0B8D0B2D0B5D182A4
:10245C002053797374656D436C6B3A25640D0A00D7
:10246C00434F4E46494720426F6F737420456E614F
:10247C00626C65203A2025640D0A0000434F4E46DD
:10248C00494720426F6F73742054696D652020207A
:10249C003A202564206D730D0A000000434F4E4610
:1024AC00494720506F776572202020202020202063
:1024BC003A2025640D0A0000476F2E2E2E0D0000C9
:1024CC003E2053637265656E426F6F737454696D11
:1024DC006520486F6C640D003E2053637265656E19
:1024EC00426F6F737454696D652053746570202549
:1024FC00640D0A003E2053637265656E426F6F7304
:10250C007454696D652072656C656173655374658F
:10251C00700D0000426F6F737454696D653A20251D
:10252C0064206D730A000000676574436C69636B0B
:10253C0073203D3D20330D00436C69636B0D00002F
:10254C00486F6C640D000000537465702025640D99
:10255C000A00000072656C65617365537465700DDB
:10256C000000000052656C656173650D0000000091
:10257C0054696D656F75740D0000000053637265CE
:10258C00656E506F77657220436C69636B733A208C
:10259C0025640D0A000000002B2B20436C69636B33
:1025AC00733A20256420696D703A25640D0A000089
:1025BC002D2D20436C69636B733A20256420696D63
:1025CC00703A25640D0A00005374617475730D0024
:1025DC00536176650D000000286E756C6C29000047
:0425EC007A0D000064
:1025F00064000A000102030405060708010203043F
:102600000506070800127A000204060804080C10E8
:102610000810182010203040204060800102030480
:0C26200005060708010203040506070870
:00000001FF
