:100000006F00F06900000000E2060000F406000046
:1000100000000000000000000000000000000000E0
:1000200000000000000000000000000000000000D0
:1000300014070000000000009C0E000000000000FB
:100040009C0E00009C0E00009C0E00009C0E000008
:100050009C0E00009C0E00009C0E00009C0E0000F8
:100060009C0E00009C0E00009C0E00009C0E0000E8
:100070009C0E00009C0E00009C0E00009C0E0000D8
:100080009C0E00009C0E00009C0E00009C0E0000C8
:100090009C0E00009C0E00009C0E00000000000062
:0C00A000730050107D157DFD8280000073
:1000AC00511126C022C206C4828282441244A2404C
:1000BC00310182802A86014593F6150091C2329552
:1000CC0085810606F5F9828000000000634E05026A
:1000DC0063C305042E86AA857D5515C285466378B3
:1000EC00B6006356C00006068606E36CB6FE0145F4
:1000FC0063E4C500918D558D85820582F5FA828069
:10010C008682C93F2E8582823305A04063D70500C5
:10011C00B305B040C1B7B305B0408682653F330527
:10012C00A0408282868263C70500634905005D3763
:10013C002E858282B305B040E35B05FE3305A040FB
:10014C00513F3305B04082820000372702401C4BE0
:10015C0093E707081CCB8280B16793870735B726D6
:10016C000240D846058B11C799E315458280FD17CF
:10017C00CDBF154591C301458280C1676976814623
:10018C00FD17050613F7F60F6364B7003E858280F2
:10019C003307D5001823B98F214713F31700858334
:1001AC0063050300B18FC207C1837D171377F70F67
:1001BC006DF78506C1BFB7270240984B01451377F1
:1001CC00070811CF3707674513073712D8C337977E
:1001DC00EFCD1307B79AD8C3884B1D810589828050
:1001EC00EFF21FEC7111AA842E84F1370DE9AD37B3
:1001FC0009C52AC0993F02451DA0B7270240984B5C
:10020C001367170098CB82A0813FB7270240984B09
:10021C00799B98CB9E20E30EF4FC053F1145110110
:10022C0069B5930785009306F00F1305A53F63E4AA
:10023C00A7000145828098231377F70FE30BD7FEB5
:10024C006316B70081C51CC2054582809907C5B7E6
:10025C001307850081471305A53F1306F00F636450
:10026C00A7003E858280142393F6F60FE38BC6FE1F
:10027C0081C6850793F7F70F1907D5B719C97C21E4
:10028C0089CB2320050023220500232405002316F7
:10029C000500828051C9EFF2BFE07C212A847111E4
:1002AC00194589CB0440013F11E57D3511C52AC0A4
:1002BC00693D02451101D5BBB7270240984B136726
:1002CC00270098CBC4CB984B1367070498CB6935A0
:1002DC00B7270240984B759B98CB9840FD57630508
:1002EC00F700A5350945F9B72AC08535024579F1DE
:1002FC000840956593855504E5354DFD084091659D
:10030C00938555540905E93D55F50840854511057A
:10031C00C13D4DF1084081451905D93541FD2316E4
:10032C000400A303040079B71945828019E12D4517
:10033C008280EFF2FFD67C212A84AE8491C33D3FAC
:10034C0093F7F43F2D459DE7C167938707025CC087
:10035C0004C0232404009840B757454523160400D5
:10036C009387570401456307F7002285253719C188
:10037C00230304001DBB31C57821AD4721C739C209
:10038C00EFF21FD20841511132843000AE84513D3E
:10039C009D470DC5224785468D453E2348003AC0F2
:1003AC00C207C1831EA0A1835C834482D482F13333
:1003BC00024781475A236303E500A1473E8531017B
:1003CC00EDB1AD473E858280AA8709C978211945D0
:1003DC0019C7F83301450507F8B3828019458280A7
:1003EC0039C97821994729CBA947B9C5EFF25FCB19
:1003FC002A840841411132C22EC0993D5E2042052B
:10040C004181637DF5001C409306F00F93848700B7
:10041C009387A73F63EBF400A54729A022856D378E
:10042C00A54775D13E85410149B190206388C6002E
:10043C0090309904C5B799473E85828082478D4597
:10044C0068005C868547DC869247A1835C873533E0
:10045C0082472AC4268593E507105933AA8779F178
:10046C00924513852400AD3BAA874DFDA24513850B
:10047C004400BD33AA875DF55A2405075AA437F703
:10048C0000E0184718C479BFB707002083A687047B
:10049C001306F00F8147138786009386A63F636788
:1004AC00D70061551D8D1375F50F82800C23E30A5F
:1004BC00B6FE1385670093170501C1831907C5B7ED
:1004CC00EFF21FBEB745000837050020938505C025
:1004DC0013058504A13DD1BEEFF29FBC2E86AA85E3
:1004EC003705002013058504E53DC1B6EFF25FBB6F
:1004FC007111AA8537050020130621001305850408
:10050C009D3D01E5288111014DB62A84AA85372528
:10051C000000130545BEEF10E0607D141374F40F5A
:10052C00A94763EF87008967938787BB0A043E94CA
:10053C001C40828737250000130545C0EF10805EF4
:10054C002945EF1000657D557DBF3725000013054B
:10055C0005C2EDB737250000130545C3C5B73725D0
:10056C000000130585C4D9BF37250000130585C6C7
:10057C00F1B737250000130505C8C9B737250000AA
:10058C00130585C965BF37250000130505CB7DB75D
:10059C0037250000130585CC55B73725000013050A
:1005AC0045CE69BF37250000130585CF41BFEFF25B
:1005BC003FAF2A840146894537150140EF0070276B
:1005CC002285EF00F063D5B4B7F700E0D843799BF0
:1005DC00D8C3379798001307F76798CB23A4070065
:1005EC009847E37FE5FE23A407001307703E98CBE2
:1005FC008280EFF2FFAA7111AE8409E52E85453F8A
:10060C00110165B4AA8537450F0013050524D934AB
:10061C0093975400858F8A07A697AA8513541500C3
:10062C0013953700453CAA878144E38BF4FC0546BF
:10063C008945371501403EC0EF00B01F2285693750
:10064C000146894537150140EF00B01E2285AD3FAC
:10065C0085048247D9BFEFF2BFA4930500051305AB
:10066C00803E413F930500051305C05D593735BCED
:10067C00EFF21FA393056009130500329D3F35B4BB
:10068C00EFF21FA2E54513058070A53739BCEFF2D8
:10069C003FA19305600413050032A13F930560044C
:1006AC001305803EB9379305A005130580259137B6
:1006BC00EDBAEFF2FF9E930560091305004B153F51
:1006CC0093056009130540382D379305400B13052E
:1006DC0080250537D9BA711122C0372400001305C3
:1006EC0004D2EF106046E5BF7111B707EFBE22C010
:1006FC0037E700E0938707083CC737240000130551
:10070C00C4D0EF106044E5BF938701819843D04378
:10071C009306170033B7E6003297D8C394C3B7F7E4
:10072C0000E023A2070073002030EFF27F97411105
:10073C008545454502C002C202C402C6EF005039CD
:10074C0091450945EF00D01BC1473EC091473EC2C1
:10075C00B1473EC40A8585473EC6EF00807E410105
:10076C006FF0BF94EFF2DF9361112A842EC0B28434
:10077C00B53B7D576314E50437250000A2851305AE
:10078C0005E2EF10203AA6852285B933AA853725D4
:10079C000000130505E4EF10E0382285813B1316A9
:1007AC000501372500004182A285130585E5EF1070
:1007BC006037824786A321016FF03F8F2A862AC2B9
:1007CC0037250000A285130505E8EF10A035024778
:1007DC0092471EA3CDB7EFF2BF8CDD317531AA85E0
:1007EC00372500001305C5D6EF10C03337250000A0
:1007FC00130545D8EF104035014693850183054517
:10080C00953737250000130505DAEF10E033B705EF
:10081C0000201306800C9385C5000945A1373725A8
:10082C000000130585DBEF102032B70500201306FE
:10083C0080029385E5000D4535376FF01F87EFF289
:10084C003F8693878181B82B854713848181631EF2
:10085C00F700372500001305C5DCEF10E02E054628
:10086C00914537150140EF00C07C38288947631942
:10087C00F70037250000130545DDEF10E02C093596
:10088C00382891476319F700372500001305C5DD9B
:10089C00EF10802BF13B382895476318F70037256C
:1008AC000000130545DEEF10202A38289D47631DF4
:1008BC00F70037250000130505DFEF10E02893053E
:1008CC0040061305001935333828A5476318F7007F
:1008DC0037250000130585DFEF1000273828A947BE
:1008EC00631EF70037250000130545E0EF10C02507
:1008FC000146914537150140EF00A0733828B147E8
:10090C00631FF7002C38372500001305C5E0EF10E6
:10091C0060213C3889466391D70223ACF182382898
:10092C00B9476319F70037250000130585E1EF106F
:10093C00A021B13B6FF06FF70D476395E70023AC37
:10094C00D182F1BF91466394D70223ACE1820D3B77
:10095C001305800CEF00D02A25331305800CEF0013
:10096C00302A393B1305800CEF009029113B3838A5
:10097C009547E316F7FA353B2D3B253B1D3B93077B
:10098C00800873B007300F100000B707EFBE37E7D1
:10099C0000E0938707083CC701A003C7A1829147D9
:1009AC006319F700EFF2CFEF23AC018219336FF02C
:1009BC00CFEF8280EFF2CFEE83D70183054693848D
:1009CC00018391E301469145371501409D2593879D
:1009DC008181B82BB147138481816312F7022C38C3
:1009EC00372500001305C5E0EF10C01338388947D0
:1009FC006317F7009E2093B717009EA0A9393828DB
:100A0C0091476315F70023AC018265316FF0EFE974
:100A1C00EFF20FE95111054502C002C202C4EF000A
:100A2C0040700921EF00B0241305401FEF00702720
:100A3C00854513054003EF00B009854537050010C7
:100A4C00EF00F00A37150140FD578A851305058024
:100A5C007C8002C4A12B8A8537150140812B05446B
:100A6C009147C1448A85371501407C8022C226C437
:100A7C00352B89478A85371501407C8022C226C4D4
:100A8C003523930780048A85371501403EC422C262
:100A9C006480292B0546914537150140592B154586
:100AAC00EF00302001469145371501405923B539E7
:100ABC00716513050520EF00702237250000130522
:100ACC0085E9EF106008B707002083A507023725DA
:100ADC000000130545ECEF10E004F5393724000055
:100AEC00130584EAEF10400683D5018337250000F7
:100AFC00130545EDEF100003B707002083D5C700A1
:100B0C0037250000130505EFEF10C001B7070020D3
:100B1C0083D5E70037250000130505F1EF108000A1
:100B2C00130584EAEF104002F52CB7E700E00567E7
:100B3C0023A0E710B7F700E0D84393054006130550
:100B4C00803E799BD8C31307703E98CB23A4070033
:100B5C002D4798C3EFF0FFA9930560091305C05DFD
:100B6C00EFF03FA9372500001305C5F2EF00D07D4B
:100B7C00C145371501404D2993878181982B133539
:100B8C0015006312A7028146014794C7D8C7B42B3E
:100B9C003946982B6366D60609668A06130606D371
:100BAC00B296944282869847CC4783A601813363E0
:100BBC00B70003A641816315030094C7D0C7C1BF1A
:100BCC003387E640B3B6E6000D8E6316D600930667
:100BDC001003E3FEE6FA88AB5DBF1DC30547B8AB57
:100BEC0005A00D47B8AB03A6018183A6418190C334
:100BFC00D4C339A005EF0947B8ABB83B0507B8BB60
:100C0C0083A781839384818391E315399840894725
:100C1C006313F7002D31984091476313F700B53BF0
:100C2C0098408D47E316F7F4713399B703A6018109
:100C3C00944383A54181D843B306D6403335D600BF
:100C4C003387E540098F6347E0005DFB1307703E77
:100C5C00E378D7FA1147B8AB90C3CCC355B7194753
:100C6C00BDBF19E31547A5BF03A60181944383A516
:100C7C004181D843B306D6403335D6003387E5409F
:100C8C00098F6347E0002DFF1307F018E37AD7F6BE
:100C9C001D47D1B72147A1B719E3254789B703A64B
:100CAC000181944383A54181D843B306D6403335A3
:100CBC00D6003387E540098F6347E00031F3130713
:100CCC00703EE37FD7F21D47B8AB983B050798BB46
:100CDC0061B7A3890700294719B7B43BA38807005C
:100CEC002D47E39106F03547F5BDE31907EE03A652
:100CFC000181944383A54181D843B306D640333553
:100D0C00D6003387E540098F6348E000E31A07EE0D
:100D1C001307301FE376D7EE314735BF3547BAABF3
:100D2C00C5B5E31D07EA03A60181944303A74181DE
:100D3C00CC43B306D6403336D6000D8F118F6348A3
:100D4C00E000E31F07EA1307703EE37BD7EA39475D
:100D5C0079B5238907006DB5EFF28FB4854505454C
:100D6C00852B37053000854513050540C12C0545FD
:100D7C00652E6FF08FB39387818101478146D8C36D
:100D8C00D8C794C394C723A80700B707320093872A
:100D9C00470623AAF1828280EFF28FB0371402400B
:100DAC001C403707FFF8414593E717001CC05C4017
:100DBC00F98F5CC01C403707F7FE7D17F98F1CC0FC
:100DCC001C403707FCFF7D17F98F1CC05C40417736
:100DDC007D17F98F5CC0B7079F001CC481211C4C88
:100DEC0093E707021CCCB717014003A70740938673
:100DFC0007401377F7F023A0E74003A707401367DA
:100E0C00070823A0E74089479CCAB72702409843AC
:100E1C00719B98C3984398C35C4093E707025CC0EE
:100E2C006FF0AFA8EFF2CFA7371702405C4337043F
:100E3C0000209146B18B130404026385D700A146B0
:100E4C006382D704B7376E01938707601CC0B7164F
:100E5C000240DC420840918313F7F700B7070020EB
:100E6C0093870701BA978C23DC4293F5F50F93F720
:100E7C0007083357B50081E7EFF0CFA52A8718C0D4
:100E8C006FF0AFA25C43B777DC02938707C07DBFDE
:100E9C0001A0970100209381A19A138181FB130576
:100EAC00000A97F5FF1F9385251517F6FF1F1306EC
:100EBC00661563FAC5008322050023A055001105B1
:100ECC009105E3EAC5FE171500001305E50697F535
:100EDC00FF1F9385251317F6FF1F1306661663FA7B
:100EEC00C5008322050023A0550011059105E3EAF6
:100EFC00C5FE17F5FF1F1305A51493854184637771
:100F0C00B500232005001105E36DB5FEB7220000E6
:100F1C0093820288739002308D427390428097F2D4
:100F2C00FFFF9382620D93E2320073905230EFF028
:100F3C00BFE6970200009382E2AD73901234730007
:100F4C0020305841032305004C45370601409307D8
:100F5C0006403E979346F3FFB1C583250640F58DB9
:100F6C002320B640D043F18ED4C31443B3E66600BD
:100F7C0014C3184190479346F7FF758E90C7D0471E
:100F8C00F18ED4C7144541466399C6009447D98E57
:100F9C0094C7D447558FD8C78280B6979443558F42
:100FAC0098C382801C43F58F1CC38280944593F7B1
:100FBC00060193F2F60081C7DC41B3E2F20083D361
:100FCC00050093F7F30FA5C303230500611122C29B
:100FDC0026C081471304800293048004054733160E
:100FEC00F70033F7C3006312E602939527003D47E1
:100FFC003317B7001347F7FF33736700B395B2008D
:10100C0033E36500639D860050C985072147E3974C
:10101C00E7FC124423206500824421018280E39680
:10102C0096FE10C9DDB7828008456D8D3335A00062
:10103C00828019C20CC982804CC98280370301405E
:10104C00032743009317350063D00702B707C0FF8F
:10105C00F517F98F37070007D98FD9CD370700F06F
:10106C007D17798DC98F49A8635D0500B707E0FF2F
:10107C00ED17F98F37070007D98FBDCD0605058110
:10108C00D5B7B7073000931605013376F500C1824A
:10109C006313F602370600F97D16B377C7000327F2
:1010AC004300798E2322C300A1C955811317450033
:1010BC003395E60045BF9317B50063D407029357E9
:1010CC00050113F6F7008D47B397C70093C7F7FFD9
:1010DC00F98F37070007D98F85C1135755011207B0
:1010EC00C1BF558112053395A6009347F5FFF98FC3
:1010FC0037070007D98FBDF5370701405CC38280E5
:10110C0037070140144786058D47B397B70093C73F
:10111C00F7FFF58F1CC71C47B315B500DD8D0CC749
:10112C00828023AEA1828280EFE29FF7B7770040E6
:10113C009843759B98C398431367270098C3B7F7D8
:10114C0000E003A707D11367470023A8E7D003A744
:10115C0007D1118B45C39307800873B007300F106C
:10116C000000B707014083A4474003A7074083A6AC
:10117C004740558F23A2E74037F400E0032704D102
:10118C00832704D14D451377070293E78702232861
:10119C00F4D0832704D193F7F7FDD98F2328F4D00B
:1011AC00832704D193E787002328F4D097F0FF1FFF
:1011BC00E78080E4832704D14D4593E787002328FB
:1011CC00F4D097F0FF1FE78020E3832704D1918BA5
:1011DC00A1C3B707014023A297409307800873A0CF
:1011EC00073037F700E0832707D1ED9B2328F7D092
:1011FC006FE0BFEB03A707D11367070123A8E7D064
:10120C009307800873B007300F1000008144ADB70E
:10121C00832704D1BD9B2328F4D0C1B737170240D4
:10122C001C430E0593F777F05D8D08C38280EFE2C7
:10123C003FE7371702405C4391462A84B18B6385A4
:10124C00D700A1466380D708B7376E019387076034
:10125C001CC0B7160240DC42918313F7F700B707A6
:10126C00002093878703BA978C23DC42184093F5B0
:10127C00F50F93F707083355B70081E73A85EFE090
:10128C007FE548C008C448C4B7170240DC438D460C
:10129C00AD83FD8B13D737008A07F18BD98F13F6EB
:1012AC00370113F7370063F4C600138747FFB707FE
:1012BC00002093874702BA978C23EFE0BFE108C860
:1012CC006FE0BFDE5C43B777DC02938707C049B79A
:1012DC0099C5371702401C4F5D8D08CF8280B71718
:1012EC000240984F1345F5FF798D88CF828099C5C0
:1012FC00371702405C4F5D8D48CF8280B717024094
:10130C00D84F1345F5FF798DC8CF8280EFE25FD9B6
:10131C001629F577FD17F58FF621DA252111D58FD2
:10132C001EA95625FD779387379FF58FD6212A84E2
:10133C002EC0D58F9625D58FB625D58F5EA55E2967
:10134C00C207C18393F7F7CF5D8F5AA94800C53503
:10135C00B74701409387078082456312F406C24762
:10136C005A24139517003E9542070E0541873E956A
:10137C008C41635807048605EFE0DFD593054006E2
:10138C002AC0EFE03FD582479314450093054006F1
:10139C003E85EFE0FFD65E24C207C18763D5070206
:1013AC000E059305400613052503EFE0BFD21D89FA
:1013BC00C98CC204C18006A461016FE01FCFB24783
:1013CC0045B78A0555BF120593054006130525033D
:1013DC00EFE05FD03D89E9BF91C55E250967D98FE4
:1013EC005EA582805A25F977FD17F98FD5BF93F545
:1013FC00F51F4EA182800A216D8D3335A0008280AD
:10140C0037F700E05443311193077100F99A54C334
:10141C009306703E14CB23240700AD4614C303A6D9
:10142C00018183A64181E19B90C7D4C78C47D047EB
:10143C009356F5413303B5003335A300B385C6008D
:10144C00B306B50023A06700D4C303A3070003A50C
:10145C00418183A3470063E8A3006318750083A64A
:10146C0001816374D300510182800100F9BFEFE266
:10147C003FC3B707002003A50702B7157A00938571
:10148C000520EFE03FC51375F50F2381A184931759
:10149C005500898F8A073E950E052390A1846FE035
:1014AC00DFC0EFE2FFBF37F400E05C40AA85F99B98
:1014BC005CC003D50184EFE0FFBF08C823240400FF
:1014CC001C4093E717001CC0B7F700E0D843058B0E
:1014DC0075DF9843799B98C36FE03FBDEFE25FBC2B
:1014EC002A8411651111854513051502D5338545DF
:1014FC0037052080EFF09FB4930700047C803715EC
:10150C0001408D473EC28A85E147130505403EC424
:10151C00EFF0DFA922C637440140B70708006C0082
:10152C00130504803ECA02C8231C0100C53385453F
:10153C0013050480553571016FE03FB7EFE25FB6DC
:10154C007111AE840144635DC402B7470140138737
:10155C0007803A859305000432C0713DB7470140BE
:10156C0013870780024675D53387840083050700EF
:10157C00138507800504C205C181953D0246E1B77C
:10158C00328511016FE07FB2411106C62EC00DCD20
:10159C001841AA8705C358417D5511CB8546631B5D
:1015AC00D70098472300070023A207000545B24047
:1015BC00410182809847824614A39847050798C733
:1015CC00D8437D17D8C3DDB705468A85853FF9BF5B
:1015DC00011122CC2EC206CE26CA2A84814793053D
:1015EC000002634506029245BE95838505008DE594
:1015FC0063D8C70263D4E702198E1305000293F572
:10160C0026002AC089C501E7930500032EC0858AF0
:10161C00814495EAB2840DA08507F1B71D8EF1BF08
:10162C000146E1BF824522853AC832C63EC4A93F75
:10163C00A24732464247FD14E34690FEB284635300
:10164C0006008144058E63C7E702A687924633875E
:10165C00974036978305070095EDB2846344900458
:10166C00635306000146F2406244D2443305F6004F
:10167C00056182801D8FBA8793050003228532C8CD
:10168C003EC63AC41137B24722474246FD17EDF722
:10169C00BA9465BF228532C63EC4FD35A247324698
:1016AC0085076DB78245228532C43EC2F13DFD14DB
:1016BC002246924765B7397106DE22DC26DA3EC235
:1016CC0032833A8689ED92469307000301476C08F2
:1016DC00FC86FD3DF2506254D25421618280AA8472
:1016EC003684AE8791CA294701446317E30063D55A
:1016FC000500B307B04005448646A3090102130751
:10170C003103938666FC36C49A853E8532CA3AC844
:10171C001AC63EC0EFE0DF9EA546824732434247E1
:10172C00524663D4A600A2463695130505039306CC
:10173C00F7FFA30FA7FE9A853E8532CC3ACA1AC88A
:10174C003EC636C0EFE01F99B2474243524762464D
:10175C0063F9670401CC29CA9247898BB1C79305F9
:10176C00D002268532C40D3522467D169247918BC8
:10177C0095C306479307100632C4930500032685CC
:10178C00631EF7021135930580072685F53B22462B
:10179C00090479161647924682452685153D2295F1
:1017AC0015BFAA8702478DB782469307D002014422
:1017BC00A38FF6FE9307E7FF3EC04DBFF1339305B1
:1017CC008005E1B70145828001458280130181FDCE
:1017DC0022D026CE06D22AC4AE82328402C68144DE
:1017EC008385020089EDA24781C781453E85693B0F
:1017FC00925002542685F244130181028280930791
:10180C0050026388F500224516C88504B53BC242D8
:10181C0039A88387120013871200639CB7002245F6
:10182C00930550023AC88D3342478504BA8285022B
:10183C0045BFD5DB9306B0026389D70463C8F600B5
:10184C00930630026386D704814705A09306D00225
:10185C00638AD70093060003E398D7FE1387220010
:10186C00894721A0138722008547830607001306AA
:10187C00B0026383C6046341D60213063002638B45
:10188C00C602BA820145A54681A0138722006DBF0E
:10189C00138722009147D1BF1306D0026389C6007B
:1018AC0013060003E39FC6FC93E7270031A005074E
:1018BC008547C1BF93E747000507E1B7131625001D
:1018CC00329506053A95850203860200130706FD3C
:1018DC009375F70FE3F4B6FE1307E0029946631E07
:1018EC00E60085028146A54503860200130606FD27
:1018FC001377F60F63F5E50236C60387020013066D
:10190C00A006630DC70A6343E6021306C00463070F
:10191C00C70A13068006630CC70881452DA81397C8
:10192C002600BA968606B29685027DBF130640073E
:10193C006306C7081306A0076302C7081306C00690
:10194C008145631AC700038612008D456314E600B7
:10195C008502914585020386020093030006130756
:10196C00100663C4C300130710049303700663C40A
:10197C00C30693035006635576189303700463C132
:10198C00C30493055004635DB61613073004E310CB
:10199C00E6EA18409303440016CA230CE1001EC863
:1019AC00A30C01000147BE862A862C0849A8038691
:1019BC0012008145E311E6FA890271BF8502B1BFBD
:1019CC0093063006E307D6FC63CFC6069306800564
:1019DC006303D602A9BD930630076304D60463CB18
:1019EC00C6029306F0066304D60E9306000793E72F
:1019FC004700E31ED6E291466391D50C9303840015
:101A0C000C40504016CA3AC23EC01EC8AA870147B5
:101A1C00C14681A893065007630AD6069306800731
:101A2C0045BF1840B726000093034400938546F346
:101A3C0011C3BA85324716CA1EC8BE862A862245ED
:101A4C00EFF01FB90DA091466394D5029303840067
:101A5C000C40504016CA3AC23EC01EC8AA87054761
:101A6C00A94622458533C243AA941E84D242C1B3EF
:101A7C00B2460C4016C836C23AC011042A878546B5
:101A8C0029462245EFF03FC3AA9451B39146639D7A
:101A9C00D500930384000C40504016CA3AC23EC095
:101AAC001EC8AA8701476DBFB2460C4016C836C285
:101ABC003AC011042A878146E1B7B24616C80C40D9
:101ACC00414636C23AC011042A8781465DBF914611
:101ADC00639ED500930384000C40504016CA3AC252
:101AEC003EC01EC8AA870147A146A5BFB2460C40FE
:101AFC0016C836C23AC011042A878146214651B70E
:101B0C000C401306840040403AC22A87224532C852
:101B1C003EC02286B687A94616CAEFF0FFCAAA9421
:101B2C004244A9B71301C1FD2EC832CAAA851008B8
:101B3C00014506C636CC3ACE3ED032C0EFF01FC9B6
:101B4C00B240130141028280411122C426C206C652
:101B5C001C21AA840144DC8183073100050499EF20
:101B6C00A9479305310005460145DC81EFF01F9D27
:101B7C002285B2402244924441018280054693055D
:101B8C0031000145EFF09F9BB38784009C23DC81DF
:101B9C00E1B741112AC08A850546014506C6EFF01A
:101BAC00FF99B240054541018280000040050000CC
:101BBC0056050000600500006A0500007405000071
:101BCC007E05000088050000920500009C050000C1
:101BDC00A6050000B00500004572726F72204545E5
:101BEC0050524F4D5F7265616456617220636F6431
:101BFC00653A256420000000466C61736820756EA0
:101C0C006C6F636B2F6C6F636B206661696C6564C2
:101C1C0000000000466C617368206572617365207A
:101C2C006661696C65640000466C6173682077724C
:101C3C00697465206661696C65640000466C61734B
:101C4C00682077726974652076657269666963616C
:101C5C0074696F6E206661696C656400466C6173B3
:101C6C0068206F7065726174696F6E2074696D6540
:101C7C006F757400454550524F4D206E6F7420693E
:101C8C006E697469616C697A656400005661726989
:101C9C0061626C65204944206E6F7420666F756EAE
:101CAC006400000043524320766572696669636183
:101CBC0074696F6E206661696C65640053746F7231
:101CCC00616765206361706163697479206578630D
:101CDC006565646564000000496E76616C6964201A
:101CEC007661726961626C6520494400496E766167
:101CFC006C696420706172616D65746572000000BE
:101D0C00486172644661756C745F48616E646C65A1
:101D1C00720D00004E4D495F48616E646C65720D2A
:101D2C0000000000E60B0000EE0B0000E20C0000CF
:101D3C00000C00006A0C0000DE0C00006E0C0000B1
:101D4C00A00C0000A40C0000DE0C0000E60C00004F
:101D5C00F60C0000280D00002E0D00005E0D00009A
:101D6C00454550524F4D2044656D6F204672656558
:101D7C003A2025640A0000002E5245414420434F6E
:101D8C004E46494720426F6F737420456E61626CFA
:101D9C00650000002E5245414420434F4E464947B2
:101DAC0020426F6F73742054696D65002E5245414B
:101DBC004420434F4E46494720506F7765720000D0
:101DCC005072657373000000436C69636B00000014
:101DDC00486F6C640000000052656C656173654867
:101DEC006F6C6400537465700000000072656C6564
:101DFC00617365537465700052656C656173650041
:101E0C00436C69636B733A2025640A0054696D65F1
:101E1C006F757400454550524F4D2069643A2564E6
:101E2C002021204E6F742050726573656E742021D2
:101E3C000A000000454550524F4D205361766520F5
:101E4C00636F64653A25640A0000000045455052F2
:101E5C004F4D20566572696669636174696F6E20B7
:101E6C0069643A25642056616C75653A2025640ACC
:101E7C0000000000454550524F4D2069643A2564DE
:101E8C002056616C75653A25640A00000D0A2D2DEB
:101E9C002D2D2D2D2D2D2D2D2D2D2D2D2D2D2D2D66
:101EAC002D2D2D2D2D2D2D2D2D2D2D2D2D2D2D2D56
:101EBC002D2D2D2D2D00000053797374656D436C01
:101ECC006B3A25640D0A0000434F4E4649472042A9
:101EDC006F6F737420456E61626C65203A202564C7
:101EEC000A000000434F4E46494720426F6F7374FF
:101EFC002054696D652020203A202564206D730ADA
:101F0C0000000000434F4E46494720506F776572E2
:101F1C0020202020202020203A2025640A000000C8
:101F2C00476F2E2E2E000000286E756C6C29000059
:041F3C00820D000012
:101F400064000A00010203040506070801020304F5
:101F50000506070800127A000204060804080C109F
:101F60000810182010203040204060800102030437
:0C1F700005060708010203040506070827
:00000001FF
