:100000006F10502A00000000680D00007A0D0000FB
:1000100000000000000000000000000000000000E0
:1000200000000000000000000000000000000000D0
:100030009A0D000000000000A21A0000000000005D
:10004000A21A0000A21A0000A21A0000A21A0000C0
:10005000A21A0000A21A0000A21A0000A21A0000B0
:10006000A21A0000A21A0000A21A0000A21A0000A0
:10007000A21A0000A21A0000A21A0000A21A000090
:10008000A21A0000A21A0000A21A0000A21A000080
:10009000A21A0000A21A0000A21A0000000000002C
:0C00A000730050107D157DFD8280000073
:1000AC00511126C022C206C4828282441244A2404C
:1000BC00310182802A86014593F6150091C2329552
:1000CC0085810606F5F9828000000000634E05026A
:1000DC0063C305042E86AA857D5515C285466378B3
:1000EC00B6006356C00006068606E36CB6FE0145F4
:1000FC0063E4C500918D558D85820582F5FA828069
:10010C008682C93F2E8582823305A04063D70500C5
:10011C00B305B040C1B7B305B0408682653F330527
:10012C00A0408282868263C70500634905005D3763
:10013C002E858282B305B040E35B05FE3305A040FB
:10014C00513F3305B04082820000BD679387E7EED4
:10015C00630CF500C167FD17630DF50005C137355C
:10016C0000001305450F8280373500001305C510BC
:10017C008280373500001305C50F828037350000AB
:10018C001305451082801C4150419A2316224207C8
:10019C00C2064183C18219E741677D17639CE60063
:1001AC003E8582808147EDFEC166FD16E31AD7FEBF
:1001BC00B287FDB78147EDB7EFF29FEE3303C50071
:1001CC00AE842A84AA85373500005111130505E643
:1001DC001AC4EF2080791E20C207C1833E853EC21F
:1001EC00AD372AC026859537924702462A87373580
:1001FC000000BE85A6861305C5E73EC0EF20E0765D
:10020C00824741677D1722436381E702638F970022
:10021C0037350000A2862686BE85130585EAEF20B9
:10022C00C07413053008310149B593054400FD57DE
:10023C0063EA650037350000130585F1EF20207562
:10024C000145D5B79841630AF70090413735000056
:10025C001305C5EEEF206071E9B79105D1BFEFF240
:10026C003FE42A962A84AE84AA85373500007111A2
:10027C001305C5F232C0EF20406F0246C1659307EB
:10028C006400FD15014463ECC70037350000A285FE
:10029C001305C5F4EF20606D2285110139B59A2341
:1002AC00910742074183E300B7FEBE86E30D97FC3E
:1002BC0063E6C600050442044180F1B78A22E304D8
:1002CC00A7FC9106F5B7EFF2BFDD41112A842EC0D1
:1002DC0032C2DD353DCD37350000A2851305C5D7BB
:1002EC00EF20A0681E2041677517C207C183938653
:1002FC00F7FFC206C1826367D7003D671307E7EEBD
:10030C00639BE70426202E20373500008504C204A9
:10031C00C18026861305C5D9EF202065EF10700922
:10032C0037350000130545DDEF2060662285EF10A0
:10033C00500E11476309E5022AC0EF1030098247BD
:10034C0037350000130505DFBE85EF20006213056D
:10035C00F00F410199BB37350000130585DBEF2009
:10036C000063814465BF2AC637350000130585E05C
:10037C00EF20E061A68513052400EF10100D2AC4B0
:10038C00EF10D004A245B2476387F5003735000063
:10039C00130505E25DBF37350000130545E4EF207A
:1003AC00005F124682452285013D65B7EFF25FCFB3
:1003BC00130181FD32C22EC02E869245AA84373598
:1003CC000000130545F636CAEF20205A02479C4020
:1003DC0013044700BA973EC692477D5791073EC813
:1003EC00B2476367F400373500001305850B81A015
:1003FC001440638DE6141104E5B703530700C1667E
:10040C00FD164203135303016304D30CD24763015B
:10041C00F30C82479386670063E08602B2476362FF
:10042C00F402EF10A07A37350000130585FEEF209B
:10043C0000569304100889A09222630BC3089106FE
:10044C00E1BF0356E7FF22851AD042064182B285EE
:10045C003ACE32CCEF10607F914562467247025320
:10046C006300B502EF10807637350000130585F870
:10047C00EF20E0519304F00F26851301810235B172
:10048C002AD29A851305240032D03ACE1ACCEF101A
:10049C00C07B92566243724702566309D500EF1037
:1004AC00E07237350000130585FAD9B7A2479A8553
:1004BC003ACC9386170093970601C1833EC4B73795
:1004CC000000A286138587FCEF20204A62471104A6
:1004DC007117C247E3E3E7F2EF10406FA2453735DF
:1004EC00000013054500EF20404837350000130588
:1004FC000502EF20C04990401245C165FD15E1335E
:10050C00AA8401C93735000013054504EF202048A3
:10051C00A5B73735000013050506EF204047EF104F
:10052C00406902458145EF1040722AC0EF10006A05
:10053C00024591476307F500373500001305450860
:10054C0005BF373500001305050AC9B7373500005C
:10055C00A2851305850DEF204041EF108065984072
:10056C00924702C479173E97ADB7EFF27FB3711182
:10057C00930420082DCD2A84373500001305459EA1
:10058C00EF20E040373500001305859FEF20204019
:10059C00104408408145053BAA8409C9AA85373512
:1005AC000000130505A1EF20403C91A01C409A23AC
:1005BC00C167FD176390E70437350000130505A3E9
:1005CC00EF20E03CEF10E05E08408145EF10E06763
:1005DC002AC0EF10A05F02459147630DF500373537
:1005EC000000130505A5EF20803A9304F00F268533
:1005FC00110165BC373500001305C5A6EF20203965
:10060C0010444840C165FD157D39AA8401E9373590
:10061C000000130545A8EF208037D1BFAA853735D8
:10062C000000130505AA41B763040524EFF25FA788
:10063C002A84373500006111130505ACEF202035F5
:10064C00144450400C40373500001305C5ADEF2065
:10065C00C0319307B00A5EA41C4058409E23062369
:10066C00C207C1833E85C2043EC2C180F93C2AC088
:10067C002685E13C924702462A8737350000BE8525
:10068C00A686130585B03EC0EF20202E3D6793074C
:10069C00E7EE3EC23E8782476387E70C41677D17D2
:1006AC003AC06386E702639F0714373500001305D1
:1006BC0045C2EF20C02D639F041037350000130591
:1006CC00C5C3EF20C02C9307B00A5EA4ADA037358C
:1006DC000000130545B33EC0EF20602B824781EC30
:1006EC00373500001305C5B4EF20602A824710444B
:1006FC00BE85084031A21247639BE40437350000E5
:10070C00130505B73EC2EF208028EF10804A484001
:10071C008145EF1080532AC0EF10404B02459146A3
:10072C001307F00F92476317D50010440840BE859D
:10073C00593E2A875AA44E2463950512373500007A
:10074C001305C5CCEF20A0244A242101B9BAE394A7
:10075C00F4FE37350000130545B9EF204023228500
:10076C0029354AA4C9BF373500001305C5BBEF2096
:10077C00002299EC37350000130545BDEF202021F0
:10078C0050400C40C166FD16130584000531D1BFE5
:10079C00C167FD17E391F4FA373500001305C5BFA7
:1007AC00EF20E01E10444840A685313E4AA4AA849E
:1007BC0059F1EF10004008408145EF1000492AC064
:1007CC00EF10C040024591476304F5009304F00F0D
:1007DC0046A495B79247639CF40037350000130587
:1007EC0005C6EF20C01A824610404C4071BF373509
:1007FC000000130585C8EF2080191044824548403D
:10080C00D93485B737350000BE85130585CAEF206E
:10081C00C01591E8373500001305C5B4EF2020173B
:10082C0010448245F9B59247E397F4F03735000050
:10083C00130505B7EF20A015EF10A03748408145F0
:10084C00EF10A0402AC2EF106038124511479307F1
:10085C00F00FE31CE5E6104482450840AD34AA874E
:10086C00ADB537350000130545CEEF200010E9BDBE
:10087C001305200882809307200841C13DCEEFF27A
:10088C003F82FD571EA25A25930740087111AA8476
:10089C003284631BF7002EC0413B824511C5DE2418
:1008AC003E8511016FF07F8026852EC0EFF0BF8D45
:1008BC009307B00A75D59C448245F917AA97190578
:1008CC0063FBA70037350000130505D2EF20E009C4
:1008DC0093072008F1B79A23639FE50003D6E7FF3F
:1008EC0037350000130545D04206418212A0EF2097
:1008FC00C007814775B7F117E1B73E858280EFF2EB
:10090C002FFA4111130420086308050EC167FD1767
:10091C00130420086382F50E2A8437350000130572
:10092C0085D3B2842EC2EF2040042285EFF0BF8520
:10093C00AA87630605141044B305C5001387E5FFA9
:10094C0063E9E70813874700FD566369B70E9245C4
:10095C003E853EC4EFF0BF9018440505420509835F
:10096C0041817D176370E5125C403EC03E87A24713
:10097C006394E70018403AC03EC6EF10802302454E
:10098C00BD659385E5EEEF10402C91462AC46317A4
:10099C00D50C8247A68513854700EF10002B224704
:1009AC00AA84631DE50A8247924513856700EF1000
:1009BC00C0292AC4EF108021224563159506B24741
:1009CC0092468245130584003E86CD322A8411CD91
:1009DC00A1A8162312456311D5061305E7FF03578B
:1009EC00E7FF42074183639DE400373500001305A0
:1009FC0005D5EF10D0790144228541016FF0EFEA63
:100A0C00C166FD16E310D7F42AC0EF10801A024518
:100A1C00A685EF1080232AC0EF10401B024591479A
:100A2C00E305F5FC1304F00F37350000A285130520
:100A3C0005D6EF109073C9B7711719B70843631E29
:100A4C00D5023AC0EF10E0160247A6853A85EF10A2
:100A5C00C01F9147AA8402476305F500EF100017E9
:100A6C00D1B7924513052700EF10201E2AC0EF10B6
:100A7C00E0150245E31895FA8DBF1107F9B513047B
:100A8C00B00A5DB71304100845B7EFF26FE12A8482
:100A9C000146894537150140EF10C0262285EF101D
:100AAC00C0776FF08FE0B7F700E0D843799BD8C3DD
:100ABC00379798001307F76798CB23A4070098473C
:100ACC00E37FE5FE23A407001307703E98CB8280DA
:100ADC00EFF20FDD7111AE8411E52E857D3711011A
:100AEC006FF0AFDCAA8537450F0013050524EFF036
:100AFC006FDE93975400858F8A07A697AA851354A7
:100B0C00150013953700EFF0EFDCAA878144E388DA
:100B1C00F4FC05468945371501403EC0EF10801E98
:100B2C00228551370146894537150140EF10801D4C
:100B3C002285953F85048247D9BFEFF26FD65111BC
:100B4C002E8411C111E62285893731016FF0EFD562
:100B5C00AA8537450F001305052432C2EFF08FD755
:100B6C0093175400818F8A07A297AA859354150076
:100B7C0013953700EFF00FD612462AC093074006A4
:100B8C001375F60F63F4C70013054006A685EFF046
:100B9C006FD293054006EFF0EFD3B387A4403EC26B
:100BAC002A8481470247E382E7FA054689453715CF
:100BBC0001403EC4EF1000152285F53501468945EC
:100BCC0037150140EF1000141245F13D2685E13D2B
:100BDC00A2478507C1BFEFF2AFCC93050005130503
:100BEC00803EFD35930500051305C05DD5356FF0CE
:100BFC00CFCBEFF2EFCA9305600913050032C93D64
:100C0C006FF0AFCAEFF2CFC9930580021305004B0A
:100C1C00C1356FF08FC9EFF2AFC89305C003130550
:100C2C00803E7D359305C0031305C02B55356FF001
:100C3C00CFC7EFF2EFC6E54513058070513D6FF05D
:100C4C00CFC6EFF2EFC593056004130500324935AA
:100C5C00930560041305803EA53D9305A00513057F
:100C6C008025BD356FF06FC4EFF28FC393058007FD
:100C7C0013050032B13D930580071305803E893D75
:100C8C009305000A13054051A1356FF00FC2EFF226
:100C9C002FC1930560091305004B1D3D9305600999
:100CAC001305403835359305400B130580250D355C
:100CBC006FF0AFBFEFF2CFBE1306A0059305000592
:100CCC001305C05D9D3D13058002EF100055130602
:100CDC00A005930500051305C05D8535130580023D
:100CEC00EF10A05313066004930540061305004B48
:100CFC00A9356FF08FBBEFF2AFBA1306A0059305C1
:100D0C00000513050032153D13058002EF10E0506D
:100D1C001306A0059305000513050032393D130594
:100D2C008002EF10804F13066004930540061305F4
:100D3C00803E21356FF06FB7EFF28FB6130660046B
:100D4C00930580021305803ECD3B130640069305A8
:100D5C0000051305C05DD5336FF02FB5711122C09E
:100D6C003734000013050413EF107042E5BF711106
:100D7C00B707EFBE22C037E700E0938707083CC7F0
:100D8C00373400001305C411EF107040E5BFB707EE
:100D9C000020938787059843D0439306170033B7F9
:100DAC00E6003297D8C394C3B7F700E023A207003C
:100DBC0073002030EFF2CFAE5111054502C002C2D4
:100DCC0002C4EF102003EF005046EF10204C0565D5
:100DDC001305459CEF10C04E854513054003EF10DD
:100DEC00401C854537050010EF10801D371501405C
:100DFC00FD578A85130505807C8002C4EF0030689E
:100E0C000544C14491478A85371501407C8026C42E
:100E1C0022C2EF00D06689478A85371501407C8055
:100E2C0026C422C2EF00B065930780048A8537156B
:100E3C0001403EC4648022C2EF00706405469145B7
:100E4C0037150140EF00106C1545EF106047014657
:100E5C00914537150140EF00F06A31016FF0EFA4B6
:100E6C00EFF20FA4373401405111130504C0814532
:100E7C00EF10A026130504C08145EF108024914784
:100E8C00371401407C80C1473EC48A8585471305D1
:100E9C0004803EC2EF00B05E01469145130504800C
:100EAC00EF00506631016FF04FA0EFF26F9F4111D0
:100EBC008545454502C002C202C402C6EF10600E51
:100ECC0091450945EF00F070C1473EC091473EC2C5
:100EDC00B1473EC40A8585473EC6EF00F046410146
:100EEC006FF0AF9CEFF2CF9B1314050151114180B1
:100EFC00B7070020AA842EC032C2A2851306A10017
:100F0C001385070123150100EFF0FF9639CD373516
:100F1C000000A68513054525EF1030251246B707AE
:100F2C00002013850701A285EFF07F9DAA85373538
:100F3C00000013054527EF105023B7070020138539
:100F4C0007011306A100A285EFF0FF923085AA8657
:100F5C0037350000A6851305C528EF1010218247F0
:100F6C0012479AA331016FF04F943085373500004A
:100F7C00A6851305C52BEF10501F3C8502471EA3F9
:100F8C00D5B7EFF2EF913704002013050401EFF011
:100F9C00AFE90DC9373500001305C517EF10301F29
:100FAC0013050401EFF06FDC09E937350000130578
:100FBC00C51AEF10D01D6FF04F8F37350000130599
:100FCC00451DC5BF3735000013058520EF10301CBB
:100FDC0001469385218205453137373500001305CD
:100FEC004522EF10D01AB70500201306800C93850C
:100FFC00C5000945C53D3735000013050524EF1024
:10100C001019B7050020130620039385E5000D4544
:10101C00D13D55B7EFF2CF88130141FD613B7135DE
:10102C00716513050520EF10402D373500001305B1
:10103C00452DEF10D015B707002083A507033735D2
:10104C00000013050530EF105012253F3734000017
:10105C001305442EEF10B01383D5218237350000D1
:10106C001305C531EF107010B707002083D5C700EA
:10107C003735000013058533EF10300FB70600200D
:10108C0083D5E6003735000013058535EF10F00DDC
:10109C001305442EEF10B00F0565B7E700E023A051
:1010AC00A710B7F700E0D84393844182799BD8C34B
:1010BC001307703E98CB23A407002D4798C39307C2
:1010CC0040069CC085451305558002C802CA02CC57
:1010DC0002C202C42316010002CE02D002D202D4F4
:1010EC00EF00306CE1473715014011473ECC0C083E
:1010FC008D4713050580F8803AC03ECAEF003038A2
:10110C009E20373401404C007C84130504C0A54755
:10111C003EC223150100EF00906CC1679387070650
:10112C0002473ECEBE206C08130504C02311F10209
:10113C002310E10202D2EF00706FA145130504C029
:10114C00EF00B07C8545130504C0EF00707AAE202B
:10115C00130504C0EF00D07C8545130504C0EF00D7
:10116C00D0778545130504C0EF00B0758145130594
:10117C0004C0EF00F07AED31130660049305800291
:10118C001305803EEFF07F9B130640069305000588
:10119C001305C05DEFF07F9A1306000593058002DE
:1011AC001305004BEFF07F99130660049305800242
:1011BC001305803EEFF07F9813052003EF10E00538
:1011CC0013064006930500051305C05DEFF0FF966E
:1011DC003735000013054537EF10607BB70600204C
:1011EC009387E6003EC0C14537150140EF00F03053
:1011FC0093878180982B133515006312A7028146C3
:10120C00014794C7D8C7B42B3946982B636BD606C5
:10121C000D668A0613060614B29694428286984787
:10122C0003A3C700B7050020938585059441D041E1
:10123C00B365670081E594C7D0C7F1B73387E64043
:10124C00B3B6E600330666406316D6009306100369
:10125C00E3FBE6FA88AB45BF0DC70547B8AB15A055
:10126C000D47B8AB370700201307870510435443CD
:10127C0090C3D4C339A055E30947B8ABB83B0507B5
:10128C00B8BB03A781829384818211E385249440A7
:10129C0005476393E600FD2E9440094713840182B1
:1012AC006395E60085232310040094400D47639555
:1012BC00E60023100400D123984091476316F700F1
:1012CC0023100400EF0000601E20638A0718824779
:1012DC0037340140130504C08E23EF00706491472E
:1012EC00FC8637150140E1473ED26C088D4713054B
:1012FC0005803ED0EF00B0188545130504C0EF0003
:10130C00505C8545130504C0EF00305D05469145E2
:10131C0037150140EF00101FF9B5370700201307F0
:10132C008705104394434C43D843B306D64033351A
:10133C00D6003387E540098F6347E00039F3130784
:10134C00F07CE370D7F41147B8AB90C3CCC315BF96
:10135C00194729B719E3154711B7370700201307A9
:10136C008705104394434C43D843B306D6403335DA
:10137C00D6003387E540098F6348E000E31307F09C
:10138C001307703EE37FD7EE1D477DBF2147F9B5AC
:10139C0019E32547E1B537070020130787051043EC
:1013AC0094434C43D843B306D6403335D6003387E9
:1013BC00E540098F6348E000E31507EC1307703E26
:1013CC00E371D7EC1D47B8AB983B050798BBB5BF8D
:1013DC00A3890700294759B5B43BA38807002D47BB
:1013EC00E39106E83547B5BDE31907E6370700205A
:1013FC0013078705104394434C43D843B306D64098
:10140C003335D6003387E540098F6348E000E31A93
:10141C0007E61307301FE376D7E6314735B7354774
:10142C00BAAB85B5E31B07E2370700201307870526
:10143C00104394435843CC43B306D6403336D600BE
:10144C000D8F118F6348E000E31D07E21307703E18
:10145C00E379D7E2394719B5238907001DB5EFF0B9
:10146C003FA001466DB5EFE2BFC385450545EF00D2
:10147C00503337053000854513050540EF00300922
:10148C000545EF0090176FE05FC29387818001479D
:10149C008146D8C3D8C794C394C723A80700B707FD
:1014AC0032009387470623A2F1828280EFE25FBF6E
:1014BC00AA841305803EEF005056014463569402F3
:1014CC000546914537150140EF00D003EFF06FF260
:1014DC000146914537150140EF00D0021305800CF1
:1014EC00EF00B0530504D9BF6FE03FBCEFE25FBB28
:1014FC003704002093070406B82B8947130404060D
:10150C006312F704373500001305453FEF102048F0
:10151C00EFF02FF2814437070020139604011305D6
:10152C00070141829145EFF08FBD850493070008B8
:10153C0037070020E393F4FE03D7018263060712FA
:10154C002390018238289147631EF700373500003D
:10155C001305C53FEF10A043EFF00FF123A6018256
:10156C002390018238289D47631EF7029387C1821E
:10157C008C43373500001305454085058CC3EF10AF
:10158C00C03EEFF00FEB0546914537150140EF00DB
:10159C0060771545EF0070480146914537150140BD
:1015AC00EF0040763828A547631BF7043735000059
:1015BC0013050541EF10A03D83A7C1820547938415
:1015CC00C1826396E700054523A4F182C5359C4092
:1015DC0009476396E700094523A4F182C13D9C406D
:1015EC000D476396E7000D4523A4F182C1359C405D
:1015FC0011476396E700114523A4F182453D382835
:10160C00A947631EF7003735000013050542EF109C
:10161C0000380146914537150140EF00A06E38287F
:10162C00B1476317F7042C383735000013054544D0
:10163C00EF10A03338389547631CF702EFF02FE515
:10164C00EFF0EFE4EFF0AFE4EFF06FE49307800816
:10165C0073B007300F100000B707EFBE37E700E09C
:10166C00938707083CC701A005472390E182D9BDA9
:10167C003828B947631EF700373500001305C542FB
:10168C00EF10E030EFF0EFDB83D7018291E3E13B29
:10169C006FE0BFA1EFE2DFA0B70400209387040640
:1016AC00B82BB1476111631CF714B707002003D5A1
:1016BC00E700954593840406EFE0DFA1AC381314E2
:1016CC0005013735000013058543EF10002AB438A7
:1016DC00B707002005473EC041806397E60205042A
:1016EC00D14763D1870CEFF0EFDC51440247AC38A3
:1016FC009317240037350000A29722861305454521
:10170C002317F700EF106026B8388947631FF700DE
:10171C0023A40182EFF0AFD7014691453715014064
:10172C00A388040023990400F12BB8388D47631665
:10173C00F702854763DB87067D14EFF0AFCC0247D9
:10174C00AC389317240037350000A2972286130576
:10175C00C5462317F700EF104021B838914763199D
:10176C00F7043735000013054548EF1040221305E8
:10177C00803EEF00902A81473EC0630BF402054681
:10178C00914537150140BD2BEFF0EFC8014691454F
:10179C0037150140852B1305C012EF001028824726
:1017AC008507D9BFEFF00FC691B7EFF0CFD441BF8B
:1017BC00B83895476315F704EFF00FD837040020BD
:1017CC00EFF08FD7130640068D4513050401EFF09B
:1017DC000F93AA85373500001305C548EF10E018A4
:1017EC00130661008D4513050401EFF0CF8830839B
:1017FC00AA85373500001305C549EF1000172101E4
:10180C006FE0BF8AEFE2DF8983D72182054691E33F
:10181C000146914537150140F52137040020930707
:10182C000406B82BB147130404066316F7042C38CE
:10183C003735000013054544EF1020133838854721
:10184C00631AF70083D7218293B717002391F18293
:10185C00EFF06FB838388947631FF70023A4018273
:10186C00EFF0EFC20146914537150140A308040083
:10187C002319040041296FE05F8303C7A1819147BD
:10188C00631AF700EFE2DF8123A40182EFF02FC08F
:10189C006FE0BF818280EFE2BF80711101442AC0EA
:1018AC006357A400EFF0EFB805040245CDBF11015A
:1018BC006FE0AFFFEFE2CFFE23A40182EFF06FB732
:1018CC006FE0AFFEEFE2CFFD370400209307040674
:1018DC00B82B914713040406631EF700373500003C
:1018EC001305C537EF10A00AEFF00FB823A801823B
:1018FC002390018238289D47631CF702938701834C
:10190C008C43373500001305453985058CC3EF1022
:10191C00C005EFF00FB20546914537150140DD26A5
:10192C001545EF00900F0146914537150140D92E12
:10193C003828A5476316F702373500001305053B19
:10194C00EF10E00483A70183373500001305053D34
:10195C0093951700BE958E05BE958605EF10E00099
:10196C003828B147631BF7022C38373500001305B4
:10197C004544EF00907F383889476313F7001D3FCB
:10198C0038388D47631BF700373500001305453E8B
:10199C00EF00F07F03A50183FD3D6FE00FF1EFE257
:1019AC002FF0371402401C403707FFF8414593E7EE
:1019BC0017001CC05C40F98F5CC01C403707F7FE59
:1019CC007D17F98F1CC01C403707FCFF7D17F98F62
:1019DC001CC05C4041777D17F98F5CC0B7079F0036
:1019EC001CC431231C4C93E707021CCCB7170140D5
:1019FC0003A70740938607401377F7F023A0E7402F
:101A0C0003A707401367070823A0E74089479CCA30
:101A1C00B72702409843719B98C3984398C35C4086
:101A2C0093E707025CC06FE04FE8EFE26FE7371710
:101A3C0002405C43370400209146B18B130404032D
:101A4C006385D700A1466382D704B7376E019387AD
:101A5C0007601CC0B7160240DC420840918313F7A4
:101A6C00F700B707002093870702BA978C23DC4254
:101A7C0093F5F50F93F707083357B50081E7EFE0BF
:101A8C006FE52A8718C06FE04FE25C43B777DC0242
:101A9C00938707C07DBF01A097F1FF1F938141DBA6
:101AAC00138181FA1305000A97E5FF1F9385C5542E
:101ABC0017E6FF1F1306065563FAC50083220500BF
:101ACC0023A0550011059105E3EAC5FE172500007A
:101ADC001305C59E97E5FF1F9385C55217E6FF1F9B
:101AEC001306065763FAC5008322050023A0550090
:101AFC0011059105E3EAC5FE17E5FF1F13054555D2
:101B0C009385C1836377B500232005001105E36D30
:101B1C00B5FEB722000093820288739002308D428A
:101B2C007390428097E2FFFF9382024D93E2320062
:101B3C0073905230EFF0BFE697F2FFFF9382C24DE5
:101B4C0073901234730020305841032305004C4528
:101B5C0037060140930706403E979346F3FFB1C505
:101B6C0083250640F58D2320B640D043F18ED4C397
:101B7C001443B3E6660014C3184190479346F7FF2D
:101B8C00758E90C7D047F18ED4C7144541466399E2
:101B9C00C6009447D98E94C7D447558FD8C7828036
:101BAC00B6979443558F98C382801C43F58F1CC302
:101BBC008280B707674537270240938737125CC38B
:101BCC00B797EFCD9387B79A5CC3828037270240D3
:101BDC001C4B93E707081CCB8280372702405C47DD
:101BEC000545858B91E748474189133515000D054F
:101BFC008280EFE2EFCA2A84CD3785476318F5005F
:101C0C0019E0154529A0D13F7D14C5BF7DD86FE0E3
:101C1C00CFC9EFE2EFC8AA8437050B00D93F914733
:101C2C006313F502372402401C4837050B0093E779
:101C3C0027001CC844C81C4893E707041CC8553F20
:101C4C001C48F59B1CC86FE04FC6EFE26FC57111C5
:101C5C00AA8409652EC0713F91478245631EF50029
:101C6C00372402401C48096593E717001CC88EA056
:101C7C0049371C48F99B1CC811016FE00FC39445F0
:101C8C0093F7060193F2F60081C7DC41B3E2F20050
:101C9C0083D3050093F7F30FA5C30323050061114C
:101CAC0022C226C081471304800293048004054796
:101CBC003316F70033F7C3006312E602939527003F
:101CCC003D473317B7001347F7FF33736700B395DE
:101CDC00B20033E36500639D860050C98507214738
:101CEC00E397E7FC124423206500824421018280A3
:101CFC00E39696FE10C9DDB7828008456D8D3335AD
:101D0C00A000828019C20CC982804CC98280370322
:101D1C000140032743009317350063D00702B70730
:101D2C00C0FFF517F98F37070007D98FD9CD3707C3
:101D3C0000F07D17798DC98F49A8635D0500B70741
:101D4C00E0FFED17F98F37070007D98FBDCD0605DA
:101D5C000581D5B7B7073000931605013376F5002A
:101D6C00C1826313F602370600F97D16B377C700FC
:101D7C0003274300798E2322C300A1C95581131771
:101D8C0045003395E60045BF9317B50063D40702B1
:101D9C009357050113F6F7008D47B397C70093C708
:101DAC00F7FFF98F37070007D98F85C113575501F6
:101DBC001207C1BF558112053395A6009347F5FF55
:101DCC00F98F37070007D98FBDF5370701405CC382
:101DDC00828037070140144786058D47B397B700BB
:101DEC0093C7F7FFF58F1CC71C47B315B500DD8DE6
:101DFC000CC7828023AAA1828280EFE26FAAB777F8
:101E0C0000409843759B98C398431367270098C369
:101E1C00B7F700E003A707D11367470023A8E7D063
:101E2C0003A707D1118B45C39307800873B0073004
:101E3C000F100000B707014083A4474003A70740D9
:101E4C0083A64740558F23A2E74037F400E00327D1
:101E5C0004D1832704D14D451377070293E78702FA
:101E6C002328F4D0832704D193F7F7FDD98F2328A7
:101E7C00F4D0832704D193E787002328F4D097E08C
:101E8C00FF1FE7806017832704D14D4593E7870038
:101E9C002328F4D097E0FF1FE7800016832704D196
:101EAC00918BA1C3B707014023A2974093078008E9
:101EBC0073A0073037F700E0832707D1ED9B232869
:101ECC00F7D06FE08F9E03A707D11367070123A8F4
:101EDC00E7D09307800873B007300F1000008144DF
:101EEC00ADB7832704D1BD9B2328F4D0C1B73717D6
:101EFC0002401C430E0593F777F05D8D08C382807A
:101F0C00EFE20F9A371702405C4391462A84B18B5B
:101F1C006385D700A1466380D708B7376E019387D6
:101F2C0007601CC0B7160240DC42918313F7F70020
:101F3C00B707002093878704BA978C23DC4218409C
:101F4C0093F5F50F93F707083355B70081E73A85FA
:101F5C00EFE04F9848C008C448C4B7170240DC43B0
:101F6C008D46AD83FD8B13D737008A07F18BD98F44
:101F7C0013F6370113F7370063F4C600138747FFD6
:101F8C00B707002093874703BA978C23EFE08F9411
:101F9C0008C86FE08F915C43B777DC02938707C06A
:101FAC0049B799C5371702401C4F5D8D08CF828009
:101FBC00B7170240984F1345F5FF798D88CF828073
:101FCC0099C5371702405C4F5D8D48CF8280B7179B
:101FDC000240D84F1345F5FF798DC8CF82801E2162
:101FEC0037370140130707C0C207C1836306E500FA
:101FFC00370700406316E500BA2193F7F7F8D98F3D
:10200C00FA2193F7F7CFC207C183D98F1EA1DE2126
:10201C005EB59E211EB5B7370140938707C0631488
:10202C00F5009C251EB985475EA982801E31657717
:10203C001307F7CFC207C183BD9BC207C1831EB173
:10204C001E31562103D38500C20713960601162DA7
:10205C00C18393F7F7FD758F96214182A206558FA8
:10206C00B62142074183B3E666009206D58FB73698
:10207C000140C207938606C0C183631ED502B625F4
:10208C0093F7F7F703D3C5009206D58FD621C20775
:10209C00C183920693F7F7FBD58FFD769386F63FB7
:1020AC00F18EF225C207C183336666000A06D18E13
:1020BC0013960601418252A11AADFA2118DD1EB108
:1020CC0082801E2189C593E717001EA18280C2075A
:1020DC00C183F99BC207C183CDBF8357450491C50A
:1020EC002167D98F2312F5048280C607C583DDBF13
:1020FC001E2189C593E707081EA18280C207C183F0
:10210C0093F7F7F7C207C183C5BF1A2DFD779387E5
:10211C00F77FF98FA205CD8FC207C1831EAD8280D8
:10212C000CDD8280EFD2DFF71629F577FD17F58FDE
:10213C00F621DA252111D58F1EA95625FD77938717
:10214C00379FF58FD6212A842EC0D58F9625D58F13
:10215C00B625D58F5EA55E29C207C18393F7F7CF4D
:10216C005D8F5AA94800EFF0BFD9B747014093875C
:10217C00078082456312F406C2475A241395170050
:10218C003E9542070E0541873E958C4163580704E6
:10219C008605EFD03FF4930540062AC0EFD09FF39D
:1021AC00824793144500930540063E85EFD05FF5BA
:1021BC005E24C207C18763D507020E05930540064E
:1021CC0013052503EFD01FF11D89C98CC204C180F2
:1021DC0006A461016FD07FEDB24745B78A0555BFA4
:1021EC0012059305400613052503EFD0BFEE3D897C
:1021FC00E9BF91C55E250967D98F5EA582805A25F6
:10220C00F977FD17F98FD5BF93F5F51F4EA1828095
:10221C000A216D8D3335A000828037F700E05443DE
:10222C00311193077100F99A54C39306703E14CB85
:10223C0023240700AD4614C33707002093068705F7
:10224C009042D442E19B90C7D4C78C47D047935659
:10225C00F5413303B5003335A300B385C600B3068F
:10226C00B50023A06700D4C31307870503A3070099
:10227C00484383A3470063E7A30063177500144327
:10228C006374D300510182800100CDB7EFD25FE1BE
:10229C00B707002003A50703B7157A00938505201F
:1022AC00EFD05FE31375F50F238DA18293175500C3
:1022BC00898F8A073E950E05239CA1826FD0FFDE85
:1022CC00EFD21FDE37F400E05C40AA85F99B5CC0BE
:1022DC0003D58183EFD01FDE08C8232404001C40E3
:1022EC0093E717001CC0B7F700E0D843058B75DFE8
:1022FC009843799B98C36FD05FDBEFD27FDA2A8447
:10230C0011651111854513051502EFF09FC985451F
:10231C0037052080EFF0BF9F930700047C803715B2
:10232C0001408D473EC28A85E147130505403EC4F6
:10233C00EFF0FF9422C637440140B70708006C0049
:10234C00130504803ECA02C8231C0100EFF09FDD78
:10235C00854513050480EFF0DFE971016FD0FFD4E0
:10236C00EFD21FD47111AE840144635FC402B7472E
:10237C000140138707803A859305000432C0EFF0C3
:10238C003FE9B74701401387078002466DD5338775
:10239C00840083050700138507800504C205C181ED
:1023AC00EFF09FE60246D1B7328511016FD0FFCF17
:1023BC00411106C62EC00DCD1841AA8705C3584140
:1023CC007D5511CB8546631BD7009847230007002A
:1023DC0023A207000545B2404101828098478246FE
:1023EC0014A39847050798C7D8437D17D8C3DDB702
:1023FC0005468A85EFF0DFF6F1BF011122CC2EC223
:10240C0006CE26CA2A84814793050002634506023C
:10241C009245BE95838505008DE563D8C70263D4CC
:10242C00E702198E1305000293F526002AC089C510
:10243C0001E7930500032EC0858A81449DEAB2848E
:10244C0015A08507F1B71D8EF1BF0146E1BF82458E
:10245C0022853AC832C63EC4EFF09FF5A2473246F9
:10246C004247FD14E34590FEB28463530600814459
:10247C00058E63C7E702A687924633879740369747
:10248C00830507009DEDB2846346900463530600F8
:10249C000146F2406244D2443305F6000561828065
:1024AC001D8FBA8793050003228532C83EC63AC4F5
:1024BC00EFF01FF0B24722474246FD17E5F7BA94FA
:1024CC005DBF228532C63EC4EFF09FEEA247324676
:1024DC0085075DB78245228532C43EC2EFF05FEDC1
:1024EC00FD14224692474DB7397106DE22DC26DAFE
:1024FC003EC232833A8691ED924693070003014720
:10250C006C08FC86EFF07FEFF2506254D2542161DC
:10251C008280AA843684AE8791CA29470144631706
:10252C00E30063D50500B307B04005448646A30914
:10253C00010213073103938666FC36C49A853E85E7
:10254C0032CA3AC81AC63EC0EFD09FBBA5468247D6
:10255C0032434247524663D4A600A2463695130531
:10256C0005039306F7FFA30FA7FE9A853E8532CC91
:10257C003ACA1AC83EC636C0EFD0DFB5B24742439E
:10258C005247624663FD670409CC29CE9247898B7A
:10259C00B1CB9305D002268532C4EFF07FE1224601
:1025AC007D169247918B85C706479307100632C458
:1025BC009305000326856311F704EFF07FDF930585
:1025CC0080072685EFF0DFDE2246090479161647D0
:1025DC00924682452685EFF05FE2229535B7AA87B1
:1025EC000247A9BF82469307D0020144A38FF6FE8F
:1025FC009307E7FF3EC075B7EFF09FDB93058005AF
:10260C00C9B70145828001458280130181FD22D02A
:10261C0026CE06D22AC4AE82328402C68144838579
:10262C00020091EDA24789C781453E85EFF05FD846
:10263C00925002542685F244130181028280930742
:10264C0050026389F500224516C88504EFF05FD669
:10265C00C24205A08387120013871200639DB70046
:10266C002245930550023AC8EFF09FD442478504A7
:10267C00BA8285026DB7DDD79306B0026389D704A1
:10268C0063C8F600930630026386D704814705A021
:10269C009306D002638AD70093060003E398D7FE13
:1026AC0013872200894721A01387220085478306C0
:1026BC0007001306B0026383C6046341D6021306F7
:1026CC003002638BC602BA820145A54681A01387EE
:1026DC0022006DBF138722009147D1BF1306D00291
:1026EC006389C60013060003E39FC6FC93E727002B
:1026FC0031A005078547C1BF93E747000507E1B740
:10270C0013162500329506053A95850203860200BC
:10271C00130706FD9375F70FE3F4B6FE1307E002FB
:10272C009946631EE60085028146A5450386020094
:10273C00130606FD1377F60F63F5E50236C603871D
:10274C0002001306A006630DC70A6343E6021306D4
:10275C00C0046307C70A13068006630CC7088145CB
:10276C002DA813972600BA968606B29685027DBFD1
:10277C00130640076306C7081306A0076302C708C1
:10278C001306C0068145631AC700038612008D45E7
:10279C006314E600850291458502038602009303CB
:1027AC0000061307100663C4C30013071004930339
:1027BC00700663C4C30693035006635676189303DE
:1027CC00700463C1C30493055004635EB61613070B
:1027DC003004E310E6EA18409303440016CA230CB5
:1027EC00E1001EC8A30C01000147BE862A862C08F6
:1027FC0049A8038612008145E311E6FA890271BFEC
:10280C008502B1BF93063006E307D6FC63CFC6063C
:10281C00930680056303D602A9BD930630076304B3
:10282C00D60463CBC6029306F0066305D60E930658
:10283C00000793E74700E31ED6E291466392D50C5E
:10284C00930384000C40504016CA3AC23EC01EC8C6
:10285C00AA870147C14681A893065007630BD60689
:10286C009306800745BF1840B73600009303440019
:10287C009385864B11C3BA85324716CA1EC8BE86CD
:10288C002A862245EFF07FB715A091466395D502B5
:10289C00930384000C40504016CA3AC23EC01EC876
:1028AC00AA870547A9462245EFF0BFD5C243AA9493
:1028BC001E84D2427DBBB2460C4016C836C23AC00A
:1028CC0011042A87854629462245EFF0FFC1AA94B8
:1028DC0041B39146639DD500930384000C40504056
:1028EC0016CA3AC23EC01EC8AA87014765BFB24687
:1028FC000C4016C836C23AC011042A878146E1B78B
:10290C00B24616C80C40414636C23AC011042A875A
:10291C0081465DBF9146639ED500930384000C40B5
:10292C00504016CA3AC23EC01EC8AA870147A146EB
:10293C009DBFB2460C4016C836C23AC011042A8755
:10294C008146214651B70C401306840040403AC2E0
:10295C002A87224532C83EC02286B687A94616CAA7
:10296C00EFF07FCAAA944244A9B71301C1FD2EC847
:10297C0032CAAA851008014506C636CC3ACE3ED0DE
:10298C0032C0EFF09FC8B240130141028280411166
:10299C0022C426C206C61C21AA840144DC818307FA
:1029AC003100050499EFA94793053100054601450F
:1029BC00DC81EFF0FF9A2285B2402244924441011F
:1029CC0082800546930531000145EFF07F99B3876E
:1029DC0084009C23DC81E1B75B454550524F4D5D33
:1029EC0020F09F94A5464F524D4154005B454550F5
:1029FC00524F4D5D2020436C6561722050302E2E5D
:102A0C002E0000005B454550524F4D5D202020208C
:102A1C00E29D8C205030206572723A30782530322D
:102A2C00580A00005B454550524F4D5D2020202038
:102A3C004D61726B205030206163746976652E2E67
:102A4C002E0000005B454550524F4D5D202020204C
:102A5C00E29D8C204D61726B2050302065727200AB
:102A6C005B454550524F4D5D2020202045726173CF
:102A7C00652050312E2E2E005B454550524F4D5D3A
:102A8C0020E29C8520464F524D4154204F4B0D0A5D
:102A9C00000000005B454550524F4D5D20E29D8C7F
:102AAC00205031206572723A3078253032580D0A38
:102ABC000A0000005B454550524F4D5D20F09F9A37
:102ACC008020494E495420454550524F4D0000003E
:102ADC005B454550524F4D5D2020202050303A3000
:102AEC0078253038582050313A30782530385820F5
:102AFC0053697A653A25640A000000005B4545502D
:102B0C00524F4D5D2020202050303A307825303403
:102B1C0058282573292050313A30782530345828DC
:102B2C002573290A000000005B454550524F4D5D4E
:102B3C0020F09F938420503020657261736564008F
:102B4C005B454550524F4D5D20202020E29C852056
:102B5C005031206163746976652D636865636B2001
:102B6C00503000005B454550524F4D5D20202020D9
:102B7C00F09F93A520503120726563762D616374AC
:102B8C0069766174650000005B454550524F4D5DA0
:102B9C0020202020E29AA0EFB88F2020426F74688A
:102BAC00206572617365642D666F726D61740000CF
:102BBC005B454550524F4D5D20F09F93A520503002
:102BCC0020726563760000005B454550524F4D5DA9
:102BDC0020202020F09F9484205031206163746960
:102BEC0076652D7866657220746F20503000000079
:102BFC005B454550524F4D5D20202020E29C8520A6
:102C0C005031206572617365642D616374697661FE
:102C1C0074652050300000005B454550524F4D5DAF
:102C2C0020E29C8520503020616374697665000039
:102C3C005B454550524F4D5D20202020E29D8C205D
:102C4C004552524F523A426F7468206163746976F0
:102C5C00652100005B454550524F4D5D20202020E2
:102C6C00F09F948420503120726563762D786665D0
:102C7C00722066726F6D2050300000005B4545502D
:102C8C00524F4D5D20202020E29C85205031206544
:102C9C0072617365642D4F4B000000005B4545501D
:102CAC00524F4D5D20E29AA0EFB88F20205030207B
:102CBC00756E6B6E6F776E3A3078253034580A002B
:102CCC005B454550524F4D5D20E29C8520496E6915
:102CDC0074204F4B0D0A00005B454550524F4D5D23
:102CEC0020E29D8C20496E697420657272203078C8
:102CFC00253032580D0A0A005B454550524F4D5D48
:102D0C0020F09F9396205264202564E286922564DD
:102D1C000A0000005B454550524F4D5D20E29D93EB
:102D2C00205264202564204E460A00005B45455025
:102D3C00524F4D5D2057722069643A25643A2564E0
:102D4C000A0000005B454550524F4D5D20E29C85CA
:102D5C00204F4B005B454550524F4D5D20E29D8C02
:102D6C00204572723A3078253032580A0000000043
:102D7C005B454550524F4D5D20F09F9791EFB88FBA
:102D8C0020204572617365203078253038580A0050
:102D9C005B454550524F4D5D20202020457261739C
:102DAC0065733A2564E2869225640A005B454550BA
:102DBC00524F4D5D20202020526573657420636E48
:102DCC0074E28692300000005B454550524F4D5DD9
:102DDC0020202020E28FB32045726173696E672E2C
:102DEC002E2E00005B454550524F4D5D202020207B
:102DFC00E29D8C204572723A25640A005B45455071
:102E0C00524F4D5D20202020E29C8520446F6E6542
:102E1C00000000005B454550524F4D5D20202020A6
:102E2C00E29D8C20577269746520636E7420657204
:102E3C00723A25640A0000005B454550524F4D5DC7
:102E4C0020202020E29C8520436E742077726974C8
:102E5C0074656E005B454550524F4D5D20F09F945C
:102E6C008D2050616765203078253038580A000075
:102E7C005B454550524F4D5D2020202053743A3015
:102E8C00782530345828257329206578703A3078A5
:102E9C0025303458282573290A0000005B4545501D
:102EAC00524F4D5D20202020E29D8C2045455F43F4
:102EBC006865636B5061676520426164207374615F
:102ECC00747573212070733A2530345820733A2569
:102EDC00303458206164723A253034580A000000AE
:102EEC005B454550524F4D5D20202020E29D8C20AB
:102EFC004E6F7420656D70747920403078253038B1
:102F0C00583A3078253038580A0000005B45455057
:102F1C00524F4D5D20202020E29C85204F4B00001D
:102F2C005B454550524F4D5D20F09F938A20436F77
:102F3C00756E7420403078253038580A0000000037
:102F4C005B454550524F4D5D20202020556E6971D8
:102F5C0075653A25640A00005B454550524F4D5D3E
:102F6C0020F09F948420584645523A3078253038CA
:102F7C0058E286923078253038580A005B45455027
:102F8C00524F4D5D20202020E29D8C2044617461C5
:102F9C002077726974652065727221005B4545501B
:102FAC00524F4D5D20202020E29D8C2041646472A4
:102FBC002077726974652065727221005B454550FB
:102FCC00524F4D5D20202020E29C852025643D251C
:102FDC006420403078253038580A00005B45455055
:102FEC00524F4D5D20202020E29D8C204F76657243
:102FFC00666C6F77210000005B454550524F4D5D6C
:10300C0020202020F09F93A620436F706965643ABE
:10301C0025640A005B454550524F4D5D2020202011
:10302C00F09F9791EFB88F20204572617365206FE8
:10303C006C642E2E2E0000005B454550524F4D5DAA
:10304C0020202020E29D8C204572617365206572E2
:10305C00722100005B454550524F4D5D20202020D1
:10306C00E29C8FEFB88F20204D61726B20616374EE
:10307C006976652E2E2E00005B454550524F4D5DF6
:10308C0020202020E29D8C204D61726B2065727295
:10309C00210000005B454550524F4D5D20E29C8560
:1030AC002058464552204F4B210000005B454550AF
:1030BC00524F4D5D20202020E29D8C204E657720C4
:1030CC00706167652066756C6C2100005B4545502E
:1030DC00524F4D5D2020202046726565403078258A
:1030EC003038580A00000000554E4B4E4F574E00DA
:1030FC00455241534544000056414C4944000000A0
:10310C00524543454956455F444154410000000037
:10311C00486172644661756C745F48616E646C657D
:10312C00720D00004E4D495F48616E646C65720D06
:10313C0000000000641200006C120000E01300009C
:10314C00821200005C130000DC130000601300000E
:10315C00981300009C130000DC130000E413000023
:10316C00F41300002A140000301400006414000052
:10317C00D09ED188D0B8D0B1D0BAD0B020D0B8D0F1
:10318C00BDD0B8D186D0B8D0B0D0BBD0B8D0B7D025
:10319C00B0D186D0B8D0B820454550524F4D0D0017
:1031AC00D0A4D0BED180D0BCD0B0D182D0B8D18088
:1031BC00D0BED0B2D0B0D0BDD0B8D0B520454550DF
:1031CC00524F4D204F4B0D00D0A4D0BED180D0BC5F
:1031DC00D0B0D182D0B8D180D0BED0B2D0B0D0BD1A
:1031EC00D0B8D0B520454550524F4D20D0BED188D7
:1031FC00D0B8D0B1D0BAD0B00D0000002E5245419D
:10320C004420434F4E46494720426F6F737420450C
:10321C006E61626C650D00002E5245414420434F97
:10322C004E46494720426F6F73742054696D650D8B
:10323C00000000002E5245414420434F4E46494762
:10324C0020506F7765720D00454550524F4D2069E7
:10325C00643A25642021204E6F742050726573658A
:10326C006E7420210D0A0000454550524F4D2053DD
:10327C0061766520636F64653A25640A000000007E
:10328C00454550524F4D20566572696669636174AD
:10329C00696F6E2069643A25642056616C75653AD5
:1032AC0020256420636F64653A25640D0A000000D4
:1032BC00454550524F4D2069643A25642056616C47
:1032CC0075653A25640D0A000D0A2D2D2D2D2D2D19
:1032DC002D2D2D2D2D2D2D2D2D2D2D2D2D2D2D2D12
:1032EC002D2D2D2D2D2D2D2D2D2D2D2D2D2D2D2D02
:1032FC002D0D0000D09FD180D0B8D0B2D0B5D182E6
:10330C002053797374656D436C6B3A25640D0A0018
:10331C00434F4E46494720426F6F737420456E6190
:10332C00626C65203A2025640D0A0000434F4E461E
:10333C00494720426F6F73742054696D65202020BB
:10334C003A202564206D730D0A000000434F4E4651
:10335C00494720506F7765722020202020202020A4
:10336C003A2025640D0A0000476F2E2E2E0D00000A
:10337C003E2053637265656E426F6F737454696D52
:10338C006520486F6C640D003E2053637265656E5A
:10339C00426F6F737454696D65205374657020258A
:1033AC00640D0A003E2053637265656E426F6F7345
:1033BC007454696D652072656C65617365537465D1
:1033CC00700D0000426F6F737454696D653A20255F
:1033DC0064206D730A000000676574436C69636B4D
:1033EC0073203D3D20330D00436C69636B0D000071
:1033FC00486F6C640D000000537465702025640DDB
:10340C000A00000072656C65617365537465700D1C
:10341C000000000052656C656173650D00000000D2
:10342C0054696D656F75740D00000000536372650F
:10343C00656E506F77657220436C69636B733A20CD
:10344C0025640D0A000000002B2B20436C69636B74
:10345C00733A20256420696D703A25640D0A0000CA
:10346C002D2D20436C69636B733A20256420696DA4
:10347C00703A25640D0A00005374617475730D0065
:10348C0053617665207265733A25640D0A0000005D
:10349C00536176652069643A33207265733A25640A
:1034AC002076616C75653A25640D0A00286E756C82
:0434BC006C29000077
:0434C000961400005E
:1034C40064000A0000380008003C00080004000002
:1034D4008400000001020304050607080102030436
:1034E4000506070800127A000204060804080C10F6
:1034F400081018201020304020406080010203048E
:0C3504000506070801020304050607087D
:00000001FF
