:100000006F1080130000000012070000240700009A
:1000100000000000000000000000000000000000E0
:1000200000000000000000000000000000000000D0
:10003000440700000000000036110000000000002E
:100040003611000036110000361100003611000094
:100050003611000036110000361100003611000084
:100060003611000036110000361100003611000074
:100070003611000036110000361100003611000064
:100080003611000036110000361100003611000054
:10009000361100003611000036110000000000008B
:0C00A000730050107D157DFD8280000073
:1000AC00511126C022C206C4828282441244A2404C
:1000BC00310182802A86014593F6150091C2329552
:1000CC0085810606F5F9828000000000634E05026A
:1000DC0063C305042E86AA857D5515C285466378B3
:1000EC00B6006356C00006068606E36CB6FE0145F4
:1000FC0063E4C500918D558D85820582F5FA828069
:10010C008682C93F2E8582823305A04063D70500C5
:10011C00B305B040C1B7B305B0408682653F330527
:10012C00A0408282868263C70500634905005D3763
:10013C002E858282B305B040E35B05FE3305A040FB
:10014C00513F3305B04082820000372702401C4BE0
:10015C0093E707081CCB8280B16793870735B726D6
:10016C000240D846058B11C799E315458280FD17CF
:10017C00CDBF154591C301458280C1676976814623
:10018C00FD17050613F7F60F6364B7003E858280F2
:10019C003307D5001823B98F214713F31700858334
:1001AC0063050300B18FC207C1837D171377F70F67
:1001BC006DF78506C1BFB7270240984B01451377F1
:1001CC00070811CF3707674513073712D8C337977E
:1001DC00EFCD1307B79AD8C3884B1D810589828050
:1001EC00EFF21FEC7111AA842E84F1370DE9AD37B3
:1001FC0009C52AC0993F02451DA0B7270240984B5C
:10020C001367170098CB82A0813FB7270240984B09
:10021C00799B98CB9E20E30EF4FC053F1145110110
:10022C0069B5930785009306F00F1305A53F63E4AA
:10023C00A7000145828098231377F70FE30BD7FEB5
:10024C006316B70081C51CC2054582809907C5B7E6
:10025C001307850081471305A53F1306F00F636450
:10026C00A7003E858280142393F6F60FE38BC6FE1F
:10027C0081C6850793F7F70F1907D5B719C97C21E4
:10028C0089CB2320050023220500232405002316F7
:10029C000500828051C9EFF2BFE07C212A847111E4
:1002AC00194589CB0440013F11E57D3511C52AC0A4
:1002BC00693D02451101D5BBB7270240984B136726
:1002CC00270098CBC4CB984B1367070498CB6935A0
:1002DC00B7270240984B759B98CB9840FD57630508
:1002EC00F700A5350945F9B72AC08535024579F1DE
:1002FC000840956593855504E5354DFD084091659D
:10030C00938555540905E93D55F50840854511057A
:10031C00C13D4DF1084081451905D93541FD2316E4
:10032C000400A303040079B71945828019E12D4517
:10033C008280EFF2FFD67C212A84AE8491C33D3FAC
:10034C0093F7F43F2D459DE7C167938707025CC087
:10035C0004C0232404009840B757454523160400D5
:10036C009387570401456307F7002285253719C188
:10037C00230304001DBB31C57821AD4721C739C209
:10038C00EFF21FD20841511132843000AE84513D3E
:10039C009D470DC5224785468D453E2348003AC0F2
:1003AC00C207C1831EA0A1835C834482D482F13333
:1003BC00024781475A236303E500A1473E8531017B
:1003CC00EDB1AD473E858280AA8709C978211945D0
:1003DC0019C7F83301450507F8B3828019458280A7
:1003EC0039C97821994729CBA947B9C5EFF25FCB19
:1003FC002A840841411132C22EC0993D5E2042052B
:10040C004181637DF5001C409306F00F93848700B7
:10041C009387A73F63EBF400A54729A022856D378E
:10042C00A54775D13E85410149B190206388C6002E
:10043C0090309904C5B799473E85828082478D4597
:10044C0068005C868547DC869247A1835C873533E0
:10045C0082472AC4268593E507105933AA8779F178
:10046C00924513852400AD3BAA874DFDA24513850B
:10047C004400BD33AA875DF55A2405075AA437F703
:10048C0000E0184718C479BFB707002083A687047B
:10049C001306F00F8147138786009386A63F636788
:1004AC00D70061551D8D1375F50F82800C23E30A5F
:1004BC00B6FE1385670093170501C1831907C5B7ED
:1004CC00EFF21FBEB745000837050020938505C025
:1004DC0013058504A13DD1BEEFF29FBC2E86AA85E3
:1004EC003705002013058504E53DC1B6EFF25FBB6F
:1004FC007111AA8537050020130621001305850408
:10050C009D3D01E5288111014DB62A84AA85372528
:10051C0000001305C5FCEF10901F7D141374F40F2D
:10052C00A94763EF87008967938707FA0A043E940B
:10053C001C408287372500001305C5FEEF10301DC7
:10054C002945EF10B0237D557DBF372500001305DD
:10055C008500EDB7372500001305C501C5B7372554
:10056C00000013050503D9BF372500001305050549
:10057C00F1B73725000013058506C9B737250000EC
:10058C001305050865BF37250000130585097DB7E0
:10059C00372500001305050B55B73725000013054B
:1005AC00C50C69BF372500001305050E41BFEFF2DE
:1005BC003FAF2A840146894537150140EF001051A1
:1005CC002285EF10E021D5B4B7F700E0D843799B32
:1005DC00D8C3379798001307F76798CB23A4070065
:1005EC009847E37FE5FE23A407001307703E98CBE2
:1005FC008280EFF2FFAA7111AE8409E52E85453F8A
:10060C00110165B4AA8537450F0013050524D934AB
:10061C0093975400858F8A07A697AA8513541500C3
:10062C0013953700453CAA878144E38BF4FC0546BF
:10063C008945371501403EC0EF0050492285693786
:10064C000146894537150140EF0050482285AD3FE2
:10065C0085048247D9BFEFF2BFA4930500051305AB
:10066C00803E413F930500051305C05D593735BCED
:10067C00EFF21FA3E54513058070A53F3DB4EFF2E3
:10068C003FA29305600413050032A537930560045F
:10069C001305803EB93F9305A00513058025913FB6
:1006AC0029B4EFF2FF9F93058007130500329137B1
:1006BC00930580071305803E2D3F9305000A130513
:1006CC004051053FDDB2EFF2BF9D93056009130564
:1006DC00004B05379305600913054038193F930506
:1006EC00400B130580253137C9B2EFF27F9B930580
:1006FC0000051305C05DF53D930560091305807079
:10070C00CD3D6FF09F9A711122C037240000130564
:10071C008410EF101002E5BF7111B707EFBE22C0B5
:10072C0037E700E0938707083CC737240000130520
:10073C00440FEF101000E5BF938701819843D0431D
:10074C009306170033B7E6003297D8C394C3B7F7B4
:10075C0000E023A2070073002030EFF27F945111C8
:10076C00054502C002C202C4EF005045EF0030152F
:10077C00EF10E00D1305401FEF10A0108545130579
:10078C004003EF00905E854537050010EF00D05F09
:10079C0037150140FD578A85130505807C8002C4FE
:1007AC00EF00702A0544C14491478A8537150140F2
:1007BC007C8026C422C2EF00102989478A85371510
:1007CC0001407C8026C422C2EF00F02793078004EE
:1007DC008A85371501403EC4648022C2EF00B026E2
:1007EC000546914537150140EF00502E1545EF1089
:1007FC0040090146914537150140EF00302D31017C
:10080C006FF0BF8AEFF2DF8941118545454502C083
:10081C0002C202C402C6EF00505591450945EF00D3
:10082C00D037C1473EC091473EC2B1473EC40A854E
:10083C0085473EC6EF00901A41016FF01F87EFF21B
:10084C003F8661112A842EC0B2844D317D576314CA
:10085C00E50437250000A2851305451BEF10206B1E
:10086C00A68522859539AA85372500001305451DD7
:10087C00EF10E06922859D3913160501372500001C
:10088C004182A2851305C51EEF106068824786A3BE
:10089C0021016FF09F812A862AC237250000A2858C
:1008AC0013054521EF10A066024792471EA3CDB752
:1008BC00EFF20FFF3131C93EAA8537250000130531
:1008CC004515EF10C064372500001305C516EF1051
:1008DC0040660146938521830545953737250000F1
:1008EC0013058518EF10E064B70500201306800C83
:1008FC009385C5000945A137372500001305051A56
:10090C00EF102063B7050020130680029385E500E5
:10091C000D4535376FF06FF903C7A1829147631905
:10092C00F700EFF2EFF723AC0182713B6FF0EFF7BA
:10093C008280EFF2EFF6130141FDEF004078313D7C
:10094C00D135716513050520EF0050773725000070
:10095C001305C522EF10E05DB707002083A5070241
:10096C003725000013058525EF10605A9137372481
:10097C0000001305C423EF10C05B83D521833725FA
:10098C00000013058526EF108058B707002083D58B
:10099C00C7003725000013054528EF104057B7074F
:1009AC00002083D5E700372500001305452AEF10FA
:1009BC0000561305C423EF10C0570565B7E700E0D8
:1009CC0023A0A710B7F700E0D84393844183799B09
:1009DC00D8C31307703E98CB23A407002D4798C3A8
:1009EC00B7073200938747069CC085451305558091
:1009FC0002C802CA02CC02C202C42316010002CEF3
:100A0C0002D002D202D4EF005036E1473715014034
:100A1C0011473ECC0C088D4713050580F8803AC071
:100A2C003ECAEF0050029E20373401404C007C84BB
:100A3C00130504C0A5473EC223150100EF00B036D4
:100A4C00C1679387070602473ECEBE206C0813058C
:100A5C0004C02310E1022311F10202D2EF009039FD
:100A6C00A145130504C0EF00D0468545130504C00D
:100A7C00EF009044AE20130504C0EF00F04685450E
:100A8C00130504C0EF00F0418545130504C0EF00C9
:100A9C00D03F01391305803EEF0090542D311305E2
:100AAC00803EEF00F05391311305803EEF00505320
:100ABC00372500001305052CEF10A047C14537154D
:100ACC000140EF00100093878181982B133515009E
:100ADC006312A7028146014794C7D8C7B42B394685
:100AEC00982B6366D60609668A0613068611B2969B
:100AFC00944282869847CC4783A601813363B70022
:100B0C0003A641816315030094C7D0C7C1BF3387C7
:100B1C00E640B3B6E6000D8E6316D60093061003BE
:100B2C00E3FEE6FA88AB5DBF1DC30547B8AB05A075
:100B3C000D47B8AB03A6018183A6418190C3D4C3F2
:100B4C0039A051E30947B8ABB83B0507B8BB83A73D
:100B5C0081839384818391E3612C9840854763134F
:100B6C00F700792494400D47138401836395E600C4
:100B7C0065332310040094400947639EE616F52A5A
:100B8C0023100400B7340140138504C08145EF00E5
:100B9C005031138504C08145EF00302F9147FC86FE
:100BAC00B7140140C1473ED26C08854713850480B9
:100BBC003ED0EF0040690146914513850480EF005B
:100BCC00E0700146ADA203A60181944383A5418147
:100BDC00D843B306D6403335D6003387E540098F6A
:100BEC006347E0002DF71307F07CE372D7F611474B
:100BFC00B8AB90C3CCC3A1BF19470DBF19E31547C0
:100C0C0035B703A60181944383A54181D843B3062C
:100C1C00D6403335D6003387E540098F6348E00072
:100C2C00E31707F21307703EE373D7F21D47C9B7FA
:100C3C002147EDBD19E32547D5BD03A6018194439A
:100C4C0083A54181D843B306D6403335D6003387CC
:100C5C00E540098F6348E000E31B07EE1307703E85
:100C6C00E377D7EE1D47B8AB983B050798BB51B758
:100C7C00A389070029475DBDB43BA38807002D4716
:100C8C00E39906EA354775B5E31107EA03A6018136
:100C9C00944383A54181D843B306D6403335D6005F
:100CAC003387E540098F6348E000E31207EA130736
:100CBC00301FE37ED7E8314725BF3547BAAB41BD7E
:100CCC00E31507E603A60181944303A74181CC43B6
:100CDC00B306D6403336D6000D8F118F6348E00033
:100CEC00E31707E61307703EE373D7E639473DBDBC
:100CFC0023890700A9BD1E20E38607E89147FC86DF
:100D0C0037150140E1473ED26C088D47130505802D
:100D1C003ED0B7340140052B8545138504C0EF0048
:100D2C00D0168545138504C0EF00B01705469145D4
:100D3C0037150140612B59B3EFF28FB68545054548
:100D4C00EF00B002370530008545130505406123DF
:100D5C000545852D6FF06FB59387818101478146DD
:100D6C00D8C3D8C794C394C723A80700B7073200C9
:100D7C009387470623AAF1828280EFF26FB283D762
:100D8C002183054691E301469145371501403D2BE2
:100D9C003704002093070406B82BB147130404064C
:100DAC006316F7042C38372500001305852CEF103B
:100DBC00001638388547631AF70083D7218393B719
:100DCC0017002399F182EFF01F8938388947631F88
:100DDC00F70023AC0182EFF01F8F014691453715C8
:100DEC000140A308040023190400CD216FF0EFABE0
:100DFC00EFF20FAB3704002093070406B82B89479A
:100E0C007111130404066310F70237250000130553
:100E1C00452DEF100012EFF0BF8503D7018363035C
:100E2C00071E2398018238289147631EF700372547
:100E3C0000001305C52DEF10C00FEFF09F8623AEF9
:100E4C0001822398018238289D47631CF7029387FF
:100E5C00C1838C43372500001305452E85058CC3B3
:100E6C00EF10E00AEFF0DF800546914537150140A1
:100E7C00B1291545EF00D0160146914537150140B3
:100E8C00B1213828A547631BF7103725000013053F
:100E9C00052FEF10000A83A7C18305479384C183F4
:100EAC006398E7021305803E23ACF182EF005013E8
:100EBC0005469145371501401129EFF06FFB3715A9
:100ECC0001400146914519211305800CEF0050118A
:100EDC009C4009476398E7041305803E23ACF182DC
:100EEC00EF0010100546914537150140C526EFF06F
:100EFC002FF80146914537150140C92E1305800C7A
:100F0C00EF00100E0546914537150140C126EFF054
:100F1C002FF637150140014691454D2E1305800CD7
:100F2C00EF00100C9C400D47639DE7021305803EBB
:100F3C0023ACF182EF00D00A8D4705469145371559
:100F4C0001403EC06126EFF0AFF2014691453715E6
:100F5C000140AD2E1305800CEF0090088247FD1761
:100F6C00E9FF9C401147639BE7021305803E23ACCD
:100F7C00F1829144EF00D0060546914537150140AA
:100F8C00B126EFF0EFEE01469145371501403D2EAD
:100F9C001305800CFD14EF00B004F9FC3828A947A8
:100FAC00631DF700372500001305C52FEF0070787F
:100FBC000146914537150140112E3828B14763176A
:100FCC00F7042C38372500001305852CEF003074FE
:100FDC0038389547631CF702EFF0EFEEEFF0AFEE09
:100FEC00EFF06FEEEFF02FEE9307800873B0073041
:100FFC000F100000B707EFBE37E700E09387070834
:10100C003CC701A005472398E18231BD3828B94778
:10101C00631EF7003725000013054530EF00707193
:10102C00EFF0EFE583D7018391E3393311016FF0D2
:10103C00CF87EFF2EF86371402401C403707FFF8DA
:10104C00414593E717001CC05C40F98F5CC01C4005
:10105C003707F7FE7D17F98F1CC01C403707FCFFC4
:10106C007D17F98F1CC05C4041777D17F98F5CC0F0
:10107C00B7079F001CC481211C4C93E707021CCCB2
:10108C00B717014003A70740938607401377F7F083
:10109C0023A0E74003A707401367070823A0E740F6
:1010AC0089479CCAB72702409843719B98C39843C1
:1010BC0098C35C4093E707025CC06FE01FFFEFE250
:1010CC003FFE371702405C43370400209146B18B3A
:1010DC00130404026385D700A1466382D704B73793
:1010EC006E01938707601CC0B7160240DC420840B3
:1010FC00918313F7F700B707002093870701BA977E
:10110C008C23DC4293F5F50F93F707083357B500A2
:10111C0081E7EFE03FFC2A8718C06FE01FF95C43C2
:10112C00B777DC02938707C07DBF01A097F1FF1F43
:10113C0093810171138181FB1305000A97F5FF1F41
:10114C00938585EB17F6FF1F1306C6EB63FAC500F4
:10115C008322050023A0550011059105E3EAC5FE85
:10116C00171500001305C51A97F5FF1F938585E920
:10117C0017F6FF1F1306C6EC63FAC50083220500A1
:10118C0023A0550011059105E3EAC5FE17F5FF1FD5
:10119C00130505EB938581846377B5002320050047
:1011AC001105E36DB5FEB72200009382028873909F
:1011BC0002308D427390428097F2FFFF9382C2E31C
:1011CC0093E2320073905230EFF0BFE697F2FFFFDC
:1011DC00938262767390123473002030584103234B
:1011EC0005004C4537060140930706403E97934651
:1011FC00F3FFB1C583250640F58D2320B640D043BF
:10120C00F18ED4C31443B3E6660014C3184190475F
:10121C009346F7FF758E90C7D047F18ED4C714450F
:10122C0041466399C6009447D98E94C7D447558FCD
:10123C00D8C78280B6979443558F98C382801C433D
:10124C00F58F1CC38280944593F7060193F2F60048
:10125C0081C7DC41B3E2F20083D3050093F7F30FAF
:10126C00A5C303230500611122C226C081471304C4
:10127C0080029304800405473316F70033F7C3004C
:10128C006312E602939527003D473317B7001347C7
:10129C00F7FF33736700B395B20033E36500639DCA
:1012AC00860050C985072147E397E7FC12442320A9
:1012BC006500824421018280E39696FE10C9DDB759
:1012CC00828008456D8D3335A000828019C20CC90F
:1012DC0082804CC982803703014003274300931757
:1012EC00350063D00702B707C0FFF517F98F370732
:1012FC000007D98FD9CD370700F07D17798DC98FAD
:10130C0049A8635D0500B707E0FFED17F98F3707B4
:10131C000007D98FBDCD06050581D5B7B7073000BD
:10132C00931605013376F500C1826313F602370676
:10133C0000F97D16B377C70003274300798E23226B
:10134C00C300A1C95581131745003395E60045BF6D
:10135C009317B50063D407029357050113F6F700F2
:10136C008D47B397C70093C7F7FFF98F370700076F
:10137C00D98F85C1135755011207C1BF558112056D
:10138C003395A6009347F5FFF98F37070007D98FE0
:10139C00BDF5370701405CC3828037070140144715
:1013AC0086058D47B397B70093C7F7FFF58F1CC71A
:1013BC001C47B315B500DD8D0CC7828023A0A1841A
:1013CC008280EFE2FFCDB77700409843759B98C3BE
:1013DC0098431367270098C3B7F700E003A707D11A
:1013EC001367470023A8E7D003A707D1118B45C388
:1013FC009307800873B007300F100000B707014047
:10140C0083A4474003A7074083A64740558F23A2D8
:10141C00E74037F400E0032704D1832704D14D457E
:10142C001377070293E787022328F4D0832704D18C
:10143C0093F7F7FDD98F2328F4D0832704D193E7B2
:10144C0087002328F4D097F0FF1FE780E0BA8327AA
:10145C0004D14D4593E787002328F4D097F0FF1F64
:10146C00E78080B9832704D1918BA1C3B7070140D2
:10147C0023A297409307800873A0073037F700E04A
:10148C00832707D1ED9B2328F7D06FE01FC203A75A
:10149C0007D11367070123A8E7D09307800873B01F
:1014AC0007300F1000008144ADB7832704D1BD9BDA
:1014BC002328F4D0C1B7371702401C430E0593F70D
:1014CC0077F05D8D08C38280EFE29FBD3717024035
:1014DC005C4391462A84B18B6385D700A146638017
:1014EC00D708B7376E01938707601CC0B716024048
:1014FC00DC42918313F7F700B7070020938787032B
:10150C00BA978C23DC42184093F5F50F93F7070834
:10151C003355B70081E73A85EFE0DFBB48C008C41C
:10152C0048C4B7170240DC438D46AD83FD8B13D7FF
:10153C0037008A07F18BD98F13F6370113F7370071
:10154C0063F4C600138747FFB70700209387470251
:10155C00BA978C23EFE01FB808C86FE01FB55C4347
:10156C00B777DC02938707C049B799C53717024094
:10157C001C4F5D8D08CF8280B7170240984F1345E2
:10158C00F5FF798D88CF828099C5371702405C4F63
:10159C005D8D48CF8280B7170240D84F1345F5FFB9
:1015AC00798DC8CF82801E2137370140130707C0C1
:1015BC00C207C1836306E500370700406316E500E8
:1015CC00BA2193F7F7F8D98FFA2193F7F7CFC2071F
:1015DC00C183D98F1EA1DE215EB59E211EB5B73702
:1015EC000140938707C06314F5009C251EB98547FD
:1015FC005EA982801E3165771307F7CFC207C183BE
:10160C00BD9BC207C1831EB11E31562103D3850079
:10161C00C20713960601162DC18393F7F7FD758F3C
:10162C0096214182A206558FB62142074183B3E62B
:10163C0066009206D58FB7360140C207938606C066
:10164C00C183631ED502B62593F7F7F703D3C50004
:10165C009206D58FD621C207C183920693F7F7FB6A
:10166C00D58FFD769386F63FF18EF225C207C183A6
:10167C00336666000A06D18E13960601418252A18A
:10168C001AADFA2118DD1EB182801E2189C593E79F
:10169C0017001EA18280C207C183F99BC207C183B8
:1016AC00CDBF8357450491C52167D98F2312F5040B
:1016BC008280C607C583DDBF1E2189C593E7070855
:1016CC001EA18280C207C18393F7F7F7C207C183BB
:1016DC00C5BF1A2DFD779387F77FF98FA205CD8FA4
:1016EC00C207C1831EAD82800CDD8280EFE25F9B5E
:1016FC001629F577FD17F58FF621DA252111D58FEF
:10170C001EA95625FD779387379FF58FD6212A84FE
:10171C002EC0D58F9625D58FB625D58F5EA55E2983
:10172C00C207C18393F7F7CF5D8F5AA94800693B75
:10173C00B74701409387078082456312F406C2477E
:10174C005A24139517003E9542070E0541873E9586
:10175C008C41635807048605EFE0DF97930540063C
:10176C002AC0EFE03F97824793144500930540064B
:10177C003E85EFE0FF985E24C207C18763D5070260
:10178C000E059305400613052503EFE0BF941D8954
:10179C00C98CC204C18006A461016FE01F91B247DD
:1017AC0045B78A0555BF1205930540061305250359
:1017BC00EFE05F923D89E9BF91C55E250967D98F3E
:1017CC005EA582805A25F977FD17F98FD5BF93F561
:1017DC00F51F4EA182800A216D8D3335A0008280C9
:1017EC0037F700E05443311193077100F99A54C351
:1017FC009306703E14CB23240700AD4614C303A6F6
:10180C00018183A64181E19B90C7D4C78C47D04707
:10181C009356F5413303B5003335A300B385C600A9
:10182C00B306B50023A06700D4C303A3070003A528
:10183C00418183A3470063E8A3006318750083A666
:10184C0001816374D300510182800100F9BFEFE282
:10185C003F85B707002003A50702B7157A009385CB
:10186C000520EFE03F871375F50F2383A1849317B1
:10187C005500898F8A073E950E052392A1846FE04F
:10188C00DF82EFE2FF8137F400E05C40AA85F99B30
:10189C005CC003D54184EFE0FF8108C82324040019
:1018AC001C4093E717001CC0B7F700E0D843058B2A
:1018BC0075DF9843799B98C36FE02FFFEFE24FFEE3
:1018CC002A8411651111854513051502EFF0FFC926
:1018DC00854537052080EFF01FA0930700047C801E
:1018EC00371501408D473EC28A85E14713050540F7
:1018FC003EC4EFF05F9522C637440140B70708009D
:10190C006C00130504803ECA02C8231C0100F93B7D
:10191C008545130504804D3571016FE00FF9EFE239
:10192C002FF87111AE840144635DC402B7470140C6
:10193C00138707803A859305000432C0693DB74789
:10194C00014013870780024675D5338784008305D1
:10195C000700138507800504C205C1818D3D024631
:10196C00E1B7328511016FE04FF4411106C62EC06C
:10197C000DCD1841AA8705C358417D5511CB85461D
:10198C00631BD70098472300070023A207000545D7
:10199C00B240410182809847824614A398470507BC
:1019AC0098C7D8437D17D8C3DDB705468A85853FD0
:1019BC00F9BF011122CC2EC206CE26CA2A84814739
:1019CC0093050002634506029245BE95838505008A
:1019DC008DE563D8C70263D4E702198E13050002A4
:1019EC0093F526002AC089C501E7930500032EC094
:1019FC00858A814495EAB2840DA08507F1B71D8EC6
:101A0C00F1BF0146E1BF824522853AC832C63EC4C9
:101A1C00A93FA24732464247FD14E34690FEB284EA
:101A2C00635306008144058E63C7E702A68792467E
:101A3C003387974036978305070095EDB28463444E
:101A4C009004635306000146F2406244D2443305CD
:101A5C00F600056182801D8FBA87930500032285ED
:101A6C0032C83EC63AC41137B24722474246FD1728
:101A7C00EDF7BA9465BF228532C63EC4FD35A24748
:101A8C00324685076DB78245228532C43EC2F13D90
:101A9C00FD142246924765B7397106DE22DC26DA40
:101AAC003EC232833A8689ED924693070003014782
:101ABC006C08FC86FD3DF2506254D2542161828048
:101ACC00AA843684AE8791CA294701446317E30080
:101ADC0063D50500B307B04005448646A30901024F
:101AEC0013073103938666FC36C49A853E8532CA49
:101AFC003AC81AC63EC0EFE0AFE0A5468247324373
:101B0C004247524663D4A600A246369513050503F8
:101B1C009306F7FFA30FA7FE9A853E8532CC3ACAEF
:101B2C001AC83EC636C0EFE0EFDAB247424352471E
:101B3C00624663F9670401CC29CA9247898BB1C705
:101B4C009305D002268532C40D3522467D16924768
:101B5C00918B95C306479307100632C49305000377
:101B6C002685631EF7021135930580072685F53B04
:101B7C002246090479161647924682452685153D5C
:101B8C00229515BFAA8702478DB782469307D002CC
:101B9C000144A38FF6FE9307E7FF3EC04DBFF13320
:101BAC0093058005E1B701458280014582801301D0
:101BBC0081FD22D026CE06D22AC4AE82328402C641
:101BCC0081448385020091EDA24789C781453E85FA
:101BDC00EFF0BFD9925002542685F24413018102D2
:101BEC008280930750026389F500224516C885044C
:101BFC00EFF0BFD7C24205A08387120013871200F3
:101C0C00639DB7002245930550023AC8EFF0FFD50B
:101C1C0042478504BA8285026DB7DDD79306B002C0
:101C2C006389D70463C8F600930630026386D70431
:101C3C00814705A09306D002638AD7009306000360
:101C4C00E398D7FE13872200894721A0138722002F
:101C5C008547830607001306B0026383C6046341FD
:101C6C00D60213063002638BC602BA820145A54622
:101C7C0081A0138722006DBF138722009147D1BF2B
:101C8C001306D0026389C60013060003E39FC6FC4B
:101C9C0093E7270031A005078547C1BF93E74700AD
:101CAC000507E1B713162500329506053A9585020E
:101CBC0003860200130706FD9375F70FE3F4B6FED7
:101CCC001307E0029946631EE60085028146A5458E
:101CDC0003860200130606FD1377F60F63F5E50283
:101CEC0036C6038702001306A006630DC70A6343BA
:101CFC00E6021306C0046307C70A13068006630CCA
:101D0C00C70881452DA813972600BA968606B29669
:101D1C0085027DBF130640076306C7081306A0079C
:101D2C006302C7081306C0068145631AC700038601
:101D3C0012008D456314E6008502914585020386E9
:101D4C000200930300061307100663C4C3001307B5
:101D5C0010049303700663C4C306930350066356C2
:101D6C0076189303700463C1C30493055004635E37
:101D7C00B61613073004E310E6EA18409303440048
:101D8C0016CA230CE1001EC8A30C01000147BE8635
:101D9C002A862C0849A8038612008145E311E6FA2D
:101DAC00890271BF8502B1BF93063006E307D6FCEA
:101DBC0063CFC606930680056303D602A9BD9306BE
:101DCC0030076304D60463CBC6029306F0066305A2
:101DDC00D60E9306000793E74700E31ED6E2914622
:101DEC006392D50C930384000C40504016CA3AC23F
:101DFC003EC01EC8AA870147C14681A8930650075A
:101E0C00630BD6069306800745BF1840B726000023
:101E1C00930344009385C63011C3BA85324716CA62
:101E2C001EC8BE862A862245EFF0BFB815A0914683
:101E3C006395D502930384000C40504016CA3AC2F5
:101E4C003EC01EC8AA870547A9462245EFF0BFD55C
:101E5C00C243AA941E84D2427DBBB2460C4016C823
:101E6C0036C23AC011042A87854629462245EFF02E
:101E7C00BFC2AA9441B39146639DD50093038400DD
:101E8C000C40504016CA3AC23EC01EC8AA87014731
:101E9C0065BFB2460C4016C836C23AC011042A8738
:101EAC008146E1B7B24616C80C40414636C23AC02C
:101EBC0011042A8781465DBF9146639ED50093032A
:101ECC0084000C40504016CA3AC23EC01EC8AA87B5
:101EDC000147A1469DBFB2460C4016C836C23AC057
:101EEC0011042A878146214651B70C401306840001
:101EFC0040403AC22A87224532C83EC02286B68765
:101F0C00A94616CAEFF07FCAAA944244A9B7130196
:101F1C00C1FD2EC832CAAA851008014506C636CCAA
:101F2C003ACE3ED032C0EFF09FC8B240130141020E
:101F3C008280411122C426C206C61C21AA840144F7
:101F4C00DC8183073100050499EFA9479305310023
:101F5C0005460145DC81EFF09F9C2285B24022446E
:101F6C009244410182800546930531000145EFF012
:101F7C001F9BB38784009C23DC81E1B741112AC0ED
:101F8C008A850546014506C6EFF07F99B2400545A6
:101F9C0041018280400500005605000060050000EC
:101FAC006A050000740500007E050000880500002D
:101FBC00920500009C050000A6050000B00500007D
:101FCC004572726F7220454550524F4D5F7265617C
:101FDC006456617220636F64653A256420000000CA
:101FEC00466C61736820756E6C6F636B2F6C6F63DE
:101FFC006B206661696C656400000000466C61735F
:10200C0068206572617365206661696C65640000A7
:10201C00466C617368207772697465206661696CBF
:10202C0065640000466C6173682077726974652082
:10203C00766572696669636174696F6E2066616941
:10204C006C656400466C617368206F7065726174B6
:10205C00696F6E2074696D656F75740045455052DB
:10206C004F4D206E6F7420696E697469616C697A6A
:10207C00656400005661726961626C652049442098
:10208C006E6F7420666F756E6400000043524320BF
:10209C00766572696669636174696F6E20666169E1
:1020AC006C65640053746F72616765206361706165
:1020BC006369747920657863656564656400000004
:1020CC00496E76616C6964207661726961626C65D7
:1020DC0020494400496E76616C69642070617261BC
:1020EC006D65746572000000486172644661756CC0
:1020FC00745F48616E646C65720D00004E4D495FF3
:10210C0048616E646C65720D00000000340B0000B9
:10211C003C0B0000800C00004E0B0000040C000077
:10212C007C0C0000080C00003C0C0000400C000073
:10213C007C0C0000840C0000940C0000C60C000009
:10214C00CC0C0000FC0C0000454550524F4D204477
:10215C00656D6F20467265653A2025640A000000A3
:10216C002E5245414420434F4E46494720426F6F03
:10217C00737420456E61626C650000002E524541FF
:10218C004420434F4E46494720426F6F737420548E
:10219C00696D65002E5245414420434F4E464947D8
:1021AC0020506F7765720000454550524F4D2069A5
:1021BC00643A25642021204E6F742050726573653B
:1021CC006E7420210A000000454550524F4D20539B
:1021DC0061766520636F64653A25640A000000002F
:1021EC00454550524F4D205665726966696361745E
:1021FC00696F6E2069643A25642056616C75653A86
:10220C002025640A00000000454550524F4D2069BE
:10221C00643A25642056616C75653A25640A0000A1
:10222C000D0A2D2D2D2D2D2D2D2D2D2D2D2D2D2D15
:10223C002D2D2D2D2D2D2D2D2D2D2D2D2D2D2D2DC2
:10224C002D2D2D2D2D2D2D2D2D000000537973743A
:10225C00656D436C6B3A25640D0A0000434F4E4686
:10226C00494720426F6F737420456E61626C652024
:10227C003A2025640A000000434F4E46494720424D
:10228C006F6F73742054696D652020203A2025648B
:10229C00206D730A00000000434F4E464947205002
:1022AC006F77657220202020202020203A20256482
:1022BC000A000000476F2E2E2E000000436C69634D
:1022CC006B733A2025640A00436C69636B00000051
:1022DC00486F6C6400000000537465702025640A1C
:1022EC000000000072656C65617365537465700065
:1022FC0052656C656173650054696D656F7574002A
:08230C00286E756C6C290000BD
:04231400640D000054
:1023180064000A0001020304050607080102030419
:102328000506070800127A000204060804080C10C3
:10233800081018201020304020406080010203045B
:0C2348000506070801020304050607084B
:00000001FF
