:100000006F10D00900000000E20B0000F40B0000AC
:1000100000000000000000000000000000000000E0
:1000200000000000000000000000000000000000D0
:10003000140C0000000000009A18000000000000EE
:100040009A1800009A1800009A1800009A180000E8
:100050009A1800009A1800009A1800009A180000D8
:100060009A1800009A1800009A1800009A180000C8
:100070009A1800009A1800009A1800009A180000B8
:100080009A1800009A1800009A1800009A180000A8
:100090009A1800009A1800009A180000000000004A
:0C00A000730050107D157DFD8280000073
:1000AC00511126C022C206C4828282441244A2404C
:1000BC00310182802A86014593F6150091C2329552
:1000CC0085810606F5F9828000000000634E05026A
:1000DC0063C305042E86AA857D5515C285466378B3
:1000EC00B6006356C00006068606E36CB6FE0145F4
:1000FC0063E4C500918D558D85820582F5FA828069
:10010C008682C93F2E8582823305A04063D70500C5
:10011C00B305B040C1B7B305B0408682653F330527
:10012C00A0408282868263C70500634905005D3763
:10013C002E858282B305B040E35B05FE3305A040FB
:10014C00513F3305B040828200003D432A876373E0
:10015C00C3029377F700BDEFADE5937606FF3D8ABA
:10016C00BA960CC34CC30CC74CC74107E36BD7FE04
:10017C0011E28280B306C3408A069702000096966D
:10018C006780A6002307B700A306B7002306B700B5
:10019C00A305B7002305B700A304B7002304B700D9
:1001AC00A303B7002303B700A302B7002302B700D1
:1001BC00A301B7002301B700A300B7002300B700C9
:1001CC00828093F5F50F93968500D58D9396050156
:1001DC00D58D61B79396270097020000969686827C
:1001EC00E78086FA9680C1171D8F3E96E374C3F89C
:1001FC00A5B7372702401C4B93E707081CCB82801E
:10020C00B16793870735B7260240D846058B11C7CF
:10021C0099E315458280FD17CDBF154591C3014566
:10022C008280130745009377F50F1306F00F130523
:10023C0005049376F70F6369A7003385D740130540
:10024C0005041375F50F82800C23E308B6FE09072D
:10025C00CDB7B7270240984B01451377070811CF4C
:10026C003707674513073712D8C33797EFCD1307F6
:10027C00B79AD8C3884B1D8105898280EFF25FE263
:10028C007111AA842E84F1370DE99D3F09C52AC04E
:10029C008D3702451DA0B7270240984B13671700F6
:1002AC0098CB82A0B13FB7270240984B799B98CB53
:1002BC009E20E30EF4FC353F11451101FDB3EFF226
:1002CC003FDE130181ED2AC22E8404415937AA87DF
:1002DC0011E53D3701C92AC0293F82473E851301EC
:1002EC008112E1B393071400BD8B3EC69A073727E2
:1002FC000240A6973EC01C4BB7060200D58F1CCB04
:10030C0082475CCB1C4B93E707041CCBD53D3727AE
:10031C000240144B01767D16F18E14CB0247144328
:10032C007D576385E600F13589474DBF2AC4D13529
:10033C00A247CDF71A040245A2943D64930554E5F7
:10034C00A4202D3FAA8759F993851400ED74824798
:10035C0093F5F50F938404A0C58DC2051385270072
:10036C00C181293FAA873DF92ACA1306001081458D
:10037C002810E13B824793864700C1473EC4930750
:10038C0054E53EC8D24712471086014503230700A7
:10039C0081430147FD5432CA4144131667001A9633
:1003AC000C3283420600A205B3E55500C2426394A9
:1003BC005502D2429375F70F638FB2002C2219C5E8
:1003CC0033867540620661866357C00093148701BB
:1003DC00E184AE8305450507E31187FC63C904027C
:1003EC009A049A94138744001383E40363676702A7
:1003FC0093958300138524003ECC36CA413535E5F0
:10040C00A247D246FD173EC43E87E2472DFF124756
:10041C00924678330507F8B2D1B500231306F00FD6
:10042C001374F40FE306C4FC1DCC30123294034653
:10043C0004F015EA8245138626009385050463E4CF
:10044C00C5020E2336851AD23ED01ECE32CC3ACA05
:10045C00353501ED624612538257F24352478546B9
:10046C002300D4F0B286090751B7AA8785BD611164
:10047C00BD6522C28323050026C001471305F00F7A
:10048C0001460143938555E51304A00A93176700B1
:10049C009E97943384239372F70FA206C58E6390B4
:1004AC00B602B433639D8600BC2363020302B38699
:1004BC00C740E206E1866354D00016853E860507E8
:1004CC00C147E315F7FC1244824421018280168552
:1004DC003E860543EDB71841211122CA9307E70365
:1004EC001307E7433AC23D67130757E526C832C4E2
:1004FC0001458142814381463AC6138727FC3AC0A5
:10050C00183303C327FC3244220733676700631692
:10051C008702138767FC81440144636DF70291CC19
:10052C0002473823B9C63303774062031353834120
:10053C0063556000BA833685A282124793870704FD
:10054C00E39DE7FA01C5A24723A057005244C244D9
:10055C0061018280034307001306F00F1373F30F3E
:10056C00E30FC3FA6315B30099C13A8485440907B4
:10057C006DB7A686C1B719C97C2189CB232005008C
:10058C00232205002324050023160500828049C17F
:10059C00EFF21FB17C212A847111194589CB0440DB
:1005AC004D3911E5B13911C52AC0A13102451101EE
:1005BC00EDBCB7270240984B1367270098CBC4CBF0
:1005CC00984B1367070498CB2539B7270240984BF3
:1005DC00759B98CB9840FD576305F7001939094571
:1005EC00F9B72AC03931024579F10440BD659385CC
:1005FC0055E52685613145FDAD65938505A01385CF
:10060C002400AD394DF523160400A303040045B7AF
:10061C001945828021C1EFF2BFA87C212A84AE84C7
:10062C0091C3913FC1679387E70F5CC004C023243B
:10063C0004002316040022851D3D1307F00F81478B
:10064C006318E5002285A137AA8719C1230304008A
:10065C003E85A1BCAD473E85828051CDEFF25FA4B3
:10066C00782141112A8499473DC31387F5FF1377ED
:10067C00F70F9306D00FA94763EBE60432C42EC2E2
:10068C00FD332AC01307F00F99476302E5041C40A1
:10069C0092451A05B304F500700022852D3D1DE12D
:1006AC0026854136854763EBA702824522850139B1
:1006BC00AA8711ED2285653B9307F00F631CF500AB
:1006CC00A54731A032458145553EAA8771D93E8553
:1006DC004101E1BA1C401A05B304F500138544002E
:1006EC009387E4031307F00FE37CF5FC14216307F5
:1006FC00D7000905D5BF99473E858280A2479395BF
:10070C0087009247DD8D9D3EAA8771F15A2405071B
:10071C005AA437F700E0184718C455BF0DC5782107
:10072C00AD471DC315C2EFF2BF97711132840A8613
:10073C005D339D4711C582479E23A1831CA0814731
:10074C003E8511019DB2AD473E8582805DCD7821FD
:10075C0099474DCFEFF2DF941301C1EF2EC0B28455
:10076C002A84A9CD1306001081454800F93A10409F
:10077C0082463D659307E603130555E51306E643EC
:10078C001303F00F854203C737FC83C527FC2207F0
:10079C004D8F6308A70493870704E396C7FE0147B0
:1007AC008147130600104C00BA958C2181C5850732
:1007BC0093F7F70F0507E318C7FE9EA2814789CC74
:1007CC00228575319307F00F630EF5021C401A0554
:1007DC003E95813C8AA081473E85130141106FF004
:1007EC00DF8C938567FCE3F8F5FA98211377F70F04
:1007FC00E30367FA11C7930341101E97230057F0C8
:10080C008905D5B723900400F9B799473E858280B6
:10081C00EFF21F89B745000837050020938505C006
:10082C0013058504C53B6FF05F88EFF27F872E863A
:10083C00AA85370500201305850405356FF0FF8662
:10084C00EFF21F867111AA853705002013063100BF
:10085C0013058504E13509E5888111016FF0FF84EA
:10086C002A84AA85372500001305C574EF10306261
:10087C007D141374F40FA94763EF8700896793877E
:10088C0007720A043E941C4082873725000013052A
:10089C00C576EF10D05F2945EF1050667D5575BFBA
:1008AC003725000013058578EDB7372500001305B3
:1008BC00C579C5B7372500001305057BD9BF37258A
:1008CC0000001305057DF1B7372500001305857E63
:1008DC00C9B7373500001305058065BF37350000F3
:1008EC00130585817DB7373500001305058355B792
:1008FC00373500001305C58469BF37350000130573
:10090C00058641BFEFF2CFF92A8401468945371598
:10091C000140EF10E0112285EF10E0626FF0EFF86C
:10092C00B7F700E0D843799BD8C3379798001307E3
:10093C00F76798CB23A407009847E37FE5FE23A431
:10094C0007001307703E98CB8280EFF26FF57111A0
:10095C00AE8411E52E857D3711016FF00FF5AA8558
:10096C0037450F0013050524EFF0CFF6939754008D
:10097C00858F8A07A697AA851354150013953700FF
:10098C00EFF04FF5AA878144E388F4FC05468945CE
:10099C00371501403EC0EF10A009228551370146A2
:1009AC00894537150140EF10A0082285953F850435
:1009BC008247D9BFEFF2CFEE51112E8411C111E64F
:1009CC002285893731016FF04FEEAA8537450F002C
:1009DC001305052432C2EFF0EFEF93175400818F0B
:1009EC008A07A297AA859354150013953700EFF048
:1009FC006FEE12462AC0930740061375F60F63F488
:100A0C00C70013054006A685EFF0CFEA9305400614
:100A1C00EFF04FECB387A4403EC22A8481470247D3
:100A2C00E382E7FA05468945371501403EC4EF10CD
:100A3C0020002285F5350146894537150140EF0028
:100A4C00307F1245F13D2685E13DA2478507C1BFA8
:100A5C00EFF20FE5930500051305803EFD35930578
:100A6C0000051305C05DD5356FF02FE4EFF24FE3B1
:100A7C009305600913050032C93D6FF00FE3EFF2E7
:100A8C002FE2930580021305004BC1356FF0EFE1A7
:100A9C00EFF20FE19305C0031305803E7D359305FE
:100AAC00C0031305C02B55356FF02FE0EFF24FDF6D
:100ABC00E54513058070513D6FF02FDFEFF24FDEEF
:100ACC009305600413050032493593056004130542
:100ADC00803EA53D9305A00513058025BD356FF01F
:100AEC00CFDCEFF2EFDB9305800713050032B13D4D
:100AFC00930580071305803E893D9305000A130575
:100B0C004051A1356FF06FDAEFF28FD99305600980
:100B1C001305004B1D3D9305600913054038353511
:100B2C009305400B130580250D356FF00FD8EFF2B0
:100B3C002FD71306A005930500051305C05D9D3D39
:100B4C0013058002EF1020401306A0059305000545
:100B5C001305C05D853513058002EF10C03E1306EA
:100B6C006004930540061305004BA9356FF0EFD3D5
:100B7C00EFF20FD31306A005930500051305003201
:100B8C00153D13058002EF10003C1306A0059305DC
:100B9C00000513050032393D13058002EF10A03A11
:100BAC0013066004930540061305803E21356FF053
:100BBC00CFCFEFF2EFCE130660049305800213053E
:100BCC00803ECD3B13064006930500051305C05D22
:100BDC00D5336FF08FCD711122C03734000013055F
:100BEC008488EF10102DE5BF7111B707EFBE22C03E
:100BFC0037E700E0938707083CC73734000013053C
:100C0C004487EF10102BE5BF938701819843D043A5
:100C1C009306170033B7E6003297D8C394C3B7F7DF
:100C2C0000E023A2070073002030EFF26FC75111D0
:100C3C00054502C002C202C4EF00906EEF00703E88
:100C4C00EF1040371305401FEF10003A8545130590
:100C5C004003EF10C007854537050010EF10000961
:100C6C0037150140FD578A85130505807C8002C429
:100C7C00EF00B0530544C14491478A8537150140B4
:100C8C007C8026C422C2EF00505289478A853715D2
:100C9C0001407C8026C422C2EF00305193078004AF
:100CAC008A85371501403EC4648022C2EF00F04FA4
:100CBC000546914537150140EF0090571545EF104B
:100CCC00A0320146914537150140EF0070563101B5
:100CDC006FF0AFBDEFF2CFBC3734014051111305AB
:100CEC0004C08145EF102012130504C08145EF109C
:100CFC0000109147371401407C80C1473EC48A855F
:100D0C008547130504803EC2EF00304A01469145E9
:100D1C0013050480EF00D05131016FF00FB9EFF2E1
:100D2C002FB841118545454502C002C202C402C616
:100D3C00EF00F07991450945EF00705CC1473EC06A
:100D4C0091473EC2B1473EC40A8585473EC6EF0077
:100D5C00303F41016FF06FB5EFF28FB461112A840F
:100D6C002EC0B284EFF0DFAD7D576317E504373545
:100D7C000000A28513058594EF10701193F5F40F04
:100D8C002285EFF09FAAAA853735000013058596BA
:100D9C00EF10F00F2285EFF0BFAA131605013735BF
:100DAC0000004182A28513050598EF10500E824772
:100DBC0086A321016FF06FAF2A862AC23735000057
:100DCC00A2851305859AEF10900C024792471EA33B
:100DDC00CDB7EFF2EFAC3111EFF09FA3B7450008A0
:100DEC00938505C04800EFF0FF82130621008A8529
:100DFC004800EFF0BF9530812C803735000013058B
:100E0C00458DEF10D008373500001305C58FEF1056
:100E1C00500A01469385218305453D3F3735000037
:100E2C0013058591EF10F008B70500201306800C10
:100E3C009385C50009450D373735000013054593DB
:100E4C00EF103007B7050020130620039385E5004B
:100E5C000D45193751016FF04FA5EFF26FA4130137
:100E6C0041FDEF00101CD1335D3D7165130505206C
:100E7C00EF10201B373500001305059CEF10700395
:100E8C00B707002083A50702373500001305C59E60
:100E9C00EF10E07F3D3F373400001305049DEF1049
:100EAC00500183D5218337350000130585A0EF1041
:100EBC00007EB707002083D5C70037350000130527
:100ECC0045A2EF10C07CB706002083D5E60037356D
:100EDC000000130545A4EF10807B1305049DEF1053
:100EEC00407D0565B7E700E023A0A710B7F700E049
:100EFC00D84393844183799BD8C31307703E98CB16
:100F0C0023A407002D4798C3930740069CC0854532
:100F1C001305558002C802CA02CC02C202C42316B1
:100F2C00010002CE02D002D202D4EF00505AE147A7
:100F3C003715014011473ECC0C088D471305058031
:100F4C00F8803AC03ECAEF0050269E20373401404C
:100F5C004C007C84130504C0A5473EC22315010038
:100F6C00EF00B05AC1679387070602473ECEBE20FA
:100F7C006C08130504C02311F1022310E10202D204
:100F8C00EF00905DA145130504C0EF00D06A8545C4
:100F9C00130504C0EF009068AE20130504C0EF00E9
:100FAC00F06A8545130504C0EF00F065854513050F
:100FBC0004C0EF00D0638145130504C0EF00106935
:100FCC00113B13066004930580021305803EEFF07D
:100FDC007F9E13064006930500051305C05DEFF0D8
:100FEC007F9D13060005930580021305004BEFF05F
:100FFC007F9C13066004930580021305803EEFF07E
:10100C007F9B13052003EF00107413064006930515
:10101C0000051305C05DEFF0FF993735000013058F
:10102C0005A6EF100069B70600209387E6003EC0C6
:10103C00C14537150140EF00101F93878181982B14
:10104C00133515006312A7028146014794C7D8C710
:10105C00B42B3946982B6366D6060D668A061306A2
:10106C008689B296944282869847CC4783A60181A2
:10107C003363B70003A641816315030094C7D0C73F
:10108C00C1BF3387E640B3B6E6000D8E6316D600BB
:10109C0093061003E3FEE6FA88AB5DBF1DC305475C
:1010AC00B8AB05A00D47B8AB03A6018183A641815F
:1010BC0090C3D4C339A055E30947B8ABB83B050777
:1010CC00B8BB03A781839384818311E3B12494403B
:1010DC0005476393E600D1269440094713840183A6
:1010EC006395E600212B2310040094400D47639573
:1010FC00E60023100400B52B984091476316F700C7
:10110C0023100400EF00805B1E20638007188247C9
:10111C0037340140130504C08E23EF003053914740
:10112C00FC8637150140E1473ED26C088D4713050C
:10113C0005803ED0EF0070078545130504C0EF0015
:10114C00104B8545130504C0EF00F04B0546914547
:10115C0037150140EF00D00DE1BD03A6018194438A
:10116C0083A54181D843B306D6403335D6003387A7
:10117C00E540098F6347E00029F71307F07CE37221
:10118C00D7F41147B8AB90C3CCC325BF194709BFDF
:10119C0019E3154731B703A60181944383A5418117
:1011AC00D843B306D6403335D6003387E540098F94
:1011BC006348E000E31707F01307703EE373D7F0C2
:1011CC001D47C9B72147E9BD19E32547D1BD03A682
:1011DC000181944383A54181D843B306D64033356E
:1011EC00D6003387E540098F6348E000E31B07EC2A
:1011FC001307703EE377D7EC1D47B8AB983B050758
:10120C0098BB51B7A3890700294759BDB43BA388A4
:10121C0007002D47E39906E8354771B5E31107E858
:10122C0003A60181944383A54181D843B306D640DC
:10123C003335D6003387E540098F6348E000E3126D
:10124C0007E81307301FE37ED7E6314725BF354744
:10125C00BAAB85BDE31507E403A60181944303A74C
:10126C004181CC43B306D6403336D6000D8F118F57
:10127C006348E000E31707E41307703EE373D7E419
:10128C00394739BD238907002DBDEFF0BFA40146B6
:10129C007DBDEFE2FFE085450545EF0050233705A6
:1012AC003000854513050540EF0020790545EF001A
:1012BC0090076FE09FDF9387818101478146D8C3F8
:1012CC00D8C794C394C723A80700B70732009387E5
:1012DC00470623AAF1828280EFE29FDCAA841305E1
:1012EC00803EEF00504601446356940205469145FA
:1012FC0037150140EF00C073EFF04FF701469145F1
:10130C0037150140EF00C0721305800CEF00B0439D
:10131C000504D9BF6FE07FD9EFE29FD837040020D6
:10132C0093070406B82B8947130404066310F702CD
:10133C0037350000130505AEEF10A037EFF00FF7AF
:10134C0003D701836305071223980182382891473C
:10135C00631EF70037350000130585AEEF106035BE
:10136C00EFF02FF823AE01822398018238289D4795
:10137C00631EF7029387C1838C4337350000130536
:10138C0005AF85058CC3EF108030EFF02FF20546CA
:10139C00914537150140EF00A0691545EF00B03AB3
:1013AC000146914537150140EF0080683828A54764
:1013BC00631BF704373500001305C5AFEF10602F22
:1013CC0083A7C18305479384C1836396E7000545D2
:1013DC0023ACF18211379C4009476396E70009451D
:1013EC0023ACF182D53D9C400D476396E7000D453B
:1013FC0023ACF182D5359C4011476396E70011452B
:10140C0023ACF182D13D3828A947631DF70037354D
:10141C0000001305C5B0EF10C029014691453715E2
:10142C00014039253828B1476317F7042C38373574
:10143C000000130505B3EF10802538389547631C61
:10144C00F702EFF06FECEFF02FECEFF0EFEBEFF0CB
:10145C00AFEB9307800873B007300F100000B7078D
:10146C00EFBE37E700E0938707083CC701A00547AC
:10147C002398E182E1BD3828B947631EF700373560
:10148C000000130585B1EF10C022EFF02FE383D7D6
:10149C00018391E3FD3B6FE05FC1EFE27FC0B704D6
:1014AC00002093870406B82BB14771116315F7140C
:1014BC00B707002003D5E700954593840406EFE0B9
:1014CC007FC1AC381314050137350000130545B244
:1014DC00EF10E01BB438B707002005473EC0418031
:1014EC006397E6020504D14763D1870CEFF02FE434
:1014FC0051440247AC389317240037350000A297AB
:10150C002286130505B42317F700EF104018B838DE
:10151C008947631FF70023AC0182EFF0EFDE014631
:10152C00914537150140A388040023990400092331
:10153C00B8388D476316F702854763DB87067D1441
:10154C00EFF0EFD30247AC38931724003735000087
:10155C00A2972286130585B52317F700EF102013E9
:10156C00B83891476319F70437350000130505B7F0
:10157C00EF1020141305803EEF00F01C81473EC095
:10158C00630BF40205469145371501405521EFF0E8
:10159C002FD0014691453715014059291305C0122A
:1015AC00EF00701A82478507D9BFEFF04FCD91B786
:1015BC00EFF00FDC41BFB8389547631EF702EFF030
:1015CC004FDFEFF00FDF930540060D45EFF0EFA571
:1015DC00AA8537350000130585B7EF10400B0D4574
:1015EC00EFF00FA69315050137350000C1811305E7
:1015FC0085B8EF10C00911016FE03FABEFE25FAAB5
:10160C0083D72183054691E3014691453715014067
:10161C0005213704002093070406B82BB1471304A7
:10162C0004066316F7042C3837350000130505B390
:10163C00EF10E00538388547631AF70083D721830C
:10164C0093B717002399F182EFF08FC03838894790
:10165C00631FF70023AC0182EFF00FCB01469145DD
:10166C0037150140A308040023190400D1266FE0AC
:10167C00DFA303C7A1829147631AF700EFE25FA2D1
:10168C0023AC0182EFF04FC86FE03FA28280EFE203
:10169C003FA1711101442AC06357A400EFF00FC1A0
:1016AC0005040245CDBF11016FE03FA0EFE25F9F43
:1016BC0023AC0182EFF08FBF6FE03F9FEFE25F9EA4
:1016CC003704002093070406B82B91471304040633
:1016DC00631EF70037350000130585A6EF00707DFB
:1016EC00EFF02FC023A001842398018238289D4756
:1016FC00631CF702938701848C4337350000130574
:10170C0005A885058CC3EF009078EFF02FBA05463D
:10171C00914537150140292E1545EF00D0020146A1
:10172C0091453715014029263828A5476316F7023D
:10173C00373500001305C5A9EF00B07783A70184E6
:10174C00373500001305C5AB93951700BE958E0574
:10175C00BE958605EF00B0733828B147631BF702BE
:10176C002C3837350000130505B3EF0050723838AC
:10177C0089476313F7001D3F38388D47631BF7000B
:10178C0037350000130505ADEF00B07203A50184D9
:10179C00FD3D6FE09F91EFE2BF90371402401C407B
:1017AC003707FFF8414593E717001CC05C40F98FE1
:1017BC005CC01C403707F7FE7D17F98F1CC01C401E
:1017CC003707FCFF7D17F98F1CC05C4041777D17F4
:1017DC00F98F5CC0B7079F001CC481211C4C93E798
:1017EC0007021CCCB717014003A70740938607409C
:1017FC001377F7F023A0E74003A707401367070808
:10180C0023A0E74089479CCAB72702409843719BA5
:10181C0098C3984398C35C4093E707025CC06FE0A1
:10182C00DF88EFE2FF87371702405C433704002064
:10183C009146B18B130404026385D700A1466382E1
:10184C00D704B7376E01938707601CC0B7160240E8
:10185C00DC420840918313F7F700B7070020938709
:10186C000701BA978C23DC4293F5F50F93F7070821
:10187C003357B50081E7EFE0FF852A8718C06FE08A
:10188C00DF825C43B777DC02938707C07DBF01A082
:10189C0097F1FF1F9381C1FA138181FB1305000A95
:1018AC0097E5FF1F9385457517E6FF1F1306867591
:1018BC0063FAC5008322050023A05500110591058C
:1018CC00E3EAC5FE171500001305C52D97E5FF1FAC
:1018DC009385457317E6FF1F1306867663FAC500DA
:1018EC008322050023A0550011059105E3EAC5FEEE
:1018FC0017E5FF1F1305C5749385C1846377B50085
:10190C00232005001105E36DB5FEB722000093827C
:10191C000288739002308D427390428097E2FFFFF1
:10192C009382826D93E2320073905230EFF0BFE6F7
:10193C0097F2FFFF9382A2527390123473002030FF
:10194C005841032305004C453706014093070640D8
:10195C003E979346F3FFB1C583250640F58D2320B2
:10196C00B640D043F18ED4C31443B3E6660014C31F
:10197C00184190479346F7FF758E90C7D047F18E6C
:10198C00D4C7144541466399C6009447D98E94C771
:10199C00D447558FD8C78280B6979443558F98C338
:1019AC0082801C43F58F1CC38280944593F70601FB
:1019BC0093F2F60081C7DC41B3E2F20083D3050059
:1019CC0093F7F30FA5C303230500611122C226C0B0
:1019DC008147130480029304800405473316F700F3
:1019EC0033F7C3006312E602939527003D47331784
:1019FC00B7001347F7FF33736700B395B20033E3B7
:101A0C006500639D860050C985072147E397E7FC75
:101A1C00124423206500824421018280E39696FEC5
:101A2C0010C9DDB7828008456D8D3335A0008280EA
:101A3C0019C20CC982804CC982803703014003272C
:101A4C0043009317350063D00702B707C0FFF517A3
:101A5C00F98F37070007D98FD9CD370700F07D17DD
:101A6C00798DC98F49A8635D0500B707E0FFED17B5
:101A7C00F98F37070007D98FBDCD06050581D5B77E
:101A8C00B7073000931605013376F500C182631356
:101A9C00F602370600F97D16B377C700032743001B
:101AAC00798E2322C300A1C95581131745003395A4
:101ABC00E60045BF9317B50063D4070293570501A1
:101ACC0013F6F7008D47B397C70093C7F7FFF98F4D
:101ADC0037070007D98F85C1135755011207C1BFAE
:101AEC00558112053395A6009347F5FFF98F3707FB
:101AFC000007D98FBDF5370701405CC382803707DB
:101B0C000140144786058D47B397B70093C7F7FF7D
:101B1C00F58F1CC71C47B315B500DD8D0CC7828033
:101B2C0023A2A1848280EFE2AFD7B777004098431D
:101B3C00759B98C398431367270098C3B7F700E0C9
:101B4C0003A707D11367470023A8E7D003A707D142
:101B5C00118B45C39307800873B007300F1000003A
:101B6C00B707014083A4474003A7074083A647401B
:101B7C00558F23A2E74037F400E0032704D18327D5
:101B8C0004D14D451377070293E787022328F4D03D
:101B9C00832704D193F7F7FDD98F2328F4D083271B
:101BAC0004D193E787002328F4D097E0FF1FE78048
:101BBC00A044832704D14D4593E787002328F4D014
:101BCC0097E0FF1FE7804043832704D1918BA1C38B
:101BDC00B707014023A297409307800873A00730F2
:101BEC0037F700E0832707D1ED9B2328F7D06FE070
:101BFC00CFCB03A707D11367070123A8E7D093071F
:101C0C00800873B007300F1000008144ADB78327F4
:101C1C0004D1BD9B2328F4D0C1B7371702401C4315
:101C2C000E0593F777F05D8D08C38280EFE24FC706
:101C3C00371702405C4391462A84B18B6385D700E9
:101C4C00A1466380D708B7376E01938707601CC025
:101C5C00B7160240DC42918313F7F700B707002058
:101C6C0093878703BA978C23DC42184093F5F50FC2
:101C7C0093F707083355B70081E73A85EFE08FC536
:101C8C0048C008C448C4B7170240DC438D46AD8336
:101C9C00FD8B13D737008A07F18BD98F13F63701D9
:101CAC0013F7370063F4C600138747FFB70700200C
:101CBC0093874702BA978C23EFE0CFC108C86FE037
:101CCC00CFBE5C43B777DC02938707C049B799C591
:101CDC00371702401C4F5D8D08CF8280B71702402A
:101CEC00984F1345F5FF798D88CF828099C53717AA
:101CFC0002405C4F5D8D48CF8280B7170240D84FB1
:101D0C001345F5FF798DC8CF82801E2137370140EE
:101D1C00130707C0C207C1836306E50037070040FD
:101D2C006316E500BA2193F7F7F8D98FFA2193F7E8
:101D3C00F7CFC207C183D98F1EA1DE215EB59E21CC
:101D4C001EB5B7370140938707C06314F5009C2577
:101D5C001EB985475EA982801E3165771307F7CFC0
:101D6C00C207C183BD9BC207C1831EB11E31562160
:101D7C0003D38500C20713960601162DC18393F772
:101D8C00F7FD758F96214182A206558FB621420729
:101D9C004183B3E666009206D58FB7360140C20781
:101DAC00938606C0C183631ED502B62593F7F7F759
:101DBC0003D3C5009206D58FD621C207C1839206E4
:101DCC0093F7F7FBD58FFD769386F63FF18EF225D0
:101DDC00C207C183336666000A06D18E13960601CC
:101DEC00418252A11AADFA2118DD1EB182801E214A
:101DFC0089C593E717001EA18280C207C183F99B96
:101E0C00C207C183CDBF8357450491C52167D98FC4
:101E1C002312F5048280C607C583DDBF1E2189C548
:101E2C0093E707081EA18280C207C18393F7F7F7D7
:101E3C00C207C183C5BF1A2DFD779387F77FF98F32
:101E4C00A205CD8FC207C1831EAD82800CDD8280BE
:101E5C00EFE20FA51629F577FD17F58FF621DA2598
:101E6C002111D58F1EA95625FD779387379FF58FA6
:101E7C00D6212A842EC0D58F9625D58FB625D58F01
:101E8C005EA55E29C207C18393F7F7CF5D8F5AA970
:101E9C004800EFF0BFD9B7470140938707808245D0
:101EAC006312F406C2475A24139517003E95420755
:101EBC000E0541873E958C41635807048605EFE07B
:101ECC006FA1930540062AC0EFE0CFA08247931480
:101EDC004500930540063E85EFE08FA25E24C207C5
:101EEC00C18763D507020E0593054006130525032C
:101EFC00EFE04F9E1D89C98CC204C18006A461010C
:101F0C006FE0AF9AB24745B78A0555BF12059305E6
:101F1C00400613052503EFE0EF9B3D89E9BF91C512
:101F2C005E250967D98F5EA582805A25F977FD1742
:101F3C00F98FD5BF93F5F51F4EA182800A216D8DC7
:101F4C003335A000828037F700E0544331119307FA
:101F5C007100F99A54C39306703E14CB23240700E6
:101F6C00AD4614C303A6018183A64181E19B90C7B2
:101F7C00D4C78C47D0479356F5413303B50033355E
:101F8C00A300B385C600B306B50023A06700D4C375
:101F9C0003A3070003A5418183A3470063E8A300C3
:101FAC006318750083A601816374D300510182808C
:101FBC000100F9BFEFE2CF8EB707002003A507029F
:101FCC00B7157A0093850520EFE0CF901375F50FC8
:101FDC002385A18493175500898F8A073E950E059A
:101FEC002394A1846FE06F8CEFE28F8B37F400E0C9
:101FFC005C40AA85F99B5CC003D58184EFE08F8B94
:10200C0008C8232404001C4093E717001CC0B7F732
:10201C0000E0D843058B75DF9843799B98C36FE03C
:10202C00CF88EFE2EF872A841165111185451305DE
:10203C001502EFF0DFC9854537052080EFF0FF9FD3
:10204C00930700047C80371501408D473EC28A857A
:10205C00E147130505403EC4EFF03F9522C63744D7
:10206C000140B70708006C00130504803ECA02C883
:10207C00231C0100EFF0DFDD854513050480EFF034
:10208C001FEA71016FE06F82EFE28F817111AE84F4
:10209C000144635FC402B7470140138707803A8548
:1020AC009305000432C0EFF07FE9B7470140138776
:1020BC00078002466DD5338784008305070013859E
:1020CC0007800504C205C181EFF0DFE60246D1B7F7
:1020DC00328511016FD07FFD411106C62EC00DCD8A
:1020EC001841AA8705C358417D5511CB8546631B02
:1020FC00D70098472300070023A207000545B240EC
:10210C00410182809847824614A39847050798C7D7
:10211C00D8437D17D8C3DDB705468A85B537F9BFD7
:10212C00011122CC2EC206CE26CA2A8481479305E1
:10213C000002634506029245BE95838505008DE538
:10214C0063D8C70263D4E702198E1305000293F516
:10215C0026002AC089C501E7930500032EC0858A95
:10216C00814495EAB2840DA08507F1B71D8EF1BFAD
:10217C000146E1BF824522853AC832C63EC4A93F1A
:10218C00A24732464247FD14E34690FEB2846353A5
:10219C0006008144058E63C7E702A6879246338703
:1021AC0097403697830507009DEDB28463469004F3
:1021BC00635306000146F2406244D2443305F600F4
:1021CC00056182801D8FBA8793050003228532C872
:1021DC003EC63AC4EFF05FF0B24722474246FD17C5
:1021EC00E5F7BA945DBF228532C63EC4EFF0DFEE50
:1021FC00A247324685075DB78245228532C43EC26E
:10220C00EFF09FEDFD14224692474DB7397106DE73
:10221C0022DC26DA3EC232833A8691ED924693074F
:10222C00000301476C08FC86EFF09FEFF2506254FC
:10223C00D25421618280AA843684AE8791CA294700
:10224C0001446317E30063D50500B307B0400544B0
:10225C008646A309010213073103938666FC36C434
:10226C009A853E8532CA3AC81AC63EC0EFD05FE99D
:10227C00A546824732434247524663D4A600A24643
:10228C003695130505039306F7FFA30FA7FE9A8552
:10229C003E8532CC3ACA1AC83EC636C0EFD09FE350
:1022AC00B24742435247624663FD670409CC29CECC
:1022BC009247898BB1CB9305D002268532C4EFF0BF
:1022CC00BFE122467D169247918B85C7064793073F
:1022DC00100632C49305000326856311F704EFF052
:1022EC00BFDF930580072685EFF01FDF2246090428
:1022FC0079161647924682452685EFF07FE22295A5
:10230C0035B7AA870247A9BF82469307D00201447A
:10231C00A38FF6FE9307E7FF3EC075B7EFF0DFDB48
:10232C0093058005C9B70145828001458280130160
:10233C0081FD22D026CE06D22AC4AE82328402C6B9
:10234C0081448385020091EDA24789C781453E8572
:10235C00EFF09FD8925002542685F244130181026B
:10236C008280930750026389F500224516C88504C4
:10237C00EFF09FD6C24205A083871200138712008C
:10238C00639DB7002245930550023AC8EFF0DFD4A5
:10239C0042478504BA8285026DB7DDD79306B00239
:1023AC006389D70463C8F600930630026386D704AA
:1023BC00814705A09306D002638AD70093060003D9
:1023CC00E398D7FE13872200894721A013872200A8
:1023DC008547830607001306B0026383C604634176
:1023EC00D60213063002638BC602BA820145A5469B
:1023FC0081A0138722006DBF138722009147D1BFA4
:10240C001306D0026389C60013060003E39FC6FCC3
:10241C0093E7270031A005078547C1BF93E7470025
:10242C000507E1B713162500329506053A95850286
:10243C0003860200130706FD9375F70FE3F4B6FE4F
:10244C001307E0029946631EE60085028146A54506
:10245C0003860200130606FD1377F60F63F5E502FB
:10246C0036C6038702001306A006630DC70A634332
:10247C00E6021306C0046307C70A13068006630C42
:10248C00C70881452DA813972600BA968606B296E2
:10249C0085027DBF130640076306C7081306A00715
:1024AC006302C7081306C0068145631AC70003867A
:1024BC0012008D456314E600850291458502038662
:1024CC000200930300061307100663C4C30013072E
:1024DC0010049303700663C4C3069303500663563B
:1024EC0076189303700463C1C30493055004635EB0
:1024FC00B61613073004E310E6EA184093034400C1
:10250C0016CA230CE1001EC8A30C01000147BE86AD
:10251C002A862C0849A8038612008145E311E6FAA5
:10252C00890271BF8502B1BF93063006E307D6FC62
:10253C0063CFC606930680056303D602A9BD930636
:10254C0030076304D60463CBC6029306F00663051A
:10255C00D60E9306000793E74700E31ED6E291469A
:10256C006392D50C930384000C40504016CA3AC2B7
:10257C003EC01EC8AA870147C14681A893065007D2
:10258C00630BD6069306800745BF1840B73600008C
:10259C0093034400938506BA11C3BA85324716CA11
:1025AC001EC8BE862A862245EFF09FB715A091461D
:1025BC006395D502930384000C40504016CA3AC26E
:1025CC003EC01EC8AA870547A9462245EFF0BFD5D5
:1025DC00C243AA941E84D2427DBBB2460C4016C89C
:1025EC0036C23AC011042A87854629462245EFF0A7
:1025FC00FFC1AA9441B39146639DD5009303840017
:10260C000C40504016CA3AC23EC01EC8AA870147A9
:10261C0065BFB2460C4016C836C23AC011042A87B0
:10262C008146E1B7B24616C80C40414636C23AC0A4
:10263C0011042A8781465DBF9146639ED5009303A2
:10264C0084000C40504016CA3AC23EC01EC8AA872D
:10265C000147A1469DBFB2460C4016C836C23AC0CF
:10266C0011042A878146214651B70C401306840079
:10267C0040403AC22A87224532C83EC02286B687DD
:10268C00A94616CAEFF07FCAAA944244A9B713010F
:10269C00C1FD2EC832CAAA851008014506C636CC23
:1026AC003ACE3ED032C0EFF09FC8B2401301410287
:1026BC008280411122C426C206C61C21AA84014470
:1026CC00DC8183073100050499EFA947930531009C
:1026DC0005460145DC81EFF03F9B2285B240224448
:1026EC009244410182800546930531000145EFF08B
:1026FC00BF99B38784009C23DC81E1B741112AC0C8
:10270C008A850546014506C6EFF01F98B24005457F
:10271C004101828096080000AC080000B608000059
:10272C00C0080000CA080000D4080000DE08000041
:10273C00E8080000F2080000FC0800000609000090
:10274C004572726F7220454550524F4D5F726561F4
:10275C00644279746520636F64653A2564200000D7
:10276C00466C61736820756E6C6F636B2F6C6F6356
:10277C006B206661696C656400000000466C6173D7
:10278C0068206572617365206661696C6564000020
:10279C00466C617368207772697465206661696C38
:1027AC0065640000466C61736820777269746520FB
:1027BC00766572696669636174696F6E20666169BA
:1027CC006C656400466C617368206F70657261742F
:1027DC00696F6E2074696D656F7574004545505254
:1027EC004F4D206E6F7420696E697469616C697AE3
:1027FC00656400005661726961626C652049442011
:10280C006E6F7420666F756E640000004352432037
:10281C00766572696669636174696F6E2066616959
:10282C006C65640053746F726167652063617061DD
:10283C00636974792065786365656465640000007C
:10284C00496E76616C6964207661726961626C654F
:10285C0020494400496E76616C6964207061726134
:10286C006D65746572000000486172644661756C38
:10287C00745F48616E646C65720D00004E4D495F6B
:10288C0048616E646C65720D00000000A8100000B9
:10289C00B010000014120000C210000098110000CB
:1028AC00101200009C110000D0110000D411000087
:1028BC001012000018120000281200005A1200001A
:1028CC0060120000901200005661726961626C65C2
:1028DC00733A2025642C2046726565207370616301
:1028EC00653A2025642062797465730D0A00000036
:1028FC002E5245414420434F4E46494720426F6F6C
:10290C00737420456E61626C650D00002E5245415A
:10291C004420434F4E46494720426F6F73742054F6
:10292C00696D650D000000002E5245414420434F57
:10293C004E46494720506F7765720D004545505201
:10294C004F4D2069643A25642021204E6F7420502D
:10295C00726573656E7420210D0A00004545505256
:10296C004F4D205361766520636F64653A25640A88
:10297C0000000000454550524F4D20566572696667
:10298C0069636174696F6E2069643A2564205661CD
:10299C006C75653A2025640D0A00000045455052BF
:1029AC004F4D2069643A25642056616C75653A2553
:1029BC00640D0A000D0A2D2D2D2D2D2D2D2D2D2DB7
:1029CC002D2D2D2D2D2D2D2D2D2D2D2D2D2D2D2D2B
:1029DC002D2D2D2D2D2D2D2D2D2D2D2D2D0D000095
:1029EC00D09FD180D0B8D0B2D0B5D18220537973DA
:1029FC0074656D436C6B3A25640D0A00434F4E466B
:102A0C00494720426F6F737420456E61626C65207C
:102A1C003A2025640D0A0000434F4E464947204298
:102A2C006F6F73742054696D652020203A202564E3
:102A3C00206D730D0A000000434F4E46494720504D
:102A4C006F77657220202020202020203A202564DA
:102A5C000D0A0000476F2E2E2E0D00003E205363F2
:102A6C007265656E426F6F737454696D6520486F43
:102A7C006C640D003E2053637265656E426F6F731C
:102A8C007454696D6520537465702025640D0A00BB
:102A9C003E2053637265656E426F6F737454696D3B
:102AAC00652072656C65617365537465700D00000B
:102ABC00426F6F737454696D653A202564206D7391
:102ACC000A000000676574436C69636B73203D3DBD
:102ADC0020330D00436C69636B0D0000486F6C6410
:102AEC000D000000537465702025640D0A00000071
:102AFC0072656C65617365537465700D0000000040
:102B0C0052656C656173650D0000000054696D655C
:102B1C006F75740D0000000053637265656E506F25
:102B2C0077657220436C69636B733A2025640D0AD8
:102B3C00000000002B2B20436C69636B733A20253B
:102B4C006420696D703A25640D0A00002D2D204318
:102B5C006C69636B733A20256420696D703A256447
:102B6C000D0A00005374617475730D005361766522
:102B7C00207265733A25640D0A0000005361766576
:102B8C0020726573642033207265733A25640D0AD4
:0C2B9C0000000000286E756C6C29000021
:042BA800C212000055
:102BAC0064000A000102030405060708010203047D
:102BBC000506070800127A000204060804080C1027
:102BCC0008101820102030402040608001020304BF
:0C2BDC00050607080102030405060708AF
:00000001FF
