:100000006F00105600000000C8060000DA0600006D
:1000100000000000000000000000000000000000E0
:1000200000000000000000000000000000000000D0
:10003000FA060000000000005E0D00000000000055
:100040005E0D00005E0D00005E0D00005E0D000004
:100050005E0D00005E0D00005E0D00005E0D0000F4
:100060005E0D00005E0D00005E0D00005E0D0000E4
:100070005E0D00005E0D00005E0D00005E0D0000D4
:100080005E0D00005E0D00005E0D00005E0D0000C4
:100090005E0D00005E0D00005E0D0000000000001F
:0C00A000730050107D157DFD8280000073
:1000AC00511126C022C206C4828282441244A2404C
:1000BC00310182802A86014593F6150091C2329552
:1000CC0085810606F5F9828000000000634E05026A
:1000DC0063C305042E86AA857D5515C285466378B3
:1000EC00B6006356C00006068606E36CB6FE0145F4
:1000FC0063E4C500918D558D85820582F5FA828069
:10010C008682C93F2E8582823305A04063D70500C5
:10011C00B305B040C1B7B305B0408682653F330527
:10012C00A0408282868263C70500634905005D3763
:10013C002E858282B305B040E35B05FE3305A040FB
:10014C00513F3305B04082820000372702401C4BE0
:10015C0093E707081CCB8280B16793870735B726D6
:10016C000240D846058B11C799E315458280FD17CF
:10017C00CDBF154591C301458280C1676976814623
:10018C00FD17050613F7F60F6364B7003E858280F2
:10019C003307D5001823B98F214713F31700858334
:1001AC0063050300B18FC207C1837D171377F70F67
:1001BC006DF78506C1BFB7270240984B01451377F1
:1001CC00070811CF3707674513073712D8C337977E
:1001DC00EFCD1307B79AD8C3884B1D810589828050
:1001EC00EFF21FEC7111AA842E84F1370DE9AD37B3
:1001FC0009C52AC0993F02451DA0B7270240984B5C
:10020C001367170098CB82A0813FB7270240984B09
:10021C00799B98CB9E20E30EF4FC053F1145110110
:10022C0069B5930785009306F00F1305A53F63E4AA
:10023C00A7000145828098231377F70FE30BD7FEB5
:10024C006316B70081C51CC2054582809907C5B7E6
:10025C001307850081471305A53F1306F00F636450
:10026C00A7003E858280142393F6F60FE38BC6FE1F
:10027C0081C6850793F7F70F1907D5B719C97C21E4
:10028C0089CB2320050023220500232405002316F7
:10029C000500828051C9EFF2BFE07C212A847111E4
:1002AC00194589CB0440013F11E57D3511C52AC0A4
:1002BC00693D02451101D5BBB7270240984B136726
:1002CC00270098CBC4CB984B1367070498CB6935A0
:1002DC00B7270240984B759B98CB9840FD57630508
:1002EC00F700A5350945F9B72AC08535024579F1DE
:1002FC000840956593855504E5354DFD084091659D
:10030C00938555540905E93D55F50840854511057A
:10031C00C13D4DF1084081451905D93541FD2316E4
:10032C000400A303040079B71945828019E12D4517
:10033C008280EFF2FFD67C212A84AE8491C33D3FAC
:10034C0093F7F43F2D459DE7C167938707025CC087
:10035C0004C0232404009840B757454523160400D5
:10036C009387570401456307F7002285253719C188
:10037C00230304001DBB31C57821AD4721C739C209
:10038C00EFF21FD20841511132843000AE84513D3E
:10039C009D470DC5224785468D453E2348003AC0F2
:1003AC00C207C1831EA0A1835C834482D482F13333
:1003BC00024781475A236303E500A1473E8531017B
:1003CC00EDB1AD473E858280AA8709C978211945D0
:1003DC0019C7F83301450507F8B3828019458280A7
:1003EC0039C97821994729CBA947B9C5EFF25FCB19
:1003FC002A840841411132C22EC0993D5E2042052B
:10040C004181637DF5001C409306F00F93848700B7
:10041C009387A73F63EBF400A54729A022856D378E
:10042C00A54775D13E85410149B190206388C6002E
:10043C0090309904C5B799473E85828082478D4597
:10044C0068005C868547DC869247A1835C873533E0
:10045C0082472AC4268593E507105933AA8779F178
:10046C00924513852400AD3BAA874DFDA24513850B
:10047C004400BD33AA875DF55A2405075AA437F703
:10048C0000E0184718C479BFB707002083A687047B
:10049C001306F00F8147138786009386A63F636788
:1004AC00D70061551D8D1375F50F82800C23E30A5F
:1004BC00B6FE1385670093170501C1831907C5B7ED
:1004CC00EFF21FBEB745000837050020938505C025
:1004DC0013058504A13DD1BEEFF29FBC2E86AA85E3
:1004EC003705002013058504E53DC1B6EFF25FBB6F
:1004FC007111AA8537050020130621001305850408
:10050C009D3D01E5288111014DB62A84AA85372528
:10051C000000130585A5EF1060487D141374F40FCB
:10052C00A94763EF870089679387C7A20A043E94A3
:10053C001C40828737250000130585A7EF10004665
:10054C002945EF10604C7D557DBF37250000130504
:10055C0045A9EDB737250000130585AAC5B7372582
:10056C0000001305C5ABD9BF372500001305C5AD79
:10057C00F1B737250000130545AFC9B73725000083
:10058C001305C5B065BF37250000130545B27DB70F
:10059C00372500001305C5B355B7372500001305E3
:1005AC0085B569BF372500001305C5B641BFEFF20D
:1005BC003FAF2A840146894537150140EF0090135F
:1005CC002285EF001050D5B4B7F700E0D843799BE3
:1005DC00D8C3379798001307F76798CB23A4070065
:1005EC009847E37FE5FE23A407001307703E98CBE2
:1005FC008280EFF2FFAA7111AE8409E52E85453F8A
:10060C00110165B4AA8537450F0013050524D934AB
:10061C0093975400858F8A07A697AA8513541500C3
:10062C0013953700453CAA878144E38BF4FC0546BF
:10063C008945371501403EC0EF00D00B2285693744
:10064C000146894537150140EF00D00A2285AD3FA0
:10065C0085048247D9BFEFF2BFA493056009130547
:10066C000032413F99B4EFF2BFA3E545130580700A
:10067C00493725BCEFF2DFA2930560041305003265
:10068C008D3F930560041305803EA5379305A005A7
:10069C0013058025B93F11BCEFF29FA093056009AB
:1006AC001305004BB9379305600913054038913792
:1006BC009305400B130580252D3FC5BA711122C03F
:1006CC0037240000130544B9EF10602FE5BF7111FA
:1006DC00B707EFBE22C037E700E0938707083CC797
:1006EC0037240000130504B8EF10602DE5BF938785
:1006FC0001819843D0439306170033B7E600329735
:10070C00D8C394C3B7F700E023A2070073002030CE
:10071C00EFF21F9941118545454502C002C202C442
:10072C0002C6EF00102791450945EF009009C1471B
:10073C003EC091473EC2B1473EC40A8585473EC67E
:10074C00EF00406C41016FF05F96EFF27F95611105
:10075C002EC032C22A84593BAA85AA8437250000B0
:10076C00130585BFEF1080237D576395E40437256F
:10077C000000A285130545C0EF104022924522854A
:10078C00A13BAA8537250000130545C2EF100021B7
:10079C002285A93B13160501372500004182A2854D
:1007AC001305C5C3EF10801F824712479AA321017E
:1007BC006FF0BF8F37250000A685130545C6EF10D7
:1007CC00E01D824786A3E5B7EFF29F8DD5396D39D1
:1007DC00AA8537250000130505BEEF10201C014625
:1007EC009385018305459537B70500201306800CCA
:1007FC009385C5000945913F6FF03F8BEFF25F8AFF
:10080C005111054502C002C202C4EF00A07DE129CE
:10081C00EF00902D1305401FEF0050308545130558
:10082C004003EF001017854537050010EF005018F6
:10083C0037140140FD57130504808A857C8002C45F
:10084C003D25130504408A851D258A8537150140F1
:10085C00392DC144054491478A85371501407C8068
:10086C0026C422C2292589478A85371501407C80F8
:10087C0026C422C2ED2B930780048A8537150140CC
:10088C003EC4648022C2E5230546914537150140DC
:10089C0095251545EF0090280146914537150140E7
:1008AC00912DBD35716513050520EF00D02A372534
:1008BC0000001305C5C7EF108010B707002083A5F3
:1008CC00070237250000130585CAEF10200DED3DFA
:1008DC00372400001305C4C8EF10600E83D50183C4
:1008EC0037250000130585CBEF10400BB707002010
:1008FC0083D5C70037250000130545CDEF10000A3E
:10090C001305C4C8EF10A00BF92EB7E700E005677C
:10091C0023A0E710B7F700E0D84393054006130572
:10092C00803E799BD8C31307703E98CB23A4070055
:10093C002D4798C37D39930560091305C05D553962
:10094C0037250000130545CFEF106007C14537155B
:10095C000140612B938781819C2B133515001384E7
:10096C0081816392A7020147814718C45CC438286F
:10097C00B9461C2863E6E60689660A07938646BADA
:10098C003697184302871C44504403A70181B3E5F2
:10099C00C70083A6418181E518C454C4C9BFB307FD
:1009AC00F7403337F700918E6396E6001307100378
:1009BC00E37FF7FA08A865BF85C785473CA80DA05B
:1009CC008D473CA803A7018183A7418118C05CC057
:1009DC0001A8639F070E89473CA83C3885073CB8A3
:1009EC0038288547631DF700372500001305C5CF50
:1009FC00EF00F07C0546914537150140E529382874
:100A0C0089476319F70037250000130545D0EF001F
:100A1C00107B9139382891476319F700372500006E
:100A2C001305C5D0EF00B0793D31382895476318D0
:100A3C00F70037250000130545D1EF005078382812
:100A4C009D47631DF70037250000130505D2EF0005
:100A5C0010779305400613050019613E3828A54709
:100A6C006318F70037250000130585D2EF003075A9
:100A7C003828A947631DF70037250000130545D317
:100A8C00EF00F0730146914537150140A521382838
:100A9C00B1476318F7162C38372500001305C5D35A
:100AAC00EF00D06F38389547631DF714F536ED36E7
:100ABC00E536DD369307800873B007300F10000061
:100ACC00B707EFBE37E700E0938707083CC701A0E4
:100ADC0083A60181184003A641815C403387E64020
:100AEC00B3B5E600B307F6408D8F6348F000E39989
:100AFC0007EE9307703EE3F5E7EE91473CA814C070
:100B0C0050C0F9BD99475DBD99E3954745BD83A696
:100B1C000181184003A641815C403387E640B3B5A0
:100B2C00E600B307F6408D8F6348F000E39A07EABE
:100B3C009307F018E3F6E7EA9D47C9B7A147BDBD97
:100B4C0099E3A547A5BD83A60181184003A6418161
:100B5C005C403387E640B3B5E600B307F6408D8FB3
:100B6C006348F000E39E07E69307703EE3FAE7E67E
:100B7C009D473CA81C3885071CB851B7A309040035
:100B8C00A9472DBD3838A3080400AD47E31B07E285
:100B9C00B54705BDE39307E283A60181184003A680
:100BAC0041815C403387E640B3B5E600B307F640BD
:100BBC008D8F6348F000E39507E29307301FE3F154
:100BCC00E7E2B14725BFB5473EA819BDE39707DE5D
:100BDC0083A60181184083A7418150403387E640AA
:100BEC00B3B6E600918F958F6348F000E39A07DE69
:100BFC009307703EE3F6E7DEB947C9B32309040057
:100C0C00C5B33828B947E313F7D4372500001305CB
:100C1C0085D4EF00D05AB93C15BBEFF26FC88545AF
:100C2C000545852B37053000854513050540C12C3E
:100C3C000545652E6FF06FC793878181014781460B
:100C4C00D8C3D8C794C394C723A80700B7073200EA
:100C5C009387470623AAF1828280EFF26FC4371480
:100C6C0002401C403707FFF8414593E717001CC0B2
:100C7C005C40F98F5CC01C403707F7FE7D17F98F7D
:100C8C001CC01C403707FCFF7D17F98F1CC05C4053
:100C9C0041777D17F98F5CC0B7079F001CC4812179
:100CAC001C4C93E707021CCCB717014003A7074065
:100CBC00938607401377F7F023A0E74003A707407C
:100CCC001367070823A0E74089479CCAB72702404F
:100CDC009843719B98C3984398C35C4093E7070271
:100CEC005CC06FF08FBCEFF2AFBB371702405C43B8
:100CFC00370400209146B18B130404026385D7009E
:100D0C00A1466382D704B7376E01938707601CC076
:100D1C00B7160240DC420840918313F7F700B7077F
:100D2C00002093870701BA978C23DC4293F5F50FCB
:100D3C0093F707083357B50081E7EFF0AFB92A876F
:100D4C0018C06FF08FB65C43B777DC02938707C08F
:100D5C007DBF01A097010020938181AE138181FB9F
:100D6C001305000A97F5FF1F9385052917F6FF1F3A
:100D7C001306462963FAC5008322050023A05500FB
:100D8C0011059105E3EAC5FE17150000130585FC56
:100D9C0097F5FF1F9385052717F6FF1F1306462AA5
:100DAC0063FAC5008322050023A0550011059105A7
:100DBC00E3EAC5FE17F5FF1F13058528938501840B
:100DCC006377B500232005001105E36DB5FEB7224E
:100DDC00000093820288739002308D42739042809F
:100DEC0097F2FFFF9382422193E2320073905230CC
:100DFC00EFF0BFE697020000938282A0739012344A
:100E0C00730020305841032305004C453706014040
:100E1C00930706403E979346F3FFB1C583250640E2
:100E2C00F58D2320B640D043F18ED4C31443B3E6E2
:100E3C00660014C3184190479346F7FF758E90C710
:100E4C00D047F18ED4C7144541466399C6009447E8
:100E5C00D98E94C7D447558FD8C78280B697944300
:100E6C00558F98C382801C43F58F1CC38280944598
:100E7C0093F7060193F2F60081C7DC41B3E2F2006E
:100E8C0083D3050093F7F30FA5C30323050061116A
:100E9C0022C226C0814713048002930480040547B4
:100EAC003316F70033F7C3006312E602939527005D
:100EBC003D473317B7001347F7FF33736700B395FC
:100ECC00B20033E36500639D860050C98507214756
:100EDC00E397E7FC124423206500824421018280C1
:100EEC00E39696FE10C9DDB7828008456D8D3335CB
:100EFC00A000828019C20CC982804CC98280370341
:100F0C000140032743009317350063D00702B7074E
:100F1C00C0FFF517F98F37070007D98FD9CD3707E1
:100F2C0000F07D17798DC98F49A8635D0500B7075F
:100F3C00E0FFED17F98F37070007D98FBDCD0605F8
:100F4C000581D5B7B7073000931605013376F50048
:100F5C00C1826313F602370600F97D16B377C7001A
:100F6C0003274300798E2322C300A1C9558113178F
:100F7C0045003395E60045BF9317B50063D40702CF
:100F8C009357050113F6F7008D47B397C70093C726
:100F9C00F7FFF98F37070007D98F85C11357550114
:100FAC001207C1BF558112053395A6009347F5FF73
:100FBC00F98F37070007D98FBDF5370701405CC3A0
:100FCC00828037070140144786058D47B397B700D9
:100FDC0093C7F7FFF58F1CC71C47B315B500DD8D04
:100FEC000CC7828023ACA1828280EFF26F8BB77723
:100FFC0000409843759B98C398431367270098C388
:10100C00B7F700E003A707D11367470023A8E7D081
:10101C0003A707D1118B45C39307800873B0073022
:10102C000F100000B707014083A4474003A70740F7
:10103C0083A64740558F23A2E74037F400E00327EF
:10104C0004D1832704D14D451377070293E7870218
:10105C002328F4D0832704D193F7F7FDD98F2328C5
:10106C00F4D0832704D193E787002328F4D097F09A
:10107C00FF1FE78060F8832704D14D4593E7870075
:10108C002328F4D097F0FF1FE78000F7832704D1C3
:10109C00918BA1C3B707014023A297409307800807
:1010AC0073A0073037F700E0832707D1ED9B232887
:1010BC00F7D06FE09FFF03A707D11367070123A8A1
:1010CC00E7D09307800873B007300F1000008144FD
:1010DC00ADB7832704D1BD9B2328F4D0C1B73717F4
:1010EC0002401C430E0593F777F05D8D08C3828098
:1010FC00EFE21FFB371702405C4391462A84B18B09
:10110C006385D700A1466380D708B7376E019387F4
:10111C0007601CC0B7160240DC42918313F7F7003E
:10112C00B707002093878703BA978C23DC421840BB
:10113C0093F5F50F93F707083355B70081E73A8518
:10114C00EFE05FF948C008C448C4B7170240DC435D
:10115C008D46AD83FD8B13D737008A07F18BD98F62
:10116C0013F6370113F7370063F4C600138747FFF4
:10117C00B707002093874702BA978C23EFE09FF5BF
:10118C0008C86FE09FF25C43B777DC02938707C017
:10119C0049B799C5371702401C4F5D8D08CF828027
:1011AC00B7170240984F1345F5FF798D88CF828091
:1011BC0099C5371702405C4F5D8D48CF8280B717B9
:1011CC000240D84F1345F5FF798DC8CF8280EFE2EE
:1011DC003FED1629F577FD17F58FF621DA2521114C
:1011EC00D58F1EA95625FD779387379FF58FD6216E
:1011FC002A842EC0D58F9625D58FB625D58F5EA582
:10120C005E29C207C18393F7F7CF5D8F5AA94800B7
:10121C00C535B74701409387078082456312F406B2
:10122C00C2475A24139517003E9542070E05418775
:10123C003E958C41635807048605EFE0BFE99305A2
:10124C0040062AC0EFE01FE982479314450093053E
:10125C0040063E85EFE0DFEA5E24C207C18763D516
:10126C0007020E059305400613052503EFE09FE6E4
:10127C001D89C98CC204C18006A461016FE0FFE224
:10128C00B24745B78A0555BF1205930540061305AD
:10129C002503EFE03FE43D89E9BF91C55E25096771
:1012AC00D98F5EA582805A25F977FD17F98FD5BFA6
:1012BC0093F5F51F4EA182800A216D8D3335A00068
:1012CC00828003A6018183A741811357F541B306A0
:1012DC00C50033B5A6003E973A956366F500E39ECC
:1012EC00A7FEE3FCC6FE8280EFE29FDBB70700207F
:1012FC0003A50702B7157A0093850520EFE09FDD63
:10130C001375F50F238FA18293175500898F8A07C8
:10131C003E950E05239EA1826FE03FD9EFE25FD888
:10132C0037F400E05C40AA85F99B5CC003D5C1830F
:10133C00EFE05FD808C8232404001C4093E7170093
:10134C001CC0B7F700E0D843058B75DF9843799B39
:10135C0098C36FE09FD5EFE2BFD42A8411651111B9
:10136C008545130515023535854537052080EFF089
:10137C001FB9930700047C80371501408D473EC28E
:10138C008A85E147130505403EC4EFF05FAE22C6E7
:10139C0037440140B70708006C00130504803ECAAF
:1013AC0002C8231C01002535854513050480F5353D
:1013BC0071016FE09FCFEFE2BFCE7111AE8401449B
:1013CC00635DC402B7470140138707803A859305D4
:1013DC00000432C0D535B747014013870780024659
:1013EC0075D53387840083050700138507800504B2
:1013FC00C205C181753D0246E1B7328511016FE02E
:10140C00DFCA411106C62EC00DCD1841AA8705C3EF
:10141C0058417D5511CB8546631BD7009847230057
:10142C00070023A207000545B2404101828098477E
:10143C00824614A39847050798C7D8437D17D8C38D
:10144C00DDB705468A85853FF9BF011122CC2EC236
:10145C0006CE26CA2A8481479305000263450602FC
:10146C009245BE95838505008DE563D8C70263D48C
:10147C00E702198E1305000293F526002AC089C5D0
:10148C0001E7930500032EC0858A814495EAB28456
:10149C000DA08507F1B71D8EF1BF0146E1BF824556
:1014AC0022853AC832C63EC4A93FA24732464247BB
:1014BC00FD14E34690FEB284635306008144058E0E
:1014CC0063C7E702A6879246338797403697830512
:1014DC00070095EDB2846344900463530600014603
:1014EC00F2406244D2443305F600056182801D8FC0
:1014FC00BA8793050003228532C83EC63AC4113719
:10150C00B24722474246FD17EDF7BA9465BF2285D4
:10151C0032C63EC4FD35A247324685076DB78245BB
:10152C00228532C43EC2F13DFD142246924765B776
:10153C00397106DE22DC26DA3EC232833A8689ED28
:10154C0092469307000301476C08FC86FD3DF25060
:10155C006254D25421618280AA843684AE8791CAA7
:10156C00294701446317E30063D50500B307B04076
:10157C0005448646A309010213073103938666FCD2
:10158C0036C49A853E8532CA3AC81AC63EC0EFE0C8
:10159C003FB7A546824732434247524663D4A60022
:1015AC00A2463695130505039306F7FFA30FA7FE76
:1015BC009A853E8532CC3ACA1AC83EC636C0EFE090
:1015CC007FB1B24742435247624663F9670401CC8C
:1015DC0029CA9247898BB1C79305D002268532C49C
:1015EC000D3522467D169247918B95C3064793077E
:1015FC00100632C4930500032685631EF7021135CD
:10160C00930580072685F53B224609047916164773
:10161C00924682452685153D229515BFAA8702471D
:10162C008DB782469307D0020144A38FF6FE930731
:10163C00E7FF3EC04DBFF13393058005E1B701458F
:10164C00828001458280130181FD22D026CE06D2F4
:10165C002AC4AE82328402C681448385020089ED9D
:10166C00A24781C781453E85693B9250025426852D
:10167C00F244130181028280930750026388F500C3
:10168C00224516C88504B53BC24239A8838712008F
:10169C0013871200639CB7002245930550023AC889
:1016AC008D3342478504BA82850245BFD5DB93064C
:1016BC00B0026389D70463C8F600930630026386D0
:1016CC00D704814705A09306D002638AD7009306FE
:1016DC000003E398D7FE13872200894721A01387C4
:1016EC0022008547830607001306B0026383C604F5
:1016FC006341D60213063002638BC602BA820145DF
:10170C00A54681A0138722006DBF13872200914745
:10171C00D1BF1306D0026389C60013060003E39FF2
:10172C00C6FC93E7270031A005078547C1BF93E7A7
:10173C0047000507E1B713162500329506053A95C3
:10174C00850203860200130706FD9375F70FE3F479
:10175C00B6FE1307E0029946631EE6008502814639
:10176C00A54503860200130606FD1377F60F63F5F5
:10177C00E50236C6038702001306A006630DC70AEE
:10178C006343E6021306C0046307C70A1306800608
:10179C00630CC70881452DA813972600BA968606B8
:1017AC00B29685027DBF130640076306C708130671
:1017BC00A0076302C7081306C0068145631AC70059
:1017CC00038612008D456314E6008502914585025F
:1017DC0003860200930300061307100663C4C300BC
:1017EC00130710049303700663C4C30693035006D7
:1017FC00635576189303700463C1C30493055004B6
:10180C00635DB61613073004E310E6EA1840930341
:10181C00440016CA230CE1001EC8A30C01000147AA
:10182C00BE862A862C0849A8038612008145E3113E
:10183C00E6FA890271BF8502B1BF93063006E30751
:10184C00D6FC63CFC606930680056303D602A9BDFA
:10185C00930630076304D60463CBC6029306F006E6
:10186C006304D60E9306000793E74700E31ED6E207
:10187C0091466391D50C930384000C40504016CADA
:10188C003AC23EC01EC8AA870147C14681A893062A
:10189C005007630AD6069306800745BF1840B72643
:1018AC00000093034400938506D511C3BA853247D3
:1018BC0016CA1EC8BE862A862245EFF01FB90DA097
:1018CC0091466394D502930384000C40504016CA91
:1018DC003AC23EC01EC8AA870547A9462245853391
:1018EC00C243AA941E84D242C1B3B2460C4016C85D
:1018FC0036C23AC011042A87854629462245EFF0A4
:10190C003FC3AA9451B39146639DD50093038400C1
:10191C000C40504016CA3AC23EC01EC8AA870147A6
:10192C006DBFB2460C4016C836C23AC011042A87A5
:10193C008146E1B7B24616C80C40414636C23AC0A1
:10194C0011042A8781465DBF9146639ED50093039F
:10195C0084000C40504016CA3AC23EC01EC8AA872A
:10196C000147A146A5BFB2460C4016C836C23AC0C4
:10197C0011042A878146214651B70C401306840076
:10198C0040403AC22A87224532C83EC02286B687DA
:10199C00A94616CA7D31AA944244B1B71301C1FDC0
:1019AC002EC832CAAA851008014506C636CC3ACED6
:1019BC003ED032C04939B2401301410282804111FC
:1019CC0022C426C206C61C21AA840144DC818307DA
:1019DC003100050499EFA9479305310005460145EF
:1019EC00DC81EFF05F9D2285B2402244924441019C
:1019FC0082800546930531000145EFF0DF9BB387EC
:101A0C0084009C23DC81E1B741112AC08A850546FC
:101A1C00014506C6EFF03F9AB24005454101828070
:101A2C004005000056050000600500006A05000036
:101A3C00740500007E05000088050000920500007A
:101A4C009C050000A6050000B00500004572726FF1
:101A5C007220454550524F4D5F72656164566172FC
:101A6C0020636F64653A256420000000466C617346
:101A7C006820756E6C6F636B2F6C6F636B20666187
:101A8C00696C656400000000466C617368206572C7
:101A9C00617365206661696C65640000466C6173F6
:101AAC0068207772697465206661696C65640000F2
:101ABC00466C61736820777269746520766572690B
:101ACC006669636174696F6E206661696C65640038
:101ADC00466C617368206F7065726174696F6E20FB
:101AEC0074696D656F757400454550524F4D206E8D
:101AFC006F7420696E697469616C697A6564000041
:101B0C005661726961626C65204944206E6F742065
:101B1C00666F756E640000004352432076657269EF
:101B2C006669636174696F6E206661696C656400D7
:101B3C0053746F7261676520636170616369747956
:101B4C00206578636565646564000000496E7661A4
:101B5C006C6964207661726961626C65204944002D
:101B6C00496E76616C696420706172616D65746533
:101B7C0072000000486172644661756C745F486164
:101B8C006E646C65720D00004E4D495F48616E6469
:101B9C006C65720D00000000C4090000CC09000047
:101BAC008C0B0000DE090000100B0000880B0000FD
:101BBC00140B0000480B00004C0B0000880B0000BD
:101BCC00900B0000A00B0000D20B0000D80B000003
:101BDC00080C0000454550524F4D2044656D6F2058
:101BEC00467265653A2025640A00000074656D70C4
:101BFC003A2025640A000000454550524F4D20699B
:101C0C00643A25642021204E6F74205072657365F0
:101C1C006E7420210A000000454550524F4D205350
:101C2C0061766520636F64653A25640A00000000E4
:101C3C00454550524F4D2056657269666963617413
:101C4C00696F6E2069643A25642056616C75653A3B
:101C5C00307825780A000000454550524F4D2069D8
:101C6C00643A312056616C75653A307825780A00F3
:101C7C000D0A2D2D2D2D2D2D2D2D2D2D2D2D2D2DCB
:101C8C002D2D2D2D2D2D2D2D2D2D2D2D2D2D2D2D78
:101C9C002D2D2D2D2D2D2D2D2D00000053797374F0
:101CAC00656D436C6B3A25640D0A0000434F4E463C
:101CBC00494720426F6F737420456E61626C6520DA
:101CCC003A2025640A000000434F4E464947204203
:101CDC006F6F73742054696D652020203A20256441
:101CEC00206D730A00000000476F2E2E2E0000009E
:101CFC005072657373000000436C69636B000000E5
:101D0C00486F6C640000000052656C656173654837
:101D1C006F6C6400537465700000000072656C6534
:101D2C00617365537465700052656C656173650011
:101D3C00436C69636B733A2025640A0054696D65C2
:0C1D4C006F757400286E756C6C29000027
:041D5800440C000037
:101D5C0064000000010203040506070801020304E5
:101D6C000506070800127A000204060804080C1085
:101D7C00081018201020304020406080010203041D
:0C1D8C000506070801020304050607080D
:00000001FF
