:100000006F10606B0000000084090000960900007A
:1000100000000000000000000000000000000000E0
:1000200000000000000000000000000000000000D0
:10003000B609000000000000B41600000000000037
:10004000B4160000B4160000B4160000B416000088
:10005000B4160000B4160000B4160000B416000078
:10006000B4160000B4160000B4160000B416000068
:10007000B4160000B4160000B4160000B416000058
:10008000B4160000B4160000B4160000B416000048
:10009000B4160000B4160000B41600000000000002
:0C00A000730050107D157DFD8280000073
:1000AC00511126C022C206C4828282441244A2404C
:1000BC00310182802A86014593F6150091C2329552
:1000CC0085810606F5F9828000000000634E05026A
:1000DC0063C305042E86AA857D5515C285466378B3
:1000EC00B6006356C00006068606E36CB6FE0145F4
:1000FC0063E4C500918D558D85820582F5FA828069
:10010C008682C93F2E8582823305A04063D70500C5
:10011C00B305B040C1B7B305B0408682653F330527
:10012C00A0408282868263C70500634905005D3763
:10013C002E858282B305B040E35B05FE3305A040FB
:10014C00513F3305B040828200001C4150419A233C
:10015C0016224207C2064183C18219E741677D1707
:10016C00639CE6003E8582808147EDFEC166FD16EC
:10017C00E31AD7FEB287FDB78147EDB741632A96E4
:10018C00930765007D13014563E3C70082809A23C2
:10019C00910742074183E30967FEBE86E306B7FE7B
:1001AC0063E6C600050542054181F9BF83D206000E
:1001BC00E30C57FC9106EDB7EFF29FEE1E21416761
:1001CC007D17C207C1835111B304C5006384E700D6
:1001DC006390F502930745007D5763E697008147CE
:1001EC003E853101D9B594436394E6009107F5B788
:1001FC001A21C167F517420741839306F7FFC20620
:10020C00C18263E8D700BD669386E6EE814763162C
:10021C00D7003E218507C207C1833EC22EC02A8467
:10022C00EF10405A2285EF10E05F9146924763072A
:10023C00D500EF10C05A9307F00F5DB7BE852AC4E6
:10024C0013052400EF1080612AC2EF1040591245AB
:10025C0022479307F00FE315E5F81A20C167FD1745
:10026C00420741836307F700824693073008E399FE
:10027C00E6F61104FD57E37494F618406314F70086
:10028C001104D5BF93073008A1BFEFF27FE11C41E9
:10029C00111193844500AE973EC27D57924763E798
:1002AC00F400930410082685710101B503A3040022
:1002BC006303E30A9104DDB71220C166FD16420602
:1002CC004182630ED604D247630BF604B247938681
:1002DC00670063E89600924763EAF400EF10205041
:1002EC00C9B78E22630DB6029106E5B78355E4FFBC
:1002FC00268532CCEF108056914562466307B500D7
:10030C00EF10E04D9304F00F79BF2ACCB285138522
:10031C002400EF10A054E246E314D5FE91047114AE
:10032C00C247E3EB87F8EF10804BA2470245C1654B
:10033C009043FD155135AA843DF5EF10A048324588
:10034C008145EF10A0512AC0EF106049024591473A
:10035C00E30BF5F445BF36CA32C02EC62AC4EF10E3
:10036C006046A2479843824779173304F7009107F8
:10037C003EC87DB739C5EFF2BFD22A84104508417B
:10038C0071118145153D01ED1C409A23C167FD1784
:10039C006389E70010444840C165FD15313D1101EA
:1003AC0029B3EF10204208408145EF10204B2AC0A2
:1003BC00EF10E04202459147E30EF5FC1305F00FF8
:1003CC00F9BF130520088280630A0510EFF25FCD98
:1003DC0018419307B00A032345005EA506238355F5
:1003EC000300BD67C204C205C1809387E7EE71119B
:1003FC002A84C181638FF404C166FD166389D4001D
:10040C00C5E4D9C9639DF5083A869A8581A889E522
:10041C001045A6853A8579A06398F502EF10803ACD
:10042C0048408145EF1080432AC0EF10403B024505
:10043C0011479307F00F6317E5001044A685084099
:10044C00A53BAA875EA489A86398950425374AA47E
:10045C00A1A089E9C166FD161A86BA851305840028
:10046C002D35F5B7C167FD176398F50210451A8550
:10047C00A1334AA4AA840DE1EF10C0340840814591
:10048C00EF10C03D2AC0EF10803502459147630440
:10049C00F5009304F00F46A44A24110139B110451C
:1004AC00B6851A85113B65B781E51045B6859DB7B4
:1004BC00E394F5FEEF10003148408145EF10003A0F
:1004CC002AC0EF10C0310245C16611479307F00FE7
:1004DC00FD16E319E5F61044B68595B7130520080B
:1004EC00828001E51305200882806DDEEFF25FBB90
:1004FC007D571AA2562571112EC013074008AA84E5
:10050C0032846396E600C93519C1CA2439A82685F8
:10051C002D392A871305B00A09CB9C44F917BA97D1
:10052C00190763F6E700130520081101BDBE9623D9
:10053C0002466317D60083D7E7FF01451EA0F5B727
:10054C00F117C5B701E5130520088280EFF25FB5FE
:10055C005A2541112EC2930740082A84B28463178E
:10056C00F7009D3501C54A24410181B61247C16788
:10057C00FD1713052008E309F7FE2285F936AA8733
:10058C001305B00AF5D31044B385C7001387E5FFF4
:10059C0063E9E70813874700FD566369B70C92457A
:1005AC003E853EC4E13E18440505931605010983BA
:1005BC00C1827D1713051008E3F8E6FA5C403EC0D3
:1005CC003E87A2476394E70018403AC03EC6EF103E
:1005DC00601F0245BD659385E5EEEF10202891461E
:1005EC002AC46315D50A8247A68513854700EF10E8
:1005FC00E0262247AA84631BE508824792451385AF
:10060C006700EF10A0252AC4EF10601D2245631A65
:10061C009504B247924682453E8613058400B53157
:10062C00A1B7162312456311D5041305E7FF035731
:10063C00E7FF420741836394E400014535B7C16687
:10064C00FD16E319D7F42AC0EF10C0170245A68592
:10065C00EF10C0202AC0EF10801802459147E30E1E
:10066C00F5FC1305F00F09B771171DB70843631E8E
:10067C00D5023AC0EF1000150247A6853A85EF1057
:10068C00E01D91472A8402476305F500EF10201501
:10069C00C9BF924513052700EF10401C2AC0EF106C
:1006AC0000140245E31F85FA49BF1107FDB5EFF2AF
:1006BC003F9F2A840146894537150140EF10A0253C
:1006CC002285EF10A076D5B2B7F700E0D843799B1E
:1006DC00D8C3379798001307F76798CB23A4070064
:1006EC009847E37FE5FE23A407001307703E98CBE1
:1006FC008280EFF2FF9A7111AE8409E52E85453F99
:10070C00110165B2AA8537450F0013050524D932AE
:10071C0093975400858F8A07A697AA8513541500C2
:10072C0013953700453AAA878144E38BF4FC0546C0
:10073C008945371501403EC0EF10E01D2285693711
:10074C000146894537150140EF10E01C2285AD3F6D
:10075C0085048247D9BFEFF2BF9451112E8411C189
:10076C0011E62285A93731016FF03F94AA853745F0
:10077C000F001305052432C2EFF0DF9593175400D8
:10078C00818F8A07A297AA85935415001395370079
:10079C00EFF05F9412462AC0930740061375F60FCC
:1007AC0063F4C70013054006A685EFF0BF909305D0
:1007BC004006EFF03F92B387A4403EC22A848147A3
:1007CC000247E382E7FA05468945371501403EC4E6
:1007DC00EF1060142285CD3D014689453715014047
:1007EC00EF1060131245CD352685F93DA2478507DC
:1007FC00C1BFEFF2FF8A930500051305803ED53D7E
:10080C00930500051305C05DED356FF01F8AEFF2FF
:10081C003F899305600913050032E13D6FF0FF88B5
:10082C00EFF21F88930580021305004BD9356FF04A
:10083C00DF87EFF2FF869305C0031305803E553D1D
:10084C009305C0031305C02B6D356FF01F86EFF2B7
:10085C003F85E54513058070693D6FF01F85EFF20C
:10086C003F849305600413050032613593056004E1
:10087C001305803EBD3D9305A00513058025953DD0
:10088C006FF0BF82EFF2DF81930580071305003212
:10089C008D35930580071305803EA13D9305000A15
:1008AC0013054051B9356FF05F80EFF26FFF930580
:1008BC0060091305004B353D93056009130540385D
:1008CC000D3D9305400B1305802525356FF0EFFD8D
:1008DC00EFF20FFD1306A005930500051305C05D8F
:1008EC009D3D13058002EF1060541306A00593057F
:1008FC0000051305C05D853513058002EF1000530C
:10090C0013066004930540061305004BA9356FF0E0
:10091C00CFF9EFF2EFF81306A005930500051305C8
:10092C000032153D13058002EF1040501306A00550
:10093C009305000513050032393D13058002EF10B5
:10094C00E04E13066004930540061305803E2135E6
:10095C006FF0AFF5EFF2CFF413066004930580024D
:10096C001305803ECD3B1306400693050005130589
:10097C00C05DD5336FF06FF3711122C037240000C6
:10098C0013058460EF109041E5BF7111B707EFBEFE
:10099C0022C037E700E0938707083CC737240000E4
:1009AC001305445FEF10903FE5BFB7070020938716
:1009BC0087059843D0439306170033B7E600329768
:1009CC00D8C394C3B7F700E023A20700730020300C
:1009DC00EFF20FED5111054502C002C202C4EF1037
:1009EC008002EF00B045EF10804B05651305459C68
:1009FC00EF10204E854513054003EF10A01B8545D5
:100A0C0037050010EF10E01C37150140FD578A85A3
:100A1C00130505807C8002C4EF0090670544C14437
:100A2C0091478A85371501407C8026C422C2EF008D
:100A3C00306689478A85371501407C8026C422C2DE
:100A4C00EF001065930780048A85371501403EC47A
:100A5C00648022C2EF00D0630546914537150140F2
:100A6C00EF00706B1545EF10C046014691453715E8
:100A7C000140EF00506A31016FF02FE3EFF24FE2CB
:100A8C00373401405111130504C08145EF10002685
:100A9C00130504C08145EF10E02391473714014042
:100AAC007C80C1473EC48A858547130504803EC2BD
:100ABC00EF00105E0146914513050480EF00B06510
:100ACC0031016FF08FDEEFF2AFDD41118545454509
:100ADC0002C002C202C402C6EF10C00D9145094506
:100AEC00EF005070C1473EC091473EC2B1473EC473
:100AFC000A8585473EC6EF00504641016FF0EFDA9C
:100B0C00EFF20FDA1314050151114180B7070020E1
:100B1C00AA842EC032C2A2851306A1001385070138
:100B2C0023150100EFF0FF9B39CD37250000A6857A
:100B3C001305C572EF1050241246B7070020138519
:100B4C000701A285EFF01FA0AA8537250000130529
:100B5C00C574EF107022B707002013850701130628
:100B6C00A100A285EFF0FF973085AA8637250000FB
:100B7C00A68513054576EF103020824712479AA3BD
:100B8C0031016FF08FD2308537250000A685130513
:100B9C004579EF10701E3C8502471EA3D5B7EFF2C6
:100BAC002FD03704002013050401EFF0FF810DC98D
:100BBC003725000013054565EF10501E1305040181
:100BCC00EFF04FFB09E93725000013054568EF10DE
:100BDC00F01C6FF08FCD372500001305C56AC5BF1B
:100BEC00372500001305056EEF10501B0146938549
:100BFC00218205453137372500001305C56FEF10ED
:100C0C00F019B70500201306800C9385C500094523
:100C1C00C53D3725000013058571EF103018B70559
:100C2C000020130620039385E5000D45D13D55B7F3
:100C3C00EFF20FC7130141FD613B7135716513056F
:100C4C000520EF10A02C372500001305C57AEF10F6
:100C5C00F014B707002083A5070337250000130500
:100C6C00857DEF107011253F372400001305C47BE0
:100C7C00EF10D01283D52182372500001305457F54
:100C8C00EF10900FB707002083D5C7003735000051
:100C9C0013050581EF10500EB706002083D5E60032
:100CAC003735000013050583EF10100D1305C47BB9
:100CBC00EF10D00E0565B7E700E023A0A710B7F73B
:100CCC0000E0D84393844182799BD8C31307703ECC
:100CDC0098CB23A407002D4798C3930740069CC0CC
:100CEC0085451305558002C802CA02CC02C202C453
:100CFC002316010002CE02D002D202D4EF00906B78
:100D0C00E1473715014011473ECC0C088D471305C0
:100D1C000580F8803AC03ECAEF0090379E203734E9
:100D2C0001404C007C84130504C0A5473EC223152A
:100D3C000100EF00F06BC1679387070602473ECEB8
:100D4C00BE206C08130504C02311F1022310E1022C
:100D5C0002D2EF00D06EA145130504C0EF00107C49
:100D6C008545130504C0EF00D079AE20130504C0EF
:100D7C00EF00307C8545130504C0EF0030778545C6
:100D8C00130504C0EF0010758145130504C0EF0076
:100D9C00507AED3113066004930580021305803EF2
:100DAC00EFF07F9B13064006930500051305C05D0D
:100DBC00EFF07F9A13060005930580021305004B94
:100DCC00EFF07F9913066004930580021305803EB3
:100DDC00EFF07F9813052003EF1040051306400633
:100DEC00930500051305C05DEFF0FF963735000045
:100DFC001305C584EF10807AB70600209387E600B0
:100E0C003EC0C14537150140EF00503093878180BB
:100E1C00982B133515006312A7028146014794C71E
:100E2C00D8C7B42B3946982B636AD60609668A064E
:100E3C0013068661B296944282869847CC47370651
:100E4C000020832686053363B7000326C605631589
:100E5C00030094C7D0C7F1B73387E640B3B6E600BA
:100E6C000D8E6316D60093061003E3FCE6FA88ABEE
:100E7C004DBF0DC70547B8AB15A00D47B8AB37072D
:100E8C000020032687058326C70590C3D4C339A049
:100E9C0055E30947B8ABB83B0507B8BB03A781823C
:100EAC009384818211E38524944005476393E60083
:100EBC00DD2E94400947138401826395E600A12B33
:100ECC002310040094400D476395E60023100400A2
:100EDC00752B984091476316F70023100400EF0020
:100EEC00805F1E20638A0718824737340140130540
:100EFC0004C08E23EF00F0639147FC863715014048
:100F0C00E1473ED26C088D47130505803ED0EF00BB
:100F1C0030188545130504C0EF00D05B85451305DB
:100F2C0004C0EF00B05C0546914537150140EF0059
:100F3C00901EC1BD370700200326870594438325E7
:100F4C00C705D843B306D6403335D6003387E540C2
:100F5C00098F6347E00039F31307F07CE370D7F493
:100F6C001147B8AB90C3CCC315BF194729B719E3C8
:100F7C00154711B7370700200326870594438325AF
:100F8C00C705D843B306D6403335D6003387E54082
:100F9C00098F6348E000E31307F01307703EE37F0B
:100FAC00D7EE1D477DBF2147F9B519E32547E1B5BC
:100FBC00370700200326870594438325C705D843AC
:100FCC00B306D6403335D6003387E540098F6348E6
:100FDC00E000E31507EC1307703EE371D7EC1D47F7
:100FEC00B8AB983B050798BBB5BFA3890700294749
:100FFC0059B5B43BA38807002D47E39106E8354764
:10100C00B5BDE31907E6370700200326870594438F
:10101C008325C705D843B306D6403335D60033876E
:10102C00E540098F6348E000E31A07E61307301F19
:10103C00E376D7E6314735B73547BAAB85B5E31B11
:10104C0007E2370700200326870594430327C705CB
:10105C00CC43B306D6403336D6000D8F118F634880
:10106C00E000E31D07E21307703EE379D7E239474E
:10107C0019B5238907001DB5EFF05FA001466DB5CA
:10108C00EFF20F8285450545EF00D0323705300071
:10109C00854513050540EF00B0080545EF00101716
:1010AC006FF0AF809387818001478146D8C3D8C742
:1010BC0094C394C723A80700B70732009387470649
:1010CC0023A2F1828280EFE2BFFDAA841305803E49
:1010DC00EF00D055014463569402054691453715EF
:1010EC000140EF005003EFF08FF2014691453715A8
:1010FC000140EF0050021305800CEF003053050443
:10110C00D9BF6FE09FFAEFE2BFF9370400209307D5
:10111C000406B82B894713040406631EF7023735FF
:10112C0000001305C58CEF106047EFF04FF2C1447F
:10113C00B7070020138507011306A00A9145EFF0AD
:10114C006FC0FD14B7070020F5F403D701826306C6
:10115C0007122390018238289147631EF700373518
:10116C0000001305458DEF106043EFF0AFF123A69F
:10117C0001822390018238289D47631EF7029387D2
:10118C00C1828C43373500001305C58D85058CC392
:10119C00EF10803EEFF0AFEB05469145371501405F
:1011AC00EF0060771545EF00704801469145371503
:1011BC000140EF0040763828A547631BF70437350C
:1011CC0000001305858EEF10603D83A7C182054793
:1011DC009384C1826396E700054523A4F182E5352B
:1011EC009C4009476396E700094523A4F182E13D41
:1011FC009C400D476396E7000D4523A4F182E13531
:10120C009C4011476396E700114523A4F182653D8C
:10121C003828A947631EF700373500001305858F62
:10122C00EF10C0370146914537150140EF00A06E15
:10123C003828B1476317F7042C38373500001305ED
:10124C00C591EF10603338389547631CF702EFF007
:10125C00CFE5EFF08FE5EFF04FE5EFF00FE59307FB
:10126C00800873B007300F100000B707EFBE37E7E8
:10127C0000E0938707083CC701A005472390E18253
:10128C00D9BD3828B947631EF70037350000130560
:10129C004590EF10A030EFF08FDC83D7018291E303
:1012AC00C5336FE09FE0EFE2BFDFB7040020938708
:1012BC000406B82BB1476111631CF714B707002063
:1012CC0003D5E700954593840406EFE0BFE0AC3806
:1012DC00131405013735000013050591EF10C029D3
:1012EC00B438B707002005473EC041806397E6023B
:1012FC000504D14763D1870CEFF08FDD51440247D1
:10130C00AC389317240037350000A29722861305BA
:10131C00C5922317F700EF102026B8388947631FB2
:10132C00F70023A40182EFF04FD801469145371501
:10133C000140A388040023990400F12BB8388D4791
:10134C006316F702854763DB87067D14EFF04FCDFC
:10135C000247AC389317240037350000A297228639
:10136C00130545942317F700EF100021B838914767
:10137C006319F704373500001305C595EF100022EB
:10138C001305803EEF00902A81473EC0630BF402A8
:10139C000546914537150140BD2BEFF08FC901462D
:1013AC00914537150140852B1305C012EF0010280D
:1013BC0082478507D9BFEFF0AFC691B7EFF06FD575
:1013CC0041BFB83895476315F704EFF0AFD8370431
:1013DC000020EFF02FD8130640068D4513050401AD
:1013EC00EFF04F96AA853735000013054596EF10A0
:1013FC00A018130661008D4513050401EFF06F8EE4
:10140C003083AA853735000013054597EF10C016B9
:10141C0021016FE09FC9EFE2BFC883D72182054647
:10142C0091E30146914537150140F5213704002021
:10143C0093070406B82BB147130404066316F7048C
:10144C002C38373500001305C591EF10E0123838F1
:10145C008547631AF70083D7218293B7170023912E
:10146C00F182EFF00FB938388947631FF70023A4D6
:10147C000182EFF08FC30146914537150140A30857
:10148C0004002319040041296FE03FC203C7A18166
:10149C009147631AF700EFE2BFC023A40182EFF07B
:1014AC00CFC06FE09FC08280EFE29FBF71110144FB
:1014BC002AC06357A400EFF08FB905040245CDBFD5
:1014CC0011016FE09FBEEFE2BFBD23A40182EFF0DC
:1014DC000FB86FE09FBDEFE2BFBC3704002093074D
:1014EC000406B82B914713040406631EF700373526
:1014FC00000013054585EF10600AEFF0AFB823A884
:10150C0001822390018238289D47631CF702938740
:10151C0001838C43373500001305C58685058CC3C4
:10152C00EF108005EFF0AFB205469145371501403D
:10153C00DD261545EF00900F01469145371501400A
:10154C00D92E3828A5476316F70237350000130546
:10155C008588EF10A00483A701833735000013059D
:10156C00858A93951700BE958E05BE958605EF105E
:10157C00A0003828B147631BF7022C383735000020
:10158C001305C591EF00507F383889476313F70076
:10159C001D3F38388D47631BF700373500001305A6
:1015AC00C58BEF00B07F03A50183FD3D6FE0FFAF5E
:1015BC00EFE21FAF371402401C403707FFF84145DC
:1015CC0093E717001CC05C40F98F5CC01C403707C8
:1015DC00F7FE7D17F98F1CC01C403707FCFF7D17E9
:1015EC00F98F1CC05C4041777D17F98F5CC0B70741
:1015FC009F001CC431231C4C93E707021CCCB7176B
:10160C00014003A70740938607401377F7F023A008
:10161C00E74003A707401367070823A0E740894763
:10162C009CCAB72702409843719B98C3984398C3B0
:10163C005C4093E707025CC06FE03FA7EFE25FA658
:10164C00371702405C43370400209146B18B1304DA
:10165C0004036385D700A1466382D704B7376E01B4
:10166C00938707601CC0B7160240DC420840918388
:10167C0013F7F700B707002093870702BA978C235C
:10168C00DC4293F5F50F93F707083357B50081E764
:10169C00EFE05FA42A8718C06FE03FA15C43B777E7
:1016AC00DC02938707C07DBF01A097F1FF1F9381D8
:1016BC00211A138181FA1305000A97F5FF1F9385F0
:1016CC00A59317F6FF1F1306E69363FAC500832252
:1016DC00050023A0550011059105E3EAC5FE171579
:1016EC0000001305252B97F5FF1F9385A59117F681
:1016FC00FF1F1306E69563FAC5008322050023A09D
:10170C00550011059105E3EAC5FE17F5FF1F1305FA
:10171C0025949385C1836377B500232005001105BB
:10172C00E36DB5FEB72200009382028873900230FD
:10173C008D427390428097F2FFFF9382E28B93E28B
:10174C00320073905230EFF0BFE697F2FFFF9382B6
:10175C00624E7390123473002030584103230500FD
:10176C004C4537060140930706403E979346F3FFDE
:10177C00B1C583250640F58D2320B640D043F18EAC
:10178C00D4C31443B3E6660014C318419047934680
:10179C00F7FF758E90C7D047F18ED4C714454146DC
:1017AC006399C6009447D98E94C7D447558FD8C730
:1017BC008280B6979443558F98C382801C43F58FD3
:1017CC001CC38280B70767453727024093873712BF
:1017DC005CC3B797EFCD9387B79A5CC382803727EA
:1017EC0002401C4B93E707081CCB82803727024032
:1017FC005C470545858B91E74847418913351500B2
:10180C000D058280EFE2DF892A84CD378547631886
:10181C00F50019E0154529A0D13F7D14C5BF7DD831
:10182C006FE0BF88EFE2DF87AA8437050B00D93F52
:10183C0091476313F502372402401C4837050B000F
:10184C0093E727001CC844C81C4893E707041CC82E
:10185C00553F1C48F59B1CC86FE03F85EFE25F8449
:10186C007111AA8409652EC0713F91478245631E90
:10187C00F500372402401C48096593E717001CC883
:10188C008EA049371C48F99B1CC811016FE0FF81E1
:10189C00944593F7060193F2F60081C7DC41B3E25D
:1018AC00F20083D3050093F7F30FA5C303230500C0
:1018BC00611122C226C08147130480029304800464
:1018CC0005473316F70033F7C3006312E60293950E
:1018DC0027003D473317B7001347F7FF33736700F3
:1018EC00B395B20033E36500639D860050C985074C
:1018FC002147E397E7FC1244232065008244210131
:10190C008280E39696FE10C9DDB7828008456D8D06
:10191C003335A000828019C20CC982804CC98280E8
:10192C0037030140032743009317350063D00702A8
:10193C00B707C0FFF517F98F37070007D98FD9CD37
:10194C00370700F07D17798DC98F49A8635D0500B5
:10195C00B707E0FFED17F98F37070007D98FBDCD1B
:10196C0006050581D5B7B707300093160501337608
:10197C00F500C1826313F602370600F97D16B377C2
:10198C00C70003274300798E2322C300A1C95581C8
:10199C00131745003395E60045BF9317B50063D484
:1019AC0007029357050113F6F7008D47B397C7004D
:1019BC0093C7F7FFF98F37070007D98F85C11357E6
:1019CC0055011207C1BF558112053395A6009347E7
:1019DC00F5FFF98F37070007D98FBDF537070140A1
:1019EC005CC3828037070140144786058D47B39747
:1019FC00B70093C7F7FFF58F1CC71C47B315B5008D
:101A0C00DD8D0CC7828023AAA1828280EFE24FE990
:101A1C00B77700409843759B98C39843136727008A
:101A2C0098C3B7F700E003A707D11367470023A8B3
:101A3C00E7D003A707D1118B45C39307800873B078
:101A4C0007300F100000B707014083A4474003A7DD
:101A5C00074083A64740558F23A2E74037F400E0A8
:101A6C00032704D1832704D14D451377070293E74D
:101A7C0087022328F4D0832704D193F7F7FDD98F5D
:101A8C002328F4D0832704D193E787002328F4D0AC
:101A9C0097E0FF1FE7804056832704D14D4593E71D
:101AAC0087002328F4D097E0FF1FE780E0548327BA
:101ABC0004D1918BA1C3B707014023A29740930790
:101ACC00800873A0073037F700E0832707D1ED9B20
:101ADC002328F7D06FE06FDD03A707D11367070149
:101AEC0023A8E7D09307800873B007300F100000CD
:101AFC008144ADB7832704D1BD9B2328F4D0C1B753
:101B0C00371702401C430E0593F777F05D8D08C321
:101B1C008280EFE2EFD8371702405C4391462A846B
:101B2C00B18B6385D700A1466380D708B7376E01A8
:101B3C00938707601CC0B7160240DC42918313F7F1
:101B4C00F700B707002093878704BA978C23DC42F1
:101B5C00184093F5F50F93F707083355B70081E755
:101B6C003A85EFE02FD748C008C448C4B7170240E5
:101B7C00DC438D46AD83FD8B13D737008A07F18B81
:101B8C00D98F13F6370113F7370063F4C6001387A8
:101B9C0047FFB707002093874703BA978C23EFE0E2
:101BAC006FD308C86FE06FD05C43B777DC029387C4
:101BBC0007C049B799C5371702401C4F5D8D08CF38
:101BCC008280B7170240984F1345F5FF798D88CF67
:101BDC00828099C5371702405C4F5D8D48CF82805B
:101BEC00B7170240D84F1345F5FF798DC8CF8280C7
:101BFC001E2137370140130707C0C207C183630694
:101C0C00E500370700406316E500BA2193F7F7F8B3
:101C1C00D98FFA2193F7F7CFC207C183D98F1EA1B1
:101C2C00DE215EB59E211EB5B7370140938707C0F4
:101C3C006314F5009C251EB985475EA982801E3170
:101C4C0065771307F7CFC207C183BD9BC207C1835A
:101C5C001EB11E31562103D38500C207139606010F
:101C6C00162DC18393F7F7FD758F96214182A2063D
:101C7C00558FB62142074183B3E666009206D58F95
:101C8C00B7360140C207938606C0C183631ED502D6
:101C9C00B62593F7F7F703D3C5009206D58FD62157
:101CAC00C207C183920693F7F7FBD58FFD76938617
:101CBC00F63FF18EF225C207C183336666000A0631
:101CCC00D18E13960601418252A11AADFA2118DD6C
:101CDC001EB182801E2189C593E717001EA1828048
:101CEC00C207C183F99BC207C183CDBF835745048B
:101CFC0091C52167D98F2312F5048280C607C5834D
:101D0C00DDBF1E2189C593E707081EA18280C2078B
:101D1C00C18393F7F7F7C207C183C5BF1A2DFD77AF
:101D2C009387F77FF98FA205CD8FC207C1831EADB4
:101D3C0082800CDD8280EFE2AFB61629F577FD17B5
:101D4C00F58FF621DA252111D58F1EA95625FD77A1
:101D5C009387379FF58FD6212A842EC0D58F962551
:101D6C00D58FB625D58F5EA55E29C207C18393F7A3
:101D7C00F7CF5D8F5AA94800EFF0BFD9B7470140A4
:101D8C009387078082456312F406C2475A24139541
:101D9C0017003E9542070E0541873E958C416358CE
:101DAC0007048605EFE00FB3930540062AC0EFE069
:101DBC006FB2824793144500930540063E85EFE0D1
:101DCC002FB45E24C207C18763D507020E059305A5
:101DDC00400613052503EFE0EFAF1D89C98CC20443
:101DEC00C18006A461016FE04FACB24745B78A05CC
:101DFC0055BF12059305400613052503EFE08FAD83
:101E0C003D89E9BF91C55E250967D98F5EA58280A2
:101E1C005A25F977FD17F98FD5BF93F5F51F4EA10C
:101E2C0082800A216D8D3335A000828037F700E067
:101E3C005443311193077100F99A54C39306703EC1
:101E4C0014CB23240700AD4614C337070020032608
:101E5C0087058326C705E19B90C7D4C78C47D0471D
:101E6C009356F5413303B5003335A300B385C60053
:101E7C00B306B50023A06700D4C303A30700032552
:101E8C00C70583A3470063E8A30063187500832686
:101E9C0087056374D300510182800100F9BFEFE222
:101EAC002FA0B707002003A50703B7157A00938569
:101EBC000520EFE02FA21375F50F238DA182931748
:101ECC005500898F8A073E950E05239CA1826FE0F1
:101EDC00CF9DEFE2EF9C37F400E05C40AA85F99BC4
:101EEC005CC003D58183EFE0EF9C08C82324040079
:101EFC001C4093E717001CC0B7F700E0D843058BD4
:101F0C0075DF9843799B98C36FE02F9AEFE24F9956
:101F1C002A8411651111854513051502EFF09FC92F
:101F2C00854537052080EFF0BF9F930700047C8028
:101F3C00371501408D473EC28A85E14713050540A0
:101F4C003EC4EFF0FF9422C637440140B7070800A7
:101F5C006C00130504803ECA02C8231C0100EFF07C
:101F6C009FDD854513050480EFF0DFE971016FE01B
:101F7C00CF93EFE2EF927111AE840144635FC40220
:101F8C00B7470140138707803A859305000432C098
:101F9C00EFF03FE9B74701401387078002466DD544
:101FAC003387840083050700138507800504C20569
:101FBC00C181EFF09FE60246D1B7328511016FE087
:101FCC00CF8E411106C62EC00DCD1841AA8705C370
:101FDC0058417D5511CB8546631BD700984723008C
:101FEC00070023A207000545B240410182809847B3
:101FFC00824614A39847050798C7D8437D17D8C3C2
:10200C00DDB705468A85B537F9BF011122CC2EC242
:10201C0006CE26CA2A848147930500026345060230
:10202C009245BE95838505008DE563D8C70263D4C0
:10203C00E702198E1305000293F526002AC089C504
:10204C0001E7930500032EC0858A814495EAB2848A
:10205C000DA08507F1B71D8EF1BF0146E1BF82458A
:10206C0022853AC832C63EC4A93FA24732464247EF
:10207C00FD14E34690FEB284635306008144058E42
:10208C0063C7E702A6879246338797403697830546
:10209C0007009DEDB284634690046353060001462D
:1020AC00F2406244D2443305F600056182801D8FF4
:1020BC00BA8793050003228532C83EC63AC4EFF0B6
:1020CC005FF0B24722474246FD17E5F7BA945DBF71
:1020DC00228532C63EC4EFF0DFEEA24732468507BA
:1020EC005DB78245228532C43EC2EFF09FEDFD14F0
:1020FC00224692474DB7397106DE22DC26DA3EC203
:10210C0032833A8691ED92469307000301476C089F
:10211C00FC86EFF09FEFF2506254D2542161828022
:10212C00AA843684AE8791CA294701446317E30019
:10213C0063D50500B307B04005448646A3090102E8
:10214C0013073103938666FC36C49A853E8532CAE2
:10215C003AC81AC63EC0EFD0BFFAA54682473243F2
:10216C004247524663D4A600A24636951305050392
:10217C009306F7FFA30FA7FE9A853E8532CC3ACA89
:10218C001AC83EC636C0EFD0FFF4B247424352479E
:10219C00624663FD670409CC29CE9247898BB1CB8B
:1021AC009305D002268532C4EFF0BFE122467D169E
:1021BC009247918B85C706479307100632C4930547
:1021CC00000326856311F704EFF0BFDF930580074A
:1021DC002685EFF01FDF2246090479161647924632
:1021EC0082452685EFF07FE2229535B7AA87024714
:1021FC00A9BF82469307D0020144A38FF6FE930732
:10220C00E7FF3EC075B7EFF0DFDB93058005C9B77C
:10221C000145828001458280130181FD22D026CEAA
:10222C0006D22AC4AE82328402C68144838502005F
:10223C0091EDA24789C781453E85EFF09FD892501A
:10224C0002542685F24413018102828093075002C6
:10225C006389F500224516C88504EFF09FD6C2426B
:10226C0005A08387120013871200639DB7002245D7
:10227C00930550023AC8EFF0DFD442478504BA8286
:10228C0085026DB7DDD79306B0026389D70463C8A6
:10229C00F600930630026386D704814705A09306A7
:1022AC00D002638AD70093060003E398D7FE138706
:1022BC002200894721A01387220085478306070047
:1022CC001306B0026383C6046341D60213063002C0
:1022DC00638BC602BA820145A54681A013872200F2
:1022EC006DBF138722009147D1BF1306D0026389BB
:1022FC00C60013060003E39FC6FC93E7270031A03A
:10230C0005078547C1BF93E747000507E1B71316DB
:10231C002500329506053A958502038602001307BF
:10232C0006FD9375F70FE3F4B6FE1307E00299462A
:10233C00631EE60085028146A5450386020013064E
:10234C0006FD1377F60F63F5E50236C60387020028
:10235C001306A006630DC70A6343E6021306C00406
:10236C006307C70A13068006630CC70881452DA8AE
:10237C0013972600BA968606B29685027DBF130681
:10238C0040076306C7081306A0076302C7081306B5
:10239C00C0068145631AC700038612008D4563147D
:1023AC00E600850291458502038602009303000630
:1023BC001307100663C4C3001307100493037006BD
:1023CC0063C4C306930350066356761893037004D4
:1023DC0063C1C30493055004635EB616130730043F
:1023EC00E310E6EA18409303440016CA230CE100FC
:1023FC001EC8A30C01000147BE862A862C0849A8DA
:10240C00038612008145E311E6FA890271BF850249
:10241C00B1BF93063006E307D6FC63CFC60693061E
:10242C0080056303D602A9BD930630076304D60466
:10243C0063CBC6029306F0066305D60E930600071F
:10244C0093E74700E31ED6E291466392D50C9303C3
:10245C0084000C40504016CA3AC23EC01EC8AA871F
:10246C000147C14681A893065007630BD606930615
:10247C00800745BF1840B73600009303440093858E
:10248C00069911C3BA85324716CA1EC8BE862A865B
:10249C002245EFF09FB715A091466395D5029303A3
:1024AC0084000C40504016CA3AC23EC01EC8AA87CF
:1024BC000547A9462245EFF0BFD5C243AA941E8416
:1024CC00D2427DBBB2460C4016C836C23AC011048B
:1024DC002A87854629462245EFF0FFC1AA9441B3CD
:1024EC009146639DD500930384000C40504016CA5E
:1024FC003AC23EC01EC8AA87014765BFB2460C400F
:10250C0016C836C23AC011042A878146E1B7B246D2
:10251C0016C80C40414636C23AC011042A8781467F
:10252C005DBF9146639ED500930384000C405040E0
:10253C0016CA3AC23EC01EC8AA870147A1469DBF13
:10254C00B2460C4016C836C23AC011042A878146DE
:10255C00214651B70C401306840040403AC22A87EA
:10256C00224532C83EC02286B687A94616CAEFF06D
:10257C007FCAAA944244A9B71301C1FD2EC832CA1E
:10258C00AA851008014506C636CC3ACE3ED032C0DC
:10259C00EFF09FC8B240130141028280411122C466
:1025AC0026C206C61C21AA840144DC8183073100A3
:1025BC00050499EFA9479305310005460145DC81D7
:1025CC00EFF03F9B2285B24022449244410182802D
:1025DC000546930531000145EFF0BF99B3878400A0
:1025EC009C23DC81E1B70000486172644661756C24
:1025FC00745F48616E646C65720D00004E4D495FEE
:10260C0048616E646C65720D000000007E0E000067
:10261C00860E0000FA0F00009C0E0000760F0000E2
:10262C00F60F00007A0F0000B20F0000B60F00008A
:10263C00F60F0000FE0F00000E100000441000000A
:10264C004A1000007E100000D09ED188D0B8D0B1C6
:10265C00D0BAD0B020D0B8D0BDD0B8D186D0B8D0F8
:10266C00B0D0BBD0B8D0B7D0B0D186D0B8D0B8200D
:10267C00454550524F4D0D00D0A4D0BED180D0BC9A
:10268C00D0B0D182D0B8D180D0BED0B2D0B0D0BD75
:10269C00D0B8D0B520454550524F4D204F4B0D0072
:1026AC00D0A4D0BED180D0BCD0B0D182D0B8D18093
:1026BC00D0BED0B2D0B0D0BDD0B8D0B520454550EA
:1026CC00524F4D20D0BED188D0B8D0B1D0BAD0B0F6
:1026DC000D0000002E5245414420434F4E464947C1
:1026EC0020426F6F737420456E61626C650D000043
:1026FC002E5245414420434F4E46494720426F6F6E
:10270C0073742054696D650D000000002E52454114
:10271C004420434F4E46494720506F7765720D0059
:10272C00454550524F4D2069643A25642021204E76
:10273C006F742050726573656E7420210D0A000051
:10274C00454550524F4D205361766520636F64654B
:10275C003A25640A00000000454550524F4D205662
:10276C006572696669636174696F6E2069643A2584
:10277C00642056616C75653A20256420636F64652E
:10278C003A25640D0A000000454550524F4D206912
:10279C00643A25642056616C75653A25640D0A000F
:1027AC000D0A2D2D2D2D2D2D2D2D2D2D2D2D2D2D90
:1027BC002D2D2D2D2D2D2D2D2D2D2D2D2D2D2D2D3D
:1027CC002D2D2D2D2D2D2D2D2D0D0000D09FD1809B
:1027DC00D0B8D0B2D0B5D1822053797374656D4323
:1027EC006C6B3A25640D0A00434F4E464947204214
:1027FC006F6F737420456E61626C65203A2025649E
:10280C000D0A0000434F4E46494720426F6F7374C8
:10281C002054696D652020203A202564206D730DAD
:10282C000A000000434F4E46494720506F776572AF
:10283C0020202020202020203A2025640D0A000092
:10284C00476F2E2E2E0D00003E2053637265656E71
:10285C00426F6F737454696D6520486F6C640D0022
:10286C003E2053637265656E426F6F737454696D6D
:10287C006520537465702025640D0A003E20536357
:10288C007265656E426F6F737454696D6520726505
:10289C006C65617365537465700D0000426F6F73E6
:1028AC007454696D653A202564206D730A0000002C
:1028BC00676574436C69636B73203D3D20330D0079
:1028CC00436C69636B0D0000486F6C640D00000075
:1028DC00537465702025640D0A00000072656C65E8
:1028EC00617365537465700D0000000052656C6572
:1028FC006173650D0000000054696D656F75740D92
:10290C000000000053637265656E506F776572202E
:10291C00436C69636B733A2025640D0A0000000058
:10292C002B2B20436C69636B733A20256420696DF3
:10293C00703A25640D0A00002D2D20436C69636BE1
:10294C00733A20256420696D703A25640D0A0000E5
:10295C005374617475730D005361766520726573E1
:10296C003A25640D0A000000536176652069643ACB
:10297C0033207265733A25642076616C75653A254F
:0C298C00640D0A00286E756C6C290000B8
:04299800B01000007B
:10299C0064000A0000380008003C00080004000035
:1029AC008400000001020304050607080102030469
:1029BC000506070800127A000204060804080C1029
:1029CC0008101820102030402040608001020304C1
:0C29DC00050607080102030405060708B1
:00000001FF
