:100000006F10E07C00000000F40300000604000014
:1000100000000000000000000000000000000000E0
:1000200000000000000000000000000000000000D0
:100030002604000000000000CC17000000000000B3
:10004000CC170000CC170000CC170000CC17000024
:10005000CC170000CC170000CC170000CC17000014
:10006000CC170000CC170000CC170000CC17000004
:10007000CC170000CC170000CC170000CC170000F4
:10008000CC170000CC170000CC170000CC170000E4
:10009000CC170000CC170000CC17000000000000B7
:1000A000511126C022C206C4828282441244A24058
:1000B000310182802A86014593F6150091C232955E
:1000C00085810606F5F9828000000000634E050276
:1000D00063C305042E86AA857D5515C285466378BF
:1000E000B6006356C00006068606E36CB6FE014500
:1000F00063E4C500918D558D85820582F5FA828075
:100100008682C93F2E8582823305A04063D70500D1
:10011000B305B040C1B7B305B0408682653F330533
:10012000A0408282868263C70500634905005D376F
:100130002E858282B305B040E35B05FE3305A04007
:10014000513F3305B04082820000EFF27FF52A84F0
:100150000146894537150140EF10D0102285EF1078
:10016000F052A1B7B7F700E0D843799BD8C33797CF
:1001700098001307F76798CB23A407009847E37FFD
:10018000E5FE23A407001307703E98CB8280EFF2B0
:100190003FF17111AE8409E52E85453F110131B75C
:1001A000AA8537450F00130505242D379397540072
:1001B000858F8A07A697AA851354150013953700D3
:1001C000113FAA878144E38BF4FC05468945371526
:1001D00001403EC0EF10100922856937014689456C
:1001E00037150140EF1010082285AD3F8504824786
:1001F000D9BFEFF2FFEA51112E8411C109E6228521
:10020000A93731015DB5AA8537450F0013050524CF
:1002100032C2C93593175400818F8A07A297AA85E5
:100220009354150013953700753512462AC093076D
:1002300040061375F60F63F4C70013054006A68544
:10024000953D930540067935B387A4403EC22A8484
:1002500081470247E387E7FA05468945371501409C
:100260003EC4EF1030002285F53D01468945371523
:100270000140EF10207F1245F5352685E535A24770
:100280008507C1BFEFF2DFE1930500051305803E4E
:10029000FD3D930500051305C05DD53D39B5EFF271
:1002A0003FE09305600913050032D535FDBBEFF241
:1002B0003FDF930580021305004BD13DFDB3EFF204
:1002C0003FDE9305C0031305803ED1359305C0037F
:1002D0001305C02B6D3DD1BBEFF29FDCE545130547
:1002E00080707535D9B3EFF2BFDB93056004130559
:1002F0000032713D930560041305803E493D93052E
:10030000A0051305802561354DB3EFF27FD9930524
:10031000800713050032A53D930580071305803E35
:10032000BD359305000A130540519535BDBBEFF26D
:100330003FD7930560091305004B913D9305600974
:1003400013054038A9359305400B130580258135E9
:10035000A9BBEFF2FFD41306A00593050005130512
:10036000C05D413D13058002EF1050321306A00519
:10037000930500051305C05DAD3D13058002EF1028
:10038000F03013066004930540061305004B9535C5
:1003900029BBEFF2FFD01306A00593050005130556
:1003A0000032813D13058002EF10502E1306A00588
:1003B00093050005130500322D3D13058002EF1053
:1003C000F02C13066004930540061305803E153596
:1003D000E9B9EFF2FFCC1306600493058002130520
:1003E000803E013D13064006930500051305C05DE0
:1003F000093565B9711122C0372400001305046660
:10040000EF200020E5BF7111B707EFBE22C037E72C
:1004100000E0938707083CC7372400001305C46435
:10042000EF20001EE5BFB70700209387870398439E
:10043000D0439306170033B7E6003297D8C394C36E
:10044000B7F700E023A2070073002030EFF25FC58A
:100450005111054502C002C202C4EF10A06FEF1097
:100460002030EF10D02905651305459CEF10702C46
:10047000854513054003EF10807985453705001049
:10048000EF10C07A37150140FD578A8513050580A6
:100490007C8002C4EF10A0540544C14491478A8572
:1004A000371501407C8026C422C2EF104053894793
:1004B0008A85371501407C8026C422C2EF10205265
:1004C000930780048A85371501403EC4648022C2A8
:1004D000EF10E0500546914537150140EF10805868
:1004E0001545EF1010250146914537150140EF10D5
:1004F000605731015DBEEFF2BFBA5C2589EB37254D
:10050000000013050574EF20A00F014579BE831686
:10051000E50012210C452A843725000013050577D4
:10052000EF20C00B6A24DDB7EFF29FB756A132A1CE
:100530002A840EA17AA11CC5374700083725000080
:10054000411193976500930407C01305C57CBE94C1
:100550003EC2EF20E00A0C44373500001305C58683
:10056000EF20C007373500001305858BEF204009C9
:100570000E203735000013058595EF20200637350E
:100580000000A6851305059BEF20400552202E2074
:1005900037350000130545A0EF2040046E203735A5
:1005A00000001305C5A4EF206003373500001305D4
:1005B00045AAEF20E004924637470008130727C0FA
:1005C00036979E203AC41A23C207C183420741834B
:1005D00037350000BA863E86BE85130545B43AC05D
:1005E0003EC6EF10B07F0247B2476396E70041670F
:1005F0007D17639CE71E37350000130585BA3EC69C
:10060000EF2000000247B247638BE7003735000058
:10061000BE853A86130505BEEF10507CB247416790
:100620007D176398E70037350000130545C3EF10C9
:10063000307D0247C167FD176318F70037350000AA
:100640001305C5C7EF10D07B6E20373500001305AA
:1006500045CCEF10B07837350000130505D0EF100A
:10066000307AEF10602837350000130585D2EF107F
:100670003079EF10A03037350000A685130545D539
:10068000EF10D0752685EF102032373500001305A6
:1006900045D9EF10F076EF104030B73600001385E3
:1006A000C6DBEF10F075EF10C025373500001305DD
:1006B00005DEEF10F0749247B736000037470008A8
:1006C000130707C436C0C1663E978545A687FD1649
:1006D0009223420641826301D60237350000BE856F
:1006E0001305C5E03AC63EC2EF10506FC16793864E
:1006F000F7FF3247924781458907E31BF7FC81EDFD
:10070000373500001305C5E3EF10906F2306040092
:1007100041016FF09F9937350000130545E7EF1051
:10072000306E37350000130585E9EF10706DEF105E
:10073000A01B6E2037350000130585ECEF10106A02
:100740006E202685EF1040209147AA856308F500AA
:1007500037350000130545F0EF10506837350000BD
:10076000130505F3EF10D0696E202245EF10C01D70
:100770009147AA856308F50037350000130545F554
:10078000EF10D06582471385C7DBEF107067EF105D
:100790004017A2478620373500009623C204C18047
:1007A000C206C1823686A685130505F836C0EF104D
:1007B000F0626E208246639E9500639CD500C20560
:1007C000C185373500006EA4130545FBEF1010619D
:1007D00011A83735000026861305C5FEEF101060FE
:1007E0007E207EA485475CA425B793950701C1852B
:1007F000373500006EA413054503C9BFEFF25F8AC9
:1008000041118545454502C002C202C402C6EF102F
:10081000004091450945EF10C031C1473EC09147A6
:100820003EC2B1473EC40A8585473EC6EF1020054B
:1008300041016FF09F87EFF2BF8637250000130557
:10084000C56AEF10F05BB72700009387076C1307AA
:100850002003930640060146814513854185E93111
:10086000372500001305856CEF109059B72700005D
:100870009387476E0147854601468545138541822A
:100880006531372500001305456FEF107057B72706
:100890000000938707712947930640060146894562
:1008A000138541835131372500001305C571EF10C1
:1008B0003055B72700009387477313074006930608
:1008C000400601468D4513854184B9396FF0EFFD2F
:1008D000EFF20FFDA53E1D37371507001305058004
:1008E000EF10C0683735000013054507EF10505171
:1008F000B707002083A50701373500001305050A57
:10090000EF10D04D0D3F3734000013054408EF10B1
:10091000304F13854185C536AA853735000013054C
:10092000C50BEF10B04B13854182F136AA853735E0
:1009300000001305850DEF10704A13854183653E55
:10094000AA85373500001305450FEF103049138590
:1009500041845536AA853735000013054511EF103F
:10096000F04713054408EF10B049B7E700E005670A
:1009700023A0E710B7F700E0D843799BD8C313074B
:10098000703E98CB23A407002D4798C3C9261306B1
:100990006004930580021305803EEFF09F851306E7
:1009A0004006930500051305C05DEFF09F843735C1
:1009B000000013054513EF10B0446521C1453715FC
:1009C0000140EF10800993878180982B1335150023
:1009D0006312A7028146014794C7D8C7B42B394692
:1009E000982B636BD60609668A0613060667B296CD
:1009F00094428286984703A3C700B70500209385D9
:100A000085039441D041B365670081E594C7D0C7A1
:100A1000F1B73387E640B3B6E600330666406316A7
:100A2000D60093061003E3FBE6FA88AB45BF0DC77B
:100A30000547B8AB15A00D47B8AB37070020130723
:100A400087031043544390C3D4C339A039EF0947F7
:100A5000B8ABB83B0507B8BB03A7C1869384C18672
:100A600019E3EF00C07E944005476394E600EF0071
:100A70007015944009476397E600EF00302B054757
:100A80002390E18294400D476397E6000547239049
:100A9000E182EF00F03198409147E310F7F285478B
:100AA0002390F182EF00703509BF3707002013074C
:100AB0008703104394434C43D843B306D6403335A1
:100AC000D6003387E540098F6347E00051F71307ED
:100AD000F07CE373D7F81147B8AB90C3CCC3ADBF7C
:100AE000194781BF19E31547A9B737070020130736
:100AF0008703104394434C43D843B306D640333561
:100B0000D6003387E540098F6347E00031F71307CC
:100B1000703EE373D7F41D47C1B7214719BF19E3EE
:100B2000254701BF3707002013078703104394436D
:100B30004C43D843B306D6403335D6003387E5401F
:100B4000098F6348E000E31907F01307703EE3756F
:100B5000D7F01D47B8AB983B050798BBBDBFA3892D
:100B600007002947F9B5B43BA38807002D47E39553
:100B700006EC3547D1B5E31D07EA37070020130718
:100B80008703104394434C43D843B306D6403335D0
:100B9000D6003387E540098F6348E000E31E07EA8B
:100BA0001307301FE37AD7EA31473DB73547BAAB71
:100BB00065B5E31F07E637070020130787031043D7
:100BC00094435843CC43B306D6403336D6000D8FFA
:100BD000118F6348E000E31107E81307703EE37DDF
:100BE000D7E63947B9B523890700BDB58280938719
:100BF000818001478146D8C7D8C394C394C723A82E
:100C0000070037073200938741861307470698C3CA
:100C1000239207009387418523A0070023A20700A2
:100C200023A40700238607002397070093874182A8
:100C300023A0070023A2070023A4070023860700A0
:100C4000239707009387418323A0070023A207006F
:100C500023A4070023860700239707009387418476
:100C600023A0070023A2070023A407002386070070
:100C7000239707008280EFF2AFC237340140511151
:100C8000130504C08145EF10000C130504C0814515
:100C9000EF10E0099147371401407C80C1473EC402
:100CA0008A858547130504803EC2EF0050530146F4
:100CB000914513050480EF00F05A31016FF0EFBE4B
:100CC000EFF20FBE93074006AA84022113054006E7
:100CD00063E4B70013F5F50FA285EFF0AFBD930500
:100CE0004006EFF0AFBEAA85420541816373A400C0
:100CF000A285AEA037350140C205C181130505C0EC
:100D0000EF1020096FF06FBAEFF28FB971112A84DA
:100D100091E185450A2032C0EFF0CFB90246AA859D
:100D20003285EFF02FBB7D15C1676364F500138535
:100D3000F7FF93150501C181373501404EA00146EB
:100D4000130505C0EF10800111016FF00FB6EFF22F
:100D50002FB537073200938441881307470605658E
:100D6000130141FD98C085451D4713054580DAA054
:100D700002C802CA02CC02C202C42316010002CE7B
:100D800002D002D202D4EF009068614737150140CB
:100D900091463ACC0C080D4713050580F48036C007
:100DA0003ACAEF00D0439A20373401404C007D17F7
:100DB0007884DA20130504C02315010078822313F8
:100DC000010023060100EF00506813070006824669
:100DD0003ACEBA206C08130504C02310D1022311A7
:100DE000E10202D202D4EF00306BA145130504C02A
:100DF000EF00D0788545130504C0EF009076854557
:100E0000130504C0EF0030748545130504C0EF00DE
:100E10001072138541888145653537167A00138530
:100E200041881306062093052003F93D835704C02B
:100E3000858B91C3893523A8018623A001881301DE
:100E4000C1026FF08FA6094723A0E188828003A723
:100E500001879387018801E7054798C38280094786
:100E6000EDBFEFF2EFA393870188984341111384FC
:100E7000018711CB984323A007008547630AF70633
:100E80008947630BF710184085476310F706B707CB
:100E9000002093878703938681879843C4439C42AD
:100EA000D442B307F7403337F700958C998C1385FC
:100EB00041843EC0EFF02FE481E4824763E7A7025C
:100EC00037167A00856513060620938585381385C5
:100ED00041881D3D13854185EFF0EFE19375F50FD6
:100EE00013854188F13B89471CC041016FF0EF9B9E
:100EF0001C40D1FBB7370140938407C083D707C09C
:100F0000858B95E791477C8237150140E1473EC6C6
:100F10004C008D47130505803EC4EF00502C8545DD
:100F20002685EF00506285452685EF0050601385C9
:100F30004182EFF04FDC37167A00130606201DE1E0
:100F4000856593858538138541887D3B138541856B
:100F5000EFF06FDA9375F50F138541889533894764
:100F60001CC015B79305200313854188713B138579
:100F70004183EFF04FD89375F50F1385418889337E
:100F8000B7070020938787039043D44393878187D3
:100F900090C3D4C38547E9B78145138541880D3394
:100FA000B737014083D707C0858B91C3E931232030
:100FB0000400D1BD03A701878947631AF700EFF248
:100FC0002F8EAA8513854188E5396FF00F8E8280B8
:100FD00037073200938741881307470698C3239247
:100FE00007008280EFF2CF8B5C2589EB373500005C
:100FF0001305C524EF10C0606FF02F8B36212A84B3
:10100000AE845A2163E4D500637EB7000C443735C3
:10101000000026861305C527EF10405C3E2063E0E4
:10102000F40246208316E40012200C4437350000F9
:1010300026871305C52DEF10605A66A475BFBE84C0
:10104000D5B7EFF2EF854425411189E83735000027
:1010500013050534EF10C05A8944B1A81E210C4570
:101060002A849A073EC21247B7470008938707C0F1
:1010700037350000BA97130545373EC0EF100056CC
:101080000317E40002460E2037350000BA86130528
:10109000853BEF10A05482470C4492238317E40051
:1010A00042064182631DF600373500001305C54135
:1010B000EF10C0529144268541016FE01FFF373584
:1010C000000013058546EF106051EF00F001EF00BE
:1010D000F00A02460C44373500001305454AEF106C
:1010E000E04F0245EF00500C0C443735000013056B
:1010F000454FEF10A04EEF00500AEF00900037353B
:10110000000013050553EF10A04F1247B747000822
:10111000938707C4BA970247C166FD161223420699
:1011200041826301D60237350000BA851305C5E058
:101130003EC63AC4EF10804AC1679386F7FF224744
:10114000B24781440907E39BE7FC89E80C44373543
:1011500000001305C555EF106048FDBD3735000090
:101160001305C559EF10C0490C443735000013056D
:10117000455DEF10A046EF0020776E240245EF009A
:10118000A07C1147AA84630DE5000C442A863735FC
:10119000000013050561EF106044EF00807621BF69
:1011A0001247B7470008938727C06E24BA973E8539
:1011B0003EC2EF0060791147AA84630AE5000C443F
:1011C0002A863735000013054565EF102041EF00F2
:1011D000407382470316E4000C4496239247C206EC
:1011E0009A23C18242074183639CC600639AE6004A
:1011F00037350000368613058569EF10203E65BD42
:10120000373500001305456EEF10403D6DB5EFE238
:101210003FE9AA841305803EEF005047014463561E
:1012200094020546914537150140EF00B003EFF0F9
:101230000F870146914537150140EF00B0021305B5
:10124000800CEF00B0440504D9BF6FE01FE6EFE269
:101250003FE53704002093070404B82B89471304A3
:101260000404631CF700373500001305451BEF101D
:101270002039EFF06F86EFF09FBD38289147631E4D
:10128000F700373500001305C51BEF106037EFF08E
:10129000CF8723A60188EFF01FBB38289D47631E28
:1012A000F7029387C1888C43373500001305451C2E
:1012B00085058CC3EF108032EFF00F820546914513
:1012C00037150140EF00007A1545EF00303C01462C
:1012D000914537150140EF00E0783828A547631B9A
:1012E000F704373500001305051DEF10603183A7A3
:1012F000C18805479384C1886396E700054523A606
:10130000F18631379C4009476396E700094523A6DB
:10131000F186F53D9C400D476396E7000D4523A6F9
:10132000F186F5359C4011476396E700114523A6E9
:10133000F186F13D3828A947631EF70037350000D4
:101340001305051EEF10C02B0146914537150140CE
:10135000EF0040713828B1476313F7042C38373554
:10136000000013054520EF106027383895476318B3
:10137000F702EFE0DFFBEFE09FFBEFE05FFBEFE06A
:101380001FFB9307800873B007300F100000B707EA
:10139000EFBE37E700E0938707083CC701A0382875
:1013A000B947631FF700373500001305C51EEF105E
:1013B0002025EFE05FF383D7218299E3EFF01F83CD
:1013C0006FE0BFCEEFE2DFCD611113854185EFF015
:1013D0008F923704002013070404342B26C00947DA
:1013E000AA8713040404639CE6002AC23735000070
:1013F0001305451BEF10C020EFE01FEE9247342885
:1014000031476392E6123E859545EFE0BFCC2C381C
:1014100093140501373500001305851FEF10001CDC
:1014200038388547C180631BF7028504D14763D9EB
:10143000970CEFE01FF2D144824793952400A695C4
:10144000C205C18113854185EFF0DFB92C383735EE
:101450000000268613054521EF10401838388947CB
:10146000631FF70023A60186EFE07FEC014691455C
:1014700037150140A308040023190400E523383878
:101480008D47631AF702854763DF9706FD14EFE087
:101490001FE2824793952400A695C205C18113855A
:1014A0004185EFF03FB42C38373500002686130510
:1014B000C522EF10A012383891476319F704373569
:1014C000000013054524EF10A0131305803EEF0024
:1014D000F01B81473EC2638BF402054691453715E8
:1014E00001404923EFE0BFDD01469145371501403A
:1014F000952B1305C012EF00701992478507D9BFCD
:10150000EFE0FFDA15BFEFE0DFE861B73838954765
:10151000631BF700EFE0FFEBEFE0BFEB82471385C3
:101520004185EFF01FB221016FE03FB8EFE25FB7F6
:1015300013854182EFE03FFC054611E101469145EC
:101540003715014005233704002093070404B82B06
:10155000B14713040404631BF7042C38373500002B
:1015600013054520EF10800738388547631FF700C3
:1015700013854182EFE03FF8814511E185451385F0
:101580004182EFF03FA6EFE0FFCF38388947631F75
:10159000F70023A60186EFE09FD901469145371554
:1015A0000140A3080400231904006D296FE0FFAF78
:1015B00003C7A1819147631AF700EFE27FAE23A62C
:1015C0000186EFE0DFD66FE05FAE8280EFE25FADD5
:1015D000711101442AC06357A400EFE0FFCF050456
:1015E0000245CDBF11016FE05FACEFE27FAB23A6F8
:1015F0000186EFE07FCE6FE05FABEFE27FAA3704BA
:10160000002093070404B82B914713040404631EBD
:10161000F700373500001305C513EF00707EEFE0CB
:10162000DFCE23A801882391018238289D47631CBF
:10163000F702938701898C43373500001305451560
:1016400085058CC3EF009079EFE01FC905469145F1
:101650003715014001291545EF005003014691451A
:101660003715014001213828A5476316F7023735A1
:10167000000013050517EF00B07883A701893735FF
:1016800000001305051993951700BE958E05BE95AC
:101690008605EF00B0743828B147631BF7022C3879
:1016A0003735000013054520EF005073383889475F
:1016B0006313F7001D3F38388D47631BF70037353C
:1016C00000001305451AEF00B07303A50189FD3D25
:1016D0006FE0BF9DEFE2DF9C371402401C403707EC
:1016E000FFF8414593E717001CC05C40F98F5CC0D0
:1016F0001C403707F7FE7D17F98F1CC01C403707C9
:10170000FCFF7D17F98F1CC05C4041777D17F98F76
:101710005CC0B7079F001CC489211C4C93E70702DB
:101720001CCCB717014003A70740938607401377E7
:10173000F7F023A0E74003A707401367070823A09B
:10174000E74089479CCAB72702409843719B98C3DA
:10175000984398C35C4093E707025CC06FE0FF9436
:10176000EFE21F94371702405C4337040020914694
:10177000B18B130404016385D700A1466382D704AB
:10178000B7376E01938707601CC0B7160240DC4272
:101790000840918313F7F700B707002093870700ED
:1017A000BA978C23DC4293F5F50F93F7070833576C
:1017B000B50081E7EFE01F922A8718C06FE0FF8E27
:1017C0005C43B777DC02938707C07DBF01A097F128
:1017D000FF1F9381A106138181FC1305000A97F571
:1017E000FF1F9385258217F6FF1F1306A68163FA54
:1017F000C5008322050023A0550011059105E3EAE9
:10180000C5FE172500001305E5F497E5FF1F938536
:10181000657F17F6FF1F1306668263FAC5008322F1
:10182000050023A0550011059105E3EAC5FE17F553
:10183000FF1F1305A5809385C1896377B500232019
:1018400005001105E36DB5FEB72200009382028802
:10185000739002308D427390428097E2FFFF938233
:10186000627A93E2320073905230EFF0BFE697F263
:10187000FFFF938222067390123473002030584188
:10188000032305004C4537060140930706403E9769
:101890009346F3FFB1C583250640F58D2320B6405E
:1018A000D043F18ED4C31443B3E6660014C3184189
:1018B00090479346F7FF758E90C7D047F18ED4C7F7
:1018C000144541466399C6009447D98E94C7D447BE
:1018D000558FD8C78280B6979443558F98C382801E
:1018E0001C43F58F1CC38280B7076745372702402A
:1018F000938737125CC3B797EFCD9387B79A5CC3D2
:101900008280372702401C4B93E707081CCB82805C
:10191000372702405C470545858B91E74847418959
:10192000133515000D058280EFE28FF72A84CD373D
:1019300085476318F50019E0154529A0D13F7D14AE
:10194000C5BF7DD86FE06FF6EFE28FF57111AA8405
:1019500009652EC0D13F91478245631EF5003724AB
:1019600002401C48096593E717001CC88EA06D3F14
:101970001C48F99B1CC811016FE02FF3B70667459F
:10198000B7270240938636123797EFCDD4C313079B
:10199000B79AD8C3D4D3D8D38280372702401C4B00
:1019A000A166D58F1CCB8280B70700F8AA97116774
:1019B00063F6E702B7270240984BB7060200558F3F
:1019C00098CBC8CB984B1367070498CBD847058BA7
:1019D00075FF984B8176FD16758F98CB8280944564
:1019E00093F7060193F2F60081C7DC41B3E2F200FF
:1019F00083D3050093F7F30FA5C3032305006111FB
:101A000022C226C081471304800293048004054744
:101A10003316F70033F7C3006312E60293952700ED
:101A20003D473317B7001347F7FF33736700B3958C
:101A3000B20033E36500639D860050C985072147E6
:101A4000E397E7FC12442320650082442101828051
:101A5000E39696FE10C9DDB7828008456D8D33355B
:101A6000A000828019C20CC982804CC982803703D1
:101A70000140032743009317350063D00702B707DF
:101A8000C0FFF517F98F37070007D98FD9CD370772
:101A900000F07D17798DC98F49A8635D0500B707F0
:101AA000E0FFED17F98F37070007D98FBDCD060589
:101AB0000581D5B7B7073000931605013376F500D9
:101AC000C1826313F602370600F97D16B377C700AB
:101AD00003274300798E2322C300A1C95581131720
:101AE00045003395E60045BF9317B50063D4070260
:101AF0009357050113F6F7008D47B397C70093C7B7
:101B0000F7FFF98F37070007D98F85C113575501A4
:101B10001207C1BF558112053395A6009347F5FF03
:101B2000F98F37070007D98FBDF5370701405CC330
:101B3000828037070140144786058D47B397B70069
:101B400093C7F7FFF58F1CC71C47B315B500DD8D94
:101B50000CC7828023AAA1888280371702401C43C9
:101B60000E0593F777F05D8D08C38280EFE24FD3C7
:101B7000371702405C4391462A84B18B6385D700B6
:101B8000A1466380D708B7376E01938707601CC0F2
:101B9000B7160240DC42918313F7F700B707002025
:101BA00093878702BA978C23DC42184093F5F50F90
:101BB00093F707083355B70081E73A85EFE08FD1F7
:101BC00048C008C448C4B7170240DC438D46AD8303
:101BD000FD8B13D737008A07F18BD98F13F63701A6
:101BE00013F7370063F4C600138747FFB7070020D9
:101BF00093874701BA978C23EFE0CFCD08C86FE0F9
:101C0000CFCA5C43B777DC02938707C049B799C551
:101C1000371702401C4F5D8D08CF8280B7170240F6
:101C2000984F1345F5FF798D88CF828099C5371776
:101C300002405C4F5D8D48CF8280B7170240D84F7D
:101C40001345F5FF798DC8CF82801E2137370140BB
:101C5000130707C0C207C1836306E50037070040CA
:101C60006316E500BA2193F7F7F8D98FFA2193F7B5
:101C7000F7CFC207C183D98F1EA1DE215EB59E2199
:101C80001EB5B7370140938707C06314F5009C2544
:101C90001EB985475EA982801E3165771307F7CF8D
:101CA000C207C183BD9BC207C1831EB11E3156212D
:101CB00003D38500C20713960601162DC18393F73F
:101CC000F7FD758F96214182A206558FB6214207F6
:101CD0004183B3E666009206D58FB7360140C2074E
:101CE000938606C0C183631ED502B62593F7F7F726
:101CF00003D3C5009206D58FD621C207C1839206B1
:101D000093F7F7FBD58FFD769386F63FF18EF2259C
:101D1000C207C183336666000A06D18E1396060198
:101D2000418252A11AADFA2118DD1EB182801E2116
:101D300089C593E717001EA18280C207C183F99B62
:101D4000C207C183CDBF8357450491C52167D98F91
:101D50002312F5048280C607C583DDBF0EB552A9E4
:101D600082801E2189C593E707081EA18280C207D1
:101D7000C18393F7F7F7C207C183C5BF1A2DFD775B
:101D80009387F77FF98FA205CD8FC207C1831EAD60
:101D900082800CDD8280EFE2AFB01629F577FD1767
:101DA000F58FF621DA252111D58F1EA95625FD774D
:101DB0009387379FF58FD6212A842EC0D58F9625FD
:101DC000D58FB625D58F5EA55E29C207C18393F74F
:101DD000F7CF5D8F5AA94800EFF05FD9B7470140B0
:101DE0009387078082456312F406C2475A241395ED
:101DF00017003E9542070E0541873E958C4163587A
:101E000007048605EFE00FAD930540062AC0EFE01A
:101E10006FAC824793144500930540063E85EFE082
:101E20002FAE5E24C207C18763D507020E05930556
:101E3000400613052503EFE0EFA91D89C98CC204F4
:101E4000C18006A461016FE04FA6B24745B78A057D
:101E500055BF12059305400613052503EFE08FA734
:101E60003D89E9BF91C55E250967D98F5EA582804E
:101E70005A25F977FD17F98FD5BF93F5F51F4EA1B8
:101E800082800A216D8D3335A000828037F700E013
:101E90005443311193077100F99A54C39306703E6D
:101EA00014CB23240700AD4614C337070020930644
:101EB00087039042D442E19B90C7D4C78C47D04758
:101EC0009356F5413303B5003335A300B385C600FF
:101ED000B306B50023A06700D4C31307870303A389
:101EE0000700484383A3470063E7A3006317750017
:101EF00014436374D300510182800100CDB7EFE237
:101F00002F9AB707002003A50701B7157A0093851C
:101F10000520EFE02F9C1375F50F238DA1889317F3
:101F20005500898F8A073E950E05239CA1886FE096
:101F3000CF97EFE2EF9637F400E05C40AA85F99B7B
:101F40005CC003D58189EFE0EF9608C82324040024
:101F50001C4093E717001CC0B7F700E0D843058B7F
:101F600075DF9843799B98C36FE02F94EFE24F930E
:101F70002A8411651111854513051502EFF03FC93B
:101F8000854537052080EFF09FAE930700047C80E5
:101F9000371501408D473EC28A85E147130505404C
:101FA0003EC4EFF0DFA322C637440140B707080064
:101FB0006C00130504803ECA02C8231C0100EFF028
:101FC0009FDD854513050480EFF0DFE971016FE0C7
:101FD000CF8DEFE2EF8C7111AE840144635FC402D8
:101FE000B7470140138707803A859305000432C044
:101FF000EFF03FE9B74701401387078002466DD5F0
:102000003387840083050700138507800504C20514
:10201000C181EFF09FE60246D1B7328511016FE032
:10202000CF88411106C62EC00DCD1841AA8705C321
:1020300058417D5511CB8546631BD7009847230037
:10204000070023A207000545B2404101828098475E
:10205000824614A39847050798C7D8437D17D8C36D
:10206000DDB705468A85EFF0DFF6F1BF011122CC1E
:102070002EC206CE26CA2A848147930500026345F4
:1020800006029245BE95838505008DE563D8C7029B
:1020900063D4E702198E1305000293F526002AC0C7
:1020A00089C501E7930500032EC0858A81449DEA16
:1020B000B28415A08507F1B71D8EF1BF0146E1BFBF
:1020C000824522853AC832C63EC4EFF09FF5A2474A
:1020D00032464247FD14E34590FEB2846353060046
:1020E0008144058E63C7E702A687924633879740EF
:1020F0003697830507009DEDB284634690046353D1
:1021000006000146F2406244D2443305F600056100
:1021100082801D8FBA8793050003228532C83EC690
:102120003AC4EFF01FF0B24722474246FD17E5F7E9
:10213000BA945DBF228532C63EC4EFF09FEEA2473F
:10214000324685075DB78245228532C43EC2EFF034
:102150005FEDFD14224692474DB7397106DE22DC51
:1021600026DA3EC232833A8691ED92469307000307
:1021700001476C08FC86EFF07FEFF2506254D254B6
:1021800021618280AA843684AE8791CA294701449E
:102190006317E30063D50500B307B04005448646E6
:1021A000A309010213073103938666FC36C49A859E
:1021B0003E8532CA3AC81AC63EC0EFD07FF4A54663
:1021C000824732434247524663D4A600A246369520
:1021D000130505039306F7FFA30FA7FE9A853E8517
:1021E00032CC3ACA1AC83EC636C0EFD0BFEEB247AC
:1021F00042435247624663FD670409CC29CE9247A9
:10220000898BB1CB9305D002268532C4EFF07FE1F4
:1022100022467D169247918B85C706479307100685
:1022200032C49305000326856311F704EFF07FDFC6
:10223000930580072685EFF0DFDE22460904791634
:102240001647924682452685EFF05FE2229535B724
:10225000AA870247A9BF82469307D0020144A38FF1
:10226000F6FE9307E7FF3EC075B7EFF09FDB9305DF
:102270008005C9B70145828001458280130181FD37
:1022800022D026CE06D22AC4AE82328402C681442F
:102290008385020091EDA24789C781453E85EFF015
:1022A0005FD8925002542685F24413018102828045
:1022B000930750026389F500224516C88504EFF0A4
:1022C0005FD6C24205A08387120013871200639D68
:1022D000B7002245930550023AC8EFF09FD4424719
:1022E0008504BA8285026DB7DDD79306B002638993
:1022F000D70463C8F600930630026386D70481478B
:1023000005A09306D002638AD70093060003E398E2
:10231000D7FE13872200894721A013872200854713
:10232000830607001306B0026383C6046341D60226
:1023300013063002638BC602BA820145A54681A00E
:10234000138722006DBF138722009147D1BF130668
:10235000D0026389C60013060003E39FC6FC93E71F
:10236000270031A005078547C1BF93E74700050750
:10237000E1B713162500329506053A9585020386C6
:102380000200130706FD9375F70FE3F4B6FE13077B
:10239000E0029946631EE60085028146A545038654
:1023A0000200130606FD1377F60F63F5E50236C645
:1023B000038702001306A006630DC70A6343E60203
:1023C0001306C0046307C70A13068006630CC70818
:1023D00081452DA813972600BA968606B2968502E7
:1023E0007DBF130640076306C7081306A0076302F4
:1023F000C7081306C0068145631AC700038612008A
:102400008D456314E600850291458502038602002E
:10241000930300061307100663C4C30013071004D8
:102420009303700663C4C30693035006635676187D
:102430009303700463C1C30493055004635EB6162E
:1024400013073004E310E6EA18409303440016CA69
:10245000230CE1001EC8A30C01000147BE862A869A
:102460002C0849A8038612008145E311E6FA890287
:1024700071BF8502B1BF93063006E307D6FC63CF78
:10248000C606930680056303D602A9BD93063007EE
:102490006304D60463CBC6029306F0066305D60E2A
:1024A0009306000793E74700E31ED6E29146639246
:1024B000D50C930384000C40504016CA3AC23EC06B
:1024C0001EC8AA870147C14681A893065007630B1F
:1024D000D6069306800745BF1840B7360000930321
:1024E00044009385067411C3BA85324716CA1EC8C4
:1024F000BE862A862245EFF07FB715A091466395E8
:10250000D502930384000C40504016CA3AC23EC024
:102510001EC8AA870547A9462245EFF0BFD5C2438A
:10252000AA941E84D2427DBBB2460C4016C836C265
:102530003AC011042A87854629462245EFF0FFC19B
:10254000AA9441B39146639DD500930384000C4047
:10255000504016CA3AC23EC01EC8AA87014765BF8E
:10256000B2460C4016C836C23AC011042A878146CA
:10257000E1B7B24616C80C40414636C23AC0110413
:102580002A8781465DBF9146639ED50093038400F0
:102590000C40504016CA3AC23EC01EC8AA87014726
:1025A000A1469DBFB2460C4016C836C23AC01104BF
:1025B0002A878146214651B70C40130684004040CB
:1025C0003AC22A87224532C83EC02286B687A9462B
:1025D00016CAEFF07FCAAA944244A9B71301C1FDFD
:1025E0002EC832CAAA851008014506C636CC3ACE96
:1025F0003ED032C0EFF09FC8B2401301410282804A
:10260000411122C426C206C61C21AA840144DC81D1
:1026100083073100050499EFA9479305310005466A
:102620000145DC81EFF0FF9A2285B24022449244BA
:10263000410182800546930531000145EFF07F9905
:10264000B38784009C23DC81E1B700004861726499
:102650004661756C745F48616E646C65720D000054
:102660004E4D495F48616E646C65720D000000005C
:102670002E0A0000360A0000620B00004C0A00001F
:10268000E00A00005E0B0000E40A00001A0B0000E4
:102690001E0B00005E0B0000660B0000760B0000B6
:1026A000AC0B0000B20B0000E60B00002E524541BF
:1026B0004420434F4E46494720506F7765720000D3
:1026C000506F7765720000002E5245414420434F01
:1026D0004E46494720426F6F737420456E61626CAD
:1026E00065000000426F6F737420456E61626C6517
:1026F000000000002E5245414420434F4E464947BA
:1027000020426F6F737420506F7765720000000075
:10271000426F6F737420506F776572002E5245417F
:102720004420434F4E46494720426F6F73742054F4
:10273000696D6500426F6F73742054696D650000A8
:102740001B5B33383B353B3139366D5B45455D208E
:1027500045201B5B306D4552523A2067657428292D
:10276000206265666F726520696E69742829210090
:102770001B5B33383B353B35316D5B45455D201B7D
:102780005B306D1B5B33383B353B38326D22257334
:10279000221B5B306D3A204765743A201B5B33384F
:1027A0003B353B3232366D6964783D25751B5B30B5
:1027B0006D2C2076616C3D1B5B33383B353B3832EA
:1027C0006D25751B5B306D0A000000001B5B333804
:1027D0003B353B3134316D5B45455D2049201B5B0A
:1027E000306D1B5B316DE29594E29590E29590E23D
:1027F0009590E29590E29590E29590E29590E29521
:1028000090E29590E29590E29590E29590E2959015
:10281000E29590E29590E29590E29590E29590E2B3
:102820009590E29590E29590E29590E29590E295F0
:1028300090E29590E29590E29590E29590E29590E5
:10284000E29590E29590E29590E29590E29590E283
:102850009590E29590E29590E29590E29590E295C0
:1028600090E295971B5B306D000000001B5B3338D6
:102870003B353B3134316D5B45455D2049201B5B69
:10288000306D1B5B316DE2959120496E6974204576
:102890004550524F4D3A201B5B33383B353B383265
:1028A0006D252D3137731B5B306D202020202020BB
:1028B000202020E295910A001B5B33383B353B31E9
:1028C00034316D5B45455D2049201B5B306D1B5BE2
:1028D000316DE295A0E29590E29590E29590E295B7
:1028E00090E29590E29590E29590E29590E2959035
:1028F000E29590E29590E29590E29590E29590E2D3
:102900009590E29590E29590E29590E29590E2950F
:1029100090E29590E29590E29590E29590E2959004
:10292000E29590E29590E29590E29590E29590E2A2
:102930009590E29590E29590E29590E29590E295DF
:1029400090E29590E29590E29590E29590E295A3C1
:102950001B5B306D000000001B5B33383B353B31A7
:1029600034316D5B45455D2049201B5B306DE29540
:1029700091201B5B33383B353B3232366D496478EE
:102980003A202533751B5B306D202020202020202D
:102990002020202020202020202020202020202037
:1029A0002020202020202020E295910A0000000015
:1029B0001B5B33383B353B3134316D5B45455D2026
:1029C00049201B5B306DE29591201B5B33383B3512
:1029D0003B3134316D4164723A20307825303858BB
:1029E0001B5B306D20202020202020202020202054
:1029F000202020202020202020202020E295910A45
:102A0000000000001B5B33383B353B3134316D5BDC
:102A100045455D2049201B5B306DE2959120526158
:102A20006E67653A205B253375202E2E2025337581
:102A30005D20202020202020202020202020202059
:102A40002020202020E295910A0000001B5B3338F3
:102A50003B353B3134316D5B45455D2049201B5B87
:102A6000306DE29591201B5B33383B353B38326D3E
:102A70004465663A20252D33751B5B306D20202080
:102A80002020202020202020202020202020202046
:102A9000202020202020202020202020E295910AA4
:102AA000000000001B5B33383B353B3134316D5B3C
:102AB00045455D2049201B5B306D1B5B316DE29508
:102AC0009AE29590E29590E29590E29590E2959049
:102AD000E29590E29590E29590E29590E29590E2F1
:102AE0009590E29590E29590E29590E29590E2952E
:102AF00090E29590E29590E29590E29590E2959023
:102B0000E29590E29590E29590E29590E29590E2C0
:102B10009590E29590E29590E29590E29590E295FD
:102B200090E29590E29590E29590E29590E29590F2
:102B3000E29590E29590E29590E2959D1B5B306D59
:102B4000000000001B5B33383B353B35316D5B4586
:102B5000455D201B5B306D526561642066726F6D50
:102B600020466C6173683A2077313D1B5B33383BFC
:102B7000353B3134316D3078253034581B5B306D46
:102B800020282575292C2077323D1B5B33383B35B7
:102B90003B3134316D3078253034581B5B306D203B
:102BA000282575290A0000001B5B33383B353B3272
:102BB00032366D5B45455D2057201B5B306D496E9D
:102BC00076616C6964206F7220656D707479206421
:102BD000617461206465746563746564210000003C
:102BE0001B5B33383B353B3232366D5B45455D20F0
:102BF00057201B5B306D2020526561736F6E3A2049
:102C00001B5B33383B353B3139366D6D69736D6114
:102C10007463681B5B306D202877313D3078253038
:102C2000345820213D2077323D30782530345829E2
:102C30000A0000001B5B33383B353B3232366D5B9C
:102C400045455D2057201B5B306D20205265617328
:102C50006F6E3A201B5B33383B353B3139366D772D
:102C6000313D3078464646461B5B306D2028756EF8
:102C700070726F6772616D6D656429001B5B33381C
:102C80003B353B3232366D5B45455D2057201B5B43
:102C9000306D2020526561736F6E3A201B5B3338B4
:102CA0003B353B3139366D77323D307846464646C6
:102CB0001B5B306D2028756E70726F6772616D6D71
:102CC000656429001B5B33383B353B3134316D5B28
:102CD00045455D2049201B5B306D496E6974207746
:102CE0006974682064656661756C743A201B5B3397
:102CF000383B353B38326D25751B5B306D0A000063
:102D00001B5B33383B353B3134316D5B45455D20D2
:102D100049201B5B306D556E6C6F636B20466C6198
:102D200073682E2E2E0000001B5B33383B353B3181
:102D300034316D5B45455D2049201B5B306D556E20
:102D40006C6F636B2066617374206D6F64652E2EEB
:102D50002E0000001B5B33383B353B3134316D5B5B
:102D600045455D2049201B5B306D457261736520D0
:102D700036344220626C6F636B2040201B5B33381B
:102D80003B353B3134316D3078253038581B5B3062
:102D90006D0A00001B5B33383B353B3134316D5BD2
:102DA00045455D2049201B5B306D4C6F636B206691
:102DB000617374206D6F64652E2E2E001B5B33389B
:102DC0003B353B3134316D5B45455D2049201B5B14
:102DD000306D4C6F636B20466C6173682E2E2E0035
:102DE0001B5B33383B353B39336D5B45455D2044D8
:102DF000201B5B306D566572696679206572617360
:102E0000652028363442292E2E2E00001B5B3338D5
:102E10003B353B3139366D5B45455D2045201B5BBD
:102E2000306D4572617365206572722025303858A7
:102E30003A3078253034580A000000001B5B3338E4
:102E40003B353B3139366D5B45455D2045201B5B8D
:102E5000306D426C6F636B206E6F742065726173AE
:102E600065642120496E69742061626F72746564C3
:102E70002E0000001B5B33383B353B34366D5B4521
:102E8000455D20E29C93201B5B306D426C6F636B51
:102E900020657261736564001B5B33383B353B31E1
:102EA00034316D5B45455D2049201B5B306D556EAF
:102EB0006C6F636B20466C61736820666F7220775D
:102EC000726974652E2E2E001B5B33383B353B3107
:102ED00034316D5B45455D2049201B5B306D577279
:102EE00069746520773120286465663D1B5B333843
:102EF0003B353B38326D25751B5B306D292E2E2EF0
:102F00000A0000001B5B33383B353B3139366D5BC3
:102F100045455D2045201B5B306D57726974652007
:102F2000773120657272212053743D25640A0000B8
:102F30001B5B33383B353B3134316D5B45455D20A0
:102F400049201B5B306D57726974652077322E2ED5
:102F50002E0000001B5B33383B353B3139366D5B4F
:102F600045455D2045201B5B306D577269746520B7
:102F7000773220657272212053743D25640A000067
:102F80001B5B33383B353B39336D5B45455D204436
:102F9000201B5B306D5665726966793A2077313D4A
:102FA0003078253034582077323D30782530345809
:102FB0000A0000001B5B33383B353B34366D5B4504
:102FC000455D20E29C93201B5B306D496E69742047
:102FD000646F6E652C2076616C3D1B5B33383B352E
:102FE0003B38326D25751B5B306D0A001B5B333837
:102FF0003B353B3139366D5B45455D2045201B5BDC
:10300000306D566572696679206572722120457847
:10301000703D3078253034582C2072643A20773156
:103020003D3078253034582077323D3078253034A3
:10303000580A00001B5B33383B353B34366D5B452B
:10304000455D20E29C93201B5B306D496E697420C6
:103050004F4B2C206C6F616465642076616C3D1B66
:103060005B33383B353B38326D25751B5B306D0A61
:10307000000000000D0A2D2D2D2D2D2D2D2D2D2D77
:103080002D2D2D2D2D2D2D2D2D2D2D2D2D2D2D2D70
:103090002D2D2D2D2D2D2D2D2D2D2D2D2D0D0000DA
:1030A000D09FD180D0B8D0B2D0B5D182205379731F
:1030B00074656D436C6B3A25640D0A00434F4E46B0
:1030C000494720506F776572202020202020202043
:1030D0003A2025640D0A0000434F4E4649472042DE
:1030E0006F6F737420456E61626C65203A202564B1
:1030F0000D0A0000434F4E46494720426F6F7374DC
:1031000020506F7765722020203A202564206D734F
:103110000D0A0000434F4E46494720426F6F7374BB
:103120002054696D652020203A202564206D730DA0
:103130000A000000476F2E2E2E0D00003E20536324
:103140007265656E426F6F737454696D6520486F68
:103150006C640D003E2053637265656E426F6F7341
:103160007454696D6520537465702025640D0A00E0
:103170003E2053637265656E426F6F737454696D60
:10318000652072656C65617365537465700D000030
:10319000426F6F737454696D653A202564206D73B6
:1031A0000A000000676574436C69636B73203D3DE2
:1031B00020330D00436C69636B0D0000486F6C6435
:1031C0000D000000537465702025640D0A00000096
:1031D00072656C65617365537465700D0000000065
:1031E00052656C656173650D0000000054696D6582
:1031F0006F75740D0000000053637265656E506F4B
:1032000077657220436C69636B733A2025640D0AFD
:10321000000000002B2B20436C69636B733A202560
:103220006420696D703A25640D0A00002D2D20433D
:103230006C69636B733A20256420696D703A25646C
:103240000D0A00005374617475730D001B5B3338F5
:103250003B353B3139366D5B45455D2045201B5B79
:10326000306D4552523A2073657428292062656694
:103270006F726520696E6974282921001B5B3338E1
:103280003B353B3232366D5B45455D2057201B5B3D
:10329000306D1B5B33383B353B38326D2225732252
:1032A0001B5B306D3A2056616C201B5B33383B351D
:1032B0003B3139366D25751B5B306D206F75742081
:1032C0006F662072616E6765205B25752E2E2575F1
:1032D0005D2C20636C616D7065640A001B5B333884
:1032E0003B353B35316D5B45455D201B5B306D1BD0
:1032F0005B33383B353B38326D222573221B5B3004
:103300006D3A205365743A201B5B33383B353B32B2
:1033100032366D6964783D25751B5B306D2C206FEE
:103320006C643D257520E28692201B5B33383B356B
:103330003B38326D6E65773D25751B5B306D0A003D
:103340001B5B33383B353B3139366D5B45455D2082
:1033500045201B5B306D4552523A207361766528DB
:1033600029206265666F726520696E69742829215B
:10337000000000001B5B33383B353B35316D5B454E
:10338000455D201B5B306D1B5B316D1B5B33383B38
:10339000353B38326D222573221B5B306D1B5B3150
:1033A0006D3A205361766520746F20466C617368B6
:1033B0001B5B306D0A0000001B5B33383B353B352F
:1033C000316D5B45455D201B5B306D20201B5B3301
:1033D000383B353B3232366D6964783D25751B5B71
:1033E000306D2C206164723D1B5B33383B353B31C3
:1033F00034316D3078253038581B5B306D2C207699
:10340000616C3D1B5B33383B353B38326D25753A7B
:103410003078253034581B5B306D0A001B5B333825
:103420003B353B34366D5B45455D20E29C93201B6C
:103430005B306D1B5B33383B353B38326D22257377
:10344000221B5B306D3A20416C7265616479207398
:10345000617665642028307825303458292C207313
:103460006B69700A000000001B5B33383B353B3151
:1034700034316D5B45455D2049201B5B306D1B5B26
:1034800033383B353B38326D222573221B5B306D60
:103490003A20556E6C6F636B20466C6173682E2EFC
:1034A0002E0A00001B5B33383B353B3134316D5BFA
:1034B00045455D2049201B5B306D1B5B33383B3538
:1034C0003B38326D222573221B5B306D3A204572EA
:1034D000617365203634422040201B5B33383B3516
:1034E0003B3134316D3078253038581B5B306D0AF4
:1034F000000000001B5B33383B353B3134316D5BE2
:1035000045455D2049201B5B306D1B5B33383B35E7
:103510003B38326D222573221B5B306D3A204C6F95
:10352000636B2066617374206D6F64650A00000030
:103530001B5B33383B353B3134316D5B45455D209A
:1035400049201B5B306D5665726966792065726132
:1035500073652028363442292E2E2E001B5B33380B
:103560003B353B3139366D5B45455D2045201B5B66
:10357000306D1B5B33383B353B38326D222573226F
:103580001B5B306D3A20426C6F636B206E6F742052
:10359000657261736564210A000000001B5B3338AB
:1035A0003B353B34366D5B45455D20E29C93201BEB
:1035B0005B306D426C6F636B206572617365642074
:1035C00028616C6C203634423D30784646464629A8
:1035D000000000001B5B33383B353B3134316D5B01
:1035E00045455D2049201B5B306D1B5B33383B3507
:1035F0003B38326D222573221B5B306D3A205772A7
:1036000069746520646174612E2E2E0A000000002A
:103610001B5B33383B353B3139366D5B45455D20AF
:1036200045201B5B306D1B5B33383B353B38326DBF
:10363000222573221B5B306D3A2057726974652016
:10364000776F72643120657272212053743D256456
:103650000A0000001B5B33383B353B3139366D5B6C
:1036600045455D2045201B5B306D1B5B33383B358A
:103670003B38326D222573221B5B306D3A20577226
:1036800069746520776F72643220657272212053ED
:10369000743D25640A0000001B5B33383B353B3426
:1036A000366D5B45455D20E29C93201B5B306D1BB6
:1036B0005B33383B353B38326D222573221B5B3040
:1036C0006D3A2053617665204F4B2C2077313D3089
:1036D00078253034582077323D3078253034580AF8
:1036E000000000001B5B33383B353B3139366D5BE6
:1036F00045455D2045201B5B306D1B5B33383B35FA
:103700003B38326D222573221B5B306D3A205665A3
:10371000726966792065727221204578703D307833
:10372000253034582C2072643A2077313D3078258A
:103730003034582077323D3078253034580A000034
:08374000286E756C6C29000075
:08374800EE0B0000D00F0000A1
:103750000102030405060708010203040506070821
:1037600000127A000204060804080C100810182041
:103770001020304020406080010203040506070845
:0837800001020304050607081D
:00000001FF
