:100000006F10005600000000000400001204000001
:1000100000000000000000000000000000000000E0
:1000200000000000000000000000000000000000D0
:1000300032040000000000005E1500000000000017
:100040005E1500005E1500005E1500005E150000E4
:100050005E1500005E1500005E1500005E150000D4
:100060005E1500005E1500005E1500005E150000C4
:100070005E1500005E1500005E1500005E150000B4
:100080005E1500005E1500005E1500005E150000A4
:100090005E1500005E1500005E1500000000000007
:0C00A000730050107D157DFD8280000073
:1000AC00511126C022C206C4828282441244A2404C
:1000BC00310182802A86014593F6150091C2329552
:1000CC0085810606F5F9828000000000634E05026A
:1000DC0063C305042E86AA857D5515C285466378B3
:1000EC00B6006356C00006068606E36CB6FE0145F4
:1000FC0063E4C500918D558D85820582F5FA828069
:10010C008682C93F2E8582823305A04063D70500C5
:10011C00B305B040C1B7B305B0408682653F330527
:10012C00A0408282868263C70500634905005D3763
:10013C002E858282B305B040E35B05FE3305A040FB
:10014C00513F3305B04082820000EFF27FF52A84E4
:10015C000146894537150140EF1080662285EF1066
:10016C009037A1B7B7F700E0D843799BD8C337973E
:10017C0098001307F76798CB23A407009847E37FF1
:10018C00E5FE23A407001307703E98CB8280EFF2A4
:10019C003FF17111AE8409E52E85453F110131B750
:1001AC00AA8537450F00130505242D379397540066
:1001BC00858F8A07A697AA851354150013953700C7
:1001CC00113FAA878144E38BF4FC0546894537151A
:1001DC0001403EC0EF10C05E22856937014689455B
:1001EC0037150140EF10C05D2285AD3F8504824775
:1001FC00D9BFEFF2FFEA51112E8411C109E6228515
:10020C00A93731015DB5AA8537450F0013050524C3
:10021C0032C2C93593175400818F8A07A297AA85D9
:10022C009354150013953700753512462AC0930761
:10023C0040061375F60F63F4C70013054006A68538
:10024C00953D930540067935B387A4403EC22A8478
:10025C0081470247E387E7FA054689453715014090
:10026C003EC4EF10E0552285F53D01468945371512
:10027C000140EF10E0541245F5352685E535A247CF
:10028C008507C1BFEFF2DFE1930500051305803E42
:10029C00FD3D930500051305C05DD53D39B5EFF265
:1002AC003FE09305600913050032D535FDBBEFF235
:1002BC003FDF930580021305004BD13DFDB3EFF2F8
:1002CC003FDE9305C0031305803ED1359305C00373
:1002DC001305C02B6D3DD1BBEFF29FDCE54513053B
:1002EC0080707535D9B3EFF2BFDB9305600413054D
:1002FC000032713D930560041305803E493D930522
:10030C00A0051305802561354DB3EFF27FD9930518
:10031C00800713050032A53D930580071305803E29
:10032C00BD359305000A130540519535BDBBEFF261
:10033C003FD7930560091305004B913D9305600968
:10034C0013054038A9359305400B130580258135DD
:10035C00A9BBEFF2FFD41306A00593050005130506
:10036C00C05D413D13058002EF10F0161306A00589
:10037C00930500051305C05DAD3D13058002EF101C
:10038C00901513066004930540061305004B953534
:10039C0029BBEFF2FFD01306A0059305000513054A
:1003AC000032813D13058002EF10F0121306A005F8
:1003BC0093050005130500322D3D13058002EF1047
:1003CC00901113066004930540061305803E153505
:1003DC00E9B9EFF2FFCC1306600493058002130514
:1003EC00803E013D13064006930500051305C05DD4
:1003FC00093565B9711122C0372400001305044B6F
:10040C00EF206004E5BF7111B707EFBE22C037E7DC
:10041C0000E0938707083CC7372400001305C44944
:10042C00EF206002E5BFB70700209387870498434D
:10043C00D0439306170033B7E6003297D8C394C362
:10044C00B7F700E023A2070073002030EFF25FC57E
:10045C003747000883570780035707C07111C2073D
:10046C0042074183AA84C1830DEB457713072711FB
:10047C00BA97B337F0003704020039043E9437378B
:10048C00000885071307E77FAA07BA972A047D5748
:10049C00636FF4001305000835A81305B00A9DEB33
:1004AC00C57793872711BA9793B71700E9B714400C
:1004BC006390E6042EC0EF10801B82452285EF105E
:1004CC0080242AC0EF10401C024591476306F500BA
:1004DC00420541811101D1BEEF106019A6851305AB
:1004EC002400EF1040222AC0EF10001A0245CDB7AD
:1004FC00110479BFEFF2DFBA71112AC0EF10201787
:10050C00024519CD37450008130505C0EF10201C16
:10051C002AC0EF106017024511014205418171B6E6
:10052C003745000813050580D5B7EFF27FB737259F
:10053C00000071111305054CEF10F0703725000009
:10054C0013050555EF103070B72400001385045ABD
:10055C00EF10706F3725000013050563EF10B06EB8
:10056C000145493F9147630CF5002A84372500006B
:10057C0013058566EF10306D228511013DB62AC03A
:10058C00372500001305856AEF10F06B3725000046
:10059C001305056DEF10306BEF10600D374500083B
:1005AC00814513050580EF1000162A84EF10C00D4D
:1005BC0002476307E40037250000130505725DBF91
:1005CC00372500001305C576EF10F06737250000BE
:1005DC001305C57AEF1030670545293F91472A84EA
:1005EC006311F502372500001305457EEF10B06549
:1005FC00373500001305C580EF10F0641385045ADD
:10060C0095BF3735000013050586FDB73747000841
:10061C0083570780035707C0AA86C2074207C183C6
:10062C00418389C71305B00A15E3854737070200D4
:10063C0039073E973736000885072A07AA0713069D
:10064C00E67FB29709076364F70005458280922321
:10065C006397C60083D7E7FF01459EA18280F117FF
:10066C00DDB7EFF2FFA3B747000803D70780138469
:10067C000780938407C083D707C042073D66C20733
:10068C0041831306E6EE7111C183630EC708C16680
:10069C00FD166303D7066314071463820714638F74
:1006AC00D70C1384C180FD5781443EC0B746000867
:1006BC0083D666C00A206316D50093970401C187C0
:1006CC003EC08247639EF40E85048D460904E39F69
:1006DC00D4FCEF00D079374500088145130505C0DF
:1006EC00EF106002420541812AC0EF00F07902450B
:1006FC0091476316F50A11A099E3014549A063904F
:10070C00C70E0145C53B9147631BF508EF003076DA
:10071C0081452685EF00307F420541812AC0EF00DC
:10072C00B0760245ADA8BDEF1384C180FD5781445E
:10073C003EC0B746000883D666800A206316D500F3
:10074C0093970401C1873EC08247639C970285043E
:10075C008D460904E39FD4FCEF0070713745000807
:10076C00814513050580EF00107A420541812AC0AE
:10077C00EF009071024591476313F50205459D3BCF
:10078C0039A89385818059350546E302C5FC9386CB
:10079C0081808E220A205D399146E30AD5FA110137
:1007AC006FF0BF9041677D17639BE7020545993356
:1007BC009147E316F5FEEF00906B8145228599BFBA
:1007CC0093858180A1350546E300C5F09386818031
:1007DC008E220A20A5399146E308D5EEC9B7B1336C
:1007EC00420541816DBFEFF2BF8B41112AC22EC46D
:1007FC00B139130700082A84631FE508B7470008BE
:10080C0083D4078003D707C093860780C2044207AE
:10081C00C180138407C04183D9C01304B00A25EFEB
:10082C00854436C0EF00B0640245BD659385E5EEA6
:10083C00EF00706D2AC6EF003065324791471314F4
:10084C0007016319F704A24512453AC60131324734
:10085C002A846312E5041387C1800A2392476392AA
:10086C00A704090793872181E399E7FE268559316F
:10087C001147AA84631AE504EF00705F02458145B5
:10088C00EF0070682AC0EF003060024563059500E8
:10089C00131405014180228541016FF01F8122C094
:1008AC0051B7938581803AC4953305462247E30AB4
:1008BC00C5FA938681808E220A23493E91462247AF
:1008CC00E301D5FA2A84C1BF2A84F1B7EFF24FFDB8
:1008DC005111054502C002C202C4EF00707DEF0049
:1008EC009040EF10604605651305459CEF100049DC
:1008FC00854513054003EF1080168545370500101C
:10090C00EF10C01737150140FD578A851305058078
:10091C007C8002C4EF0070620544C14491478A8513
:10092C00371501407C8026C422C2EF001061894734
:10093C008A85371501407C8026C422C2EF00F05F07
:10094C00930780048A85371501403EC4648022C217
:10095C00EF00B05E0546914537150140EF0050663B
:10096C001545EF10A0410146914537150140EF00A8
:10097C00306531016FF06FF3EFF28FF237340140D5
:10098C005111130504C08145EF10E020130504C07C
:10099C008145EF10C01E9147371401407C80C14740
:1009AC003EC48A858547130504803EC2EF00F0588B
:1009BC000146914513050480EF00906031016FF002
:1009CC00CFEEEFF2EFED41118545454502C002C275
:1009DC0002C402C6EF10A00891450945EF00306B28
:1009EC00C1473EC091473EC2B1473EC40A858547C8
:1009FC003EC6EF00304141016FF02FEBEFF24FEAB2
:100A0C001314050151114180AA842EC0228593052F
:100A1C00A10032C223150100D53E29C5373500008F
:100A2C00A68513058592EF10D01F92452285653B54
:100A3C00AA853735000013058594EF10901E930599
:100A4C00A1002285E1363085AA8637350000A685BF
:100A5C0013050596EF10F01C824712479AA331013B
:100A6C006FF0AFE4308537350000A6851305059986
:100A7C00EF10301B3C8502471EA3D5B7EFF24FE2B7
:100A8C00CD36373500001305C58DEF10D01B014650
:100A9C009385218305459D37373500001305858FD8
:100AAC00EF10701AB70500201306800C9385C50053
:100ABC000945A9373735000013054591EF10B018DB
:100ACC00B7050020130620039385E5000D453D373F
:100ADC006FF0AFDDEFF2CFDC130141FDC53BD53537
:100AEC00716513050520EF10002D37350000130537
:100AFC00859AEF105015B707002083A507023735EC
:100B0C0000001305459DEF10D0118D3F37340000C8
:100B1C001305849BEF10301383D5218337350000E8
:100B2C001305059FEF10F00FB707002083D5C70002
:100B3C00373500001305C5A0EF10B00EB706002026
:100B4C0083D5E600373500001305C5A2EF10700DF4
:100B5C001305849BEF10300F0565B7E700E023A069
:100B6C00A710B7F700E0D84393844183799BD8C38F
:100B7C001307703E98CB23A407002D4798C3930707
:100B8C0040069CC085451305558002C802CA02CC9C
:100B9C0002C202C42316010002CE02D002D202D439
:100BAC00EF00F06BE1473715014011473ECC0C08C4
:100BBC008D4713050580F8803AC03ECAEF00F03728
:100BCC009E20373401404C007C84130504C0A5479B
:100BDC003EC223150100EF00506CC16793870706D6
:100BEC0002473ECEBE206C08130504C02311F1024F
:100BFC002310E10202D2EF00306FA145130504C0AF
:100C0C00EF00707C8545130504C0EF00307AAE20F0
:100C1C00130504C0EF00907C8545130504C0EF005C
:100C2C0090778545130504C0EF0070758145130559
:100C3C0004C0EF00B07A8933130660049305800278
:100C4C001305803EEFF0EFDA13064006930500051E
:100C5C001305C05DEFF0EFD9130600059305800274
:100C6C001305004BEFF0EFD81306600493058002D8
:100C7C001305803EEFF0EFD713052003EF10A0050E
:100C8C0013064006930500051305C05DEFF06FD603
:100C9C0037350000130585A4EF10E07AB706002065
:100CAC009387E6003EC0C14537150140EF00B030D8
:100CBC0093878181982B133515006312A702814607
:100CCC00014794C7D8C7B42B3946982B636BD6060B
:100CDC000D668A061306068AB29694428286984757
:100CEC0003A3C700B7050020938585049441D04128
:100CFC00B365670081E594C7D0C7F1B73387E64089
:100D0C00B3B6E600330666406316D60093061003AE
:100D1C00E3FBE6FA88AB45BF0DC70547B8AB15A09A
:100D2C000D47B8AB37070020130787041043544313
:100D3C0090C3D4C339A055E30947B8ABB83B0507FA
:100D4C00B8BB03A781839384818311E385249440EA
:100D5C0005476393E60019219440094713840183E6
:100D6C006395E600B12B2310040094400D47639566
:100D7C00E60023100400C123984091476316F70046
:100D8C0023100400EF00C05F1E20638A07188247FF
:100D9C0037340140130504C08E23EF0030649147B3
:100DAC00FC8637150140E1473ED26C088D47130590
:100DBC0005803ED0EF0070188545130504C0EF0088
:100DCC00105C8545130504C0EF00F05C05469145A9
:100DDC0037150140EF00D01EF9B537070020130777
:100DEC008704104394434C43D843B306D640333561
:100DFC00D6003387E540098F6347E00039F31307CA
:100E0C00F07CE370D7F41147B8AB90C3CCC315BFDB
:100E1C00194729B719E3154711B7370700201307EE
:100E2C008704104394434C43D843B306D640333520
:100E3C00D6003387E540098F6348E000E31307F0E1
:100E4C001307703EE37FD7EE1D477DBF2147F9B5F1
:100E5C0019E32547E1B53707002013078704104332
:100E6C0094434C43D843B306D6403335D60033872E
:100E7C00E540098F6348E000E31507EC1307703E6B
:100E8C00E371D7EC1D47B8AB983B050798BBB5BFD2
:100E9C00A3890700294759B5B43BA38807002D4700
:100EAC00E39106E83547B5BDE31907E6370700209F
:100EBC0013078704104394434C43D843B306D640DE
:100ECC003335D6003387E540098F6348E000E31AD9
:100EDC0007E61307301FE376D7E6314735B73547BA
:100EEC00BAAB85B5E31B07E237070020130787046D
:100EFC00104394435843CC43B306D6403336D60004
:100F0C000D8F118F6348E000E31D07E21307703E5D
:100F1C00E379D7E2394719B5238907001DB5EFF0FE
:100F2C00BFA501466DB5EFF2AF9785450545EF00BE
:100F3C00103337053000854513050540EF00F008E8
:100F4C000545EF0050176FF04F969387818101474D
:100F5C008146D8C3D8C794C394C723A80700B70742
:100F6C0032009387470623AAF1828280EFF24F93D7
:100F7C00AA841305803EEF00105601446356940278
:100F8C000546914537150140EF009003EFF02FB166
:100F9C000146914537150140EF0090021305800C76
:100FAC00EF0070530504D9BF6FF02F90EFF24F8F05
:100FBC003704002093070406B82B89471304040652
:100FCC006316F70437350000130585ACEF10A04706
:100FDC00EFF08FB0814493950401C1811145EFF07E
:100FEC009F801147AA856308E500B7370000138579
:100FFC0007ADEF100043850413070008E39DE4FCE4
:10100C0003D701836306071223980182382891477E
:10101C00631EF70037350000130585AFEF10A042B3
:10102C00EFF0AFAE23AE01822398018238289D47A2
:10103C00631EF7029387C1838C4337350000130579
:10104C0005B085058CC3EF10C03DEFF0EFA8054649
:10105C00914537150140EF00A0761545EF00B047DC
:10106C000146914537150140EF0080753828A5479A
:10107C00631BF704373500001305C5B0EF10A03C17
:10108C0083A7C18305479384C1836396E700054515
:10109C0023ACF182E13D9C4009476396E70009458A
:1010AC0023ACF182E1359C400D476396E7000D457A
:1010BC0023ACF182653D9C4011476396E7001145D6
:1010CC0023ACF18265353828A947631EF700373504
:1010DC0000001305C5B1EF100037014691453715D7
:1010EC000140EF00E06D3828B1476317F7042C3846
:1010FC0037350000130505B4EF10A032383895478A
:10110C00631CF702EFF0AFA2EFF06FA2EFF02FA28B
:10111C00EFF0EFA19307800873B007300F100000B9
:10112C00B707EFBE37E700E0938707083CC701A07D
:10113C0005472398E182D9BD3828B947631EF700CB
:10114C0037350000130585B2EF10E02FEFF0AF99A3
:10115C0083D7018391E3C13B6FE03FF5EFE25FF48E
:10116C00B704002093870406B82BB14761116316AE
:10117C00F714B707002003D5E700954593840406C0
:10118C00EFE05FF5AC38131405013735000013059B
:10119C0045B3EF100029B438B707002005473EC00F
:1011AC0041806397E6020504D14763D1870CEFF0C9
:1011BC004F9A51440247AC3893172400373500003E
:1011CC00A2972286130505B52317F700EF106025AB
:1011DC00B8388947631FF70023AC0182EFF02F95D5
:1011EC000146914537150140A3880400239904005A
:1011FC00C12BB8388D476316F702854763DB87062A
:10120C007D14EFF0CF8A0247AC38931724003735A2
:10121C000000A2972286130585B62317F700EF105E
:10122C004020B83891476319F7043735000013058F
:10123C0005B8EF1040211305803EEF00D0298147FF
:10124C003EC0630BF40205469145371501408D2BCA
:10125C00EFF0EF86014691453715014095231305B4
:10126C00C012EF00502782478507D9BFEFF02F84BB
:10127C0091B7EFF00F9241BFB8389547631FF70253
:10128C00EFF02F95EFF0EF94930540060D45EFF03E
:10129C008FD5AA8537350000130585B8EF10601877
:1012AC00930561000D45EFF06FB63083AA85373595
:1012BC000000130585B9EF10C01621016FE0FFDEA9
:1012CC00EFE21FDE83D72183054691E3014691456A
:1012DC0037150140F5213704002093070406B82B7D
:1012EC00B147130404066316F7042C383735000095
:1012FC00130505B4EF10E01238388547631AF70070
:10130C0083D7218393B717002399F182EFE09FF7DE
:10131C0038388947631FF70023AC0182EFF02F8127
:10132C000146914537150140A30804002319040018
:10133C0041296FE09FD703C7A1829147631AF70039
:10134C00EFE21FD623AC0182EFE07FFE6FE0FFD50A
:10135C008280EFE2FFD4711101442AC06357A400CC
:10136C00EFE09FF705040245CDBF11016FE0FFD3FD
:10137C00EFE21FD323AC0182EFE01FF66FE0FFD248
:10138C00EFE21FD23704002093070406B82B9147D5
:10139C0013040406631EF70037350000130505A57A
:1013AC00EF10600AEFE07FF623A0018423980182FE
:1013BC0038289D47631CF702938701848C4337358B
:1013CC000000130585A685058CC3EF108005EFE0A2
:1013DC00BFF00546914537150140DD261545EF0058
:1013EC00900F0146914537150140D92E3828A54755
:1013FC006316F70237350000130545A8EF10A0045B
:10140C0083A7018437350000130545AA939517006F
:10141C00BE958E05BE958605EF10A0003828B14705
:10142C00631BF7022C3837350000130505B4EF00A9
:10143C00507F383889476313F7001D3F38388D4784
:10144C00631BF70037350000130585ABEF00B07F49
:10145C0003A50184FD3D6FE05FC5EFE27FC4371447
:10146C0002401C403707FFF8414593E717001CC0AA
:10147C005C40F98F5CC01C403707F7FE7D17F98F75
:10148C001CC01C403707FCFF7D17F98F1CC05C404B
:10149C0041777D17F98F5CC0B7079F001CC43123BF
:1014AC001C4C93E707021CCCB717014003A707405D
:1014BC00938607401377F7F023A0E74003A7074074
:1014CC001367070823A0E74089479CCAB727024047
:1014DC009843719B98C3984398C35C4093E7070269
:1014EC005CC06FE09FBCEFE2BFBB371702405C43B0
:1014FC00370400209146B18B130404026385D70096
:10150C00A1466382D704B7376E01938707601CC06E
:10151C00B7160240DC420840918313F7F700B70777
:10152C00002093870701BA978C23DC4293F5F50FC3
:10153C0093F707083357B50081E7EFE0BFB92A8767
:10154C0018C06FE09FB65C43B777DC02938707C087
:10155C007DBF01A097F1FF1F9381812E138181FB29
:10156C001305000A97F5FF1F938505A917F6FF1FB2
:10157C00130646A963FAC5008322050023A0550073
:10158C0011059105E3EAC5FE171500001305C562A8
:10159C0097F5FF1F938505A717F6FF1F130646AA9D
:1015AC0063FAC5008322050023A05500110591059F
:1015BC00E3EAC5FE17F5FF1F130585A89385C184C3
:1015CC006377B500232005001105E36DB5FEB72246
:1015DC00000093820288739002308D427390428097
:1015EC0097F2FFFF938242A193E232007390523044
:1015FC00EFF0BFE697F2FFFF9382024E7390123426
:10160C00730020305841032305004C453706014038
:10161C00930706403E979346F3FFB1C583250640DA
:10162C00F58D2320B640D043F18ED4C31443B3E6DA
:10163C00660014C3184190479346F7FF758E90C708
:10164C00D047F18ED4C7144541466399C6009447E0
:10165C00D98E94C7D447558FD8C78280B6979443F8
:10166C00558F98C382801C43F58F1CC38280B707AB
:10167C00674537270240938737125CC3B797EFCD86
:10168C009387B79A5CC38280372702401C4B93E741
:10169C0007081CCB8280372702405C470545858BA9
:1016AC0091E748474189133515000D058280EFE21B
:1016BC003F9F2A84CD3785476318F50019E01545FF
:1016CC0029A0D13F7D14C5BF7DD86FE01F9EEFE2EE
:1016DC003F9DAA8437050B00D93F91476313F50250
:1016EC00372402401C4837050B0093E727001CC821
:1016FC0044C81C4893E707041CC8553F1C48F59B7D
:10170C001CC86FE09F9AEFE2BF997111AA8409651A
:10171C002EC0713F91478245631EF500372402406D
:10172C001C48096593E717001CC88EA049371C4854
:10173C00F99B1CC811016FE05F97944593F7060164
:10174C0093F2F60081C7DC41B3E2F20083D30500CB
:10175C0093F7F30FA5C303230500611122C226C022
:10176C008147130480029304800405473316F70065
:10177C0033F7C3006312E602939527003D473317F6
:10178C00B7001347F7FF33736700B395B20033E329
:10179C006500639D860050C985072147E397E7FCE8
:1017AC00124423206500824421018280E39696FE38
:1017BC0010C9DDB7828008456D8D3335A00082805D
:1017CC0019C20CC982804CC982803703014003279F
:1017DC0043009317350063D00702B707C0FFF51716
:1017EC00F98F37070007D98FD9CD370700F07D1750
:1017FC00798DC98F49A8635D0500B707E0FFED1728
:10180C00F98F37070007D98FBDCD06050581D5B7F0
:10181C00B7073000931605013376F500C1826313C8
:10182C00F602370600F97D16B377C700032743008D
:10183C00798E2322C300A1C9558113174500339516
:10184C00E60045BF9317B50063D407029357050113
:10185C0013F6F7008D47B397C70093C7F7FFF98FBF
:10186C0037070007D98F85C1135755011207C1BF20
:10187C00558112053395A6009347F5FFF98F37076D
:10188C000007D98FBDF5370701405CC3828037074D
:10189C000140144786058D47B397B70093C7F7FFF0
:1018AC00F58F1CC71C47B315B500DD8D0CC78280A6
:1018BC0023A2A1848280EFE2AFFEB7770040984369
:1018CC00759B98C398431367270098C3B7F700E03C
:1018DC0003A707D11367470023A8E7D003A707D1B5
:1018EC00118B45C39307800873B007300F100000AD
:1018FC00B707014083A4474003A7074083A647408E
:10190C00558F23A2E74037F400E0032704D1832747
:10191C0004D14D451377070293E787022328F4D0AF
:10192C00832704D193F7F7FDD98F2328F4D083278D
:10193C0004D193E787002328F4D097E0FF1FE780BA
:10194C00A06B832704D14D4593E787002328F4D05F
:10195C0097E0FF1FE780406A832704D1918BA1C3D6
:10196C00B707014023A297409307800873A0073064
:10197C0037F700E0832707D1ED9B2328F7D06FE0E2
:10198C00CFF203A707D11367070123A8E7D093076A
:10199C00800873B007300F1000008144ADB7832767
:1019AC0004D1BD9B2328F4D0C1B7371702401C4388
:1019BC000E0593F777F05D8D08C38280EFE24FEE52
:1019CC00371702405C4391462A84B18B6385D7005C
:1019DC00A1466380D708B7376E01938707601CC098
:1019EC00B7160240DC42918313F7F700B7070020CB
:1019FC0093878703BA978C23DC42184093F5F50F35
:101A0C0093F707083355B70081E73A85EFE08FEC81
:101A1C0048C008C448C4B7170240DC438D46AD83A8
:101A2C00FD8B13D737008A07F18BD98F13F637014B
:101A3C0013F7370063F4C600138747FFB70700207E
:101A4C0093874702BA978C23EFE0CFE808C86FE082
:101A5C00CFE55C43B777DC02938707C049B799C5DC
:101A6C00371702401C4F5D8D08CF8280B71702409C
:101A7C00984F1345F5FF798D88CF828099C537171C
:101A8C0002405C4F5D8D48CF8280B7170240D84F23
:101A9C001345F5FF798DC8CF82801E213737014061
:101AAC00130707C0C207C1836306E5003707004070
:101ABC006316E500BA2193F7F7F8D98FFA2193F75B
:101ACC00F7CFC207C183D98F1EA1DE215EB59E213F
:101ADC001EB5B7370140938707C06314F5009C25EA
:101AEC001EB985475EA982801E3165771307F7CF33
:101AFC00C207C183BD9BC207C1831EB11E315621D3
:101B0C0003D38500C20713960601162DC18393F7E4
:101B1C00F7FD758F96214182A206558FB62142079B
:101B2C004183B3E666009206D58FB7360140C207F3
:101B3C00938606C0C183631ED502B62593F7F7F7CB
:101B4C0003D3C5009206D58FD621C207C183920656
:101B5C0093F7F7FBD58FFD769386F63FF18EF22542
:101B6C00C207C183336666000A06D18E139606013E
:101B7C00418252A11AADFA2118DD1EB182801E21BC
:101B8C0089C593E717001EA18280C207C183F99B08
:101B9C00C207C183CDBF8357450491C52167D98F37
:101BAC002312F5048280C607C583DDBF1E2189C5BB
:101BBC0093E707081EA18280C207C18393F7F7F74A
:101BCC00C207C183C5BF1A2DFD779387F77FF98FA5
:101BDC00A205CD8FC207C1831EAD82800CDD828031
:101BEC00EFE20FCC1629F577FD17F58FF621DA25E4
:101BFC002111D58F1EA95625FD779387379FF58F19
:101C0C00D6212A842EC0D58F9625D58FB625D58F73
:101C1C005EA55E29C207C18393F7F7CF5D8F5AA9E2
:101C2C004800EFF0BFD9B747014093870780824542
:101C3C006312F406C2475A24139517003E954207C7
:101C4C000E0541873E958C41635807048605EFE0ED
:101C5C006FC8930540062AC0EFE0CFC782479314A4
:101C6C004500930540063E85EFE08FC95E24C20710
:101C7C00C18763D507020E0593054006130525039E
:101C8C00EFE04FC51D89C98CC204C18006A4610157
:101C9C006FE0AFC1B24745B78A0555BF1205930532
:101CAC00400613052503EFE0EFC23D89E9BF91C55E
:101CBC005E250967D98F5EA582805A25F977FD17B5
:101CCC00F98FD5BF93F5F51F4EA182800A216D8D3A
:101CDC003335A000828037F700E05443311193076D
:101CEC007100F99A54C39306703E14CB2324070059
:101CFC00AD4614C337070020930687049042D442A4
:101D0C00E19B90C7D4C78C47D0479356F54133031A
:101D1C00B5003335A300B385C600B306B50023A0C8
:101D2C006700D4C31307870403A30700484383A3A6
:101D3C00470063E7A3006317750014436374D30073
:101D4C00510182800100CDB7EFE28FB5B7070020BB
:101D5C0003A50702B7157A0093850520EFE08FB72E
:101D6C001375F50F2385A18493175500898F8A0766
:101D7C003E950E052394A1846FE02FB3EFE24FB292
:101D8C0037F400E05C40AA85F99B5CC003D58184E4
:101D9C00EFE04FB208C8232404001C4093E717005F
:101DAC001CC0B7F700E0D843058B75DF9843799BCF
:101DBC0098C36FE08FAFEFE2AFAE2A8411651111BB
:101DCC00854513051502EFF09FC985453705208021
:101DDC00EFF0BF9F930700047C80371501408D47BF
:101DEC003EC28A85E147130505403EC4EFF0FF94DF
:101DFC0022C637440140B70708006C001305048065
:101E0C003ECA02C8231C0100EFF09FDD8545130577
:101E1C000480EFF0DFE971016FE02FA9EFE24FA82A
:101E2C007111AE840144635FC402B747014013874C
:101E3C0007803A859305000432C0EFF03FE9B747BD
:101E4C0001401387078002466DD5338784008305D4
:101E5C000700138507800504C205C181EFF09FE6DA
:101E6C000246D1B7328511016FE02FA4411106C68D
:101E7C002EC00DCD1841AA8705C358417D5511CBF5
:101E8C008546631BD70098472300070023A2070051
:101E9C000545B240410182809847824614A3984779
:101EAC00050798C7D8437D17D8C3DDB705468A8583
:101EBC00B537F9BF011122CC2EC206CE26CA2A8410
:101ECC00814793050002634506029245BE958385C2
:101EDC0005008DE563D8C70263D4E702198E13059C
:101EEC00000293F526002AC089C501E7930500037B
:101EFC002EC0858A814495EAB2840DA08507F1B77E
:101F0C001D8EF1BF0146E1BF824522853AC832C61B
:101F1C003EC4A93FA24732464247FD14E34690FE19
:101F2C00B284635306008144058E63C7E702A6871B
:101F3C009246338797403697830507009DEDB28410
:101F4C0063469004635306000146F2406244D24457
:101F5C003305F600056182801D8FBA879305000357
:101F6C00228532C83EC63AC4EFF05FF0B247224732
:101F7C004246FD17E5F7BA945DBF228532C63EC4D2
:101F8C00EFF0DFEEA247324685075DB7824522852A
:101F9C0032C43EC2EFF09FEDFD14224692474DB77E
:101FAC00397106DE22DC26DA3EC232833A8691EDA6
:101FBC0092469307000301476C08FC86EFF09FEFF5
:101FCC00F2506254D25421618280AA843684AE8746
:101FDC0091CA294701446317E30063D50500B30791
:101FEC00B04005448646A3090102130731039386CA
:101FFC0066FC36C49A853E8532CA3AC81AC63EC0BB
:10200C00EFE00F90A546824732434247524663D4D5
:10201C00A600A2463695130505039306F7FFA30FFA
:10202C00A7FE9A853E8532CC3ACA1AC83EC636C03F
:10203C00EFE04F8AB24742435247624663FD670462
:10204C0009CC29CE9247898BB1CB9305D00226853A
:10205C0032C4EFF0BFE122467D169247918B85C7C3
:10206C0006479307100632C49305000326856311B7
:10207C00F704EFF0BFDF930580072685EFF01FDF35
:10208C002246090479161647924682452685EFF0BA
:10209C007FE2229535B7AA870247A9BF82469307EC
:1020AC00D0020144A38FF6FE9307E7FF3EC075B73D
:1020BC00EFF0DFDB93058005C9B701458280014550
:1020CC008280130181FD22D026CE06D22AC4AE8294
:1020DC00328402C681448385020091EDA24789C7F0
:1020EC0081453E85EFF09FD8925002542685F244EC
:1020FC00130181028280930750026389F500224507
:10210C0016C88504EFF09FD6C24205A08387120043
:10211C0013871200639DB7002245930550023AC8FD
:10212C00EFF0DFD442478504BA8285026DB7DDD764
:10213C009306B0026389D70463C8F6009306300295
:10214C006386D704814705A09306D002638AD70023
:10215C0093060003E398D7FE13872200894721A03A
:10216C00138722008547830607001306B00263839A
:10217C00C6046341D60213063002638BC602BA82D0
:10218C000145A54681A0138722006DBF138722004D
:10219C009147D1BF1306D0026389C6001306000312
:1021AC00E39FC6FC93E7270031A005078547C1BF15
:1021BC0093E747000507E1B713162500329506058E
:1021CC003A95850203860200130706FD9375F70FF7
:1021DC00E3F4B6FE1307E0029946631EE60085029F
:1021EC008146A54503860200130606FD1377F60FFC
:1021FC0063F5E50236C6038702001306A006630DDD
:10220C00C70A6343E6021306C0046307C70A130632
:10221C008006630CC70881452DA813972600BA9633
:10222C008606B29685027DBF130640076306C70873
:10223C001306A0076302C7081306C0068145631A7C
:10224C00C700038612008D456314E6008502914594
:10225C00850203860200930300061307100663C46D
:10226C00C300130710049303700663C4C3069303DF
:10227C005006635676189303700463C1C304930528
:10228C005004635EB61613073004E310E6EA1840F8
:10229C009303440016CA230CE1001EC8A30C0100D2
:1022AC000147BE862A862C0849A803861200814560
:1022BC00E311E6FA890271BF8502B1BF93063006BD
:1022CC00E307D6FC63CFC606930680056303D602EC
:1022DC00A9BD930630076304D60463CBC6029306EC
:1022EC00F0066305D60E9306000793E74700E31E3E
:1022FC00D6E291466392D50C930384000C40504077
:10230C0016CA3AC23EC01EC8AA870147C14681A858
:10231C0093065007630BD6069306800745BF1840FB
:10232C00B736000093034400938546BB11C3BA85AE
:10233C00324716CA1EC8BE862A862245EFF09FB7C2
:10234C0015A091466395D502930384000C40504030
:10235C0016CA3AC23EC01EC8AA870547A9462245DE
:10236C00EFF0BFD5C243AA941E84D2427DBBB246C5
:10237C000C4016C836C23AC011042A878546294635
:10238C002245EFF0FFC1AA9441B39146639DD5005D
:10239C00930384000C40504016CA3AC23EC01EC87B
:1023AC00AA87014765BFB2460C4016C836C23AC070
:1023BC0011042A878146E1B7B24616C80C40414643
:1023CC0036C23AC011042A8781465DBF9146639E8E
:1023DC00D500930384000C40504016CA3AC23EC04C
:1023EC001EC8AA870147A1469DBFB2460C4016C81D
:1023FC0036C23AC011042A878146214651B70C4097
:10240C001306840040403AC22A87224532C83EC097
:10241C002286B687A94616CAEFF07FCAAA94424410
:10242C00A9B71301C1FD2EC832CAAA8510080145EF
:10243C0006C636CC3ACE3ED032C0EFF09FC8B24082
:10244C00130141028280411122C426C206C61C21FE
:10245C00AA840144DC8183073100050499EFA94764
:10246C009305310005460145DC81EFF03F9B228549
:10247C00B2402244924441018280054693053100CA
:10248C000145EFF0BF99B38784009C23DC81E1B751
:10249C00486172644661756C745F48616E646C650A
:1024AC00720D00004E4D495F48616E646C65720D93
:1024BC00000000005B454550524F4D3A464F524D7F
:1024CC0041545D20E29594E29590E29590E29590CE
:1024DC00E29590E29590E29590E29590E29590E2EB
:1024EC009590E29590E29590E29590E29590E29528
:1024FC0090E29590E29590E29590E29590E295901D
:10250C00E29590E29590E29590E29590E29590E2BA
:10251C009590E29590E29590E29590E29590E295F7
:10252C0090E29590E29590E29590E29590E29590EC
:10253C00E29590E29590E29590E29590E29590E28A
:10254C00959700005B454550524F4D3A464F524DC2
:10255C0041545D20E295912020202020D0A4D09ED3
:10256C00D0A0D09CD090D0A2D098D0A0D09ED09209
:10257C00D090D09DD098D09520454550524F4D20AD
:10258C0020202020202020202020202020E2959197
:10259C00000000005B454550524F4D3A464F524D9E
:1025AC0041545D20E2959AE29590E29590E29590E7
:1025BC00E29590E29590E29590E29590E29590E20A
:1025CC009590E29590E29590E29590E29590E29547
:1025DC0090E29590E29590E29590E29590E295903C
:1025EC00E29590E29590E29590E29590E29590E2DA
:1025FC009590E29590E29590E29590E29590E29517
:10260C0090E29590E29590E29590E29590E295900B
:10261C00E29590E29590E29590E29590E29590E2A9
:10262C00959D00005B454550524F4D3A464F524DDB
:10263C0041545D20D0A8D0B0D0B320312F333A20F4
:10264C00D0A1D182D0B8D180D0B0D0BDD0B8D0B5C7
:10265C002050616765302E2E2E0000005B454550E2
:10266C00524F4D3A464F524D41545D20E29D8C20C5
:10267C00D09ED188D0B8D0B1D0BAD0B020D0BFD1F4
:10268C0080D0B820D181D182D0B8D180D0B0D0BD8B
:10269C00D0B8D0B820506167653021005B454550FB
:1026AC00524F4D3A464F524D41545D20E29C93207F
:1026BC00506167653020D181D182D0B5D180D18273
:1026CC00D0B000005B454550524F4D3A464F524DED
:1026DC0041545D20D0A8D0B0D0B320322F333A2053
:1026EC00D0A3D181D182D0B0D0BDD0BED0B2D0BA1F
:1026FC00D0B020506167653020D0BAD0B0D0BA20AD
:10270C00D0B2D0B0D0BBD0B8D0B4D0BDD0BED0B980
:10271C002E2E2E005B454550524F4D3A464F524D92
:10272C0041545D20E29D8C20D09ED188D0B8D0B190
:10273C00D0BAD0B020D0BFD180D0B820D0B7D0B0D4
:10274C00D0BFD0B8D181D0B820D181D182D0B0D176
:10275C0082D183D181D0B0205061676530210000D7
:10276C005B454550524F4D3A464F524D41545D20BA
:10277C00E29C9320506167653020D0BFD0BED0BCA6
:10278C00D0B5D187D0B5D0BDD0B020D0BAD0B0D0D4
:10279C00BA2056414C49445F504147450000000067
:1027AC005B454550524F4D3A464F524D41545D207A
:1027BC00D0A8D0B0D0B320332F333A20D0A1D182BF
:1027CC00D0B8D180D0B0D0BDD0B8D0B520506167D2
:1027DC0065312E2E2E0000005B454550524F4D3A70
:1027EC00464F524D41545D20E29C932050616765E9
:1027FC003120D181D182D0B5D180D182D0B000002E
:10280C005B454550524F4D3A464F524D41545D2019
:10281C00E29C9320D0A4D0BED180D0BCD0B0D182C9
:10282C00D0B8D180D0BED0B2D0B0D0BDD0B8D0B599
:10283C0020D0B7D0B0D0B2D0B5D180D188D0B5D05F
:10284C00BDD0BE20D183D181D0BFD0B5D188D0BD71
:10285C00D0BE00005B454550524F4D3A464F524D4D
:10286C0041545D20E29D8C20D09ED188D0B8D0B14F
:10287C00D0BAD0B020D0BFD180D0B820D181D182F5
:10288C00D0B8D180D0B0D0BDD0B8D0B8205061670E
:10289C0065312100240D00002C0D0000A00E00005D
:1028AC00420D00001C0E00009C0E0000200E0000CB
:1028BC00580E00005C0E00009C0E0000A40E0000E0
:1028CC00B40E0000EA0E0000F00E0000240F000011
:1028DC002E5245414420434F4E46494720426F6F8C
:1028EC00737420456E61626C650D00002E5245417B
:1028FC004420434F4E46494720426F6F7374205417
:10290C00696D650D000000002E5245414420434F77
:10291C004E46494720506F7765720D004545505221
:10292C004F4D2069643A25642021204E6F7420504D
:10293C00726573656E7420210D0A00004545505276
:10294C004F4D205361766520636F64653A25640AA8
:10295C0000000000454550524F4D20566572696687
:10296C0069636174696F6E2069643A2564205661ED
:10297C006C75653A20256420636F64653A25640D97
:10298C000A000000454550524F4D2069643A2564B9
:10299C002056616C75653A25640D0A000D0A2D2DC3
:1029AC002D2D2D2D2D2D2D2D2D2D2D2D2D2D2D2D4B
:1029BC002D2D2D2D2D2D2D2D2D2D2D2D2D2D2D2D3B
:1029CC002D2D2D2D2D0D0000D09FD180D0B8D0B243
:1029DC00D0B5D1822053797374656D436C6B3A25F5
:1029EC00640D0A00434F4E46494720426F6F737483
:1029FC0020456E61626C65203A2025640D0A00004A
:102A0C00434F4E46494720426F6F73742054696D93
:102A1C00652020203A202564206D730D0A000000EB
:102A2C00434F4E46494720506F7765722020202037
:102A3C00202020203A2025640D0A0000476F2E2EFE
:102A4C002E0D00003E2053637265656E426F6F73EE
:102A5C007454696D6520486F6C640D003E2053639F
:102A6C007265656E426F6F737454696D6520537433
:102A7C0065702025640D0A003E2053637265656EF7
:102A8C00426F6F737454696D652072656C65617308
:102A9C0065537465700D0000426F6F737454696DEB
:102AAC00653A202564206D730A0000006765744345
:102ABC006C69636B73203D3D20330D00436C69637F
:102ACC006B0D0000454550524F4D20D09ED188D003
:102ADC00B8D0B1D0BAD0B020D0B7D0B0D0BFD0B869
:102AEC00D181D0B82025640A00000000486F6C64C6
:102AFC000D000000537465702025640D0A00000061
:102B0C0072656C65617365537465700D000000002F
:102B1C0052656C656173650D0000000054696D654C
:102B2C006F75740D0000000053637265656E506F15
:102B3C0077657220436C69636B733A2025640D0AC8
:102B4C00000000002B2B20436C69636B733A20252B
:102B5C006420696D703A25640D0A00002D2D204308
:102B6C006C69636B733A20256420696D703A256437
:102B7C000D0A00005374617475730D005361766512
:102B8C00207265733A25640D0A0000005361766566
:102B9C002069643A33207265733A25642076616C3F
:102BAC0075653A25640D0A00286E756C6C29000059
:042BBC00560F0000B0
:102BC00064000A0001020304050607080102030469
:102BD0000506070800127A000204060804080C1013
:102BE00008101820102030402040608001020304AB
:0C2BF0000506070801020304050607089B
:00000001FF
