:100000006F00903E000000005601000068010000F3
:1000100000000000000000000000000000000000E0
:1000200000000000000000000000000000000000D0
:100030008801000000000000E60B00000000000046
:10004000E60B0000E60B0000E60B0000E60B0000EC
:10005000E60B0000E60B0000E60B0000E60B0000DC
:10006000E60B0000E60B0000E60B0000E60B0000CC
:10007000E60B0000E60B0000E60B0000E60B0000BC
:10008000E60B0000E60B0000E60B0000E60B0000AC
:10009000E60B0000E60B0000E60B0000000000008D
:0C00A000730050107D157DFD8280000073
:1000AC00511126C022C206C4828282441244A2404C
:1000BC00310182802A86014593F6150091C2329552
:1000CC0085810606F5F9828000000000634E05026A
:1000DC0063C305042E86AA857D5515C285466378B3
:1000EC00B6006356C00006068606E36CB6FE0145F4
:1000FC0063E4C500918D558D85820582F5FA828069
:10010C008682C93F2E8582823305A04063D70500C5
:10011C00B305B040C1B7B305B0408682653F330527
:10012C00A0408282868263C70500634905005D3763
:10013C002E858282B305B040E35B05FE3305A040FB
:10014C00513F3305B04082820000711122C0400043
:10015C00896713850787EF10206CDDBF711122C0F2
:10016C004000B7E700E03707EFBE13070708B8C732
:10017C00896713850788EF10206ADDBF711122C0D3
:10018C004000B707002003A7870483A7C7040545D1
:10019C0081453306A70032833333E300B386B700BF
:1001AC00B307D300BE863287B687B706002023A4D8
:1001BC00E60423A6F604B7F700E023A2070001002B
:1001CC000244110173002030611122C22000232C43
:1001DC00A4FE832784FF8146014794C3D8C3832799
:1001EC0084FF94C7D8C7832784FF238807008327FD
:1001FC0084FFA3880700832784FF238907008327B4
:10020C0084FFA3890700010012442101828061113F
:10021C0022C22000232CA4FE832784FFBC2BFD17B5
:10022C0093B7170093F7F70F3E8512442101828094
:10023C00611122C22000232CA4FE832784FFBC2B37
:10024C00F91793B7170093F7F70F3E851244210166
:10025C008280611122C22000232CA4FE832784FFFC
:10026C00BC2BF11793B7170093F7F70F3E85124489
:10027C0021018280611122C22000232CA4FE83273D
:10028C0084FFBC2BED1793B7170093F7F70F3E8540
:10029C00124421018280611122C22000232CA4FE71
:1002AC00832784FFBC2BE51793B7170093F7F70F41
:1002BC003E85124421018280611122C22000232C30
:1002CC00A4FE832784FFBC2BDD1793B7170093F78D
:1002DC00F70F3E85124421018280611122C2200059
:1002EC00232CA4FE832784FFBC2BD91793B71700AC
:1002FC0093F7F70F3E85124421018280611122C2CF
:10030C002000232CA4FE832784FFBC2BD11793B78A
:10031C00170093F7F70F3E8512442101828061117B
:10032C0022C22000232CA4FE832784FFBC2BC917D8
:10033C0093B7170093F7F70F3E8512442101828083
:10034C00611122C22000232CA4FE832784FFBC3B16
:10035C003E85124421018280311106C822C6400814
:10036C002328A4FEAE87A307F4FE832704FF982B53
:10037C008347F4FE6319F700832704FF8146014786
:10038C0094C7D8C7BDA0832704FF8847CC47AA874A
:10039C00CD8F91EFB707002083A787043E8381435D
:1003AC00832704FF23A4670023A6770099A0B7072F
:1003BC00002083A787043E868146832704FF884755
:1003CC00CC473307A6403A8333336600B387B64035
:1003DC00B3866740B687BE866348D000BE8691EA76
:1003EC009307100363F7E7000347F4FE832704FF2A
:1003FC0098AB832704FF9C2BB337F00093F7F70FD0
:10040C00BE85032504FF3920AA873E85C2403244AD
:10041C0051018280211106CA22C820082326A4FE7D
:10042C00AE87A305F4FE8327C4FEBC2BA309F4FE00
:10043C008327C4FEBC2B39476366F7241397270028
:10044C0089679387878FBA979C4382878347B4FECB
:10045C00638F07208327C4FE0547B8AB09AC8327FD
:10046C00C4FE0D47B8AB0325C4FE9D2C21AC8347BD
:10047C00B4FE93C7170093F7F70F99CF8327C4FEE9
:10048C000947B8AB8327C4FEBC3B850713F7F70FAE
:10049C008327C4FEB8BBF1AA0325C4FE21242A87F6
:1004AC00AE8785463E866349C0003E8609E69307C3
:1004BC00703E63E3E700814693F7F60F638B071AF0
:1004CC008327C4FE1147B8AB0325C4FE112C55A2DB
:1004DC008327C4FE1947B8AB75A28347B4FE93C7F4
:1004EC00170093F7F70F91C78327C4FE1547B8ABD6
:1004FC0059A20325C4FE7D222A87AE8785463E86F7
:10050C006349C0003E8609E69307F01863E3E700F1
:10051C00814693F7F60F638007168327C4FE1D47A9
:10052C00B8AB0325C4FE6D2AB9A28327C4FE2147AC
:10053C00B8AB89AA8347B4FE93C7170093F7F70F9C
:10054C0091C78327C4FE2547B8AB05AA0325C4FE73
:10055C00912A2A87AE8785463E866349C0003E862F
:10056C0009E69307703E63E3E700814693F7F60FC5
:10057C00638507108327C4FE1D47B8AB8327C4FED1
:10058C009C3B850713F7F70F8327C4FE98BB032505
:10059C00C4FEB922DDA08327C4FEA38907008327EC
:1005AC00C4FE2947B8ABF9A88327C4FEA38807006B
:1005BC008327C4FEBC3B99C3AD4711A0B5470327A5
:1005CC00C4FE3CAB0325C4FE212A6DA88347B4FEB0
:1005DC0091C78327C4FE0547B8AB55A00325C4FEBD
:1005EC00D1202A87AE8785463E866349C0003E8669
:1005FC0009E69307301F63E3E700814693F7F60F94
:10060C00BDCF8327C4FE3147B8AB0325C4FEC92830
:10061C00BDA08327C4FEA38907008327C4FE3547EA
:10062C00B8AB8DA08347B4FE91C78327C4FE0547A2
:10063C00B8AB81A80325C4FEB5202A87AE878546B2
:10064C003E866349C0003E8609E69307703E63E32D
:10065C00E700814693F7F60F8DC78327C4FE394711
:10066C00B8AB05A08327C4FE2389070021A801008D
:10067C0011A8010001A8010031A0010021A0010076
:10068C0011A001008327C4FEBC2B034734FFB30722
:10069C00F740B337F00093F7F70F3E85D240424452
:1006AC0061018280611122C22000232CA4FEB707B5
:1006BC00002083A787043E868146832784FF8843D6
:1006CC00CC433307A6403A8333336600B387B64036
:1006DC00B3866740B6873A85BE8512442101828075
:1006EC00611122C22000232CA4FEB706002083A691
:1006FC00860436878147832684FF98C2DCC20100BA
:10070C00124421018280411106C622C4000823280C
:10071C00A4FE832704FF3E85453C0100B2402244E1
:10072C0041018280411106C622C426C2000823283A
:10073C00A4FE832404FF032504FF2128AA87BE8579
:10074C0026851939AA873E85B2402244924441013C
:10075C008280411106C622C400082328A4FEC1458C
:10076C00371501403925AA8793B7170093F7F70F70
:10077C003E85B240224441018280130181FD06D2A4
:10078C0022D02010232204FE232404FE232604FE60
:10079C00232804FE232C04FC232E04FC232004FE1B
:1007AC0085454545EF00700791450945792DC147B1
:1007BC002322F4FE91472324F4FEC1472326F4FEA2
:1007CC0085472328F4FE930744FE3E85C121010092
:1007DC0092500254130181028280111106CC22CA5C
:1007EC006008232204FE232404FE232604FE054570
:1007FC00B52DB52EEF0070151305401FEF00301806
:10080C00854513054003EF00500185453705001061
:10081C00EF009002FD572312F4FE232604FE9307EB
:10082C0044FEBE85B717014013850780E921930765
:10083C0044FEBE85B7170140138507406D29930709
:10084C0044FEBE85371501407D2191472312F4FEED
:10085C00C1472326F4FE85472324F4FE930744FE68
:10086C00BE8537150140412989472312F4FEC14743
:10087C002326F4FE85472324F4FE930744FEBE850D
:10088C00371501408D29C1472312F4FE93078004CC
:10089C002326F4FE85472324F4FE930744FEBE85ED
:1008AC003715014089290546894537150140F9213D
:1008BC000546914537150140D1211545EF00300C07
:1008CC000146894537150140552901469145371593
:1008DC0001406D215D35F16713850720EF00D00DC8
:1008EC00B707002083A7C701BE8589671385478991
:1008FC00EF007070AD2CB1472328F4FE832704FF62
:10090C00FD8B0547B316F70037E700E0832704FF9C
:10091C009583938707048A07BA9794C3B7F700E0C7
:10092C00D843B7F700E0799BD8C3B7F700E01307BB
:10093C00703E98CBB7F700E023A40700B7F700E0B0
:10094C002D4798C33122B707002013850705D93BE3
:10095C00B7070020138507055D38AA8799CB8967EF
:10096C001385478AEF00506B0546914537150140BA
:10097C003121B7070020138507055D38AA8791C779
:10098C0089671385C78AEF003069B7070020138584
:10099C000705C130AA8791C789671385478BEF007C
:1009AC00B067B707002013850705E930AA8791C700
:1009BC0089671385C78BEF003066B7070020138556
:1009CC000705D138AA8791C789671385878CEF00F3
:1009DC00B064B707002013850705F938AA8791C7BB
:1009EC0089671385078DEF003063B70700201385E7
:1009FC000705E530AA8799CB89671385C78DEF006A
:100A0C00B06101469145371501408D2EB707002086
:100A1C0013850705E530AA8789CFB7070020138512
:100A2C000705393AAA87BE8589671385478EEF007B
:100A3C00905CB707002013850705D530AA87E3849F
:100A4C0007F089671385078FEF00105D1120E5BD56
:100A5C00211106CA22C82008232404FE232604FEE2
:100A6C00232804FE854505454D2B8545B7073000E9
:100A7C0013850740092EFD572314F4FE232804FE8A
:100A8C000545C52E0100D2404244610182803111DE
:100A9C0006C822C640082328A4FE2326B4FE03273A
:100AAC0004FF8547631DF7000327C4FEC167FD17CC
:100ABC006317F700B707002013850705A93101005C
:100ACC00C240324451018280511106C422C26000DE
:100ADC00C1679385F7FF05455D3FA2401244310184
:100AEC008280EFF2EFDB371402401C403707FFF82F
:100AFC00414593E717001CC05C40F98F5CC01C405B
:100B0C003707F7FE7D17F98F1CC01C403707FCFF19
:100B1C007D17F98F1CC05C4041777D17F98F5CC045
:100B2C00B7079F001CC481211C4C93E707021CCC07
:100B3C00B717014003A70740938607401377F7F0D8
:100B4C0023A0E74003A707401367070823A0E7404B
:100B5C0089479CCAB72702409843719B98C3984316
:100B6C0098C35C4093E707025CC06FF00FD4EFF2C0
:100B7C002FD3371702405C43370400209146B18BCA
:100B8C001304C4016385D700A1466382D704B73729
:100B9C006E01938707601CC0B7160240DC42084008
:100BAC00918313F7F700B70700209387C700BA9714
:100BBC008C23DC4293F5F50F93F707083357B500F8
:100BCC0081E7EFF02FD12A8718C06FF00FCE5C436E
:100BDC00B777DC02938707C07DBF01A09701002087
:100BEC00938101C6138181FB1305000A97F5FF1F42
:100BFC009385854017F6FF1F1306C64063FAC500A0
:100C0C008322050023A0550011059105E3EAC5FEDA
:100C1C0017150000130545D297F5FF1F9385853EE8
:100C2C0017F6FF1F1306C64163FAC50083220500A1
:100C3C0023A0550011059105E3EAC5FE17F5FF1F2A
:100C4C0013050540938581826377B5002320050049
:100C5C001105E36DB5FEB7220000938202887390F4
:100C6C0002308D427390428097F2FFFF9382C2381C
:100C7C0093E2320073905230EFF0BFE6970200001F
:100C8C009382E2B5739012347300203058410323E1
:100C9C0005004C4537060140930706403E979346A6
:100CAC00F3FFB1C583250640F58D2320B640D04314
:100CBC00F18ED4C31443B3E6660014C318419047B5
:100CCC009346F7FF758E90C7D047F18ED4C7144565
:100CDC0041466399C6009447D98E94C7D447558F23
:100CEC00D8C78280B6979443558F98C382801C4393
:100CFC00F58F1CC38280944593F7060193F2F6009E
:100D0C0081C7DC41B3E2F20083D3050093F7F30F04
:100D1C00A5C303230500611122C226C08147130419
:100D2C0080029304800405473316F70033F7C300A1
:100D3C006312E602939527003D473317B70013471C
:100D4C00F7FF33736700B395B20033E36500639D1F
:100D5C00860050C985072147E397E7FC12442320FE
:100D6C006500824421018280E39696FE10C9DDB7AE
:100D7C00828008456D8D3335A000828019C20CC964
:100D8C0082804CC9828037030140032743009317AC
:100D9C00350063D00702B707C0FFF517F98F370787
:100DAC000007D98FD9CD370700F07D17798DC98F02
:100DBC0049A8635D0500B707E0FFED17F98F37070A
:100DCC000007D98FBDCD06050581D5B7B707300013
:100DDC00931605013376F500C1826313F6023706CC
:100DEC0000F97D16B377C70003274300798E2322C1
:100DFC00C300A1C95581131745003395E60045BFC3
:100E0C009317B50063D407029357050113F6F70047
:100E1C008D47B397C70093C7F7FFF98F37070007C4
:100E2C00D98F85C1135755011207C1BF55811205C2
:100E3C003395A6009347F5FFF98F37070007D98F35
:100E4C00BDF5370701405CC382803707014014476A
:100E5C0086058D47B397B70093C7F7FFF58F1CC76F
:100E6C001C47B315B500DD8D0CC7828023A0A18271
:100E7C008280EFF2EFA2B77700409843759B98C33E
:100E8C0098431367270098C3B7F700E003A707D16F
:100E9C001367470023A8E7D003A707D1118B45C3DD
:100EAC009307800873B007300F100000B70701409C
:100EBC0083A4474003A7074083A64740558F23A22E
:100ECC00E74037F400E0032704D1832704D14D45D4
:100EDC001377070293E787022328F4D0832704D1E2
:100EEC0093F7F7FDD98F2328F4D0832704D193E708
:100EFC0087002328F4D097F0FF1FE780E00F8327AB
:100F0C0004D14D4593E787002328F4D097F0FF1FB9
:100F1C00E780800E832704D1918BA1C3B7070140D2
:100F2C0023A297409307800873A0073037F700E09F
:100F3C00832707D1ED9B2328F7D06FF00F9703A7DA
:100F4C0007D11367070123A8E7D09307800873B074
:100F5C0007300F1000008144ADB7832704D1BD9B2F
:100F6C002328F4D0C1B7371702401C430E0593F762
:100F7C0077F05D8D08C38280EFF28F9237170240B5
:100F8C005C4391462A84B18B6385D700A14663806C
:100F9C00D708B7376E01938707601CC0B71602409D
:100FAC00DC42918313F7F700B707002093874703C0
:100FBC00BA978C23DC42184093F5F50F93F707088A
:100FCC003355B70081E73A85EFF0CF9048C008C49D
:100FDC0048C4B7170240DC438D46AD83FD8B13D755
:100FEC0037008A07F18BD98F13F6370113F73700C7
:100FFC0063F4C600138747FFB707002093870702E7
:10100C00BA978C23EFF00F8D08C86FF00F8A5C43F2
:10101C00B777DC02938707C049B799C537170240E9
:10102C001C4F5D8D08CF8280B7170240984F134537
:10103C00F5FF798D88CF828099C5371702405C4FB8
:10104C005D8D48CF8280B7170240D84F1345F5FF0E
:10105C00798DC8CF8280EFF2AF841629F577FD1712
:10106C00F58FF621DA252111D58F1EA95625FD778E
:10107C009387379FF58FD6212A842EC0D58F96253E
:10108C00D58FB625D58F5EA55E29C207C18393F790
:10109C00F7CF5D8F5AA94800C535B74701409387F4
:1010AC00078082456312F406C2475A241395170031
:1010BC003E9542070E0541873E958C4163580704C7
:1010CC008605EFF02F81930540062AC0EFF08F8044
:1010DC00824793144500930540063E85EFF04F82FE
:1010EC005E24C207C18763D507020E05930540062F
:1010FC0013052503EFE01FFE1D89C98CC204C180B6
:10110C0006A461016FE07FFAB24745B78A0555BF67
:10111C0012059305400613052503EFE0BFFB3D893F
:10112C00E9BF91C55E250967D98F5EA582805A25D6
:10113C00F977FD17F98FD5BF93F5F51F4EA1828076
:10114C000A216D8D3335A0008280EFE27FF5B70761
:10115C00002003A5C701B7157A0093850520EFE0A1
:10116C007FF71375F50F2383A18293175500898F91
:10117C008A073E950E052392A1826FE01FF3EFE2E2
:10118C003FF237F400E05C40AA85F99B5CC003D5C4
:10119C004182EFE03FF208C8232404001C4093E78F
:1011AC0017001CC0B7F700E0D843058B75DF9843D8
:1011BC00799B98C36FE07FEFEFE29FEE2A84116575
:1011CC001111854513051502893D8545370520808C
:1011DC005D3E930700047C80371501408D473EC26D
:1011EC008A85E147130505403EC4313622C6374493
:1011FC000140B70708006C00130504803ECA02C802
:10120C00231C0100893D854513050480193F71019C
:10121C006FE0BFE9EFE2DFE87111AE840144635D7A
:10122C00C402B7470140138707803A859305000431
:10123C0032C03937B747014013870780024675D54E
:10124C003387840083050700138507800504C205D6
:10125C00C181DD350246E1B7328511016FE0FFE453
:10126C00411106C62EC00DCD1841AA8705C35841A1
:10127C007D5511CB8546631BD7009847230007008B
:10128C0023A207000545B24041018280984782465F
:10129C0014A39847050798C7D8437D17D8C3DDB763
:1012AC0005468A85853FF9BF011122CC2EC206CE98
:1012BC0026CA2A848147930500026345060292459B
:1012CC00BE95838505008DE563D8C70263D4E7021C
:1012DC00198E1305000293F526002AC089C501E773
:1012EC00930500032EC0858A814495EAB2840DA033
:1012FC008507F1B71D8EF1BF0146E1BF82452285FE
:10130C003AC832C63EC4A93FA24732464247FD14F2
:10131C00E34690FEB284635306008144058E63C796
:10132C00E702A687924633879740369783050700D6
:10133C0095EDB28463449004635306000146F24079
:10134C006244D2443305F600056182801D8FBA8752
:10135C0093050003228532C83EC63AC41137B24702
:10136C0022474246FD17EDF7BA9465BF228532C677
:10137C003EC4FD35A247324685076DB782452285AE
:10138C0032C43EC2F13DFD142246924765B7397115
:10139C0006DE22DC26DA3EC232833A8689ED92469C
:1013AC009307000301476C08FC86FD3DF250625424
:1013BC00D25421618280AA843684AE8791CA29478F
:1013CC0001446317E30063D50500B307B04005443F
:1013DC008646A309010213073103938666FC36C4C3
:1013EC009A853E8532CA3AC81AC63EC0EFE05FD134
:1013FC00A546824732434247524663D4A600A246D2
:10140C003695130505039306F7FFA30FA7FE9A85E0
:10141C003E8532CC3ACA1AC83EC636C0EFE09FCBE6
:10142C00B24742435247624663F9670401CC29CA6A
:10143C009247898BB1C79305D002268532C40D35EE
:10144C0022467D169247918B95C30647930710064B
:10145C0032C4930500032685631EF70211359305EC
:10146C0080072685F53B22460904791616479246D5
:10147C0082452685153D229515BFAA8702478DB753
:10148C0082469307D0020144A38FF6FE9307E7FF31
:10149C003EC04DBFF13393058005E1B70145828015
:1014AC0001458280130181FD22D026CE06D22AC4AA
:1014BC00AE82328402C681448385020089EDA24744
:1014CC0081C781453E85693B925002542685F24482
:1014DC00130181028280930750026388F500224534
:1014EC0016C88504B53BC24239A8838712001387FE
:1014FC001200639CB7002245930550023AC88D3305
:10150C0042478504BA82850245BFD5DB9306B002FB
:10151C006389D70463C8F600930630026386D70448
:10152C00814705A09306D002638AD7009306000377
:10153C00E398D7FE13872200894721A01387220046
:10154C008547830607001306B0026383C604634114
:10155C00D60213063002638BC602BA820145A54639
:10156C0081A0138722006DBF138722009147D1BF42
:10157C001306D0026389C60013060003E39FC6FC62
:10158C0093E7270031A005078547C1BF93E74700C4
:10159C000507E1B713162500329506053A95850225
:1015AC0003860200130706FD9375F70FE3F4B6FEEE
:1015BC001307E0029946631EE60085028146A545A5
:1015CC0003860200130606FD1377F60F63F5E5029A
:1015DC0036C6038702001306A006630DC70A6343D1
:1015EC00E6021306C0046307C70A13068006630CE1
:1015FC00C70881452DA813972600BA968606B29681
:10160C0085027DBF130640076306C7081306A007B3
:10161C006302C7081306C0068145631AC700038618
:10162C0012008D456314E600850291458502038600
:10163C000200930300061307100663C4C3001307CC
:10164C0010049303700663C4C306930350066353DC
:10165C0076189303700463C1C30493055004635B51
:10166C00B61613073004E310E6EA1840930344005F
:10167C0016CA230CE1001EC8A30C01000147BE864C
:10168C002A862C0849A8038612008145E311E6FA44
:10169C00890271BF8502B1BF93063006E307D6FC01
:1016AC0063CEC606930680056303D602A9BD9306D6
:1016BC0030076304D60463CBC6029306F0066302BC
:1016CC00D60E9306000793E74700E31ED6E2914639
:1016DC00639FD50A930384000C40504016CA3AC24B
:1016EC003EC01EC8AA870147C146B9A09306500741
:1016FC006308D6069306800745BF1840B72600003E
:10170C00930344009385469311C3BA85324716CA96
:10171C001EC8BE862A862245413E0DA09146639482
:10172C00D502930384000C40504016CA3AC23EC006
:10173C001EC8AA870547A94622458D33C243AA94E1
:10174C001E84D242C9B3B2460C4016C836C23AC047
:10175C0011042A878546294622451539AA9461B376
:10176C009146639DD500930384000C40504016CAEB
:10177C003AC23EC01EC8AA87014775BFB2460C408C
:10178C0016C836C23AC011042A878146E9B7B24658
:10179C0016C80C40414636C23AC011042A8781460D
:1017AC0065BF9146639ED500930384000C40504066
:1017BC0016CA3AC23EC01EC8AA870147A146ADBF91
:1017CC00B2460C4016C836C23AC011042A8781466C
:1017DC00214659B70C401306840040403AC22A8770
:1017EC00224532C83EC02286B687A94616CA4D3954
:1017FC00AA944244B9B71301C1FD2EC832CAAA85B6
:10180C001008014506C636CC3ACE3ED032C0593906
:10181C00B240130141028280411122C426C206C685
:10182C001C21AA840144DC8183073100050499EF53
:10183C00A9479305310005460145DC81EFF09F9DDA
:10184C002285B24022449244410182800546930590
:10185C0031000145EFF01F9CB38784009C23DC8191
:10186C00E1B700004E4D495F48616E646C65720DC6
:10187C0000000000486172644661756C745F4861D9
:10188C006E646C65720D000053797374656D436CF6
:10189C006B3A25640D0A00005072657373000000EA
:1018AC00436C69636B000000486F6C6400000000BF
:1018BC0052656C65617365486F6C64005374657038
:1018CC000000000072656C6561736553746570008F
:1018DC0052656C6561736500436C69636B733A2088
:1018EC0025640A0054696D656F7574005804000016
:1018FC006A040000AA0500007A040000DC04000061
:10190C00A2050000E60400003605000040050000BA
:10191C00A2050000B4050000D80500001E0600005A
:10192C003006000070060000286E756C6C290000F3
:04193C00D40A0000C9
:10194000010203040506070801020304050607084F
:1019500000127A000204060804080C10081018206F
:101960001020304020406080010203040506070873
:0C19700001020304050607080000000047
:00000001FF
