:100000006F10E04500000000DC030000EE0300007C
:1000100000000000000000000000000000000000E0
:1000200000000000000000000000000000000000D0
:100030000E040000000000005C140000000000003E
:100040005C1400005C1400005C1400005C140000F0
:100050005C1400005C1400005C1400005C140000E0
:100060005C1400005C1400005C1400005C140000D0
:100070005C1400005C1400005C1400005C140000C0
:100080005C1400005C1400005C1400005C140000B0
:100090005C1400005C1400005C1400000000000010
:0C00A000730050107D157DFD8280000073
:1000AC00511126C022C206C4828282441244A2404C
:1000BC00310182802A86014593F6150091C2329552
:1000CC0085810606F5F9828000000000634E05026A
:1000DC0063C305042E86AA857D5515C285466378B3
:1000EC00B6006356C00006068606E36CB6FE0145F4
:1000FC0063E4C500918D558D85820582F5FA828069
:10010C008682C93F2E8582823305A04063D70500C5
:10011C00B305B040C1B7B305B0408682653F330527
:10012C00A0408282868263C70500634905005D3763
:10013C002E858282B305B040E35B05FE3305A040FB
:10014C00513F3305B04082820000EFF27FF52A84E4
:10015C000146894537150140EF1000592285EF10F3
:10016C00702AA1B7B7F700E0D843799BD8C337976B
:10017C0098001307F76798CB23A407009847E37FF1
:10018C00E5FE23A407001307703E98CB8280EFF2A4
:10019C003FF17111AE8409E52E85453F110131B750
:1001AC00AA8537450F00130505242D379397540066
:1001BC00858F8A07A697AA851354150013953700C7
:1001CC00113FAA878144E38BF4FC0546894537151A
:1001DC0001403EC0EF1040512285693701468945E8
:1001EC0037150140EF1040502285AD3F8504824702
:1001FC00D9BFEFF2FFEA51112E8411C109E6228515
:10020C00A93731015DB5AA8537450F0013050524C3
:10021C0032C2C93593175400818F8A07A297AA85D9
:10022C009354150013953700753512462AC0930761
:10023C0040061375F60F63F4C70013054006A68538
:10024C00953D930540067935B387A4403EC22A8478
:10025C0081470247E387E7FA054689453715014090
:10026C003EC4EF1060482285F53D0146894537159F
:10027C000140EF1060471245F5352685E535A2475C
:10028C008507C1BFEFF2DFE1930500051305803E42
:10029C00FD3D930500051305C05DD53D39B5EFF265
:1002AC003FE09305600913050032D535FDBBEFF235
:1002BC003FDF930580021305004BD13DFDB3EFF2F8
:1002CC003FDE9305C0031305803ED1359305C00373
:1002DC001305C02B6D3DD1BBEFF29FDCE54513053B
:1002EC0080707535D9B3EFF2BFDB9305800713052A
:1002FC000032713D930580071305803E493D9305FF
:10030C00000A1305405161354DB3EFF27FD99305C7
:10031C0060091305004BA53D930560091305403892
:10032C00BD359305400B130580259535BDBBEFF20C
:10033C003FD71306A005930500051305C05D553D79
:10034C0013058002EF10100C1306A0059305000591
:10035C001305C05D793D13058002EF10B00A13063A
:10036C006004930540061305004B61353DBBEFF26D
:10037C003FD31306A0059305000513050032953DE8
:10038C0013058002EF1010081306A0059305000555
:10039C0013050032B93D13058002EF10B0061306A9
:1003AC006004930540061305803EA135FDB9EFF2BC
:1003BC003FCF13066004930580021305803E153D64
:1003CC0013064006930500051305C05D1D35F1B9F4
:1003DC00711122C0372400001305C43DEF10707951
:1003EC00E5BF7111B707EFBE22C037E700E0938776
:1003FC0007083CC7372400001305843CEF107077C6
:10040C00E5BFB7070020938787049843D043930632
:10041C00170033B7E6003297D8C394C3B7F700E0A0
:10042C0023A2070073002030EFF29FC7511105453E
:10043C0002C002C202C4EF10203AEF00B07AEF10F3
:10044C009003056513058538EF10300685451305B7
:10045C004003EF104053854537050010EF108054D2
:10046C0037150140FD578A85130505807C8002C431
:10047C00EF10201F0544C14491478A853715014070
:10048C007C8026C422C2EF10C01D89478A8537158F
:10049C0001407C8026C422C2EF10A01C930780046C
:1004AC008A85371501403EC4648022C2EF10601B60
:1004BC000546914537150140EF1000231545EF1007
:1004CC00C07E0146914537150140EF10E021310106
:1004DC00E9BEEFF2FFBC374400080EA1930404C040
:1004EC009A0532A156A17AA1AE941CC5130424C05E
:1004FC009E202E941A20C207C18361112A83639611
:10050C00E70041677D17639CE7061AC22EC0EF1007
:10051C00E005EF10E00E2685EF104011EF102010D3
:10052C00EF1060068245B74700081243938707C453
:10053C004167BE958546A6877D1792236303C70046
:10054C0081468907E39BB7FE89E623060300210158
:10055C00A9BE1AC0EF1080010243268583556300A3
:10056C00EF10C0060243228583556300EF1000068E
:10057C00EF106001024396201A2083576300231763
:10058C00F30085472306F300D9B7EFF27FB1411191
:10059C008545454502C002C202C402C6EF10A03E0A
:1005AC0091450945EF102021C1473EC091473EC2FD
:1005BC00B1473EC40A8585473EC6EF0090744101A1
:1005CC00EDB4EFF2FFAD3725000013058542EF10B7
:1005DC00505AB72700009387C7431307200393068D
:1005EC0040060146814513854185E53537250000D8
:1005FC0013054544EF10F057B727000093870746C3
:10060C00014785460146854513854182D9353725F5
:10061C00000013050547EF10D055B727000093874E
:10062C00C7482947930640060146894513854183EF
:10063C004D353725000013058549EF109053B7272A
:10064C0000009387074B130740069306803E014634
:10065C008D4513854184B53D89BCEFF27FA45111C2
:10066C008545054502C002C202C4EF10C0313705F2
:10067C003000854513050540EF10A00737140140E5
:10068C00FD578A85130504407C8002C4EF00707D01
:10069C00BD578A85371501407C80EF00907C37155B
:1006AC002000814513051580EF10C02F3725000061
:1006BC001305C54BEF10F04B0545EF1040123725D5
:1006CC0000001305C54CEF10D04AC1473EC4854409
:1006DC0099478A85371501407C8026C2EF007078D7
:1006EC00E1473EC48A8593070004130504407C80CF
:1006FC0026C2EF00107731016FF03F9BEFF25F9A4B
:10070C00253361353715070013050580EF10805D23
:10071C00372500001305454EEF10B045B7070020F4
:10072C0083A5C7013725000013050551EF10304292
:10073C00493D372400001305444FEF109043938735
:10074C004185D827814511C3EE27372500001305B5
:10075C00C552EF10D03F93874182D827814511C3F2
:10076C00EE27372500001305C554EF10503E938734
:10077C004183D827814511C3EE2737250000130587
:10078C008556EF10D03C93874184D827814511C3FF
:10079C00EE273725000013058558EF10503B130545
:1007AC00444FEF10103DB7E700E0056723A0E710BA
:1007BC00B7F700E0D843799BD8C31307703E98CBAA
:1007CC0023A407002D4798C3C9261306600493057C
:1007DC0080021305803EEFF0DFA11306400693055F
:1007EC0000051305C05DEFF0DFA0853D3725000047
:1007FC001305855AEF10F0374529C14537150140CF
:10080C00EF00F06D93878180982B133515006312E0
:10081C00A7028146014794C7D8C7B42B3946982BF9
:10082C00636BD60609668A061306C63EB2969442D8
:10083C008286984703A3C700B705002093858504DB
:10084C009441D041B365670081E594C7D0C7F1B737
:10085C003387E640B3B6E600330666406316D6002F
:10086C0093061003E3FBE6FA88AB45BF0DC70547BB
:10087C00B8AB15A00D47B8AB37070020130787049A
:10088C001043544390C3D4C339A039EF0947B8ABD4
:10089C00B83B0507B8BB03A7C1869384C18619E38F
:1008AC00EF00606C944005476394E600EF00B019CC
:1008BC00944009476397E600EF00701A05472390B0
:1008CC00E18294400D476397E60005472390E1824F
:1008DC00EF00302598409147E310F7F285472390BD
:1008EC00F182EF00B02509BF3707002013078704FA
:1008FC00104394434C43D843B306D6403335D6000B
:10090C003387E540098F6347E00051F71307F07C0C
:10091C00E373D7F81147B8AB90C3CCC3ADBF19473D
:10092C0081BF19E31547A9B73707002013078704C0
:10093C00104394434C43D843B306D6403335D600CA
:10094C003387E540098F6347E00031F71307703EAA
:10095C00E373D7F41D47C1B7214719BF19E32547E6
:10096C0001BF3707002013078704104394434C43FF
:10097C00D843B306D6403335D6003387E540098FCC
:10098C006348E000E31907F01307703EE375D7F0F6
:10099C001D47B8AB983B050798BBBDBFA3890700A3
:1009AC002947F9B5B43BA38807002D47E39506EC1E
:1009BC003547D1B5E31D07EA370700201307870435
:1009CC00104394434C43D843B306D6403335D6003A
:1009DC003387E540098F6348E000E31E07EA1307FD
:1009EC00301FE37AD7EA31473DB73547BAAB65B527
:1009FC00E31F07E6370700201307870410439443CF
:100A0C005843CC43B306D6403336D6000D8F118FE6
:100A1C006348E000E31107E81307703EE37DD7E677
:100A2C003947B9B523890700BDB593878180014744
:100A3C008146D8C7D8C394C394C723A807003707E7
:100A4C003200938741861307470698C32392070009
:100A5C009387418523A0070023A2070023A4070046
:100A6C0023860700239707009387418223A0070062
:100A7C0023A2070023A4070023860700239707005F
:100A8C009387418323A0070023A2070023A4070018
:100A9C0023860700239707009387418423A0070030
:100AAC0023A2070023A4070023860700239707002F
:100ABC008280EFF2EFDE373401405111130504C090
:100ACC008145EF00D07F130504C08145EF00B07D58
:100ADC009147371401407C80C1473EC48A858547C5
:100AEC00130504803EC2EF00D03701469145130533
:100AFC000480EF00703F31016FF02FDBEFF24FDA23
:100B0C0093074006AA8402211305400663E4B7004C
:100B1C0013F5F50FA285EFF0EFD993054006EFF032
:100B2C00EFDAAA85420541816373A400A285AEA0C9
:100B3C0037350140C205C181130505C0EF00F07CBB
:100B4C006FF0AFD6EFF2CFD571112A8491E18545C4
:100B5C000A2032C0EFF00FD60246AA853285EFF09C
:100B6C006FD77D15C1676364F5001385F7FF931587
:100B7C000501C181373501404EA00146130505C062
:100B8C00EF00507511016FF04FD2EFF26FD13707B4
:100B9C00320093844188130747060565130141FD14
:100BAC0098C085451D4713054580DAA002C802CAC6
:100BBC0002CC02C202C42316010002CE02D002D221
:100BCC0002D4EF00505C61473715014091463ACC96
:100BDC000C080D4713050580F48036C03ACAEF00A7
:100BEC0050289A20373401404C007D177884DA2045
:100BFC00130504C02315010078822313010023067A
:100C0C000100EF00105C1307000682463ACEBA20B2
:100C1C006C08130504C02310D1022311E10202D287
:100C2C0002D4EF00F05EA145130504C0EF00906CF8
:100C3C008545130504C0EF00506A8545130504C0B3
:100C4C00EF00F0678545130504C0EF00D0651385F0
:100C5C0041888145653537167A001385418813061E
:100C6C00062093052003F93D835704C0858B91C35F
:100C7C00893523A8018623A001881301C1026FF0D6
:100C8C00CFC2094723A0E188828003A701879387FD
:100C9C00018801E7054798C382800947EDBF03A58A
:100CAC000187133515008280EFF28FBF938701887F
:100CBC00984351111384018711CB984323A007004B
:100CCC008547630CF70689476304F714184085477A
:100CDC006312F70693874184D82715C7F227B70705
:100CEC00002093878704938681879843CC439C424A
:100CFC00D442B307F7403337F700B386D54063943B
:100D0C00E60063E9C70237167A0085659385853856
:100D1C001306062013854188353593874185D827DE
:100D2C00814511C3EE2793F5F50F13854188F933EF
:100D3C0089471CC031016FF04FB71C40C1FBB7375E
:100D4C000140938407C083D707C0858B95E79147F3
:100D5C007C8037150140E1473EC48A858D471305D9
:100D6C0005803EC2EF00F00F85452685EF0030551B
:100D7C0085452685EF00305313874182542737165B
:100D8C007A00938441851306062081C60317E70079
:100D9C000DEB138541889305803E6D33D4240147B8
:100DAC0091C2FA2493064006BA8563F4E6009305D3
:100DBC0040061385418893F5F50F893389471CC08C
:100DCC0031B71385418893052003AD3BD824814668
:100DDC0011C3F624138741835027814511C26E2716
:100DEC00B695130740066354B70093054006138568
:100DFC00418893F5F50F1933B707002093878704C3
:100E0C009043D4439387818790C3D4C3854745BF10
:100E1C00814513854188DD31B737014083D707C041
:100E2C00858B91C37931232004004DB503A701872D
:100E3C008947631AF700EFF2AFA6AA85138541889C
:100E4C0075396FF08FA682803707320093874188FF
:100E5C001307470698C32392070082805C2599CB21
:100E6C003E2163E8F5005E2163F3F500AE87C2070F
:100E7C00C1837EA58280502519E209458280EFF25C
:100E8C002FA21E2137470008130407C09A073E946F
:100E9C008315E5001620611132C23EC0AA841145AB
:100EAC00638FD504EF00806CEF0080752285EF0016
:100EBC00E077EF00C076EF00006D824737470008FF
:100ECC001246130707C4C1653E97A286FD158A22F8
:100EDC006383A50001468906E39BE6FE3EC20945F5
:100EEC0019CEEF00A068EE242285EF00206E11478A
:100EFC002AC092476308E500EF00E0680245210133
:100F0C006FF0AF9A37470008130727C0EE24BA9743
:100F1C003E853EC2EF00806B2AC0EF00C066924750
:100F2C001A209E23E1BFEFF2AF97AA841305803EEF
:100F3C00EF00504D01446356940205469145371518
:100F4C000140EF00607AEFF08FB5014691453715FF
:100F5C000140EF0060791305800CEF00B04A0504E6
:100F6C00D9BF6FF08F94EFF2AF93153B014611E1AF
:100F7C000546914537150140EF00007737040020F6
:100F8C0093070405B82B894713040405631BF7006A
:100F9C00372500001305455EEF10A03DEFF0CFB3F1
:100FAC00ED3138289147631DF700372500001305F4
:100FBC00C55EEF10003CEFF00FB323A60188D131D2
:100FCC0038289D47631EF7029387C1888C433725C9
:100FDC0000001305455F85058CC3EF104037EFF01B
:100FEC00AFAF0546914537150140EF00E06F154551
:100FFC00EF0050410146914537150140EF00C06E9E
:10100C003828A547631BF704372500001305056036
:10101C00EF10203683A7C18805479384C188639657
:10102C00E700054523A6F186FD3D9C4009476396E4
:10103C00E700094523A6F186FD359C400D476396D4
:10104C00E7000D4523A6F186F93D9C4011476396B8
:10105C00E700114523A6F186F9353828A947631E08
:10106C00F700372500001305C560EF1080300146EE
:10107C00914537150140EF0020673828B1476313BD
:10108C00F7042C383725000013054561EF10202C90
:10109C00383895476318F702EFF02FA7EFF0EFA65B
:1010AC00EFF0AFA6EFF06FA69307800873B0073090
:1010BC000F100000B707EFBE37E700E09387070873
:1010CC003CC701A03828B947631DF700372500003D
:1010DC0013050562EF10E029EFF07FBC19C1EFF0AA
:1010EC00CFD76FE09FFCEFE2BFFB5C2551112AC00C
:1010FC002EC432C2814491C3662537040020930765
:10110C000405B82B894713040405631AF700372527
:10111C00000013054563EF10C025EFF0EF9B382856
:10112C00B147631FF71092452685EFE03FFA303840
:10113C00A245AA84372500001305C563EF102021B2
:10114C0038388547631BF7028504D14763D9970C60
:10115C00EFF0EF9DD1441245A685EFE0BFF5931556
:10116C0005010245C181EFF07FCF2C3837250000F7
:10117C0026861305C564EF10801D38388947631F18
:10118C00F70023A60186EFF04F98014691453715DD
:10119C000140A308040023190400B92338388D47F3
:1011AC00631AF702854763DF9706FD14EFF02F9063
:1011BC001245A685EFE01FF0931505010245C1818C
:1011CC00EFF0DFC92C38372500002686130545665D
:1011DC00EF10E017383891476319F70437250000F2
:1011EC001305C567EF10E0181305803EEF00902142
:1011FC0081473EC2638BF402054691453715014089
:10120C00E521EFF0CF8B0146914537150140E929D7
:10121C001305C012EF00101F92478507D9BFEFF0DE
:10122C000F8915BFEFF0AF9461B738389547631944
:10123C00F700EFF0CF97EFF08F970245EFF0BFC3B9
:10124C0031016FE09FE6EFE2BFE5B72500001546E0
:10125C00938585621385418579356FE01FE5EFE253
:10126C003FE493874182DC2799C793874182839718
:10127C00E700054691E30146914537150140AD2144
:10128C003704002093070405B82B89471304040581
:10129C00631AF7003725000013054563EF10600D46
:1012AC00EFF08F833828B147631BF7062C383725AE
:1012BC0000001305055BEF10800938388547631370
:1012CC00F70293874182DC2799C7938741828397E2
:1012DC00E700814591E3854513854182EFF01FB806
:1012EC00EFE05FFA38388947631FF70023A60186C1
:1012FC00EFF0AF810146914537150140A30804007A
:10130C0023190400D52638389547631AF700EFF0F7
:10131C000F8AEFF0CF8913854182EFF0DFB56FE0D4
:10132C00DFD8EFE2FFD7B725000015469385055CA3
:10133C0013854183EFF03FDB6FE03FD7EFE25FD6E1
:10134C00B7250000130620039385455D1385418462
:10135C00EFF07FD96FE07FD5EFE29FD437140240D6
:10136C001C403707FFF8414593E717001CC05C4051
:10137C00F98F5CC01C403707F7FE7D17F98F1CC036
:10138C001C403707FCFF7D17F98F1CC05C40417770
:10139C007D17F98F5CC0B7079F001CC41D2B1C4C1C
:1013AC0093E707021CCCB717014003A707409386AD
:1013BC0007401377F7F023A0E74003A70740136714
:1013CC00070823A0E74089479CCAB72702409843E7
:1013DC00719B98C3984398C35C4093E707025CC029
:1013EC006FE0BFCCEFE2DFCB371702405C43370432
:1013FC0000209146B18B1304C4016385D700A1462C
:10140C006382D704B7376E01938707601CC0B71689
:10141C000240DC420840918313F7F700B707002025
:10142C009387C700BA978C23DC4293F5F50F93F79B
:10143C0007083357B50081E7EFE0DFC92A8718C0EA
:10144C006FE0BFC65C43B777DC02938707C07DBFF4
:10145C0001A097F1FF1F9381A13E138181FB13051E
:10146C00000A97F5FF1F938525B917F6FF1F130682
:10147C0066B963FAC5008322050023A05500110547
:10148C009105E3EAC5FE171500001305252097F515
:10149C00FF1F938525B717F6FF1F130666BA63FA6D
:1014AC00C5008322050023A0550011059105E3EA30
:1014BC00C5FE17F5FF1F1305A5B8938581896377C2
:1014CC00B500232005001105E36DB5FEB722000021
:1014DC0093820288739002308D427390428097F20F
:1014EC00FFFF938262B193E2320073905230EFF0BF
:1014FC00BFE697F2FFFF9382A22073901234730021
:10150C0020305841032305004C4537060140930712
:10151C0006403E979346F3FFB1C583250640F58DF3
:10152C002320B640D043F18ED4C31443B3E66600F7
:10153C0014C3184190479346F7FF758E90C7D04758
:10154C00F18ED4C7144541466399C6009447D98E91
:10155C0094C7D447558FD8C78280B6979443558F7C
:10156C0098C382801C43F58F1CC38280B7076745E4
:10157C0037270240938737125CC3B797EFCD938719
:10158C00B79A5CC38280372702401C4B93E707084D
:10159C001CCB8280372702405C470545858B91E741
:1015AC0048474189133515000D058280EFE25FAF86
:1015BC002A84CD3785476318F50019E0154529A015
:1015CC00D13F7D14C5BF7DD86FE03FAEEFE25FAD7C
:1015DC007111AA8409652EC0D13F91478245631EC3
:1015EC00F500372402401C48096593E717001CC816
:1015FC008EA06D3F1C48F99B1CC811016FE0FFAA1F
:10160C00B7066745B7270240938636123797EFCD5A
:10161C00D4C31307B79AD8C3D4D3D8D3828037276F
:10162C0002401C4BA166D58F1CCB8280B70700F8FB
:10163C00AA97116763F6E702B7270240984BB706E3
:10164C000200558F98CBC8CB984B1367070498CBE7
:10165C00D847058B75FF984B8176FD16758F98CB07
:10166C008280944593F7060193F2F60081C7DC4122
:10167C00B3E2F20083D3050093F7F30FA5C3032362
:10168C000500611122C226C0814713048002930415
:10169C00800405473316F70033F7C3006312E602E4
:1016AC00939527003D473317B7001347F7FF337364
:1016BC006700B395B20033E36500639D860050C9A3
:1016CC0085072147E397E7FC1244232065008244F9
:1016DC0021018280E39696FE10C9DDB78280084511
:1016EC006D8D3335A000828019C20CC982804CC923
:1016FC00828037030140032743009317350063D0E2
:10170C000702B707C0FFF517F98F37070007D98F06
:10171C00D9CD370700F07D17798DC98F49A8635D46
:10172C000500B707E0FFED17F98F37070007D98FD2
:10173C00BDCD06050581D5B7B70730009316050159
:10174C003376F500C1826313F602370600F97D1675
:10175C00B377C70003274300798E2322C300A1C9A6
:10176C005581131745003395E60045BF9317B50017
:10177C0063D407029357050113F6F7008D47B3970F
:10178C00C70093C7F7FFF98F37070007D98F85C1BB
:10179C00135755011207C1BF558112053395A60089
:1017AC009347F5FFF98F37070007D98FBDF537073A
:1017BC0001405CC3828037070140144786058D4782
:1017CC00B397B70093C7F7FFF58F1CC71C47B3152A
:1017DC00B500DD8D0CC7828023A8A1888280EFE242
:1017EC003F8CB77700409843759B98C39843136719
:1017FC00270098C3B7F700E003A707D1136747008A
:10180C0023A8E7D003A707D1118B45C39307800802
:10181C0073B007300F100000B707014083A4474096
:10182C0003A7074083A64740558F23A2E74037F410
:10183C0000E0032704D1832704D14D451377070219
:10184C0093E787022328F4D0832704D193F7F7FD7D
:10185C00D98F2328F4D0832704D193E7870023283A
:10186C00F4D097E0FF1FE7802079832704D14D4502
:10187C0093E787002328F4D097E0FF1FE780C07719
:10188C00832704D1918BA1C3B707014023A29740B2
:10189C009307800873A0073037F700E0832707D140
:1018AC00ED9B2328F7D06FE05F8003A707D1136768
:1018BC00070123A8E7D09307800873B007300F10F7
:1018CC0000008144ADB7832704D1BD9B2328F4D0FD
:1018DC00C1B7371702401C430E0593F777F05D8DA7
:1018EC0008C38280EFE2CFFB371702405C4391467E
:1018FC002A84B18B6385D700A1466380D708B7379C
:10190C006E01938707601CC0B7160240DC429183BE
:10191C0013F7F700B707002093874703BA978C2378
:10192C00DC42184093F5F50F93F707083355B700D1
:10193C0081E73A85EFE00FFA48C008C448C4B717EE
:10194C000240DC438D46AD83FD8B13D737008A07ED
:10195C00F18BD98F13F6370113F7370063F4C600F8
:10196C00138747FFB707002093870702BA978C238A
:10197C00EFE04FF608C86FE04FF35C43B777DC023B
:10198C00938707C049B799C5371702401C4F5D8D27
:10199C0008CF8280B7170240984F1345F5FF798D19
:1019AC0088CF828099C5371702405C4F5D8D48CF38
:1019BC008280B7170240D84F1345F5FF798DC8CFF9
:1019CC0082801E2137370140130707C0C207C1832D
:1019DC006306E500370700406316E500BA2193F76C
:1019EC00F7F8D98FFA2193F7F7CFC207C183D98FB4
:1019FC001EA1DE215EB59E211EB5B737014093872F
:101A0C0007C06314F5009C251EB985475EA982802A
:101A1C001E3165771307F7CFC207C183BD9BC20781
:101A2C00C1831EB11E31562103D38500C207139604
:101A3C000601162DC18393F7F7FD758F9621418210
:101A4C00A206558FB62142074183B3E66600920683
:101A5C00D58FB7360140C207938606C0C183631E7B
:101A6C00D502B62593F7F7F703D3C5009206D58FA9
:101A7C00D621C207C183920693F7F7FBD58FFD766B
:101A8C009386F63FF18EF225C207C183336666005A
:101A9C000A06D18E13960601418252A11AADFA2183
:101AAC0018DD1EB182801E2189C593E717001EA187
:101ABC008280C207C183F99BC207C183CDBF835704
:101ACC00450491C52167D98F2312F5048280C6077E
:101ADC00C583DDBF0EB552A982801E2189C593E74F
:101AEC0007081EA18280C207C18393F7F7F7C207CC
:101AFC00C183C5BF1A2DFD779387F77FF98FA20598
:101B0C00CD8FC207C1831EAD82800CDD8280EFE2D7
:101B1C002FD91629F577FD17F58FF621DA25211126
:101B2C00D58F1EA95625FD779387379FF58FD62124
:101B3C002A842EC0D58F9625D58FB625D58F5EA538
:101B4C005E29C207C18393F7F7CF5D8F5AA948006E
:101B5C00EFF05FD9B7470140938707808245631246
:101B6C00F406C2475A24139517003E9542070E05FA
:101B7C0041873E958C41635807048605EFE08FD56D
:101B8C00930540062AC0EFE0EFD48247931445003A
:101B9C00930540063E85EFE0AFD65E24C207C187B1
:101BAC0063D507020E059305400613052503EFE0E8
:101BBC006FD21D89C98CC204C18006A461016FE07B
:101BCC00CFCEB24745B78A0555BF120593054006DF
:101BDC0013052503EFE00FD03D89E9BF91C55E25C4
:101BEC000967D98F5EA582805A25F977FD17F98F81
:101BFC00D5BF93F5F51F4EA182800A216D8D33352B
:101C0C00A000828037F700E0544331119307710034
:101C1C00F99A54C39306703E14CB23240700AD46A7
:101C2C0014C337070020930687049042D442E19BEB
:101C3C0090C7D4C78C47D0479356F5413303B500B2
:101C4C003335A300B385C600B306B50023A06700E7
:101C5C00D4C31307870403A30700484383A3470097
:101C6C0063E7A3006317750014436374D300510139
:101C7C0082800100CDB7EFE2AFC2B707002003A509
:101C8C00C701B7157A0093850520EFE0AFC4137533
:101C9C00F50F238BA18893175500898F8A073E95E2
:101CAC000E05239AA1886FE04FC0EFE26FBF37F4A7
:101CBC0000E05C40AA85F99B5CC003D54189EFE04C
:101CCC006FBF08C8232404001C4093E717001CC0F6
:101CDC00B7F700E0D843058B75DF9843799B98C321
:101CEC006FE0AFBCEFE2CFBB2A84116511118545C3
:101CFC0013051502EFF03FC9854537052080EFF03D
:101D0C005F9F930700047C80371501408D473EC2CE
:101D1C008A85E147130505403EC4EFF09F9422C627
:101D2C0037440140B70708006C00130504803ECA15
:101D3C0002C8231C0100EFF09FDD854513050480CC
:101D4C00EFF0DFE971016FE04FB6EFE26FB57111A3
:101D5C00AE840144635FC402B74701401387078018
:101D6C003A859305000432C0EFF03FE9B7470140D4
:101D7C001387078002466DD53387840083050700DF
:101D8C00138507800504C205C181EFF09FE602466A
:101D9C00D1B7328511016FE04FB1411106C62EC08B
:101DAC000DCD1841AA8705C358417D5511CB8546E9
:101DBC00631BD70098472300070023A207000545A3
:101DCC00B240410182809847824614A39847050788
:101DDC0098C7D8437D17D8C3DDB705468A85B53774
:101DEC00F9BF011122CC2EC206CE26CA2A84814705
:101DFC0093050002634506029245BE958385050056
:101E0C008DE563D8C70263D4E702198E130500026F
:101E1C0093F526002AC089C501E7930500032EC05F
:101E2C00858A814495EAB2840DA08507F1B71D8E91
:101E3C00F1BF0146E1BF824522853AC832C63EC495
:101E4C00A93FA24732464247FD14E34690FEB284B6
:101E5C00635306008144058E63C7E702A68792464A
:101E6C003387974036978305070095EDB284634519
:101E7C009004635306000146F2406244D244330599
:101E8C00F600056182801D8FBA87930500032285B9
:101E9C0032C83EC63AC41137B24722474246FD17F4
:101EAC00EDF7BA9465BF228532C63EC4EFF0FFEE63
:101EBC00A2473246850765B78245228532C43EC2A9
:101ECC00EFF0BFEDFD142246924755B7397106DE8F
:101EDC0022DC26DA3EC232833A8691ED9246930793
:101EEC00000301476C08FC86EFF0BFEFF250625420
:101EFC00D25421618280AA843684AE8791CA294744
:101F0C0001446317E30063D50500B307B0400544F3
:101F1C008646A309010213073103938666FC36C477
:101F2C009A853E8532CA3AC81AC63EC0EFE04F9D2C
:101F3C00A546824732434247524663D4A600A24686
:101F4C003695130505039306F7FFA30FA7FE9A8595
:101F5C003E8532CC3ACA1AC83EC636C0EFE08F97DF
:101F6C00B24742435247624663FD670409CC29CE0F
:101F7C009247898BB1CB9305D002268532C4EFF002
:101F8C00DFE122467D169247918B85C70647930762
:101F9C00100632C49305000326856311F704EFF095
:101FAC00DFDF930580072685EFF03FDF224609042B
:101FBC0079161647924682452685EFF09FE22295C8
:101FCC0035B7AA870247A9BF82469307D0020144BE
:101FDC00A38FF6FE9307E7FF3EC075B7EFF0FFDB6C
:101FEC0093058005C9B701458280014582801301A4
:101FFC0081FD22D026CE06D22AC4AE82328402C6FD
:10200C0081448385020091EDA24789C781453E85B5
:10201C00EFF0BFD8925002542685F244130181028E
:10202C008280930750026389F500224516C8850407
:10203C00EFF0BFD6C24205A08387120013871200AF
:10204C00639DB7002245930550023AC8EFF0FFD4C8
:10205C0042478504BA8285026DB7DDD79306B0027C
:10206C006389D70463C8F600930630026386D704ED
:10207C00814705A09306D002638AD700930600031C
:10208C00E398D7FE13872200894721A013872200EB
:10209C008547830607001306B0026383C6046341B9
:1020AC00D60213063002638BC602BA820145A546DE
:1020BC0081A0138722006DBF138722009147D1BFE7
:1020CC001306D0026389C60013060003E39FC6FC07
:1020DC0093E7270031A005078547C1BF93E7470069
:1020EC000507E1B713162500329506053A958502CA
:1020FC0003860200130706FD9375F70FE3F4B6FE93
:10210C001307E0029946631EE60085028146A54549
:10211C0003860200130606FD1377F60F63F5E5023E
:10212C0036C6038702001306A006630DC70A634375
:10213C00E6021306C0046307C70A13068006630C85
:10214C00C70881452DA813972600BA968606B29625
:10215C0085027DBF130640076306C7081306A00758
:10216C006302C7081306C0068145631AC7000386BD
:10217C0012008D456314E6008502914585020386A5
:10218C000200930300061307100663C4C300130771
:10219C0010049303700663C4C3069303500663567E
:1021AC0076189303700463C1C30493055004635EF3
:1021BC00B61613073004E310E6EA18409303440004
:1021CC0016CA230CE1001EC8A30C01000147BE86F1
:1021DC002A862C0849A8038612008145E311E6FAE9
:1021EC00890271BF8502B1BF93063006E307D6FCA6
:1021FC0063CFC606930680056303D602A9BD93067A
:10220C0030076304D60463CBC6029306F00663055D
:10221C00D60E9306000793E74700E31ED6E29146DD
:10222C006392D50C930384000C40504016CA3AC2FA
:10223C003EC01EC8AA870147C14681A89306500715
:10224C00630BD6069306800745BF1840B7260000DF
:10225C00930344009385466811C3BA85324716CA66
:10226C001EC8BE862A862245EFF0BFB715A0914640
:10227C006395D502930384000C40504016CA3AC2B1
:10228C003EC01EC8AA870547A9462245EFF0BFD518
:10229C00C243AA941E84D2427DBBB2460C4016C8DF
:1022AC0036C23AC011042A87854629462245EFF0EA
:1022BC00FFC1AA9441B39146639DD500930384005A
:1022CC000C40504016CA3AC23EC01EC8AA870147ED
:1022DC0065BFB2460C4016C836C23AC011042A87F4
:1022EC008146E1B7B24616C80C40414636C23AC0E8
:1022FC0011042A8781465DBF9146639ED5009303E6
:10230C0084000C40504016CA3AC23EC01EC8AA8770
:10231C000147A1469DBFB2460C4016C836C23AC012
:10232C0011042A878146214651B70C4013068400BC
:10233C0040403AC22A87224532C83EC02286B68720
:10234C00A94616CAEFF07FCAAA944244A9B7130152
:10235C00C1FD2EC832CAAA851008014506C636CC66
:10236C003ACE3ED032C0EFF09FC8B24013014102CA
:10237C008280411122C426C206C61C21AA840144B3
:10238C00DC8183073100050499EFA94793053100DF
:10239C0005460145DC81EFF05F9B2285B24022446B
:1023AC009244410182800546930531000145EFF0CE
:1023BC00DF99B38784009C23DC81E1B748617264A8
:1023CC004661756C745F48616E646C65720D0000DB
:1023DC004E4D495F48616E646C65720D00000000E3
:1023EC007808000080080000AC0900009608000086
:1023FC002A090000A80900002E0900006409000049
:10240C0068090000A8090000B0090000C00900001C
:10241C00F6090000FC090000300A00002E5245416C
:10242C004420434F4E46494720506F776572000059
:10243C00506F7765720000002E5245414420434F87
:10244C004E46494720426F6F737420456E61626C33
:10245C0065000000426F6F737420456E61626C659D
:10246C00000000002E5245414420434F4E46494740
:10247C0020426F6F737420506F77657200000000FC
:10248C00426F6F737420506F776572002E52454106
:10249C004420434F4E46494720426F6F737420547B
:1024AC00696D6500426F6F73742054696D6500002F
:1024BC00D097D0B0D181D0BDD183D0BBD0B80D00D6
:1024CC00D09FD180D0BED181D0BDD183D0BBD0B86C
:1024DC00D181D18C0D0000000D0A2D2D2D2D2D2D0F
:1024EC002D2D2D2D2D2D2D2D2D2D2D2D2D2D2D2D10
:1024FC002D2D2D2D2D2D2D2D2D2D2D2D2D2D2D2D00
:10250C002D0D0000D09FD180D0B8D0B2D0B5D182E3
:10251C002053797374656D436C6B3A25640D0A0016
:10252C00434F4E46494720506F776572202020203C
:10253C00202020203A2025642025250D0A000000AB
:10254C00434F4E46494720426F6F737420456E616E
:10255C00626C65203A2025640D0A0000434F4E46FC
:10256C00494720426F6F737420506F77657220203B
:10257C00203A2025642025250D0A0000434F4E46A5
:10258C00494720426F6F73742054696D6520202079
:10259C003A202564206D730D0A000000476F2E2E23
:1025AC002E0D0000436C69636B733A2025640D0A91
:1025BC000000000053637265656E426F6F73745058
:1025CC006F7765720000000053637265656E426F31
:1025DC006F737454696D6500436C69636B00000024
:1025EC00486F6C6400000000537465702025640A09
:1025FC000000000072656C65617365537465700052
:10260C0052656C6561736500436C69636B733A204A
:10261C0025640A0054696D656F75740053637265A7
:10262C00656E506F77657200436C69636B0D0000CB
:10263C00257320436C69636B733A2025640D0A0083
:10264C002B2B20436C69636B733A20256420696DD6
:10265C00703A25640D0A00002D2D20436C69636BC4
:10266C00733A20256420696D703A25640D0A0000C8
:10267C005374617475730D00286E756C6C290000B1
:08268C00360A0000540E0000A4
:1026940001020304050607080102030405060708EE
:1026A40000127A000204060804080C10081018200E
:1026B4001020304020406080010203040506070812
:0C26C400010203040506070800000000E6
:00000001FF
