:100000006F104011000000007C0700008E07000008
:1000100000000000000000000000000000000000E0
:1000200000000000000000000000000000000000D0
:10003000AE070000000000001211000000000000E8
:100040001211000012110000121100001211000024
:100050001211000012110000121100001211000014
:100060001211000012110000121100001211000004
:1000700012110000121100001211000012110000F4
:1000800012110000121100001211000012110000E4
:1000900012110000121100001211000000000000F7
:0C00A000730050107D157DFD8280000073
:1000AC00511126C022C206C4828282441244A2404C
:1000BC00310182802A86014593F6150091C2329552
:1000CC0085810606F5F9828000000000634E05026A
:1000DC0063C305042E86AA857D5515C285466378B3
:1000EC00B6006356C00006068606E36CB6FE0145F4
:1000FC0063E4C500918D558D85820582F5FA828069
:10010C008682C93F2E8582823305A04063D70500C5
:10011C00B305B040C1B7B305B0408682653F330527
:10012C00A0408282868263C70500634905005D3763
:10013C002E858282B305B040E35B05FE3305A040FB
:10014C00513F3305B04082820000372702401C4BE0
:10015C0093E707081CCB8280B16793870735B726D6
:10016C000240D846058B11C799E315458280FD17CF
:10017C00CDBF154591C301458280C1676976814623
:10018C00FD17050613F7F60F6364B7003E858280F2
:10019C003307D5001823B98F214713F31700858334
:1001AC0063050300B18FC207C1837D171377F70F67
:1001BC006DF78506C1BFB7270240984B01451377F1
:1001CC00070811CF3707674513073712D8C337977E
:1001DC00EFCD1307B79AD8C3884B1D810589828050
:1001EC00EFF21FEC7111AA842E84F1370DE9AD37B3
:1001FC0009C52AC0993F02451DA0B7270240984B5C
:10020C001367170098CB82A0813FB7270240984B09
:10021C00799B98CB9E20E30EF4FC053F1145110110
:10022C0069B5930785009306F00F1305A53F63E4AA
:10023C00A7000145828098231377F70FE30BD7FEB5
:10024C006316B70081C51CC2054582809907C5B7E6
:10025C001307850081471305A53F1306F00F636450
:10026C00A7003E858280142393F6F60FE38BC6FE1F
:10027C0081C6850793F7F70F1907D5B719C97C21E4
:10028C0089CB2320050023220500232405002316F7
:10029C000500828051C9EFF2BFE07C212A847111E4
:1002AC00194589CB0440013F11E57D3511C52AC0A4
:1002BC00693D02451101D5BBB7270240984B136726
:1002CC00270098CBC4CB984B1367070498CB6935A0
:1002DC00B7270240984B759B98CB9840FD57630508
:1002EC00F700A5350945F9B72AC08535024579F1DE
:1002FC000840956593855504E5354DFD084091659D
:10030C00938555540905E93D55F50840854511057A
:10031C00C13D4DF1084081451905D93541FD2316E4
:10032C000400A303040079B71945828019E12D4517
:10033C008280EFF2FFD67C212A84AE8491C33D3FAC
:10034C0093F7F43F2D459DE7C167938707025CC087
:10035C0004C0232404009840B757454523160400D5
:10036C009387570401456307F7002285253719C188
:10037C00230304001DBB31C57821AD4721C739C209
:10038C00EFF21FD20841511132843000AE84513D3E
:10039C009D470DC5224785468D453E2348003AC0F2
:1003AC00C207C1831EA0A1835C834482D482F13333
:1003BC00024781475A236303E500A1473E8531017B
:1003CC00EDB1AD473E858280AA8709C978211945D0
:1003DC0019C7F83301450507F8B3828019458280A7
:1003EC0039C97821994729CBA947B9C5EFF25FCB19
:1003FC002A840841411132C22EC0993D5E2042052B
:10040C004181637DF5001C409306F00F93848700B7
:10041C009387A73F63EBF400A54729A022856D378E
:10042C00A54775D13E85410149B190206388C6002E
:10043C0090309904C5B799473E85828082478D4597
:10044C0068005C868547DC869247A1835C873533E0
:10045C0082472AC4268593E507105933AA8779F178
:10046C00924513852400AD3BAA874DFDA24513850B
:10047C004400BD33AA875DF55A2405075AA437F703
:10048C0000E0184718C479BFB707002083A687047B
:10049C001306F00F8147138786009386A63F636788
:1004AC00D70061551D8D1375F50F82800C23E30A5F
:1004BC00B6FE1385670093170501C1831907C5B7ED
:1004CC00EFF21FBEB745000837050020938505C025
:1004DC0013058504A13DD1BEEFF29FBC2E86AA85E3
:1004EC003705002013058504E53DC1B6EFF25FBB6F
:1004FC007111AA8537050020130621001305850408
:10050C009D3D01E5288111014DB62A84AA85372528
:10051C000000130585FAEF10501D7D141374F40FB1
:10052C00A94763EF870089679387C7F70A043E944E
:10053C001C40828737250000130585FCEF10F01A4C
:10054C002945EF1070217D557DBF3725000013051F
:10055C0045FEEDB737250000130585FFC5B73725D8
:10056C0000001305C500D9BF372500001305C502CF
:10057C00F1B73725000013054504C9B7372500002E
:10058C001305C50565BF37250000130545077DB765
:10059C00372500001305C50855B73725000013058E
:1005AC00850A69BF372500001305C50B41BFEFF263
:1005BC003FAF2A840146894537150140EF00D04EE4
:1005CC002285EF10A01FD5B4B7F700E0D843799B74
:1005DC00D8C3379798001307F76798CB23A4070065
:1005EC009847E37FE5FE23A407001307703E98CBE2
:1005FC008280EFF2FFAA7111AE8409E52E85453F8A
:10060C00110165B4AA8537450F0013050524D934AB
:10061C0093975400858F8A07A697AA8513541500C3
:10062C0013953700453CAA878144E38BF4FC0546BF
:10063C008945371501403EC0EF00104722856937C8
:10064C000146894537150140EF0010462285AD3F24
:10065C0085048247D9BFEFF2BFA451112E8411C17A
:10066C0009E62285A937310189B4AA8537450F00DF
:10067C001305052432C2B93C93175400818F8A07A5
:10068C00A297AA859354150013953700A1341246EE
:10069C002AC0930740061375F60F63F4C7001305C1
:1006AC004006A685013C930540062D34B387A44033
:1006BC003EC22A8481470247E387E7FA054689450B
:1006CC00371501403EC4EF00303E2285F53D014612
:1006DC00894537150140EF00303D1245F53526852B
:1006EC00E535A2478507C1BFEFF29F9B9305000537
:1006FC001305803EFD3D930500051305C05DD53DFA
:10070C006DB2EFF2FF999305600913050032D535F0
:10071C006FF0BF99EFF2DF98E54513058070D13D7E
:10072C006FF0BF98EFF2DF9793056004130500326A
:10073C00C935930560041305803E653D9305A005FE
:10074C00130580257D356FF05F96EFF27F9593054D
:10075C0060091305004B713D930560091305403882
:10076C00493D9305400B1305802561356FF0FF93D0
:10077C00711122C0372400001305440EEF102079AC
:10078C00E5BF7111B707EFBE22C037E700E09387D2
:10079C0007083CC7372400001305040DEF10207721
:1007AC00E5BF938701819843D0439306170033B775
:1007BC00E6003297D8C394C3B7F700E023A2070032
:1007CC0073002030EFF2DF8D5111054502C002C2DB
:1007DC0002C4EF00703CEF00500CEF100005130545
:1007EC00401FEF10C007854513054003EF00B055BF
:1007FC00854537050010EF00F05637150140FD57C1
:10080C008A85130505807C8002C4EF0090218A85BF
:10081C0037150140EF00F0200544C14491478A850B
:10082C00371501407C8026C422C2EF00901F8947F7
:10083C008A85371501407C8026C422C2EF00701EC9
:10084C00930780048A85371501403EC4648022C218
:10085C00EF00301D0546914537150140EF00D024BF
:10086C001545EF00D07F0146914537150140EF004B
:10087C00B02331016FF07F83EFF29F8241118545E8
:10088C00454502C002C202C402C6EF00D04B9145DE
:10089C000945EF00502EC1473EC091473EC2B147BB
:1008AC003EC40A8585473EC6EF00101141016FF02A
:1008BC00CFFFEFF2EFFE61112A842EC0B2843D31DE
:1008CC007D576314E50437250000A285130505192F
:1008DC00EF10A061A68522850131AA85372500007D
:1008EC001305051BEF1060602285093113160501F5
:1008FC00372500004182A2851305851CEF10E05EB0
:10090C00824786A321016FF04FFA2A862AC2372527
:10091C000000A2851305051FEF10205D02479247CA
:10092C001EA3CDB7EFF2CFF7613EB93EAA853725AE
:10093C00000013050513EF10405B3725000013056D
:10094C008514EF10C05C01469385218305459537CE
:10095C003725000013054516EF10605BB705002026
:10096C001306800C9385C5000945A1373725000077
:10097C001305C517EF10A059B70500201306800208
:10098C009385E5000D4535376FF02FF203C7A18233
:10099C0091476319F700EFF2AFF023AC0182753386
:1009AC006FF0AFF08280EFF2AFEF130141FD193D14
:1009BC00E135716513050520EF00106E3725000039
:1009CC0013058520EF10A054B707002083A507025C
:1009DC003725000013054523EF102051A13737248C
:1009EC00000013058421EF10805283D52183372515
:1009FC00000013054524EF10404FB707002083D5A6
:100A0C00C7003725000013050526EF10004EB70769
:100A1C00002083D5E7003725000013050528EF10CB
:100A2C00C04C13058421EF10804EEF000067056762
:100A3C00B7E700E023A0E710B7F700E0D4439384B6
:100A4C004183F99AD4C39306703E94CB23A4070038
:100A5C00AD4694C3B70732009387470613055780FA
:100A6C009CC0854502C802CA02CC02C202C423162D
:100A7C00010002CE02D002D202D4EF00D02CE1470A
:100A8C003715014091463ECC0C088D471305058067
:100A9C00F48036C03ECAEF00C0789E203734014047
:100AAC004C007C84130504C0A5473EC223150100ED
:100ABC00EF00302DC1679387070682463ECEBE20DD
:100ACC006C08130504C02310D1022311F10202D2C9
:100ADC00EF001030A145130504C0EF00503D8545D3
:100AEC00130504C0EF00103BAE20130504C0EF004B
:100AFC00703D8545130504C0EF007038854513051E
:100B0C0004C0EF005036130600059305C00313050F
:100B1C00007D91361306A005930560091305401F4F
:100B2C001D3E05671305479C13060005930520031E
:100B3C001D36130640069305400B1305401F213E3E
:100B4C001306B004930500051305800C29363725D0
:100B5C0000001305C529EF10803BC1453715014036
:100B6C00EF00E07393878181982B13351500631286
:100B7C00A7028146014794C7D8C7B42B3946982B96
:100B8C006366D60609668A061306460FB296944229
:100B9C0082869847CC4783A601813363B70003A6AE
:100BAC0041816315030094C7D0C7C1BF3387E640AA
:100BBC00B3B6E6000D8E6316D60093061003E3FE63
:100BCC00E6FA88AB5DBF1DC30547B8AB05A00D4762
:100BDC00B8AB03A6018183A6418190C3D4C339A0CD
:100BEC002DE30947B8ABB83B0507B8BB83A7818396
:100BFC00138481839DE3912483D70183638A071631
:100C0C00373501408545130505C0EF00D025054655
:100C1C00914537150140EF0020691840894763134F
:100C2C00F700212C184095476315F700853323985E
:100C3C00018218408D47E312F7F269222398018252
:100C4C0029BF03A60181944383A54181D843B306F0
:100C5C00D6403335D6003387E540098F6347E00033
:100C6C0051F71307F07CE373D7F81147B8AB90C377
:100C7C00CCC3ADBF194791BF19E31547B9B703A64C
:100C8C000181944383A54181D843B306D6403335C3
:100C9C00D6003387E540098F6347E00021FB13073B
:100CAC00703EE375D7F41D47D1B7214739BF19E31F
:100CBC00254721BF03A60181944383A54181D843D5
:100CCC00B306D6403335D6003387E540098F6348E9
:100CDC00E000E31D07F01307703EE379D7F01D47E2
:100CEC00B8AB983B050798BB59B7A38907002947B0
:100CFC00E9BDB43BA38807002D47E39B06EC3547C1
:100D0C00C1BDE31307EC03A60181944383A5418184
:100D1C00D843B306D6403335D6003387E540098F28
:100D2C006348E000E31407EC1307301FE370D7ECC3
:100D3C0031472DBF3547BAAB55BDE31707E803A6BE
:100D4C000181944303A74181CC43B306D64033368B
:100D5C00D6000D8F118F6348E000E31907E81307E5
:100D6C00703EE375D7E839478DB523890700BDBDC3
:100D7C00373501408145130505C0EF00D00E014603
:100D8C0041BDEFF2EFB185450545EF00C07B37055E
:100D9C003000854513050540292B054509256FF0C5
:100DAC00CFB09387818101478146D8C3D8C794C3FC
:100DBC0094C723A80700B70732009387470623AAD6
:100DCC00F1828280EFF2CFAD83D72183054691E388
:100DDC000146914537150140C1293704002093077E
:100DEC000406B82BB147130404066316F7042C3819
:100DFC00372500001305452AEF10200F383885479A
:100E0C00631AF70083D7218393B717002399F182D4
:100E1C00EFF09F8D38388947631FF70023AC0182B0
:100E2C00EFF0BF920146914537150140A30804002D
:100E3C002319040095296FF04FA7EFF26FA6370422
:100E4C00002093070406B82B89471304040663108B
:100E5C00F702372500001305052BEF10400BEFF0C0
:100E6C007F8B03D7018363020718239801823828EC
:100E7C009147631FF700372500001305852BEF10F2
:100E8C000009EFF01F887D5723AEE1822398018281
:100E9C00382895476318F700372500001305052CF3
:100EAC00EF10E00638289D47631CF7029387C18337
:100EBC008C43372500001305C52C85058CC3EF101A
:100ECC00C002EFF03F850546914537150140E92EEC
:100EDC001545EF00B00E0146914537150140E92646
:100EEC003828A547631FF708372500001305852D03
:100EFC00EF10E00183A7C1830D476394E708130546
:100F0C00803E23ACF182EF00700B054691453715FE
:100F1C000140592EEFF01F800146914537150140D5
:100F2C0061261305800CEF007009054691453715B5
:100F3C0001409D2EEFF00FFE014691453715014003
:100F4C00A5261305800CEF00700705469145371553
:100F5C000140992EEFF00FFC0146914537150140E9
:100F6C00A1261305800CEF00700505469145371539
:100F7C0001401D2EEFF00FFA014691453715014047
:100F8C0025263828A947631DF700372500001305CF
:100F9C00452EEF00D07701469145371501402926A3
:100FAC003828B1476317F7042C3837250000130590
:100FBC00452AEF00907338389547631CF702EFF021
:100FCC00CFF8EFF08FF8EFF04FF8EFF00FF8930742
:100FDC00800873B007300F100000B707EFBE37E77B
:100FEC0000E0938707083CC701A005472398E182DE
:100FFC00BDBD3828B947631AF70037250000130523
:10100C00C52EEF00D070EFF0EFF16FF00F8AEFF21A
:10101C002F89371402401C403707FFF8414593E7EE
:10102C0017001CC05C40F98F5CC01C403707F7FEF2
:10103C007D17F98F1CC01C403707FCFF7D17F98FFB
:10104C001CC05C4041777D17F98F5CC0B7079F00CF
:10105C001CC481211C4C93E707021CCCB717014020
:10106C0003A70740938607401377F7F023A0E740C8
:10107C0003A707401367070823A0E74089479CCACA
:10108C00B72702409843719B98C3984398C35C4020
:10109C0093E707025CC06FF04F81EFF26F80371758
:1010AC0002405C43370400209146B18B13040402C8
:1010BC006385D700A1466382D704B7376E01938747
:1010CC0007601CC0B7160240DC420840918313F73E
:1010DC00F700B707002093870701BA978C23DC42EF
:1010EC0093F5F50F93F707083357B50081E7EFE059
:1010FC007FFE2A8718C06FE05FFB5C43B777DC028A
:10110C00938707C07DBF01A097F1FF1F93814173A7
:10111C00138181FB1305000A97F5FF1F9385C5ED1D
:10112C0017F6FF1F130606EE63FAC50083220500AF
:10113C0023A0550011059105E3EAC5FE1715000023
:10114C001305851B97F5FF1F9385C5EB17F6FF1F3E
:10115C00130606EF63FAC5008322050023A0550091
:10116C0011059105E3EAC5FE17F5FF1F130545EDC3
:10117C00938581846377B500232005001105E36D09
:10118C00B5FEB722000093820288739002308D4224
:10119C007390428097F2FFFF938202E693E2320053
:1011AC0073905230EFF0BFE697F2FFFF9382E27F2D
:1011BC0073901234730020305841032305004C45C2
:1011CC0037060140930706403E979346F3FFB1C59F
:1011DC0083250640F58D2320B640D043F18ED4C331
:1011EC001443B3E6660014C3184190479346F7FFC7
:1011FC00758E90C7D047F18ED4C71445414663997C
:10120C00C6009447D98E94C7D447558FD8C78280CF
:10121C00B6979443558F98C382801C43F58F1CC39B
:10122C008280944593F7060193F2F60081C7DC4166
:10123C00B3E2F20083D3050093F7F30FA5C30323A6
:10124C000500611122C226C0814713048002930459
:10125C00800405473316F70033F7C3006312E60228
:10126C00939527003D473317B7001347F7FF3373A8
:10127C006700B395B20033E36500639D860050C9E7
:10128C0085072147E397E7FC12442320650082443D
:10129C0021018280E39696FE10C9DDB78280084555
:1012AC006D8D3335A000828019C20CC982804CC967
:1012BC00828037030140032743009317350063D026
:1012CC000702B707C0FFF517F98F37070007D98F4B
:1012DC00D9CD370700F07D17798DC98F49A8635D8B
:1012EC000500B707E0FFED17F98F37070007D98F17
:1012FC00BDCD06050581D5B7B7073000931605019E
:10130C003376F500C1826313F602370600F97D16B9
:10131C00B377C70003274300798E2322C300A1C9EA
:10132C005581131745003395E60045BF9317B5005B
:10133C0063D407029357050113F6F7008D47B39753
:10134C00C70093C7F7FFF98F37070007D98F85C1FF
:10135C00135755011207C1BF558112053395A600CD
:10136C009347F5FFF98F37070007D98FBDF537077E
:10137C0001405CC3828037070140144786058D47C6
:10138C00B397B70093C7F7FFF58F1CC71C47B3156E
:10139C00B500DD8D0CC7828023A0A1848280EFE292
:1013AC003FD0B77700409843759B98C39843136719
:1013BC00270098C3B7F700E003A707D113674700CE
:1013CC0023A8E7D003A707D1118B45C39307800847
:1013DC0073B007300F100000B707014083A44740DB
:1013EC0003A7074083A64740558F23A2E74037F455
:1013FC0000E0032704D1832704D14D45137707025E
:10140C0093E787022328F4D0832704D193F7F7FDC1
:10141C00D98F2328F4D0832704D193E7870023287E
:10142C00F4D097F0FF1FE78020BD832704D14D45F2
:10143C0093E787002328F4D097F0FF1FE780C0BB09
:10144C00832704D1918BA1C3B707014023A29740F6
:10145C009307800873A0073037F700E0832707D184
:10146C00ED9B2328F7D06FE05FC403A707D1136768
:10147C00070123A8E7D09307800873B007300F103B
:10148C0000008144ADB7832704D1BD9B2328F4D041
:10149C00C1B7371702401C430E0593F777F05D8DEB
:1014AC0008C38280EFE2DFBF371702405C439146EE
:1014BC002A84B18B6385D700A1466380D708B737E0
:1014CC006E01938707601CC0B7160240DC42918303
:1014DC0013F7F700B707002093878703BA978C237D
:1014EC00DC42184093F5F50F93F707083355B70016
:1014FC0081E73A85EFE01FBE48C008C448C4B7175F
:10150C000240DC438D46AD83FD8B13D737008A0731
:10151C00F18BD98F13F6370113F7370063F4C6003C
:10152C00138747FFB707002093874702BA978C238E
:10153C00EFE05FBA08C86FE05FB75C43B777DC02D7
:10154C00938707C049B799C5371702401C4F5D8D6B
:10155C0008CF8280B7170240984F1345F5FF798D5D
:10156C0088CF828099C5371702405C4F5D8D48CF7C
:10157C008280B7170240D84F1345F5FF798DC8CF3D
:10158C0082801E2137370140130707C0C207C18371
:10159C006306E500370700406316E500BA2193F7B0
:1015AC00F7F8D98FFA2193F7F7CFC207C183D98FF8
:1015BC001EA1DE215EB59E211EB5B7370140938773
:1015CC0007C06314F5009C251EB985475EA982806F
:1015DC001E3165771307F7CFC207C183BD9BC207C6
:1015EC00C1831EB11E31562103D38500C207139649
:1015FC000601162DC18393F7F7FD758F9621418255
:10160C00A206558FB62142074183B3E666009206C7
:10161C00D58FB7360140C207938606C0C183631EBF
:10162C00D502B62593F7F7F703D3C5009206D58FED
:10163C00D621C207C183920693F7F7FBD58FFD76AF
:10164C009386F63FF18EF225C207C183336666009E
:10165C000A06D18E13960601418252A11AADFA21C7
:10166C0018DD1EB182801E2189C593E717001EA1CB
:10167C008280C207C183F99BC207C183CDBF835748
:10168C00450491C52167D98F2312F5048280C607C2
:10169C00C583DDBF1E2189C593E707081EA1828083
:1016AC00C207C18393F7F7F7C207C183C5BF1A2DD1
:1016BC00FD779387F77FF98FA205CD8FC207C18382
:1016CC001EAD82800CDD8280EFE29F9D1629F5779E
:1016DC00FD17F58FF621DA252111D58F1EA9562578
:1016EC00FD779387379FF58FD6212A842EC0D58F0F
:1016FC009625D58FB625D58F5EA55E29C207C183E9
:10170C0093F7F7CF5D8F5AA94800693BB747014063
:10171C009387078082456312F406C2475A241395B7
:10172C0017003E9542070E0541873E958C41635844
:10173C0007048605EFE01F9A930540062AC0EFE0E8
:10174C007F99824793144500930540063E85EFE050
:10175C003F9B5E24C207C18763D507020E05930524
:10176C00400613052503EFE0FF961D89C98CC204C2
:10177C00C18006A461016FE05F93B24745B78A054B
:10178C0055BF12059305400613052503EFE09F9402
:10179C003D89E9BF91C55E250967D98F5EA5828019
:1017AC005A25F977FD17F98FD5BF93F5F51F4EA183
:1017BC0082800A216D8D3335A000828037F700E0DE
:1017CC005443311193077100F99A54C39306703E38
:1017DC0014CB23240700AD4614C303A6018183A6B2
:1017EC004181E19B90C7D4C78C47D0479356F541B4
:1017FC003303B5003335A300B385C600B306B5007B
:10180C0023A06700D4C303A3070003A5418183A3CE
:10181C00470063E8A3006318750083A60181637415
:10182C00D300510182800100F9BFEFE27F87B70737
:10183C00002003A50702B7157A0093850520EFE079
:10184C007F891375F50F2383A18493175500898F16
:10185C008A073E950E052392A1846FE01F85EFE267
:10186C003F8437F400E05C40AA85F99B5CC003D54B
:10187C004184EFE03F8408C8232404001C4093E714
:10188C0017001CC0B7F700E0D843058B75DF9843F1
:10189C00799B98C36FE07F81EFE29F802A8411656A
:1018AC001111854513051502EFF0FFC98545370564
:1018BC002080EFF01FA0930700047C8037150140B7
:1018CC008D473EC28A85E147130505403EC4EFF0C3
:1018DC005F9522C637440140B70708006C0013051A
:1018EC0004803ECA02C8231C0100F93B8545130540
:1018FC0004804D3571016FE04FFBEFE26FFA71110F
:10190C00AE840144635DC402B7470140138707806E
:10191C003A859305000432C0693DB74701401387EF
:10192C000780024675D5338784008305070013852D
:10193C0007800504C205C1818D3D0246E1B73285A1
:10194C0011016FE08FF6411106C62EC00DCD184166
:10195C00AA8705C358417D5511CB8546631BD7001B
:10196C0098472300070023A207000545B240410118
:10197C0082809847824614A39847050798C7D84396
:10198C007D17D8C3DDB705468A85853FF9BF0111A0
:10199C0022CC2EC206CE26CA2A8481479305000289
:1019AC00634506029245BE95838505008DE563D897
:1019BC00C70263D4E702198E1305000293F52600C3
:1019CC002AC089C501E7930500032EC0858A81448E
:1019DC0095EAB2840DA08507F1B71D8EF1BF0146C3
:1019EC00E1BF824522853AC832C63EC4A93FA24710
:1019FC0032464247FD14E34690FEB2846353060020
:101A0C008144058E63C7E702A687924633879740C9
:101A1C0036978305070095EDB284634490046353B5
:101A2C0006000146F2406244D2443305F6000561DB
:101A3C0082801D8FBA8793050003228532C83EC66B
:101A4C003AC41137B24722474246FD17EDF7BA9414
:101A5C0065BF228532C63EC4FD35A2473246850796
:101A6C006DB78245228532C43EC2F13DFD1422463B
:101A7C00924765B7397106DE22DC26DA3EC2328324
:101A8C003A8689ED92469307000301476C08FC8661
:101A9C00FD3DF2506254D25421618280AA84368476
:101AAC00AE8791CA294701446317E30063D505004B
:101ABC00B307B04005448646A3090102130731035E
:101ACC00938666FC36C49A853E8532CA3AC81AC6D5
:101ADC003EC0EFE0EFE2A546824732434247524612
:101AEC0063D4A600A2463695130505039306F7FFAB
:101AFC00A30FA7FE9A853E8532CC3ACA1AC83EC6B9
:101B0C0036C0EFE02FDDB24742435247624663F9DD
:101B1C00670401CC29CA9247898BB1C79305D002BF
:101B2C00268532C40D3522467D169247918B95C37E
:101B3C0006479307100632C4930500032685631EDF
:101B4C00F7021135930580072685F53B22460904DB
:101B5C0079161647924682452685153D229515BF66
:101B6C00AA8702478DB782469307D0020144A38F00
:101B7C00F6FE9307E7FF3EC04DBFF133930580059A
:101B8C00E1B70145828001458280130181FD22D09D
:101B9C0026CE06D22AC4AE82328402C68144838504
:101BAC00020091EDA24789C781453E85EFF0BFD970
:101BBC00925002542685F2441301810282809307CD
:101BCC0050026389F500224516C88504EFF0BFD793
:101BDC00C24205A08387120013871200639DB700D1
:101BEC002245930550023AC8EFF0FFD542478504D1
:101BFC00BA8285026DB7DDD79306B0026389D7042C
:101C0C0063C8F600930630026386D704814705A0AB
:101C1C009306D002638AD70093060003E398D7FE9D
:101C2C0013872200894721A013872200854783064A
:101C3C0007001306B0026383C6046341D602130681
:101C4C003002638BC602BA820145A54681A0138778
:101C5C0022006DBF138722009147D1BF1306D0021B
:101C6C006389C60013060003E39FC6FC93E72700B5
:101C7C0031A005078547C1BF93E747000507E1B7CA
:101C8C0013162500329506053A9585020386020047
:101C9C00130706FD9375F70FE3F4B6FE1307E00286
:101CAC009946631EE60085028146A545038602001F
:101CBC00130606FD1377F60F63F5E50236C60387A8
:101CCC0002001306A006630DC70A6343E60213065F
:101CDC00C0046307C70A13068006630CC708814556
:101CEC002DA813972600BA968606B29685027DBF5C
:101CFC00130640076306C7081306A0076302C7084C
:101D0C001306C0068145631AC700038612008D4571
:101D1C006314E60085029145850203860200930355
:101D2C0000061307100663C4C300130710049303C3
:101D3C00700663C4C3069303500663567618930368
:101D4C00700463C1C30493055004635EB616130795
:101D5C003004E310E6EA18409303440016CA230C3F
:101D6C00E1001EC8A30C01000147BE862A862C0880
:101D7C0049A8038612008145E311E6FA890271BF76
:101D8C008502B1BF93063006E307D6FC63CFC606C7
:101D9C00930680056303D602A9BD9306300763043E
:101DAC00D60463CBC6029306F0066305D60E9306E3
:101DBC00000793E74700E31ED6E291466392D50CE9
:101DCC00930384000C40504016CA3AC23EC01EC851
:101DDC00AA870147C14681A893065007630BD60614
:101DEC009306800745BF1840B726000093034400B4
:101DFC009385462F11C3BA85324716CA1EC8BE86B4
:101E0C002A862245EFF0BFB815A091466395D502FE
:101E1C00930384000C40504016CA3AC23EC01EC800
:101E2C00AA870547A9462245EFF0BFD5C243AA941D
:101E3C001E84D2427DBBB2460C4016C836C23AC094
:101E4C0011042A87854629462245EFF0BFC2AA9481
:101E5C0041B39146639DD500930384000C405040E0
:101E6C0016CA3AC23EC01EC8AA87014765BFB24611
:101E7C000C4016C836C23AC011042A878146E1B715
:101E8C00B24616C80C40414636C23AC011042A87E5
:101E9C0081465DBF9146639ED500930384000C4040
:101EAC00504016CA3AC23EC01EC8AA870147A14676
:101EBC009DBFB2460C4016C836C23AC011042A87E0
:101ECC008146214651B70C401306840040403AC26B
:101EDC002A87224532C83EC02286B687A94616CA32
:101EEC00EFF07FCAAA944244A9B71301C1FD2EC8D2
:101EFC0032CAAA851008014506C636CC3ACE3ED069
:101F0C0032C0EFF09FC8B2401301410282804111F0
:101F1C0022C426C206C61C21AA840144DC81830784
:101F2C003100050499EFA947930531000546014599
:101F3C00DC81EFF09F9C2285B24022449244410107
:101F4C0082800546930531000145EFF01F9BB38756
:101F5C0084009C23DC81E1B741112AC08A850546A7
:101F6C00014506C6EFF07F99B240054541018280DC
:101F7C004005000056050000600500006A050000E1
:101F8C00740500007E050000880500009205000025
:101F9C009C050000A6050000B00500004572726F9C
:101FAC007220454550524F4D5F72656164566172A7
:101FBC0020636F64653A256420000000466C6173F1
:101FCC006820756E6C6F636B2F6C6F636B20666132
:101FDC00696C656400000000466C61736820657272
:101FEC00617365206661696C65640000466C6173A1
:101FFC0068207772697465206661696C656400009D
:10200C00466C6173682077726974652076657269B5
:10201C006669636174696F6E206661696C656400E2
:10202C00466C617368206F7065726174696F6E20A5
:10203C0074696D656F757400454550524F4D206E37
:10204C006F7420696E697469616C697A65640000EB
:10205C005661726961626C65204944206E6F742010
:10206C00666F756E6400000043524320766572699A
:10207C006669636174696F6E206661696C65640082
:10208C0053746F7261676520636170616369747901
:10209C00206578636565646564000000496E76614F
:1020AC006C6964207661726961626C6520494400D8
:1020BC00496E76616C696420706172616D657465DE
:1020CC0072000000486172644661756C745F48610F
:1020DC006E646C65720D00004E4D495F48616E6414
:1020EC006C65720D00000000D20B0000DA0B0000D2
:1020FC00FA0C0000EC0B0000800C0000F60C000049
:10210C00840C0000B60C0000BA0C0000F60C0000A9
:10211C00FE0C00000E0D0000400D0000460D0000EE
:10212C00760D0000454550524F4D2044656D6F2093
:10213C00467265653A2025640A0000002E5245411E
:10214C004420434F4E46494720426F6F73742045DD
:10215C006E61626C650000002E5245414420434F75
:10216C004E46494720426F6F73742054696D650069
:10217C002E5245414420434F4E46494720506F77DD
:10218C0065720000454550524F4D2069643A2564F4
:10219C002021204E6F742050726573656E7420215F
:1021AC000A000000454550524F4D20536176652082
:1021BC00636F64653A25640A00000000454550527F
:1021CC004F4D20566572696669636174696F6E2044
:1021DC0069643A25642056616C75653A2025640A59
:1021EC0000000000454550524F4D2069643A25646B
:1021FC002056616C75653A25640A00000D0A2D2D78
:10220C002D2D2D2D2D2D2D2D2D2D2D2D2D2D2D2DF2
:10221C002D2D2D2D2D2D2D2D2D2D2D2D2D2D2D2DE2
:10222C002D2D2D2D2D00000053797374656D436C8D
:10223C006B3A25640D0A0000434F4E464947204235
:10224C006F6F737420456E61626C65203A20256453
:10225C000A000000434F4E46494720426F6F73748B
:10226C002054696D652020203A202564206D730A66
:10227C0000000000434F4E46494720506F7765726F
:10228C0020202020202020203A2025640A00000055
:10229C00476F2E2E2E000000436C69636B733A203F
:1022AC0025640A00436C69636B000000486F6C6422
:1022BC000000000052656C65617365486F6C6400CA
:1022CC00537465702025640A0000000072656C650B
:1022DC00617365537465700052656C65617365005C
:1022EC0054696D656F757400286E756C6C290000EF
:0422FC00AE0D000023
:1023000064000A0001020304050607080102030431
:102310000506070800127A000204060804080C10DB
:102320000810182010203040204060800102030473
:0C23300005060708010203040506070863
:00000001FF
