:100000006F00302300000000500200006202000078
:1000100000000000000000000000000000000000E0
:1000200000000000000000000000000000000000D0
:100030008202000000000000300A00000000000002
:10004000300A0000300A0000300A0000300A0000C8
:10005000300A0000300A0000300A0000300A0000B8
:10006000300A0000300A0000300A0000300A0000A8
:10007000300A0000300A0000300A0000300A000098
:10008000300A0000300A0000300A0000300A000088
:10009000300A0000300A0000300A000000000000B2
:1000A000611122C22000232CA4FE730050107D1584
:0C00B0007DFD010012442101828000004F
:1000BC00511126C022C206C4828282441244A2403C
:1000CC00310182802A86014593F6150091C2329542
:1000DC0085810606F5F9828000000000634E05025A
:1000EC0063C305042E86AA857D5515C285466378A3
:1000FC00B6006356C00006068606E36CB6FE0145E4
:10010C0063E4C500918D558D85820582F5FA828058
:10011C008682C93F2E8582823305A04063D70500B5
:10012C00B305B040C1B7B305B0408682653F330517
:10013C00A0408282868263C70500634905005D3753
:10014C002E858282B305B040E35B05FE3305A040EB
:10015C00513F3305B04082820000EFF27FF52A84D4
:10016C000146894537150140EF0050452285EF10B7
:10017C00B037A1B7B7F700E0D843799BD8C337970E
:10018C0098001307F76798CB23A407009847E37FE1
:10019C00E5FE23A407001307703E98CB8280EFF294
:1001AC003FF17111AE8409E52E85453F110131B740
:1001BC00AA8537450F00130505242D379397540056
:1001CC00858F8A07A697AA851354150013953700B7
:1001DC00113FAA878144E38BF4FC0546894537150A
:1001EC0001403EC0EF00903D2285693701468945AC
:1001FC0037150140EF00903C2285AD3F85048247C6
:10020C00D9BFEFF2FFEA9305600913050032413FB5
:10021C006DB5EFF2FFE9E54513058070493771BD07
:10022C00EFF21FE993056004130500328D3F93052F
:10023C0060041305803EA5379305A00513058025A2
:10024C00B93FA5BD711122C0400089671385475580
:10025C00EF20C02ADDBF711122C04000B7E700E0DB
:10026C003707EFBE13070708B8C7896713854756CA
:10027C00EF20C028DDBF711122C04000B70700205D
:10028C0003A7870583A7C705054581453306A70046
:10029C0032833333E300B386B700B307D300BE8693
:1002AC003287B687B706002023ACE60423AEF604EB
:1002BC00B7F700E023A2070001000244110173000C
:1002CC002030EFF2FFDE41118545454502C002C2E8
:1002DC0002C402C6EF10402B91450945EF00F04FC8
:1002EC00C1473EC091473EC2B1473EC40A858547CF
:1002FC003EC6EF00407E4101C9B3EFF27FDB85457E
:10030C000545EF106028370530008545130505407D
:10031C00EF00502E0545EF00305445B3EFF25FD996
:10032C0079712AC205652E84130555808545B284E2
:10033C0002CA02CC02CE02C402C62318010002D0AB
:10034C0002D202D402D6EF102024E1463715014028
:10035C00114736CE4C088D461305058036CCF882F5
:10036C003AC0EF00500E92476084373401402C00A5
:10037C00130504C07C862317010023150100EF1020
:10038C0060290247C167938707060C10130504C048
:10039C003ED02312E1022313910202D4EF10C0339A
:1003AC00130504C0A145EF10A05C130504C08545DE
:1003BC00EF10E056A685130504C0EF10C0601305BE
:1003CC0004C08545EF10A04F8545130504C0EF1000
:1003DC00004A4561DDB1EFF2BFCD5111054502C0B8
:1003EC0002C202C4EF00B0454929EF1030181305C2
:1003FC00401FEF10B01C854513054003EF10C018CB
:10040C00854537050010EF10801C37140140FD574F
:10041C00130504808A857C8002C4EF00D00213058A
:10042C0004408A85EF0030028A8537150140EF00C1
:10043C009001C144914705448A85371501407C8061
:10044C0026C422C2EF00300089478A853715014047
:10045C007C8026C422C2EF00007F930780048A852B
:10046C00371501403EC4648022C2EF00C07D913D2F
:10047C00716513050520EF10101CB707002083A52C
:10048C00C701372500001305455BEF200005F52655
:10049C00B7E700E0056723A0E710B7F700E0D84303
:1004AC0013062003A545799BD8C31307703E98CB40
:1004BC0023A407002D4798C31305400685359305E3
:1004CC0040061305803EE139930560091305C05DB4
:1004DC00F9311305803EEF1030010535C145371554
:1004EC000140EF00100A938781809C2B1335150077
:1004FC00138481806392A7020147814718C45CC4AE
:10050C003828B9461C2863EAE60689660A079386EA
:10051C0086573697184302871C445044B706002070
:10052C0003A78605B3E5C70083A6C60581E518C4F5
:10053C0054C4F9B7B307F7403337F700918E63967D
:10054C00E60013071003E37DF7FA08A855BF95C71B
:10055C0085473CA81DA08D473CA8B707002003A7E2
:10056C00870583A7C70518C05CC001A86398070E50
:10057C0089473CA83C3885073CB838288547631E1A
:10058C00F700372500001305455CEF103077054662
:10059C00914537150140EF007002382889476319DF
:1005AC00F700372500001305C55CEF103075953149
:1005BC00382891476319F700372500001305455D6E
:1005CC00EF10D0733D39382895476318F70037255D
:1005DC0000001305C55DEF10707238289D47631D30
:1005EC00F700372500001305855EEF103071930579
:1005FC0040061305001965363828A5476318F7001F
:10060C00372500001305055FEF10506F3828A947F8
:10061C00631EF700372500001305C55FEF10106E41
:10062C000146914537150140EF0040793828B14714
:10063C006319F7002C383725000013054560EF10BF
:10064C00D0693828B947E31BF7E8372500001305B4
:10065C000561EF10B06AE9364D3149B5B707002096
:10066C0083A68705184003A6C7055C403387E64080
:10067C00B3B5E600B307F6408D8F6348F000E39EF8
:10068C0007EE9307703EE3FAE7EE91473CA814C0DF
:10069C0050C0E5B5994775BD99E395475DBDB70762
:1006AC00002083A68705184003A6C7055C40338746
:1006BC00E640B3B5E600B307F6408D8F6348F00013
:1006CC00E39D07EA9307F018E3F9E7EA9D477DBF3E
:1006DC00A14741B599E3A547ADBDB707002083A657
:1006EC008705184003A6C7055C403387E640B3B5C1
:1006FC00E600B307F6408D8F6348F000E39F07E6F2
:10070C009307703EE3FBE7E69D473CA81C38850742
:10071C001CB8B5BFA3090400A94725BD3838A308E8
:10072C000400AD47E31A07E2B5473DB5E39207E293
:10073C00B707002083A68705184003A6C7055C40B1
:10074C003387E640B3B5E600B307F6408D8F6348B8
:10075C00F000E39407E29307301FE3F0E7E2B147C0
:10076C0035B7B5473EA811BDE39407DEB7070020A7
:10077C0083A68705184083A7C70550403387E640FA
:10078C00B3B6E600918F958F6348F000E39707DED0
:10079C009307703EE3F3E7DEB94765BB230904001A
:1007AC00E9BBEFF2FF90AA8537350140130505C070
:1007BC00EF1060216FF07F90EFF29F8F3735014083
:1007CC008545130505C0EF10800A6FF01F8FEFF2FF
:1007DC003F8E373501408145130505C0EF102009C8
:1007EC006FF0BF8D938781808146014794C3D8C336
:1007FC0094C7D8C723A807008280511106C422C20F
:10080C006000B71702409843B717024013671700F0
:10081C0098C3B7170240D443B71702403707FFF805
:10082C00758FD8C3B71702409443B71702403707E8
:10083C00F7FE7D17758F98C3B71702409443B7170F
:10084C0002403707FCFF7D17758F98C3B71702401E
:10085C00D443B717024041777D17758FD8C3B717AC
:10086C00024037079F0098C74145EF00D031392A25
:10087C000100A240124431018280311106C822C607
:10088C004008232804FE232604FEB7170240DC434D
:10089C00B18B2328F4FE032704FF91476303F7026F
:1008AC00032704FFA1476307F702832704FFB9EF6F
:1008BC00B707002037376E011307076023AEE70038
:1008CC00B9A8B707002037376E011307076023AEAE
:1008DC00E700B1A0B7170240D843C167F98F2326B0
:1008EC00F4FE8327C4FE91EBB70700203777DC02B8
:1008FC00130707C023AEE7001DA0B707002037770A
:10090C00DC02130707C023AEE70011A8B7070020CD
:10091C0037376E011307076023AEE7000100B717E6
:10092C000240DC43918313F7F700B707002093874D
:10093C000702BA979C2393F7F70F2328F4FEB717F7
:10094C000240DC4393F707088DE3B707002083A729
:10095C00C701832504FF3E85EFF0CFF8AA873E87B9
:10096C00B707002023AEE70029A8B707002003A78C
:10097C00C701832704FF3357F700B707002023AEC6
:10098C00E7000100C240324451018280511106C47B
:10099C0022C26000B7170240984FB7170240136786
:1009AC00070298CFB7170140938707409843B717B2
:1009BC000140938707401377F7F098C3B7170140AE
:1009CC00938707409843B7170140938707401367F5
:1009DC00070898C3B717014093870740094798CB7E
:1009EC0031200100A240124431018280711122C0D9
:1009FC004000B72702409843B7270240719B98C329
:100A0C0037270240B7270240184398C3B717024054
:100A1C00D843B717024013670702D8C3010002443A
:100A2C001101828001A097010020938161E2138162
:100A3C0081FA1305000A97F5FF1F9385E55B17F6FE
:100A4C00FF1F1306265D63FAC5008322050023A051
:100A5C00550011059105E3EAC5FE172500001305A5
:100A6C00E5BB97F5FF1F9385E55A17F6FF1F130695
:100A7C00265E63FAC5008322050023A055001105EC
:100A8C009105E3EAC5FE17F5FF1F1305655C938519
:100A9C0081826377B500232005001105E36DB5FE57
:100AAC00B722000093820288739002308D427390BB
:100ABC00428097F2FFFF9382225493E232007390AC
:100ACC005230EFF09FD39702000093820291739003
:100ADC00123473002030511122C46000232AA4FE6A
:100AEC00232C04FEB707014093870740232CF4FE08
:100AFC00832744FFDC4763800712B70701409387C5
:100B0C0007409443832744FF9C4313C7F7FFB70761
:100B1C00014093870740758F98C3B70701409387AF
:100B2C000740D443832744FF9C4313C7F7FFB70701
:100B3C00014093870740758FD8C3832744FFDC435C
:100B4C00032784FFBA97232CF4FE832784FF944356
:100B5C00832744FF9843832784FF558F98C3B70797
:100B6C000140938707409447832744FF9C4313C756
:100B7C00F7FFB707014093870740758F98C7B707F2
:100B8C00014093870740D447832744FF9C4313C7F6
:100B9C00F7FFB707014093870740758FD8C78327A6
:100BAC0044FF9847C147631FF702B707014093877B
:100BBC0007409447832744FF9843B7070140938726
:100BCC000740558F98C7B707014093870740D44714
:100BDC00832744FF9843B707014093870740558FFD
:100BEC00D8C7B1A8B707014093870740232CF4FE60
:100BFC00832744FF9C47032784FFBA97232CF4FEDA
:100C0C00832784FF9443832744FF9843832784FFDF
:100C1C00558F98C32DA0832744FFDC43032784FF03
:100C2C00BA97232CF4FE832784FF9443832744FF35
:100C3C009C4313C7F7FF832784FF758F98C301006C
:100C4C002244310182801301C1FD22D040102320A7
:100C5C00A4FE232EB4FC232C04FE232604FE232AFC
:100C6C0004FE232404FE232804FE232204FE8327EF
:100C7C00C4FD9C47BD8B232CF4FE8327C4FD9C47ED
:100C8C00C18B89CB8327C4FDDC43032784FFD98F19
:100C9C00232CF4FE8327C4FD9E2393F7F70FE9CF93
:100CAC00832704FE9C432328F4FE232A04FE5DA81C
:100CBC00832744FF0547B317F7002324F4FE83274B
:100CCC00C4FD9E233E87832784FEF98F2326F4FEE2
:100CDC000327C4FE832784FE6311F708832744FF90
:100CEC008A072324F4FE832784FE3D47B317F700BD
:100CFC002322F4FE832744FE93C7F7FF032704FF48
:100D0C00F98F2328F4FE832784FE032784FFB3176F
:100D1C00F700032704FFD98F2328F4FE8327C4FD93
:100D2C00984793078002631BF700832744FF05470E
:100D3C003317F700832704FED8CB05A08327C4FD07
:100D4C00984793078004631AF700832744FF0547ED
:100D5C003317F700832704FE98CB832744FF8507BE
:100D6C00232AF4FE032744FF9D47E3F3E7F483278C
:100D7C0004FE032704FF98C301000254130141022F
:100D8C008280411122C60008232AA4FEAE872319B3
:100D9C00F4FEA30D04FE832744FF9847835724FFDA
:100DAC00F98F89C78547A30DF4FE19A0A30D04FE86
:100DBC008347B4FF3E85324441018280411122C6F3
:100DCC000008232CA4FEAE872328C4FE231BF4FEAC
:100DDC00832704FF99C7035764FF832784FF98CBAD
:100DEC0031A0035764FF832784FFD8CB0100324422
:100DFC0041018280111122CC60082324A4FE2322FD
:100E0C00B4FE232A04FE232804FE232C04FE2326EE
:100E1C0004FEB7070140DC43232CF4FE832784FE39
:100E2C00C183BD8B2326F4FE032784FEC167FD1707
:100E3C00F98F232AF4FE032784FEB7070010F98FDD
:100E4C00A1C3032784FFB707C0FFF517F98F232C25
:100E5C00F4FE032784FFB7070007D98F232CF4FE79
:100E6C00832744FE63820716032784FEB70700F02E
:100E7C00FD17F98F032784FFD98F232CF4FEA9A229
:100E8C00832784FE63D20704032784FFB707E0FFA0
:100E9C00ED17F98F232CF4FE032784FFB707000707
:100EAC00D98F232CF4FE832744FE638F071003276E
:100EBC0084FEB707008093C7F7FFF98F032784FFE1
:100ECC00D98F232CF4FE09A2032784FEB707300028
:100EDC007D8FB70730006315F704032784FFB7072E
:100EEC0000F9FD17F98F232CF4FEB7070140D4430A
:100EFC00B7070140370700F97D17758FD8C38327D3
:100F0C0044FEF9C3832784FED5839207032744FF4D
:100F1C00B317F700032784FFD98F232CF4FE6DA0A1
:100F2C00032784FEB7071000F98FA9CB8327C4FED3
:100F3C000D47B317F7002328F4FE832704FF93C74C
:100F4C00F7FF032784FFF98F232CF4FE032784FF7C
:100F5C00B7070007D98F232CF4FE832744FEADC7B7
:100F6C00832784FED5839207032744FFB317F7002A
:100F7C00032784FFD98F232CF4FEB9A0832784FE8A
:100F8C00D5839207032744FFB317F70093C7F7FFE6
:100F9C00032784FFF98F232CF4FE032784FFB70764
:100FAC000007D98F232CF4FE832744FE91CF83278F
:100FBC0084FED5839207032744FFB317F70003275A
:100FCC0084FFD98F232CF4FEB7070140032784FF3D
:100FDC00D8C30100624471018280511122C46000A7
:100FEC00AA872E87A30BF4FEBA87230BF4FE232CBF
:100FFC0004FE834764FF86070D47B317F700232CC5
:10100C00F4FEB70701409447832784FF13C7F7FF0B
:10101C00B7070140758F98C7B707014098478346BB
:10102C0074FF834764FF8607B397F600BE86B70745
:10103C000140558F98C70100224431018280611113
:10104C0022C22000232CA4FE032784FF23A0E182CC
:10105C000100124421018280011106CE22CC001025
:10106C00AA87A301F4FEB77700409843B7770040F6
:10107C00759B98C3B77700409843B77700401367C8
:10108C00270098C337E700E08567BA9783A707D195
:10109C00B7E600E013E747008567B69723A8E7D0CB
:1010AC00034734FE85476310F716232804FE37E701
:1010BC0000E08567BA9783A707D1918B9DCF9307E3
:1010CC00800873B007300F100000B70701409387FA
:1010DC0047409C432328F4FEB70701409387074001
:1010EC009443B7070140938747409843B7070140A3
:1010FC0093874740558F98C32DA037E700E085674D
:10110C00BA9783A707D1B7E600E013E70701856715
:10111C00B69723A8E7D09307800873B007300F1059
:10112C00000037E700E08567BA9783A707D123262D
:10113C00F4FE37E700E08567BA9783A707D1B7E6D7
:10114C0000E013E787028567B69723A8E7D037E757
:10115C0000E08567BA9783A707D113F7F7FD8327BC
:10116C00C4FE93F70702B7E600E05D8F8567B6977C
:10117C0023A8E7D037E700E08567BA9783A707D1A4
:10118C00B7E600E013E787008567B69723A8E7D09A
:10119C004D4597F0FF1FE78020E637E700E08567B5
:1011AC00BA9783A707D1B7E600E013E787008567F6
:1011BC00B69723A8E7D04D4597F0FF1FE780C0E313
:1011CC0037E700E08567BA9783A707D1918B89CB66
:1011DC00B707014093874740032704FF98C339A8FA
:1011EC0037E700E08567BA9783A707D1B7E600E039
:1011FC0013F7F7FE8567B69723A8E7D09307800807
:10120C0073A00730B1AA232404FE37E700E08567FA
:10121C00BA9783A707D1918B9DCF9307800873B0A2
:10122C0007300F100000B7070140938747409C43DD
:10123C002324F4FEB7070140938707409443B70774
:10124C000140938747409843B70701409387474035
:10125C00558F98C32DA037E700E08567BA9783A711
:10126C0007D1B7E600E013E707018567B69723A817
:10127C00E7D09307800873B007300F10000037E7F2
:10128C0000E08567BA9783A707D12322F4FE37E7DE
:10129C0000E08567BA9783A707D1B7E600E013E7AC
:1012AC0087028567B69723A8E7D037E700E0856704
:1012BC00BA9783A707D113F7F7FD832744FE93F75B
:1012CC000702B7E600E05D8F8567B69723A8E7D0E5
:1012DC0037E700E08567BA9783A707D1B7E600E048
:1012EC0013E787008567B69723A8E7D04D4597F09D
:1012FC00FF1FE78060D037E700E08567BA9783A7C8
:10130C0007D1B7E600E013E787008567B69723A8F7
:10131C00E7D04D4597F0FF1FE78000CE37E700E0A0
:10132C008567BA9783A707D1918B89CBB707014003
:10133C0093874740032784FE98C339A837E700E01A
:10134C008567BA9783A707D1B7E600E013F7F7FED6
:10135C008567B69723A8E7D09307800873A007305A
:10136C0037E700E08567BA9783A707D1B7E600E0B7
:10137C0013F7B7FF8567B69723A8E7D00100F240B3
:10138C00624405618280511122C46000AA87A30BBC
:10139C00F4FE232C04FEB71702409C43232CF4FECE
:1013AC00832784FF93F777F0232CF4FE834774FF95
:1013BC008E07032784FFD98F232CF4FEB717024026
:1013CC00032784FF98C3010022443101828011114C
:1013DC0006CC22CA60082322A4FE232804FE23265E
:1013EC0004FE232404FEB7170240DC43B18B2328F0
:1013FC00F4FE032704FF91476302F702032704FF5F
:10140C00A1476305F702832704FFB9EB832744FE4A
:10141C0037376E011307076098C399A8832744FEDA
:10142C0037376E011307076098C399A0B7170240AE
:10143C00D843C167F98F2326F4FE8327C4FE89EBBA
:10144C00832744FE3777DC02130707C098C30DA02F
:10145C00832744FE3777DC02130707C098C309A81B
:10146C00832744FE37376E011307076098C30100CA
:10147C00B7170240DC4393F7070F2328F4FE8327AA
:10148C0004FF91832328F4FEB7070020138707037A
:10149C00832704FFBA979C2393F7F70F2324F4FEBA
:1014AC00B7170240DC4393F7070899EF832744FEF4
:1014BC009C43832584FE3E85EFE0DFC2AA873E87EE
:1014CC00832744FED8C319A8832744FE9843832757
:1014DC0084FE3357F700832744FED8C3832744FE8A
:1014EC00D843832744FE98C7832744FED8438327D9
:1014FC0044FED8C7B7170240D843C167938707800B
:10150C00F98F2328F4FE832704FFAD832328F4FEF0
:10151C00832704FF8D8313F73700832704FF8A0783
:10152C00F18BD98F2328F4FE832704FF13F737019F
:10153C008D4763F8E700832704FFD1172328F4FEB7
:10154C0031A0832704FF8D8B2328F4FEB7070020DE
:10155C0013870704832704FFBA979C2393F7F70F8D
:10156C002324F4FE832744FEDC47832584FE3E853A
:10157C00EFE05FB7AA873E87832744FE98CB010034
:10158C00E240524471018280511122C46000232C2C
:10159C00A4FE232AB4FE832744FF99CBB71702403D
:1015AC00944FB7170240032784FF558F98CF21A87B
:1015BC00B7170240944F832784FF13C7F7FFB71761
:1015CC000240758F98CF0100224431018280511165
:1015DC0022C46000232CA4FE232AB4FE832744FFDC
:1015EC0099CBB7170240D44FB7170240032784FF9B
:1015FC00558FD8CF21A8B7170240D44F832784FF2B
:10160C0013C7F7FFB7170240758FD8CF01002244DC
:10161C0031018280411122C60008232AA4FE23280E
:10162C00B4FE231D04FE832744FF9E23231DF4FEDA
:10163C00032744FFB7370140938707C06308F700BF
:10164C00032744FFB70700406310F7028357A4FF3A
:10165C0093F7F7F8231DF4FE832704FFBA2383576F
:10166C00A4FFD98F231DF4FE8357A4FF93F7F7CF64
:10167C00231DF4FE832704FFFA238357A4FFD98F7D
:10168C00231DF4FE832744FF0357A4FF9AA383274B
:10169C0004FFDA23832744FFDAB7832704FF9A2356
:1016AC00832744FF9AB7032744FFB737014093873A
:1016BC0007C0631BF700832704FF9C2713970701C0
:1016CC004183832744FF9ABB832744FF0547DAAB4A
:1016DC000100324441018280311122C84008232884
:1016EC00A4FE2326B4FE231B04FE231D04FE231C90
:1016FC0004FE832704FF9E33C207C183BD9B13974F
:10170C0007014183832704FF9AB3832704FF9E3389
:10171C00231DF4FE832704FFDE23231CF4FE832702
:10172C0004FF9E2F231BF4FE035764FFE577FD1780
:10173C00F98F231BF4FE835764FF93F7F7CF231B1A
:10174C00F4FE8327C4FE9E23A2071397070141834F
:10175C00835764FFD98F231BF4FE8357A4FF93F7A1
:10176C00F7FD231DF4FE8327C4FE9E2792071397D3
:10177C00070141838357A4FFD98F231DF4FE8327D0
:10178C00C4FEBE2392071397070141838357A4FF1E
:10179C00D98F231DF4FE032704FFB737014093872D
:1017AC0007C0631CF7088357A4FF93F7F7F7231DB3
:1017BC00F4FE8327C4FEBE279207139707014183CB
:1017CC008357A4FFD98F231DF4FE8357A4FF93F7EF
:1017DC00F7FB231DF4FE8327C4FEDE239207139729
:1017EC00070141838357A4FFD98F231DF4FE835730
:1017FC0084FF93F7F7BF231CF4FE035784FFFD7798
:10180C009387F77FF98F231CF4FE8327C4FEDE2712
:10181C008A07139707014183835784FFD98F231CB1
:10182C00F4FE8327C4FEFE278A0713970701418322
:10183C00835784FFD98F231CF4FE832704FF03579F
:10184C0084FFDAA3832704FF035764FF9AAF83272F
:10185C00C4FEFE233E87832704FF98DF832704FF03
:10186C000357A4FF9AB301004244510182805111E5
:10187C0022C46000232CA4FE232AB4FE832744FF39
:10188C0099CF832784FF9E23C207C18393E7170058
:10189C00139707014183832784FF9AA329A88327E1
:1018AC0084FF9E23C207C183F99B139707014183D1
:1018BC00832784FF9AA301002244310182805111B5
:1018CC0022C46000232CA4FE232AB4FE832744FFE9
:1018DC0095C3832784FF83D747041397070141835C
:1018EC00E177D98F139707014183832784FF2392D4
:1018FC00E70415A0832784FF83D7470413970701B8
:10190C004183A167FD17F98F139707014183832743
:10191C0084FF2392E704010022443101828051119B
:10192C0022C46000232CA4FE232AB4FE832744FF88
:10193C0099CF832784FF9E23C207C18393E70708AF
:10194C00139707014183832784FF9AA331A8832728
:10195C0084FF9E23C207C18393F7F7F71397070100
:10196C004183832784FF9AA30100224431018280A2
:10197C00411122C60008232AA4FEAE872319F4FEC7
:10198C00231D04FE832744FF9E2F231DF4FE0357C3
:10199C00A4FFFD779387F77FF98F231DF4FE835700
:1019AC0024FFA2071397070141838357A4FFD98F04
:1019BC00231DF4FE832744FF0357A4FF9AAF0100B5
:1019CC00324441018280511122C46000232CA4FEB8
:1019DC00AE87231BF4FE035764FF832784FF98DF35
:1019EC000100224431018280130141FC06DC22DA21
:1019FC0060182324A4FC2322B4FC232804FE2326F1
:101A0C0004FE232404FE232204FE232004FE832749
:101A1C0084FC2320F4FE832784FC9E2BC207C18305
:101A2C002328F4FE032704FFB567FD17F98F23283D
:101A3C00F4FE832744FCFE233E87832704FFD98FC3
:101A4C002328F4FE832704FF139707014183832780
:101A5C0084FC9AAB832784FCDE27C207C18323282E
:101A6C00F4FE032704FFBD679387379FF98F232864
:101A7C00F4FE832744FCDA23832744FC9E27D98F6A
:101A8C00139707014183832744FCBE27D98FC207D4
:101A9C00C1833E87832704FFD98F2328F4FE832735
:101AAC0004FF139707014183832784FCDAA783275C
:101ABC0084FCDE2BC207C1832328F4FE032704FF1A
:101ACC00C1679387F7CFF98F2328F4FE832744FC53
:101ADC00DE273E87832704FFD98F2328F4FE832734
:101AEC0004FF139707014183832784FCDAAB930728
:101AFC00C4FC3E85EFF0BF8D032704FEB7470140C1
:101B0C00938707806317F700832784FD2326F4FE51
:101B1C0029A0832744FD2326F4FE832784FCDE279B
:101B2C00C207C183C207C18763D507020327C4FE5E
:101B3C00BA878607BA978E073E97832744FC9C4347
:101B4C008607BE853A85EFE0EFD9AA872324F4FEF9
:101B5C001DA00327C4FEBA878607BA978E073E9747
:101B6C00832744FC9C438A07BE853A85EFE08FD7D8
:101B7C00AA872324F4FE832784FE930540063E8522
:101B8C00EFE04FD6AA8792072328F4FE832704FFA1
:101B9C0013D74700BA878607BA978E07BA978A0772
:101BAC003E87832784FE998F2322F4FE832784FCAF
:101BBC00DE27C207C183C207C18763D4070283270C
:101BCC0044FE8E0793872703930540063E85EFE07E
:101BDC006FD1AA879D8B032704FFD98F2328F4FE8E
:101BEC0015A0832744FE920793872703930540068D
:101BFC003E85EFE02FCFAA87BD8B032704FFD98F3B
:101C0C002328F4FE832704FF1397070141838327BE
:101C1C0084FC9AA70100E25052541301C103828044
:101C2C00511122C46000232CA4FE232AB4FE832766
:101C3C0044FF85C3832784FFDE2713970701418365
:101C4C008967D98F139707014183832784FFDAA70C
:101C5C0005A0832784FFDE27139707014183F977BB
:101C6C00FD17F98F139707014183832784FFDAA7A8
:101C7C000100224431018280511122C46000232CC6
:101C8C00A4FEAE87231BF4FE835764FF93F7F71F64
:101C9C00139707014183832784FFDAA301002244B1
:101CAC0031018280411122C60008232AA4FEAE878E
:101CBC002319F4FE232C04FE832744FF9E23139741
:101CCC0007014183835724FFF98FC207C18389C75A
:101CDC008547232CF4FE19A0232C04FE832784FFB4
:101CEC003E85324441018280311122C840082326AE
:101CFC00A4FE9307C4FFD1179D078D831393370060
:101D0C00B707002003A7870583A7C7052320E30097
:101D1C002322F30001008327C4FE3E86FD87BE8686
:101D2C0003250300832543003307A600BA82B3B210
:101D3C00C200B387B600B385F200AE873A85BE8584
:101D4C00B707002003A7870583A7C705BE83AE820C
:101D5C0063EA7200BE83AE82E39F53FAAA8763E301
:101D6C00E70055BF0100424451018280511106C465
:101D7C0022C26000B707002003A7C701B7177A007B
:101D8C00938507203A85EFE0EFB5AA8713F7F70F95
:101D9C002382E18283C74182C207C1833E87160733
:101DAC001D8F0A07BA978E07139707014183239358
:101DBC00E1820100A240124431018280311106C837
:101DCC0022C640082326A4FEB7F700E0D843B7F795
:101DDC0000E0799BD8C383D76182BE850325C4FEFE
:101DEC00EFE04FAEAA872328F4FEB7F700E00327F5
:101DFC0004FF98CBB7F700E023A40700B7F700E087
:101E0C009843B7F700E01367170098C30100B7F7C2
:101E1C0000E0DC4313F717008547E31AF7FEB7F72A
:101E2C0000E09843B7F700E0799B98C30100C240EB
:101E3C00324451018280130141FD06D422D260103C
:101E4C00232AA4FC8545916713851702EFF0CFF385
:101E5C00854537052080EFE0FFF993070004231434
:101E6C00F4FE8D472326F4FEE1472328F4FE930766
:101E7C0084FEBE85B717014013850740EFE0BFDC39
:101E8C00832744FD232CF4FC231E04FC231F04FC99
:101E9C00231004FE231204FEA1472311F4FE930722
:101EAC0084FDBE85B747014013850780353E8545C7
:101EBC00B747014013850780A5330100A250125487
:101ECC001301C1028280011106CE22CC0010232402
:101EDC00A4FE2322B4FE2320C4FE232804FE832761
:101EEC0004FE2326F4FE232804FE81A001009305A2
:101EFC000004B7470140138507806D33AA87E5DBE3
:101F0C00832744FE138717002322E4FE83870700F0
:101F1C00C207C183BE85B747014013850780A93B23
:101F2C00832704FF85072328F4FE032704FF832758
:101F3C0004FEE34DF7FA8327C4FE3E85F24062446B
:101F4C0005618280411106C62EC00DCD1841AA87AD
:101F5C0005C358417D5511CB8546631BD700984767
:101F6C002300070023A207000545B24041018280EF
:101F7C009847824614A39847050798C7D8437D17FE
:101F8C00D8C3DDB705468A853D3FF9BF011122CC88
:101F9C002EC206CE26CA2A848147930500026345C9
:101FAC0006029245BE95838505008DE563D8C70270
:101FBC0063D4E702198E1305000293F526002AC09C
:101FCC0089C501E7930500032EC0858A814495EAF3
:101FDC00B2840DA08507F1B71D8EF1BF0146E1BF9C
:101FEC00824522853AC832C63EC4A93FA247324632
:101FFC004247FD14E34690FEB284635306008144CD
:10200C00058E63C7E702A6879246338797403697BB
:10201C008305070095EDB284634490046353060076
:10202C000146F2406244D2443305F60005618280D9
:10203C001D8FBA8793050003228532C83EC63AC469
:10204C001137B24722474246FD17EDF7BA9465BFE8
:10205C00228532C63EC4FD35A247324685076DB790
:10206C008245228532C43EC2F13DFD142246924780
:10207C0065B7397106DE22DC26DA3EC232833A8637
:10208C0089ED92469307000301476C08FC86FD3DE1
:10209C00F2506254D25421618280AA843684AE8775
:1020AC0091CA294701446317E30063D50500B307C0
:1020BC00B04005448646A3090102130731039386F9
:1020CC0066FC36C49A853E8532CA3AC81AC63EC0EA
:1020DC00EFE00F84A546824732434247524663D411
:1020EC00A600A2463695130505039306F7FFA30F2A
:1020FC00A7FE9A853E8532CC3ACA1AC83EC636C06F
:10210C00EFD05FFEB24742435247624663F9670421
:10211C0001CC29CA9247898BB1C79305D002268579
:10212C0032C40D3522467D169247918B95C30647D6
:10213C009307100632C4930500032685631EF7022D
:10214C001135930580072685F53B2246090479163F
:10215C001647924682452685153D229515BFAA87BE
:10216C0002478DB782469307D0020144A38FF6FE37
:10217C009307E7FF3EC04DBFF13393058005E1B7F0
:10218C000145828001458280130181FD22D026CE3B
:10219C0006D22AC4AE82328402C6814483850200F0
:1021AC0089EDA24781C781453E85693B9250025417
:1021BC002685F244130181028280930750026388C2
:1021CC00F500224516C88504B53BC24239A8838761
:1021DC00120013871200639CB7002245930550022E
:1021EC003AC88D3342478504BA82850245BFD5DB98
:1021FC009306B0026389D70463C8F60093063002D5
:10220C006386D704814705A09306D002638AD70062
:10221C0093060003E398D7FE13872200894721A079
:10222C00138722008547830607001306B0026383D9
:10223C00C6046341D60213063002638BC602BA820F
:10224C000145A54681A0138722006DBF138722008C
:10225C009147D1BF1306D0026389C6001306000351
:10226C00E39FC6FC93E7270031A005078547C1BF54
:10227C0093E747000507E1B71316250032950605CD
:10228C003A95850203860200130706FD9375F70F36
:10229C00E3F4B6FE1307E0029946631EE6008502DE
:1022AC008146A54503860200130606FD1377F60F3B
:1022BC0063F5E50236C6038702001306A006630D1C
:1022CC00C70A6343E6021306C0046307C70A130672
:1022DC008006630CC70881452DA813972600BA9673
:1022EC008606B29685027DBF130640076306C708B3
:1022FC001306A0076302C7081306C0068145631ABC
:10230C00C700038612008D456314E60085029145D3
:10231C00850203860200930300061307100663C4AC
:10232C00C300130710049303700663C4C30693031E
:10233C005006635376189303700463C1C30493056A
:10234C005004635BB61613073004E310E6EA18403A
:10235C009303440016CA230CE1001EC8A30C010011
:10236C000147BE862A862C0849A80386120081459F
:10237C00E311E6FA890271BF8502B1BF93063006FC
:10238C00E307D6FC63CEC606930680056303D6022C
:10239C00A9BD930630076304D60463CBC60293062B
:1023AC00F0066302D60E9306000793E74700E31E80
:1023BC00D6E29146639FD50A930384000C405040AB
:1023CC0016CA3AC23EC01EC8AA870147C146B9A068
:1023DC00930650076308D6069306800745BF18403E
:1023EC00B7260000930344009385866111C3BA8518
:1023FC00324716CA1EC8BE862A862245413E0DA00B
:10240C0091466394D502930384000C40504016CA45
:10241C003AC23EC01EC8AA870547A94622458D333D
:10242C00C243AA941E84D242C9B3B2460C4016C809
:10243C0036C23AC011042A878546294622451539E9
:10244C00AA9461B39146639DD500930384000C401C
:10245C00504016CA3AC23EC01EC8AA87014775BF73
:10246C00B2460C4016C836C23AC011042A878146BF
:10247C00E9B7B24616C80C40414636C23AC0110400
:10248C002A87814665BF9146639ED50093038400DD
:10249C000C40504016CA3AC23EC01EC8AA8701471B
:1024AC00A146ADBFB2460C4016C836C23AC01104A4
:1024BC002A878146214659B70C40130684004040B8
:1024CC003AC22A87224532C83EC02286B687A94620
:1024DC0016CA4D39AA944244B9B71301C1FD2EC88E
:1024EC0032CAAA851008014506C636CC3ACE3ED073
:1024FC0032C05939B240130141028280411122C4C9
:10250C0026C206C61C21AA840144DC818307310043
:10251C00050499EFA9479305310005460145DC8177
:10252C00EFF07F9A2285B24022449244410182808E
:10253C000546930531000145EFF0FF98B387840001
:10254C009C23DC81E1B700004E4D495F48616E640D
:10255C006C65720D00000000486172644661756C18
:10256C00745F48616E646C65720D00005A05000062
:10257C00620500002407000078050000A00600009A
:10258C0020070000A4060000DC060000E0060000A6
:10259C002007000028070000380700006E07000025
:1025AC0074070000A807000053797374656D436CC1
:1025BC006B3A25640D0A00005072657373000000BD
:1025CC00436C69636B000000486F6C640000000092
:1025DC0052656C65617365486F6C6400537465700B
:1025EC000000000072656C65617365537465700062
:1025FC0052656C6561736500436C69636B733A205B
:10260C0025640A0054696D656F757400286E756CCD
:04261C006C29000025
:04262000F0070000BF
:1026240000127A00010203040506070801020304EC
:10263400050607080102030405060708010203044E
:10264400050607080204060804080C1008101820E0
:0C2654001020304020406080000000009A
:00000001FF
