:100000006F108011000000008A0700009C070000AC
:1000100000000000000000000000000000000000E0
:1000200000000000000000000000000000000000D0
:10003000BC070000000000001611000000000000D6
:100040001611000016110000161100001611000014
:100050001611000016110000161100001611000004
:1000600016110000161100001611000016110000F4
:1000700016110000161100001611000016110000E4
:1000800016110000161100001611000016110000D4
:1000900016110000161100001611000000000000EB
:0C00A000730050107D157DFD8280000073
:1000AC00511126C022C206C4828282441244A2404C
:1000BC00310182802A86014593F6150091C2329552
:1000CC0085810606F5F9828000000000634E05026A
:1000DC0063C305042E86AA857D5515C285466378B3
:1000EC00B6006356C00006068606E36CB6FE0145F4
:1000FC0063E4C500918D558D85820582F5FA828069
:10010C008682C93F2E8582823305A04063D70500C5
:10011C00B305B040C1B7B305B0408682653F330527
:10012C00A0408282868263C70500634905005D3763
:10013C002E858282B305B040E35B05FE3305A040FB
:10014C00513F3305B04082820000372702401C4BE0
:10015C0093E707081CCB8280B16793870735B726D6
:10016C000240D846058B11C799E315458280FD17CF
:10017C00CDBF154591C301458280C1676976814623
:10018C00FD17050613F7F60F6364B7003E858280F2
:10019C003307D5001823B98F214713F31700858334
:1001AC0063050300B18FC207C1837D171377F70F67
:1001BC006DF78506C1BFB7270240984B01451377F1
:1001CC00070811CF3707674513073712D8C337977E
:1001DC00EFCD1307B79AD8C3884B1D810589828050
:1001EC00EFF21FEC7111AA842E84F1370DE9AD37B3
:1001FC0009C52AC0993F02451DA0B7270240984B5C
:10020C001367170098CB82A0813FB7270240984B09
:10021C00799B98CB9E20E30EF4FC053F1145110110
:10022C0069B5930785009306F00F1305A53F63E4AA
:10023C00A7000145828098231377F70FE30BD7FEB5
:10024C006316B70081C51CC2054582809907C5B7E6
:10025C001307850081471305A53F1306F00F636450
:10026C00A7003E858280142393F6F60FE38BC6FE1F
:10027C0081C6850793F7F70F1907D5B719C97C21E4
:10028C0089CB2320050023220500232405002316F7
:10029C000500828051C9EFF2BFE07C212A847111E4
:1002AC00194589CB0440013F11E57D3511C52AC0A4
:1002BC00693D02451101D5BBB7270240984B136726
:1002CC00270098CBC4CB984B1367070498CB6935A0
:1002DC00B7270240984B759B98CB9840FD57630508
:1002EC00F700A5350945F9B72AC08535024579F1DE
:1002FC000840956593855504E5354DFD084091659D
:10030C00938555540905E93D55F50840854511057A
:10031C00C13D4DF1084081451905D93541FD2316E4
:10032C000400A303040079B71945828019E12D4517
:10033C008280EFF2FFD67C212A84AE8491C33D3FAC
:10034C0093F7F43F2D459DE7C167938707025CC087
:10035C0004C0232404009840B757454523160400D5
:10036C009387570401456307F7002285253719C188
:10037C00230304001DBB31C57821AD4721C739C209
:10038C00EFF21FD20841511132843000AE84513D3E
:10039C009D470DC5224785468D453E2348003AC0F2
:1003AC00C207C1831EA0A1835C834482D482F13333
:1003BC00024781475A236303E500A1473E8531017B
:1003CC00EDB1AD473E858280AA8709C978211945D0
:1003DC0019C7F83301450507F8B3828019458280A7
:1003EC0039C97821994729CBA947B9C5EFF25FCB19
:1003FC002A840841411132C22EC0993D5E2042052B
:10040C004181637DF5001C409306F00F93848700B7
:10041C009387A73F63EBF400A54729A022856D378E
:10042C00A54775D13E85410149B190206388C6002E
:10043C0090309904C5B799473E85828082478D4597
:10044C0068005C868547DC869247A1835C873533E0
:10045C0082472AC4268593E507105933AA8779F178
:10046C00924513852400AD3BAA874DFDA24513850B
:10047C004400BD33AA875DF55A2405075AA437F703
:10048C0000E0184718C479BFB707002083A687047B
:10049C001306F00F8147138786009386A63F636788
:1004AC00D70061551D8D1375F50F82800C23E30A5F
:1004BC00B6FE1385670093170501C1831907C5B7ED
:1004CC00EFF21FBEB745000837050020938505C025
:1004DC0013058504A13DD1BEEFF29FBC2E86AA85E3
:1004EC003705002013058504E53DC1B6EFF25FBB6F
:1004FC007111AA8537050020130621001305850408
:10050C009D3D01E5288111014DB62A84AA85372528
:10051C0000001305C5FAEF10901D7D141374F40F31
:10052C00A94763EF87008967938707F80A043E940D
:10053C001C408287372500001305C5FCEF10301BCB
:10054C002945EF10B0217D557DBF372500001305DF
:10055C0085FEEDB7372500001305C5FFC5B7372558
:10056C00000013050501D9BF37250000130505034D
:10057C00F1B73725000013058504C9B737250000EE
:10058C001305050665BF37250000130585077DB7E4
:10059C00372500001305050955B73725000013054D
:1005AC00C50A69BF372500001305050C41BFEFF2E2
:1005BC003FAF2A840146894537150140EF00104FA3
:1005CC002285EF10E01FD5B4B7F700E0D843799B34
:1005DC00D8C3379798001307F76798CB23A4070065
:1005EC009847E37FE5FE23A407001307703E98CBE2
:1005FC008280EFF2FFAA7111AE8409E52E85453F8A
:10060C00110165B4AA8537450F0013050524D934AB
:10061C0093975400858F8A07A697AA8513541500C3
:10062C0013953700453CAA878144E38BF4FC0546BF
:10063C008945371501403EC0EF0050472285693788
:10064C000146894537150140EF0050462285AD3FE4
:10065C0085048247D9BFEFF2BFA451112E8411C17A
:10066C0001EE3715014001468945EF0030442285E3
:10067C00EF100015310115BCAA8537450F00130585
:10068C00052432C2813C93175400818F8A07A297AC
:10069C00AA8593541500139537002D3C12462AC099
:1006AC00930740061375F60F63F4C7001305400655
:1006BC00A685093493054006313CB387A4403EC25D
:1006CC002A8481470247E387E7FA054689453715AF
:1006DC0001403EC4EF00903D2285FD350146894521
:1006EC0037150140EF00903C1245F93D2685E93D58
:1006FC00A2478507C1BFEFF2BF9A9305000513050A
:10070C00803EC53D930500051305C05DDD3571BA0E
:10071C00EFF21F999305600913050032D93D6FF074
:10072C00DF98EFF2FF97E54513058070D9356FF030
:10073C00DF97EFF2FF969305600413050032553DE9
:10074C00930560041305803E6D359305A0051305D4
:10075C00802545356FF07F95EFF29F9493056009E6
:10076C001305004B79359305600913054038513555
:10077C009305400B13058025AD3D6FF01F93711150
:10078C0022C0372400001305840EEF108078E5BFDB
:10079C007111B707EFBE22C037E700E09387070857
:1007AC003CC7372400001305440DEF108076E5BFDD
:1007BC00938701819843D0439306170033B7E60023
:1007CC003297D8C394C3B7F700E023A20700730095
:1007DC002030EFF2FF8C41118545454502C002C225
:1007EC0002C402C6EF00705691450945EF00F0387F
:1007FC00C1473EC091473EC2B1473EC40A858547BA
:10080C003EC6EF00B01B41016FF03F8AEFF25F89EB
:10081C0061112A842EC0B284D1397D576314E5044A
:10082C0037250000A2851305451EEF10406CA685E8
:10083C0022855D31AA853725000013054520EF1070
:10084C00006B2285653113160501372500004182A6
:10085C00A2851305C521EF108069824786A321016B
:10086C006FF0BF842A862AC237250000A2851305A3
:10087C004524EF10C067024792471EA3CDB7EFF295
:10088C003F823D391131AA853725000013054513E8
:10089C00EF10E065372500001305C514EF106067F5
:1008AC0001469385A183054595373725000013052F
:1008BC008516EF100066B70500201306800C938593
:1008CC00C5000945A1373725000013050518EF10A1
:1008DC004064B7050020130680029385E5000D45A2
:1008EC0035376FF08FFCEFF2AFFB93870182B82B9B
:1008FC008947138401826310F70237250000130522
:10090C004519EF100061313D938781839A2363026F
:10091C0007162390070038289147631CF7003725EA
:10092C0000001305C519EF10C05EDD337D5723ACF5
:10093C00E180382895476318F70037250000130528
:10094C00451AEF10005D38289D47631EF70093870A
:10095C0081818C43372500001305051B85058CC34D
:10096C00EF10E0587D3B3828A5476313F70A37256D
:10097C0000001305C51BEF10C05983A781810D47DB
:10098C006398E7081305803E23A0F184EF005063C1
:10099C000546914537150140EF005011593301467A
:1009AC00914537150140EF0070101305800CEF00D6
:1009BC0030610546914537150140EF00300F9533F6
:1009CC000146914537150140EF00500E1305800C80
:1009DC00EF00105F0546914537150140EF00100DF3
:1009EC0089330146914537150140EF00300C130552
:1009FC00800CEF00F05C0546914537150140EF0087
:100A0C00F00A05330146914537150140EF00100AF5
:100A1C003828A947631EF700372500001305851CED
:100A2C00EF10204F0146914537150140EF0010089B
:100A3C003828B1476312F7042C383725000013050A
:100A4C00051DEF10C04A383895476317F702293354
:100A5C002133193311339307800873B007300F100B
:100A6C000000B707EFBE37E700E0938707083CC7E5
:100A7C0001A005479AA345B53828B9476319F70073
:100A8C00372500001305C51DEF10A0485D316FF030
:100A9C00CFE103C7218391476319F700EFF24FE0D1
:100AAC0023A0018455396FF04FE08280EFF24FDFC5
:100ABC0083D7A18305469384A18391E30146914595
:100ACC0037150140EF00807E93870182B82BB14728
:100ADC00138401826313F7042C38372500001305A7
:100AEC00051DEF10C040383885476317F7009E206E
:100AFC0093B717009EA0013138388947631FF70060
:100B0C0023A0018491390146914537150140A30872
:100B1C00040023190400EF0060796FF00FD9EFF295
:100B2C002FD8130181FC054502C802CA02CCEF0084
:100B3C00F006B523EF00B04F1305401FEF007052C5
:100B4C00854513054003EF005020854537050010FF
:100B5C00EF0090213713014013050380FD570C085B
:100B6C00FC8002CCEF00206C0C0837150140EF0024
:100B7C00806B1147414485440C0837150140F880BF
:100B8C003AC022CC26CAEF00006A89460C083715F9
:100B9C000140F48022CC26CA7925930780040C08E6
:100BAC00371501403ECCE08026CAB52D054691454F
:100BBC0037150140EF00806F1545EF00904A014654
:100BCC00914537150140EF00606E213171651305B9
:100BDC000520EF00B04C372500001305C525EF109C
:100BEC004033B707002083A5070237250000130503
:100BFC008528EF10C02F6131B72400001385C4265F
:100C0C00EF10203183D5A1833725000013058529EA
:100C1C00EF10E02DB707002083D5C7003725000063
:100C2C001305452BEF10A02CB707002083D5E70048
:100C3C00372500001305452DEF10602B1385C426B6
:100C4C00EF10202DA9290565B7E700E023A0A71018
:100C5C00B7F700E0D4439384C183F99AD4C39306C5
:100C6C00703E94CB23A40700AD4694C3B707320063
:100C7C00938747069CC085451305558002CE02D04C
:100C8C0002D202C202C42316010002D402D602D838
:100C9C0002DAEF00900B024737130140E1471305CE
:100CAC0003803ED26C088D47F8863ED0AD2B9E203B
:100CBC00373401404C007C84130504C0A5473EC268
:100CCC0023150100EF00300CC1679387070602471C
:100CDC003ED4BE202C10130504C02316E1022317AA
:100CEC00F10202D8EF00100FA145130504C0EF006C
:100CFC00501C8545130504C0EF00101AAE201305D7
:100D0C0004C0EF00701C8545130504C0EF0070177C
:100D1C008545130504C0EF0050151306800293059A
:100D2C0000051305B020EFF01F931306C0039305C5
:100D3C00000513053029EFF01F92130600059305EB
:100D4C00400613050031EFF01F9113064006930582
:100D5C00600913057041EFF01F901305803EEF0002
:100D6C003026130620039305C00313050032EFF061
:100D7C009F8E7945EF00D024130660049305C003C1
:100D8C001305803EEFF03F8D7945EF00702313067D
:100D9C004006930560091305004BEFF0DF8B3725F8
:100DAC0000001305052FEF10C016C1453715014083
:100DBC00CD2993870182982B133515006312A70256
:100DCC008146014794C7D8C7B42B3946982B636624
:100DDC00D60609668A061306860FB2969442828658
:100DEC009847CC4783A601813363B70003A64181A2
:100DFC006315030094C7D0C7C1BF3387E640B3B6B1
:100E0C00E6000D8E6316D60093061003E3FEE6FA99
:100E1C0088AB5DBF1DC30547B8AB05A00D47B8AB8C
:100E2C0003A6018183A6418190C3D4C339A035E3C5
:100E3C000947B8ABB83B0507B8BB83A7018413843B
:100E4C0001849DE3EFF03FAA83D78183638A071661
:100E5C00373501408545130505C0EF0010010546E7
:100E6C009145371501409921184089476314F700C3
:100E7C00EFF07FA7184095476315F7001939239CAD
:100E8C00018218408D47E312F7F20D31239C018249
:100E9C0029BF03A60181944383A54181D843B3069E
:100EAC00D6403335D6003387E540098F6347E000E1
:100EBC0049F71307F07CE372D7F81147B8AB90C32E
:100ECC00CCC3A5BF194789BF19E31547B1B703A612
:100EDC000181944383A54181D843B306D640333571
:100EEC00D6003387E540098F6347E00039F71307D5
:100EFC00703EE374D7F41D47D1B7214731BF19E3D6
:100F0C00254719BF03A60181944383A54181D8438A
:100F1C00B306D6403335D6003387E540098F634896
:100F2C00E000E31C07F01307703EE378D7F01D4791
:100F3C00B8AB983B050798BB59B7A389070029475D
:100F4C00E1BDB43BA38807002D47E39A06EC354777
:100F5C00F9B5E31207EC03A60181944383A5418103
:100F6C00D843B306D6403335D6003387E540098FD6
:100F7C006348E000E31307EC1307301FE37FD7EA65
:100F8C0031472DBF3547BAAB4DBDE31607E803A675
:100F9C000181944303A74181CC43B306D640333639
:100FAC00D6000D8F118F6348E000E31807E8130794
:100FBC00703EE374D7E8394785B523890700B5BD82
:100FCC00373501408145130505C0EF00006A014625
:100FDC0041BDEFF2EF8C85450545852B370530007B
:100FEC00854513050540C12C0545652E6FF0EF8B2B
:100FFC009387018201478146D8C3D8C794C394C74D
:10100C0023A80700B70732009387470623AEF18267
:10101C008280EFF2EF88371402401C403707FFF84C
:10102C00414593E717001CC05C40F98F5CC01C4025
:10103C003707F7FE7D17F98F1CC01C403707FCFFE4
:10104C007D17F98F1CC05C4041777D17F98F5CC010
:10105C00B7079F001CC481211C4C93E707021CCCD2
:10106C00B717014003A70740938607401377F7F0A3
:10107C0023A0E74003A707401367070823A0E74016
:10108C0089479CCAB72702409843719B98C39843E1
:10109C0098C35C4093E707025CC06FF00F81EFF2DE
:1010AC002F80371702405C43370400209146B18BE8
:1010BC00130404026385D700A1466382D704B737B3
:1010CC006E01938707601CC0B7160240DC420840D3
:1010DC00918313F7F700B707002093870701BA979E
:1010EC008C23DC4293F5F50F93F707083357B500C3
:1010FC0081E7EFE03FFE2A8718C06FE01FFB5C43DF
:10110C00B777DC02938707C07DBF01A097F1FF1F63
:10111C0093810173138181FB1305000A97F5FF1F5F
:10112C00938585ED17F6FF1F1306C6ED63FAC50010
:10113C008322050023A0550011059105E3EAC5FEA5
:10114C00171500001305851B97F5FF1F938585EB7D
:10115C0017F6FF1F1306C6EE63FAC50083220500BF
:10116C0023A0550011059105E3EAC5FE17F5FF1FF5
:10117C00130505ED9385C1846377B5002320050025
:10118C001105E36DB5FEB7220000938202887390BF
:10119C0002308D427390428097F2FFFF9382C2E53A
:1011AC0093E2320073905230EFF0BFE697020000EA
:1011BC00938222977390123473002030584103238A
:1011CC0005004C4537060140930706403E97934671
:1011DC00F3FFB1C583250640F58D2320B640D043DF
:1011EC00F18ED4C31443B3E6660014C31841904780
:1011FC009346F7FF758E90C7D047F18ED4C7144530
:10120C0041466399C6009447D98E94C7D447558FED
:10121C00D8C78280B6979443558F98C382801C435D
:10122C00F58F1CC38280944593F7060193F2F60068
:10123C0081C7DC41B3E2F20083D3050093F7F30FCF
:10124C00A5C303230500611122C226C081471304E4
:10125C0080029304800405473316F70033F7C3006C
:10126C006312E602939527003D473317B7001347E7
:10127C00F7FF33736700B395B20033E36500639DEA
:10128C00860050C985072147E397E7FC12442320C9
:10129C006500824421018280E39696FE10C9DDB779
:1012AC00828008456D8D3335A000828019C20CC92F
:1012BC0082804CC982803703014003274300931777
:1012CC00350063D00702B707C0FFF517F98F370752
:1012DC000007D98FD9CD370700F07D17798DC98FCD
:1012EC0049A8635D0500B707E0FFED17F98F3707D5
:1012FC000007D98FBDCD06050581D5B7B7073000DE
:10130C00931605013376F500C1826313F602370696
:10131C0000F97D16B377C70003274300798E23228B
:10132C00C300A1C95581131745003395E60045BF8D
:10133C009317B50063D407029357050113F6F70012
:10134C008D47B397C70093C7F7FFF98F370700078F
:10135C00D98F85C1135755011207C1BF558112058D
:10136C003395A6009347F5FFF98F37070007D98F00
:10137C00BDF5370701405CC3828037070140144735
:10138C0086058D47B397B70093C7F7FFF58F1CC73A
:10139C001C47B315B500DD8D0CC7828023A2A18438
:1013AC008280EFE2FFCFB77700409843759B98C3DC
:1013BC0098431367270098C3B7F700E003A707D13A
:1013CC001367470023A8E7D003A707D1118B45C3A8
:1013DC009307800873B007300F100000B707014067
:1013EC0083A4474003A7074083A64740558F23A2F9
:1013FC00E74037F400E0032704D1832704D14D459F
:10140C001377070293E787022328F4D0832704D1AC
:10141C0093F7F7FDD98F2328F4D0832704D193E7D2
:10142C0087002328F4D097F0FF1FE780E0BC8327C8
:10143C0004D14D4593E787002328F4D097F0FF1F84
:10144C00E78080BB832704D1918BA1C3B7070140F0
:10145C0023A297409307800873A0073037F700E06A
:10146C00832707D1ED9B2328F7D06FE01FC403A778
:10147C0007D11367070123A8E7D09307800873B03F
:10148C0007300F1000008144ADB7832704D1BD9BFA
:10149C002328F4D0C1B7371702401C430E0593F72D
:1014AC0077F05D8D08C38280EFE29FBF3717024053
:1014BC005C4391462A84B18B6385D700A146638037
:1014CC00D708B7376E01938707601CC0B716024068
:1014DC00DC42918313F7F700B7070020938787034B
:1014EC00BA978C23DC42184093F5F50F93F7070855
:1014FC003355B70081E73A85EFE0DFBD48C008C43B
:10150C0048C4B7170240DC438D46AD83FD8B13D71F
:10151C0037008A07F18BD98F13F6370113F7370091
:10152C0063F4C600138747FFB70700209387470271
:10153C00BA978C23EFE01FBA08C86FE01FB75C4363
:10154C00B777DC02938707C049B799C537170240B4
:10155C001C4F5D8D08CF8280B7170240984F134502
:10156C00F5FF798D88CF828099C5371702405C4F83
:10157C005D8D48CF8280B7170240D84F1345F5FFD9
:10158C00798DC8CF82801E2137370140130707C0E1
:10159C00C207C1836306E500370700406316E50008
:1015AC00BA2193F7F7F8D98FFA2193F7F7CFC2073F
:1015BC00C183D98F1EA1DE215EB59E211EB5B73722
:1015CC000140938707C06314F5009C251EB985471D
:1015DC005EA982801E3165771307F7CFC207C183DE
:1015EC00BD9BC207C1831EB11E31562103D385009A
:1015FC00C20713960601162DC18393F7F7FD758F5D
:10160C0096214182A206558FB62142074183B3E64B
:10161C0066009206D58FB7360140C207938606C086
:10162C00C183631ED502B62593F7F7F703D3C50024
:10163C009206D58FD621C207C183920693F7F7FB8A
:10164C00D58FFD769386F63FF18EF225C207C183C6
:10165C00336666000A06D18E13960601418252A1AA
:10166C001AADFA2118DD1EB182801E2189C593E7BF
:10167C0017001EA18280C207C183F99BC207C183D8
:10168C00CDBF8357450491C52167D98F2312F5042B
:10169C008280C607C583DDBF1E2189C593E7070875
:1016AC001EA18280C207C18393F7F7F7C207C183DB
:1016BC00C5BF1A2DFD779387F77FF98FA205CD8FC4
:1016CC00C207C1831EAD82800CDD8280EFE25F9D7C
:1016DC001629F577FD17F58FF621DA252111D58F0F
:1016EC001EA95625FD779387379FF58FD6212A841F
:1016FC002EC0D58F9625D58FB625D58F5EA55E29A4
:10170C00C207C18393F7F7CF5D8F5AA94800693B95
:10171C00B74701409387078082456312F406C2479E
:10172C005A24139517003E9542070E0541873E95A6
:10173C008C41635807048605EFE0DF99930540065A
:10174C002AC0EFE03F998247931445009305400669
:10175C003E85EFE0FF9A5E24C207C18763D507027E
:10176C000E059305400613052503EFE0BF961D8972
:10177C00C98CC204C18006A461016FE01F93B247FB
:10178C0045B78A0555BF1205930540061305250379
:10179C00EFE05F943D89E9BF91C55E250967D98F5C
:1017AC005EA582805A25F977FD17F98FD5BF93F581
:1017BC00F51F4EA182800A216D8D3335A0008280E9
:1017CC0037F700E05443311193077100F99A54C371
:1017DC009306703E14CB23240700AD4614C303A616
:1017EC00018183A64181E19B90C7D4C78C47D04728
:1017FC009356F5413303B5003335A300B385C600CA
:10180C00B306B50023A06700D4C303A3070003A548
:10181C00418183A3470063E8A3006318750083A686
:10182C0001816374D300510182800100F9BFEFE2A2
:10183C003F87B707002003A50702B7157A009385E9
:10184C000520EFE03F891375F50F2385A1849317CD
:10185C005500898F8A073E950E052394A1846FE06D
:10186C00DF84EFE2FF8337F400E05C40AA85F99B4C
:10187C005CC003D58184EFE0FF8308C823240400F7
:10188C001C4093E717001CC0B7F700E0D843058B4A
:10189C0075DF9843799B98C36FE03F81EFE25F80DF
:1018AC002A8411651111854513051502EFF0FFC946
:1018BC00854537052080EFF01FA0930700047C803E
:1018CC00371501408D473EC28A85E1471305054017
:1018DC003EC4EFF05F9522C637440140B7070800BD
:1018EC006C00130504803ECA02C8231C0100F93B9E
:1018FC008545130504804D3571016FE00FFBEFE258
:10190C002FFA7111AE840144635DC402B7470140E4
:10191C00138707803A859305000432C0693DB747A9
:10192C00014013870780024675D5338784008305F1
:10193C000700138507800504C205C1818D3D024651
:10194C00E1B7328511016FE04FF6411106C62EC08A
:10195C000DCD1841AA8705C358417D5511CB85463D
:10196C00631BD70098472300070023A207000545F7
:10197C00B240410182809847824614A398470507DC
:10198C0098C7D8437D17D8C3DDB705468A85853FF0
:10199C00F9BF011122CC2EC206CE26CA2A84814759
:1019AC0093050002634506029245BE9583850500AA
:1019BC008DE563D8C70263D4E702198E13050002C4
:1019CC0093F526002AC089C501E7930500032EC0B4
:1019DC00858A814495EAB2840DA08507F1B71D8EE6
:1019EC00F1BF0146E1BF824522853AC832C63EC4EA
:1019FC00A93FA24732464247FD14E34690FEB2840B
:101A0C00635306008144058E63C7E702A68792469E
:101A1C003387974036978305070095EDB28463446E
:101A2C009004635306000146F2406244D2443305ED
:101A3C00F600056182801D8FBA879305000322850D
:101A4C0032C83EC63AC41137B24722474246FD1748
:101A5C00EDF7BA9465BF228532C63EC4FD35A24768
:101A6C00324685076DB78245228532C43EC2F13DB0
:101A7C00FD142246924765B7397106DE22DC26DA60
:101A8C003EC232833A8689ED9246930700030147A2
:101A9C006C08FC86FD3DF2506254D2542161828068
:101AAC00AA843684AE8791CA294701446317E300A0
:101ABC0063D50500B307B04005448646A30901026F
:101ACC0013073103938666FC36C49A853E8532CA69
:101ADC003AC81AC63EC0EFE0AFE2A5468247324391
:101AEC004247524663D4A600A24636951305050319
:101AFC009306F7FFA30FA7FE9A853E8532CC3ACA10
:101B0C001AC83EC636C0EFE0EFDCB247424352473C
:101B1C00624663F9670401CC29CA9247898BB1C725
:101B2C009305D002268532C40D3522467D16924788
:101B3C00918B95C306479307100632C49305000397
:101B4C002685631EF7021135930580072685F53B24
:101B5C002246090479161647924682452685153D7C
:101B6C00229515BFAA8702478DB782469307D002EC
:101B7C000144A38FF6FE9307E7FF3EC04DBFF13340
:101B8C0093058005E1B701458280014582801301F0
:101B9C0081FD22D026CE06D22AC4AE82328402C661
:101BAC0081448385020091EDA24789C781453E851A
:101BBC00EFF0BFD9925002542685F24413018102F2
:101BCC008280930750026389F500224516C885046C
:101BDC00EFF0BFD7C24205A0838712001387120013
:101BEC00639DB7002245930550023AC8EFF0FFD52C
:101BFC0042478504BA8285026DB7DDD79306B002E1
:101C0C006389D70463C8F600930630026386D70451
:101C1C00814705A09306D002638AD7009306000380
:101C2C00E398D7FE13872200894721A0138722004F
:101C3C008547830607001306B0026383C60463411D
:101C4C00D60213063002638BC602BA820145A54642
:101C5C0081A0138722006DBF138722009147D1BF4B
:101C6C001306D0026389C60013060003E39FC6FC6B
:101C7C0093E7270031A005078547C1BF93E74700CD
:101C8C000507E1B713162500329506053A9585022E
:101C9C0003860200130706FD9375F70FE3F4B6FEF7
:101CAC001307E0029946631EE60085028146A545AE
:101CBC0003860200130606FD1377F60F63F5E502A3
:101CCC0036C6038702001306A006630DC70A6343DA
:101CDC00E6021306C0046307C70A13068006630CEA
:101CEC00C70881452DA813972600BA968606B2968A
:101CFC0085027DBF130640076306C7081306A007BD
:101D0C006302C7081306C0068145631AC700038621
:101D1C0012008D456314E600850291458502038609
:101D2C000200930300061307100663C4C3001307D5
:101D3C0010049303700663C4C306930350066356E2
:101D4C0076189303700463C1C30493055004635E57
:101D5C00B61613073004E310E6EA18409303440068
:101D6C0016CA230CE1001EC8A30C01000147BE8655
:101D7C002A862C0849A8038612008145E311E6FA4D
:101D8C00890271BF8502B1BF93063006E307D6FC0A
:101D9C0063CFC606930680056303D602A9BD9306DE
:101DAC0030076304D60463CBC6029306F0066305C2
:101DBC00D60E9306000793E74700E31ED6E2914642
:101DCC006392D50C930384000C40504016CA3AC25F
:101DDC003EC01EC8AA870147C14681A8930650077A
:101DEC00630BD6069306800745BF1840B726000044
:101DFC00930344009385862F11C3BA85324716CAC4
:101E0C001EC8BE862A862245EFF0BFB815A09146A3
:101E1C006395D502930384000C40504016CA3AC215
:101E2C003EC01EC8AA870547A9462245EFF0BFD57C
:101E3C00C243AA941E84D2427DBBB2460C4016C843
:101E4C0036C23AC011042A87854629462245EFF04E
:101E5C00BFC2AA9441B39146639DD50093038400FD
:101E6C000C40504016CA3AC23EC01EC8AA87014751
:101E7C0065BFB2460C4016C836C23AC011042A8758
:101E8C008146E1B7B24616C80C40414636C23AC04C
:101E9C0011042A8781465DBF9146639ED50093034A
:101EAC0084000C40504016CA3AC23EC01EC8AA87D5
:101EBC000147A1469DBFB2460C4016C836C23AC077
:101ECC0011042A878146214651B70C401306840021
:101EDC0040403AC22A87224532C83EC02286B68785
:101EEC00A94616CAEFF07FCAAA944244A9B71301B7
:101EFC00C1FD2EC832CAAA851008014506C636CCCB
:101F0C003ACE3ED032C0EFF09FC8B240130141022E
:101F1C008280411122C426C206C61C21AA84014417
:101F2C00DC8183073100050499EFA9479305310043
:101F3C0005460145DC81EFF09F9C2285B24022448E
:101F4C009244410182800546930531000145EFF032
:101F5C001F9BB38784009C23DC81E1B741112AC00D
:101F6C008A850546014506C6EFF07F99B2400545C6
:101F7C00410182804005000056050000600500000C
:101F8C006A050000740500007E050000880500004D
:101F9C00920500009C050000A6050000B00500009D
:101FAC004572726F7220454550524F4D5F7265619C
:101FBC006456617220636F64653A256420000000EA
:101FCC00466C61736820756E6C6F636B2F6C6F63FE
:101FDC006B206661696C656400000000466C61737F
:101FEC0068206572617365206661696C65640000C8
:101FFC00466C617368207772697465206661696CE0
:10200C0065640000466C61736820777269746520A2
:10201C00766572696669636174696F6E2066616961
:10202C006C656400466C617368206F7065726174D6
:10203C00696F6E2074696D656F75740045455052FB
:10204C004F4D206E6F7420696E697469616C697A8A
:10205C00656400005661726961626C6520494420B8
:10206C006E6F7420666F756E6400000043524320DF
:10207C00766572696669636174696F6E2066616901
:10208C006C65640053746F72616765206361706185
:10209C006369747920657863656564656400000024
:1020AC00496E76616C6964207661726961626C65F7
:1020BC0020494400496E76616C69642070617261DC
:1020CC006D65746572000000486172644661756CE0
:1020DC00745F48616E646C65720D00004E4D495F13
:1020EC0048616E646C65720D00000000200E0000EB
:1020FC00280E00004A0F00003A0E0000D00E00001F
:10210C00460F0000D40E0000060F00000A0F00005E
:10211C00460F00004E0F00005E0F0000900F0000F5
:10212C00960F0000C60F0000454550524F4D2044FD
:10213C00656D6F20467265653A2025640A000000C3
:10214C002E5245414420434F4E46494720426F6F23
:10215C00737420456E61626C650000002E5245411F
:10216C004420434F4E46494720426F6F73742054AE
:10217C00696D65002E5245414420434F4E464947F8
:10218C0020506F7765720000436C69636B00000030
:10219C00486F6C640000000052656C6561736548A3
:1021AC006F6C6400537465702025640A0000000095
:1021BC0072656C65617365537465700052656C650E
:1021CC0061736500436C69636B733A2025640A0084
:1021DC0054696D656F757400454550524F4D2069BB
:1021EC00643A25642021204E6F742050726573650B
:1021FC006E7420210A000000454550524F4D20536B
:10220C0061766520636F64653A25640A00000000FE
:10221C00454550524F4D205665726966696361742D
:10222C00696F6E2069643A25642056616C75653A55
:10223C002025640A00000000454550524F4D20698E
:10224C00643A25642056616C75653A25640A000071
:10225C000D0A2D2D2D2D2D2D2D2D2D2D2D2D2D2DE5
:10226C002D2D2D2D2D2D2D2D2D2D2D2D2D2D2D2D92
:10227C002D2D2D2D2D2D2D2D2D000000537973740A
:10228C00656D436C6B3A25640D0A0000434F4E4656
:10229C00494720426F6F737420456E61626C6520F4
:1022AC003A2025640A000000434F4E46494720421D
:1022BC006F6F73742054696D652020203A2025645B
:1022CC00206D730A00000000434F4E4649472050D2
:1022DC006F77657220202020202020203A20256452
:1022EC000A000000476F2E2E2E000000286E756C21
:0422FC006C29000049
:04230000FC0F0000CE
:1023040064000A000102030405060708010203042D
:102314000506070800127A000204060804080C10D7
:10232400081018201020304020406080010203046F
:0C2334000506070801020304050607085F
:00000001FF
