:100000006F10C000000000006C0200007E020000C3
:1000100000000000000000000000000000000000E0
:1000200000000000000000000000000000000000D0
:100030009E020000000000000A1000000000000006
:100040000A1000000A1000000A1000000A10000048
:100050000A1000000A1000000A1000000A10000038
:100060000A1000000A1000000A1000000A10000028
:100070000A1000000A1000000A1000000A10000018
:100080000A1000000A1000000A1000000A10000008
:100090000A1000000A1000000A1000000000000012
:1000A000611122C22000232CA4FE730050107D1584
:0C00B0007DFD010012442101828000004F
:1000BC002A86014593F6150091C232958581060674
:1000CC00F5F9828000000000634E050263C305044D
:1000DC002E86AA857D5515C285466378B600635673
:1000EC00C00006068606E36CB6FE014563E4C50057
:1000FC00918D558D85820582F5FA82808682C93F65
:10010C002E8582823305A04063D70500B305B0402D
:10011C00C1B7B305B0408682653F3305A0408282EB
:10012C00868263C70500634905005D372E85828290
:10013C00B305B040E35B05FE3305A040513F3305EA
:10014C00B04082820000511122C46000232AA4FE18
:10015C00B7F700E0D843B7F700E0799BD8C3832703
:10016C0044FF232CF4FEB7F700E0379798001307F1
:10017C00F76798CBB7F700E023A407000100B7F7A7
:10018C0000E09C47032784FFE37BF7FEB7F700E012
:10019C0023A40700B7F700E01307703E98CB0100CB
:1001AC00224431018280011106CE22CC0010AA8794
:1001BC002E872311F4FEBA872310F4FE835724FEF6
:1001CC0089EF0146894537150140EF10C01C835754
:1001DC0004FE3E85EF20E00E41A0035724FEB747F6
:1001EC000F00BA8513850724E535AA872326F4FE6C
:1001FC008327C4FE85832324F4FE035704FEBA87A9
:10020C009607998F8A07BA978E078325C4FE3E8579
:10021C00C135AA872322F4FE232804FE05A805462F
:10022C00894537150140EF100017032584FE213F47
:10023C000146894537150140EF10E015032584FE72
:10024C001937832704FF85072328F4FE032704FFAF
:10025C00832744FEE365F7FCF2406244056182802B
:10026C00711122C040008D671385C7B2EF20B00614
:10027C00DDBF711122C04000B7E700E03707EFBEC9
:10028C0013070708B8C78D671385C7B3EF20B004F1
:10029C00DDBF711122C04000B707002003A78705FE
:1002AC0083A7C705054581453306A7003283333341
:1002BC00E300B386B700B307D300BE863287B68798
:1002CC00B706002023ACE60423AEF604B7F700E033
:1002DC0023A20700010002441101730020306111B8
:1002EC0022C22000232CA4FE832784FF81460147D1
:1002FC0094C3D8C3832784FF94C7D8C7832784FFAC
:10030C0023880700832784FFA3880700832784FFA3
:10031C0023890700832784FFA38907000100124467
:10032C0021018280611122C22000232CA4FE83278C
:10033C0084FFBC2BFD1793B7170093F7F70F3E857F
:10034C00124421018280611122C22000232CA4FEC0
:10035C00832784FFBC2BF91793B7170093F7F70F7C
:10036C003E85124421018280611122C22000232C7F
:10037C00A4FE832784FFBC2BF11793B7170093F7C8
:10038C00F70F3E85124421018280611122C22000A8
:10039C00232CA4FE832784FFBC2BED1793B71700E7
:1003AC0093F7F70F3E85124421018280611122C21E
:1003BC002000232CA4FE832784FFBC2BE51793B7C6
:1003CC00170093F7F70F3E851244210182806111CB
:1003DC0022C22000232CA4FE832784FFBC2BDD1714
:1003EC0093B7170093F7F70F3E85124421018280D3
:1003FC00611122C22000232CA4FE832784FFBC2B76
:10040C00D91793B7170093F7F70F3E8512442101C4
:10041C008280611122C22000232CA4FE832784FF3A
:10042C00BC2BD11793B7170093F7F70F3E851244E7
:10043C0021018280611122C22000232CA4FE83277B
:10044C0084FFBC2BC91793B7170093F7F70F3E85A2
:10045C00124421018280611122C22000232CA4FEAF
:10046C00832784FFBC3B3E851244210182803111DD
:10047C0006C822C640082328A4FEAE87A307F4FEB4
:10048C00832704FF982B8347F4FE6319F700832717
:10049C0004FF8146014794C7D8C7BDA0832704FF3A
:1004AC008847CC47AA87CD8F91EFB707002083A749
:1004BC0087053E838143832704FF23A4670023A67B
:1004CC00770099A0B707002083A787053E86814651
:1004DC00832704FF8847CC473307A6403A8333333E
:1004EC006600B387B640B3866740B687BE8663485E
:1004FC00D000BE8691EA9307100363F7E700034729
:10050C00F4FE832704FF98AB832704FF9C2BB3379F
:10051C00F00093F7F70FBE85032504FF3920AA8757
:10052C003E85C240324451018280211106CA22C844
:10053C0020082326A4FEAE87A305F4FE8327C4FE61
:10054C00BC2BA309F4FE8327C4FEBC2B394763667E
:10055C00F724139727008D67938747BBBA979C4363
:10056C0082878347B4FE638F07208327C4FE054729
:10057C00B8AB09AC8327C4FE0D47B8AB0325C4FE4A
:10058C009D2C21AC8347B4FE93C7170093F7F70F4C
:10059C0099CF8327C4FE0947B8AB8327C4FEBC3B65
:1005AC00850713F7F70F8327C4FEB8BBF1AA032501
:1005BC00C4FE21242A87AE8785463E866349C00047
:1005CC003E8609E69307703E63E3E700814693F7A6
:1005DC00F60F638B071A8327C4FE1147B8AB0325AC
:1005EC00C4FE112C55A28327C4FE1947B8AB75A2C3
:1005FC008347B4FE93C7170093F7F70F91C7832770
:10060C00C4FE1547B8AB59A20325C4FE7D222A8728
:10061C00AE8785463E866349C0003E8609E6930751
:10062C00F01863E3E700814693F7F60F6380071633
:10063C008327C4FE1D47B8AB0325C4FE6D2AB9A29F
:10064C008327C4FE2147B8AB89AA8347B4FE93C75E
:10065C00170093F7F70F91C78327C4FE2547B8AB54
:10066C0005AA0325C4FE912A2A87AE8785463E86B5
:10067C006349C0003E8609E69307703E63E3E700DA
:10068C00814693F7F60F638507108327C4FE1D4739
:10069C00B8AB8327C4FE9C3B850713F7F70F832762
:1006AC00C4FE98BB0325C4FEB922DDA08327C4FE7B
:1006BC00A38907008327C4FE2947B8ABF9A8832771
:1006CC00C4FEA38807008327C4FEBC3B99C3AD4777
:1006DC0011A0B5470327C4FE3CAB0325C4FE212A59
:1006EC006DA88347B4FE91C78327C4FE0547B8ABFA
:1006FC0055A00325C4FED1202A87AE8785463E86A9
:10070C006349C0003E8609E69307301F63E3E700A8
:10071C00814693F7F60FBDCF8327C4FE3147B8ABA4
:10072C000325C4FEC928BDA08327C4FEA3890700E6
:10073C008327C4FE3547B8AB8DA08347B4FE91C761
:10074C008327C4FE0547B8AB81A80325C4FEB5209A
:10075C002A87AE8785463E866349C0003E8609E6F9
:10076C009307703E63E3E700814693F7F60F8DC75E
:10077C008327C4FE3947B8AB05A08327C4FE238961
:10078C00070021A8010011A8010001A8010031A057
:10079C00010021A0010011A001008327C4FEBC2B85
:1007AC00034734FFB307F740B337F00093F7F70F65
:1007BC003E85D240424461018280611122C22000F8
:1007CC00232CA4FEB707002083A787053E8681460D
:1007DC00832784FF8843CC433307A6403A833333C3
:1007EC006600B387B640B3866740B6873A85BE8548
:1007FC00124421018280611122C22000232CA4FE0C
:10080C00B706002083A6860536878147832684FF9A
:10081C0098C2DCC20100124421018280411106C63B
:10082C0022C400082328A4FE832704FF3E85453CF0
:10083C000100B240224441018280411106C622C40B
:10084C0026C200082328A4FE832404FF032504FFEA
:10085C002128AA87BE8526851939AA873E85B240EC
:10086C002244924441018280411106C622C40008F0
:10087C002328A4FEC14537150140EF00302EAA876E
:10088C0093B7170093F7F70F3E85B240224441010E
:10089C008280111106CC22CA6008232204FE232474
:1008AC0004FE232604FE232804FE85454545EF104F
:1008BC00402B91450945EF00F04FC1472322F4FE30
:1008CC0091472324F4FEC1472326F4FE85472328B1
:1008DC00F4FE930744FE3E85EF00807D0100E2406C
:1008EC00524471018280111106CC22CA6008232265
:1008FC0004FE232404FE232604FE0545EF00D051FC
:10090C00912BEF1050241305401FEF10D028854574
:10091C0013054003EF10E024854537050010EF1058
:10092C00A028FD572312F4FE232604FE930744FE51
:10093C00BE85B717014013850780EF00700E930733
:10094C0044FEBE85B717014013850740EF00500DDC
:10095C00930744FEBE8537150140EF00700C91479C
:10096C002312F4FEC1472326F4FE85472324F4FE0C
:10097C00930744FEBE8537150140EF00700A894786
:10098C002312F4FEC1472326F4FE85472324F4FEEC
:10099C00930744FEBE8537150140EF007008C14730
:1009AC002312F4FE930780042326F4FE85472324A8
:1009BC00F4FE930744FEBE8537150140EF00500648
:1009CC00C93DF16713850720EF109024B70700206D
:1009DC0083A7C701BE858D67138507B5EF20800DF2
:1009EC009529B1472328F4FE832704FFFD8B054787
:1009FC00B316F70037E700E0832704FF958393874E
:100A0C0007048A07BA9794C3B7F700E0D843B7F73F
:100A1C0000E0799BD8C3B7F700E01307703E98CB82
:100A2C00B7F700E023A40700B7F700E02D4798C301
:100A3C0013062003A54513054006292CF94513057B
:100A4C008070EFF04FF61305E047EF109007930519
:100A5C00400613050019EFF00FF51305E047EF10F2
:100A6C005006930580021305004BEFF0CFF31305EE
:100A7C00E047EF101005930530021305004BEFF023
:100A8C008FF29305300213050064EFF0CFF11305DC
:100A9C00E047EF101003930580021305803EEFF042
:100AAC008FF09305800213058057EFF0CFEF93057D
:100ABC00C00313058070EFF00FEF1305E047EF1044
:100ACC0050009305C00313054051EFF0CFED930593
:100ADC00C0031305406AEFF00FED930500051305F5
:100AEC00007DEFF04FECB707002013850706B133FC
:100AFC00B707002013850706EFF0DF82AA8781CFA6
:100B0C008D67138507B6EF10107D05469145371597
:100B1C000140EF005008B707002013850706EFF0DF
:100B2C009F82AA8791C78D67138587B6EF10B07A1D
:100B3C00B707002013850706EFF01F83AA8791C71C
:100B4C008D67138507B7EF101079B7070020138551
:100B5C000706EFF09F83AA8791C78D67138587B728
:100B6C00EF107077B707002013850706EFF01F848E
:100B7C00AA8781CF8D67138547B8EF10D075930581
:100B8C00400613050019EFF00FE2B707002013859C
:100B9C000706EFF0DF83AA8791C78D671385C7B867
:100BAC00EF107073B707002013850706EFF05F8412
:100BBC00AA8781CF8D67138587B9EF10D071014655
:100BCC00914537150140EF00007DB70700201385D4
:100BDC000706EFF01F84AA8791CFB7070020138573
:100BEC000706EFF05F87AA87BE858D67138507BA66
:100BFC00EF10506CB707002013850706EFF09F83AA
:100C0C00AA87E38207EE8D671385C7BAEF10B06C25
:100C1C00D9BD211106CA22C82008232404FE23268C
:100C2C0004FE232804FE85450545EF009073854599
:100C3C00B707300013850740592FFD572314F4FED6
:100C4C00232804FE0545EF00D01E0100D24042448B
:100C5C0061018280130141FC06DC22DA6018AA874C
:100C6C00AE8632872315F4FCB6872314F4FCBA87BE
:100C7C002313F4FC232404FE232604FE232804FE61
:100C8C00232E04FC232004FE231204FE232604FC42
:100C9C00232804FC232A04FC232C04FC85458567AB
:100CAC0013855780EF00F06B91472314F4FEE14756
:100CBC002328F4FE8D472326F4FE930784FEBE857D
:100CCC00B717014013850780A12B8357A4FC231071
:100CDC00F4FE835784FC231EF4FC231104FE231F13
:100CEC0004FC9307C4FDBE85B7370140138507C0CC
:100CFC00EF00F06F930700062316F4FC85472317CB
:100D0C00F4FC91472318F4FC835764FC2319F4FC7E
:100D1C00231A04FC231B04FC9307C4FCBE85B737C1
:100D2C000140138507C0EF00D078A145B7370140CB
:100D3C00138507C0EF1060218545B7370140138537
:100D4C0007C0EF10601B835764FCBE85B7370140AA
:100D5C00138507C0EF10C0248545B73701401385B4
:100D6C0007C0EF1060138545B7370140138507C0E6
:100D7C00EF10800D0100E25052541301C103828028
:100D8C00311106C822C640082328A4FE2326B4FE2F
:100D9C00032704FF8547631DF7000327C4FEC167C3
:100DAC00FD176317F700B707002013850706BD343E
:100DBC000100C240324451018280511106C422C24A
:100DCC006000C1679385F7FF05455D3FA240124463
:100DDC0031018280511106C422C26000B717024053
:100DEC009843B71702401367170098C3B717024010
:100DFC00D443B71702403707FFF8758FD8C3B7171E
:100E0C0002409443B71702403707F7FE7D17758FE2
:100E1C0098C3B71702409443B71702403707FCFF3B
:100E2C007D17758F98C3B7170240D443B71702408C
:100E3C0041777D17758FD8C3B717024037079F00CE
:100E4C0098C74145EF00D031392A0100A240124425
:100E5C0031018280311106C822C64008232804FEC5
:100E6C00232604FEB7170240DC43B18B2328F4FE83
:100E7C00032704FF91476303F702032704FFA147ED
:100E8C006307F702832704FFB9EFB7070020373752
:100E9C006E011307076023AEE700B9A8B70700205F
:100EAC0037376E011307076023AEE700B1A0B71701
:100EBC000240D843C167F98F2326F4FE8327C4FE72
:100ECC0091EBB70700203777DC02130707C023AE7E
:100EDC00E7001DA0B70700203777DC02130707C017
:100EEC0023AEE70011A8B707002037376E011307B0
:100EFC00076023AEE7000100B7170240DC43918383
:100F0C0013F7F700B707002093870702BA979C23C3
:100F1C0093F7F70F2328F4FEB7170240DC4393F73F
:100F2C0007088DE3B707002083A7C701832504FFBB
:100F3C003E85EFF0EF99AA873E87B707002023AED6
:100F4C00E70029A8B707002003A7C701832704FFE0
:100F5C003357F700B707002023AEE7000100C2406B
:100F6C00324451018280511106C422C26000B7176D
:100F7C000240984FB71702401367070298CFB71774
:100F8C000140938707409843B71701409387074068
:100F9C001377F7F098C3B71701409387074098432E
:100FAC00B7170140938707401367070898C3B71713
:100FBC00014093870740094798CB31200100A2409C
:100FCC00124431018280711122C04000B7270240C7
:100FDC009843B7270240719B98C337270240B72725
:100FEC000240184398C3B7170240D843B7170240C2
:100FFC0013670702D8C3010002441101828001A0CB
:10100C00970100209381C184138181FA1305000A92
:10101C0097F5FF1F938545FE17F6FF1F130686FFF6
:10102C0063FAC5008322050023A055001105910524
:10103C00E3EAC5FE172500001305C5BB97F5FF1F96
:10104C00938545FD17F6FF1F1306860063FAC5004E
:10105C008322050023A0550011059105E3EAC5FE86
:10106C0017F5FF1F1305C5FE938581826377B500C5
:10107C00232005001105E36DB5FEB7220000938215
:10108C000288739002308D427390428097F2FFFF7A
:10109C00938282F693E2320073905230EFF09FD33A
:1010AC009702000093826284739012347300203094
:1010BC00511122C46000232AA4FE232C04FEB7077E
:1010CC00014093870740232CF4FE832744FFDC4721
:1010DC0063800712B7070140938707409443832727
:1010EC0044FF9C4313C7F7FFB707014093870740A2
:1010FC00758F98C3B707014093870740D443832764
:10110C0044FF9C4313C7F7FFB70701409387074081
:10111C00758FD8C3832744FFDC43032784FFBA971A
:10112C00232CF4FE832784FF9443832744FF9843A6
:10113C00832784FF558F98C3B707014093870740D7
:10114C009447832744FF9C4313C7F7FFB70701401D
:10115C0093870740758F98C7B7070140938707405F
:10116C00D447832744FF9C4313C7F7FFB7070140BD
:10117C0093870740758FD8C7832744FF9847C1478B
:10118C00631FF702B70701409387074094478327F3
:10119C0044FF9843B707014093870740558F98C782
:1011AC00B707014093870740D447832744FF9843F0
:1011BC00B707014093870740558FD8C7B1A8B70729
:1011CC00014093870740232CF4FE832744FF9C4760
:1011DC00032784FFBA97232CF4FE832784FF9443C0
:1011EC00832744FF9843832784FF558F98C32DA0F2
:1011FC00832744FFDC43032784FFBA97232CF4FE98
:10120C00832784FF9443832744FF9C4313C7F7FF32
:10121C00832784FF758F98C301002244310182809B
:10122C001301C1FD22D040102320A4FE232EB4FCB8
:10123C00232C04FE232604FE232A04FE232404FE6E
:10124C00232804FE232204FE8327C4FD9C47BD8B68
:10125C00232CF4FE8327C4FD9C47C18B89CB8327A9
:10126C00C4FDDC43032784FFD98F232CF4FE832792
:10127C00C4FD9E2393F7F70FE9CF832704FE9C430D
:10128C002328F4FE232A04FE5DA8832744FF054788
:10129C00B317F7002324F4FE8327C4FD9E233E8757
:1012AC00832784FEF98F2326F4FE0327C4FE8327AD
:1012BC0084FE6311F708832744FF8A072324F4FE76
:1012CC00832784FE3D47B317F7002322F4FE8327C0
:1012DC0044FE93C7F7FF032704FFF98F2328F4FE7E
:1012EC00832784FE032784FFB317F700032704FF2B
:1012FC00D98F2328F4FE8327C4FD984793078002D7
:10130C00631BF700832744FF05473317F700832738
:10131C0004FED8CB05A08327C4FD9847930780040F
:10132C00631AF700832744FF05473317F700832719
:10133C0004FE98CB832744FF8507232AF4FE03275A
:10134C0044FF9D47E3F3E7F4832704FE032704FFE0
:10135C0098C301000254130141028280411122C63C
:10136C000008232AA4FEAE872319F4FEA30D04FE65
:10137C00832744FF9847835724FFF98F89C78547F4
:10138C00A30DF4FE19A0A30D04FE8347B4FF3E8504
:10139C00324441018280411122C60008232CA4FE54
:1013AC00AE872328C4FE231BF4FE832704FF99C7B2
:1013BC00035764FF832784FF98CB31A0035764FF46
:1013CC00832784FFD8CB0100324441018280111164
:1013DC0022CC60082324A4FE2322B4FE232A04FE7C
:1013EC00232804FE232C04FE232604FEB707014009
:1013FC00DC43232CF4FE832784FEC183BD8B232680
:10140C00F4FE032784FEC167FD17F98F232AF4FE2F
:10141C00032784FEB7070010F98FA1C3032784FFAD
:10142C00B707C0FFF517F98F232CF4FE032784FFB1
:10143C00B7070007D98F232CF4FE832744FE638261
:10144C000716032784FEB70700F0FD17F98F032753
:10145C0084FFD98F232CF4FEA9A2832784FE63D2A8
:10146C000704032784FFB707E0FFED17F98F232C40
:10147C00F4FE032784FFB7070007D98F232CF4FE53
:10148C00832744FE638F0710032784FEB707008071
:10149C0093C7F7FFF98F032784FFD98F232CF4FE12
:1014AC0009A2032784FEB70730007D8FB7073000F1
:1014BC006315F704032784FFB70700F9FD17F98FAD
:1014CC00232CF4FEB7070140D443B707014037077C
:1014DC0000F97D17758FD8C3832744FEF9C3832782
:1014EC0084FED5839207032744FFB317F700032725
:1014FC0084FFD98F232CF4FE6DA0032784FEB7073D
:10150C001000F98FA9CB8327C4FE0D47B317F70042
:10151C002328F4FE832704FF93C7F7FF032784FFD8
:10152C00F98F232CF4FE032784FFB7070007D98F0C
:10153C00232CF4FE832744FEADC7832784FED5837A
:10154C009207032744FFB317F700032784FFD98FB3
:10155C00232CF4FEB9A0832784FED583920703279E
:10156C0044FFB317F70093C7F7FF032784FFF98FE6
:10157C00232CF4FE032784FFB7070007D98F232CF5
:10158C00F4FE832744FE91CF832784FED5839207F4
:10159C00032744FFB317F700032784FFD98F232CAD
:1015AC00F4FEB7070140032784FFD8C3010062444F
:1015BC0071018280511122C46000AA872E87A30B6F
:1015CC00F4FEBA87230BF4FE232C04FE834764FF3E
:1015DC0086070D47B317F700232CF4FEB70701401D
:1015EC009447832784FF13C7F7FFB7070140758F14
:1015FC0098C7B70701409847834674FF834764FF39
:10160C008607B397F600BE86B7070140558F98C77B
:10161C000100224431018280611122C22000232C5E
:10162C00A4FE032784FF23A0E182010012442101C0
:10163C008280011106CE22CC0010AA87A301F4FEF1
:10164C00B77700409843B7770040759B98C3B7773E
:10165C0000409843B77700401367270098C337E7DB
:10166C0000E08567BA9783A707D1B7E600E013E7D8
:10167C0047008567B69723A8E7D0034734FE854714
:10168C006310F716232804FE37E700E08567BA9746
:10169C0083A707D1918B9DCF9307800873B0073038
:1016AC000F100000B7070140938747409C43232845
:1016BC00F4FEB7070140938707409443B7070140F6
:1016CC00938747409843B707014093874740558F0E
:1016DC0098C32DA037E700E08567BA9783A707D199
:1016EC00B7E600E013E707018567B69723A8E7D0B4
:1016FC009307800873B007300F10000037E700E045
:10170C008567BA9783A707D12326F4FE37E700E055
:10171C008567BA9783A707D1B7E600E013E787027E
:10172C008567B69723A8E7D037E700E08567BA97B7
:10173C0083A707D113F7F7FD8327C4FE93F707029E
:10174C00B7E600E05D8F8567B69723A8E7D037E74B
:10175C0000E08567BA9783A707D1B7E600E013E7E7
:10176C0087008567B69723A8E7D04D4597F0FF1FF4
:10177C00E780808837E700E08567BA9783A707D1B1
:10178C00B7E600E013E787008567B69723A8E7D094
:10179C004D4597F0FF1FE780208637E700E085670F
:1017AC00BA9783A707D1918B89CBB7070140938751
:1017BC004740032704FF98C339A837E700E0856743
:1017CC00BA9783A707D1B7E600E013F7F7FE856752
:1017DC00B69723A8E7D09307800873A00730B1AA67
:1017EC00232404FE37E700E08567BA9783A707D167
:1017FC00918B9DCF9307800873B007300F100000BA
:10180C00B7070140938747409C432324F4FEB70756
:10181C000140938707409443B707014093874740A3
:10182C009843B707014093874740558F98C32DA025
:10183C0037E700E08567BA9783A707D1B7E600E0E2
:10184C0013E707018567B69723A8E7D093078008AD
:10185C0073B007300F10000037E700E08567BA97C8
:10186C0083A707D12322F4FE37E700E08567BA97F8
:10187C0083A707D1B7E600E013E787028567B69721
:10188C0023A8E7D037E700E08567BA9783A707D18D
:10189C0013F7F7FD832744FE93F70702B7E600E042
:1018AC005D8F8567B69723A8E7D037E700E085679B
:1018BC00BA9783A707D1B7E600E013E787008567DF
:1018CC00B69723A8E7D04D4597E0FF1FE780C0727D
:1018DC0037E700E08567BA9783A707D1B7E600E042
:1018EC0013E787008567B69723A8E7D04D4597E0A7
:1018FC00FF1FE780607037E700E08567BA9783A722
:10190C0007D1918B89CBB7070140938747400327B9
:10191C0084FE98C339A837E700E08567BA9783A798
:10192C0007D1B7E600E013F7F7FE8567B69723A853
:10193C00E7D09307800873A0073037E700E085678E
:10194C00BA9783A707D1B7E600E013F7B7FF85670F
:10195C00B69723A8E7D00100F2406244056182806B
:10196C00511122C46000AA87A30BF4FE232C04FEA1
:10197C00B71702409C43232CF4FE832784FF93F774
:10198C0077F0232CF4FE834774FF8E07032784FF24
:10199C00D98F232CF4FEB7170240032784FF98C37A
:1019AC000100224431018280111106CC22CA600848
:1019BC002322A4FE232804FE232604FE232404FE53
:1019CC00B7170240DC43B18B2328F4FE032704FF36
:1019DC0091476302F702032704FFA1476305F7024F
:1019EC00832704FFB9EB832744FE37376E011307B7
:1019FC00076098C399A8832744FE37376E011307F5
:101A0C00076098C399A0B7170240D843C167F98FF4
:101A1C002326F4FE8327C4FE89EB832744FE377705
:101A2C00DC02130707C098C30DA0832744FE377749
:101A3C00DC02130707C098C309A8832744FE373775
:101A4C006E011307076098C30100B7170240DC430F
:101A5C0093F7070F2328F4FE832704FF9183232891
:101A6C00F4FEB707002013870703832704FFBA97F8
:101A7C009C2393F7F70F2324F4FEB7170240DC43A3
:101A8C0093F7070899EF832744FE9C43832584FE34
:101A9C003E85EFE0EFE3AA873E87832744FED8C359
:101AAC0019A8832744FE9843832784FE3357F700F5
:101ABC00832744FED8C3832744FED843832744FEA0
:101ACC0098C7832744FED843832744FED8C7B7174B
:101ADC000240D843C16793870780F98F2328F4FE0F
:101AEC00832704FFAD832328F4FE832704FF8D8313
:101AFC0013F73700832704FF8A07F18BD98F23282C
:101B0C00F4FE832704FF13F737018D4763F8E700D2
:101B1C00832704FFD1172328F4FE31A0832704FF69
:101B2C008D8B2328F4FEB707002013870704832727
:101B3C0004FFBA979C2393F7F70F2324F4FE832713
:101B4C0044FEDC47832584FE3E85EFE06FD8AA87F0
:101B5C003E87832744FE98CB0100E240524471013A
:101B6C008280511122C46000232CA4FE232AB4FECF
:101B7C00832744FF99CBB7170240944FB717024005
:101B8C00032784FF558F98CF21A8B7170240944F95
:101B9C00832784FF13C7F7FFB7170240758F98CFC1
:101BAC000100224431018280511122C46000232C97
:101BBC00A4FE232AB4FE832744FF99CBB717024017
:101BCC00D44FB7170240032784FF558FD8CF21A8D5
:101BDC00B7170240D44F832784FF13C7F7FFB717FB
:101BEC000240758FD8CF010022443101828041110F
:101BFC0022C60008232AA4FE2328B4FE231D04FEBB
:101C0C00832744FF9E23231DF4FE032744FFB7378D
:101C1C000140938707C06308F700032744FFB70709
:101C2C0000406310F7028357A4FF93F7F7F8231DC6
:101C3C00F4FE832704FFBA238357A4FFD98F231DF7
:101C4C00F4FE8357A4FF93F7F7CF231DF4FE8327ED
:101C5C0004FFFA238357A4FFD98F231DF4FE832797
:101C6C0044FF0357A4FF9AA3832704FFDA23832797
:101C7C0044FFDAB7832704FF9A23832744FF9AB7DC
:101C8C00032744FFB7370140938707C0631BF70056
:101C9C00832704FF9C27139707014183832744FF65
:101CAC009ABB832744FF0547DAAB0100324441015C
:101CBC008280311122C840082328A4FE2326B4FEBA
:101CCC00231B04FE231D04FE231C04FE832704FF98
:101CDC009E33C207C183BD9B1397070141838327A2
:101CEC0004FF9AB3832704FF9E33231DF4FE83273E
:101CFC0004FFDE23231CF4FE832704FF9E2F231BEB
:101D0C00F4FE035764FFE577FD17F98F231BF4FEF0
:101D1C00835764FF93F7F7CF231BF4FE8327C4FE8E
:101D2C009E23A207139707014183835764FFD98F22
:101D3C00231BF4FE8357A4FF93F7F7FD231DF4FE3A
:101D4C008327C4FE9E27920713970701418383576D
:101D5C00A4FFD98F231DF4FE8327C4FEBE23920754
:101D6C001397070141838357A4FFD98F231DF4FEDA
:101D7C00032704FFB7370140938707C0631CF7089C
:101D8C008357A4FF93F7F7F7231DF4FE8327C4FEB4
:101D9C00BE2792071397070141838357A4FFD98F5E
:101DAC00231DF4FE8357A4FF93F7F7FB231DF4FECA
:101DBC008327C4FEDE2392071397070141838357C1
:101DCC00A4FFD98F231DF4FE835784FF93F7F7BF2D
:101DDC00231CF4FE035784FFFD779387F77FF98F5D
:101DEC00231CF4FE8327C4FEDE278A071397070102
:101DFC004183835784FFD98F231CF4FE8327C4FEB1
:101E0C00FE278A07139707014183835784FFD98FD5
:101E1C00231CF4FE832704FF035784FFDAA38327D4
:101E2C0004FF035764FF9AAF8327C4FEFE233E874B
:101E3C00832704FF98DF832704FF0357A4FF9AB37B
:101E4C000100424451018280511122C46000232CB4
:101E5C00A4FE232AB4FE832744FF99CF832784FF53
:101E6C009E23C207C18393E7170013970701418391
:101E7C00832784FF9AA329A8832784FF9E23C20764
:101E8C00C183F99B139707014183832784FF9AA38E
:101E9C000100224431018280511122C46000232CA4
:101EAC00A4FE232AB4FE832744FF95C3832784FF13
:101EBC0083D74704139707014183E177D98F139791
:101ECC0007014183832784FF2392E70415A083270E
:101EDC0084FF83D74704139707014183A167FD173C
:101EEC00F98F139707014183832784FF2392E7041B
:101EFC000100224431018280511122C46000232C44
:101F0C00A4FE232AB4FE832744FF99CF832784FFA2
:101F1C009E23C207C18393E70708139707014183E8
:101F2C00832784FF9AA331A8832784FF9E23C207AB
:101F3C00C18393F7F7F7139707014183832784FF36
:101F4C009AA30100224431018280411122C600086B
:101F5C00232AA4FEAE872319F4FE231D04FE832737
:101F6C0044FF9E2F231DF4FE0357A4FFFD77938798
:101F7C00F77FF98F231DF4FE835724FFA2071397D5
:101F8C00070141838357A4FFD98F231DF4FE8327B8
:101F9C0044FF0357A4FF9AAF0100324441018280F1
:101FAC00511122C46000232CA4FEAE87231BF4FE27
:101FBC00035764FF832784FF98DF0100224431011B
:101FCC008280130141FC06DC22DA60182324A4FC75
:101FDC002322B4FC232804FE232604FE232404FE1F
:101FEC00232204FE232004FE832784FC2320F4FEFA
:101FFC00832784FC9E2BC207C1832328F4FE03276E
:10200C0004FFB567FD17F98F2328F4FE832744FCE2
:10201C00FE233E87832704FFD98F2328F4FE8327D2
:10202C0004FF139707014183832784FC9AAB832712
:10203C0084FCDE27C207C1832328F4FE032704FF98
:10204C00BD679387379FF98F2328F4FE832744FCC1
:10205C00DA23832744FC9E27D98F139707014183EA
:10206C00832744FCBE27D98FC207C1833E878327B1
:10207C0004FFD98F2328F4FE832704FF139707014D
:10208C004183832784FCDAA7832784FCDE2BC207D9
:10209C00C1832328F4FE032704FFC1679387F7CF7E
:1020AC00F98F2328F4FE832744FCDE273E87832701
:1020BC0004FFD98F2328F4FE832704FF139707010D
:1020CC004183832784FCDAAB9307C4FC3E85EFF095
:1020DC00BF8D032704FEB747014093870780631722
:1020EC00F700832784FD2326F4FE29A0832744FDD3
:1020FC002326F4FE832784FCDE27C207C183C20794
:10210C00C18763D507020327C4FEBA878607BA972F
:10211C008E073E97832744FC9C438607BE853A85F1
:10212C00EFD01FFBAA872324F4FE1DA00327C4FEB7
:10213C00BA878607BA978E073E97832744FC9C4341
:10214C008A07BE853A85EFD0BFF8AA872324F4FE10
:10215C00832784FE930540063E85EFD07FF7AA8740
:10216C0092072328F4FE832704FF13D74700BA876E
:10217C008607BA978E07BA978A073E87832784FE0D
:10218C00998F2322F4FE832784FCDE27C207C183A8
:10219C00C207C18763D40702832744FE8E07938747
:1021AC002703930540063E85EFD09FF2AA879D8BAF
:1021BC00032704FFD98F2328F4FE15A0832744FEA0
:1021CC00920793872703930540063E85EFD05FF077
:1021DC00AA87BD8B032704FFD98F2328F4FE8327FE
:1021EC0004FF139707014183832784FC9AA70100FE
:1021FC00E25052541301C1038280511122C4600079
:10220C00232CA4FE232AB4FE832744FF85C38327F3
:10221C0084FFDE271397070141838967D98F1397B2
:10222C0007014183832784FFDAA705A0832784FF56
:10223C00DE27139707014183F977FD17F98F139761
:10224C0007014183832784FFDAA70100224431016F
:10225C008280511122C46000232CA4FEAE87231B64
:10226C00F4FE835764FF93F7F71F1397070141831D
:10227C00832784FFDAA301002244310182804111BB
:10228C0022C60008232AA4FEAE872319F4FE232CB1
:10229C0004FE832744FF9E23139707014183835732
:1022AC0024FFF98FC207C18389C78547232CF4FE0D
:1022BC0019A0232C04FE832784FF3E853244410160
:1022CC008280111122CC60082326A4FE9307C4FF40
:1022DC00D1179D078D8393953700B707002083A7EF
:1022EC0087059CC123A205000100B707002083A726
:1022FC0087052322F4FE232404FE8327C4FE3E8696
:10230C00FD87BE8603A3050083A345003307660043
:10231C003A853335C500B38776003E95AA870323EB
:10232C0084FE3E85636D6500032384FE3E85E31EBB
:10233C00A3FA032544FEBA8763E3A7007DB7010027
:10234C00624471018280511106C422C26000B70739
:10235C00002003A7C701B7177A00938507203A8599
:10236C00EFD01FD7AA8713F7F70F2382E18283C719
:10237C004182C207C1833E8716071D8F0A07BA9791
:10238C008E071397070141832393E1820100A2403A
:10239C00124431018280311106C822C6400823261E
:1023AC00A4FEB7F700E0D843B7F700E0799BD8C399
:1023BC0083D76182BE850325C4FEEFD07FCFAA8769
:1023CC002328F4FEB7F700E0032704FF98CBB7F7F8
:1023DC0000E023A40700B7F700E09843B7F700E04C
:1023EC001367170098C30100B7F700E0DC4313F73D
:1023FC0017008547E31AF7FEB7F700E09843B7F7E5
:10240C0000E0799B98C30100C240324451018280A4
:10241C00130141FD06D422D26010232AA4FC854569
:10242C00916713851702EFF0CFF3854537052080B0
:10243C00EFE0FFF9930700042314F4FE8D472326E5
:10244C00F4FEE1472328F4FE930784FEBE85B717FC
:10245C00014013850740EFE0BFDC832744FD232CAC
:10246C00F4FC231E04FC231F04FC231004FE231283
:10247C0004FEA1472311F4FE930784FDBE85B747E4
:10248C00014013850780353E8545B74701401385CC
:10249C000780A5330100A25012541301C10282809F
:1024AC00011106CE22CC00102324A4FE2322B4FE5C
:1024BC002320C4FE232804FE832704FE2326F4FED7
:1024CC00232804FE81A0010093050004B7470140B6
:1024DC00138507806D33AA87E5DB832744FE1387BA
:1024EC0017002322E4FE83870700C207C183BE8541
:1024FC00B747014013850780A93B832704FF850755
:10250C002328F4FE032704FF832704FEE34DF7FA88
:10251C008327C4FE3E85F2406244056182804111EE
:10252C0006C62EC00DCD1841AA8705C358417D554E
:10253C0011CB8546631BD70098472300070023A2C5
:10254C0007000545B240410182809847824614A39A
:10255C009847050798C7D8437D17D8C3DDB70546FC
:10256C008A853D3FF9BF011122CC2EC206CE26CA68
:10257C002A84814793050002634506029245BE9565
:10258C00838505008DE563D8C70263D4E702198EF5
:10259C001305000293F526002AC089C501E79305AF
:1025AC0000032EC0858A814495EAB2840DA085076C
:1025BC00F1B71D8EF1BF0146E1BF824522853AC8B5
:1025CC0032C63EC4A93FA24732464247FD14E346F9
:1025DC0090FEB284635306008144058E63C7E70204
:1025EC00A68792463387974036978305070095ED6B
:1025FC00B28463449004635306000146F240624483
:10260C00D2443305F600056182801D8FBA8793058D
:10261C000003228532C83EC63AC41137B24722475E
:10262C004246FD17EDF7BA9465BF228532C63EC40B
:10263C00FD35A247324685076DB78245228532C4E7
:10264C003EC2F13DFD142246924765B7397106DE54
:10265C0022DC26DA3EC232833A8689ED9246930713
:10266C00000301476C08FC86FD3DF2506254D254C5
:10267C0021618280AA843684AE8791CA294701449D
:10268C006317E30063D50500B307B04005448646E5
:10269C00A309010213073103938666FC36C49A859D
:1026AC003E8532CA3AC81AC63EC0EFD03FA5A546F1
:1026BC00824732434247524663D4A600A24636951F
:1026CC00130505039306F7FFA30FA7FE9A853E8516
:1026DC0032CC3ACA1AC83EC636C0EFD07F9FB2473A
:1026EC0042435247624663F9670401CC29CA9247B8
:1026FC00898BB1C79305D002268532C40D3522468D
:10270C007D169247918B95C306479307100632C4EA
:10271C00930500032685631EF70211359305800788
:10272C002685F53B224609047916164792468245C2
:10273C002685153D229515BFAA8702478DB782467F
:10274C009307D0020144A38FF6FE9307E7FF3EC028
:10275C004DBFF13393058005E1B7014582800145FA
:10276C008280130181FD22D026CE06D22AC4AE82ED
:10277C00328402C681448385020089EDA24781C759
:10278C0081453E85693B925002542685F2441301E3
:10279C0081028280930750026388F500224516C897
:1027AC008504B53BC24239A88387120013871200F7
:1027BC00639CB7002245930550023AC88D334247BB
:1027CC008504BA82850245BFD5DB9306B0026389C6
:1027DC00D70463C8F600930630026386D70481479A
:1027EC0005A09306D002638AD70093060003E398F2
:1027FC00D7FE13872200894721A013872200854723
:10280C00830607001306B0026383C6046341D60235
:10281C0013063002638BC602BA820145A54681A01D
:10282C00138722006DBF138722009147D1BF130677
:10283C00D0026389C60013060003E39FC6FC93E72E
:10284C00270031A005078547C1BF93E7470005075F
:10285C00E1B713162500329506053A9585020386D5
:10286C000200130706FD9375F70FE3F4B6FE13078A
:10287C00E0029946631EE60085028146A545038663
:10288C000200130606FD1377F60F63F5E50236C654
:10289C00038702001306A006630DC70A6343E60212
:1028AC001306C0046307C70A13068006630CC70827
:1028BC0081452DA813972600BA968606B2968502F6
:1028CC007DBF130640076306C7081306A007630203
:1028DC00C7081306C0068145631AC7000386120099
:1028EC008D456314E600850291458502038602003E
:1028FC00930300061307100663C4C30013071004E8
:10290C009303700663C4C30693035006635376188F
:10291C009303700463C1C30493055004635BB61640
:10292C0013073004E310E6EA18409303440016CA78
:10293C00230CE1001EC8A30C01000147BE862A86A9
:10294C002C0849A8038612008145E311E6FA890296
:10295C0071BF8502B1BF93063006E307D6FC63CE88
:10296C00C606930680056303D602A9BD93063007FD
:10297C006304D60463CBC6029306F0066302D60E3C
:10298C009306000793E74700E31ED6E29146639F48
:10299C00D50A930384000C40504016CA3AC23EC07C
:1029AC001EC8AA870147C146B9A093065007630801
:1029BC00D6069306800745BF1840B7360000930330
:1029CC004400938506BF11C3BA85324716CA1EC888
:1029DC00BE862A862245413E0DA091466394D502BF
:1029EC00930384000C40504016CA3AC23EC01EC825
:1029FC00AA870547A94622458D33C243AA941E8453
:102A0C00D242C9B3B2460C4016C836C23AC0110401
:102A1C002A878546294622451539AA9461B39146E1
:102A2C00639DD500930384000C40504016CA3AC2F3
:102A3C003EC01EC8AA87014775BFB2460C4016C8D7
:102A4C0036C23AC011042A878146E9B7B24616C885
:102A5C000C40414636C23AC011042A87814665BFF4
:102A6C009146639ED500930384000C40504016CAD7
:102A7C003AC23EC01EC8AA870147A146ADBFB246A6
:102A8C000C4016C836C23AC011042A87814621462A
:102A9C0059B70C401306840040403AC22A8722459D
:102AAC0032C83EC02286B687A94616CA4D39AA94AA
:102ABC004244B9B71301C1FD2EC832CAAA85100809
:102ACC00014506C636CC3ACE3ED032C05939B2405A
:102ADC00130141028280411122C426C206C61C2168
:102AEC00AA840144DC8183073100050499EFA947CE
:102AFC009305310005460145DC81EFF07F9A228574
:102B0C00B240224492444101828005469305310033
:102B1C000145EFF0FF98B38784009C23DC81E1B77B
:102B2C004E4D495F48616E646C65720D000000008B
:102B3C00486172644661756C745F48616E646C6563
:102B4C00720D000053797374656D436C6B3A256498
:102B5C000D0A00005072657373000000436C6963CA
:102B6C006B000000486F6C640000000052656C65DF
:102B7C00617365486F6C64005374657000000000ED
:102B8C0072656C65617365537465700052656C6534
:102B9C0061736500436C69636B733A2025640A00AA
:102BAC0054696D656F7574006E050000800500003A
:102BBC00C006000090050000F2050000B8060000F9
:102BCC00FC0500004C06000056060000B80600008C
:102BDC00CA060000EE06000034070000460700009D
:0C2BEC0086070000286E756C6C29000044
:042BF800C60D000006
:102BFC0000127A000102030405060708010203040F
:102C0C000506070801020304050607080102030470
:102C1C00050607080204060804080C100810182002
:0C2C2C00102030402040608000000000BC
:00000001FF
